:020000040800F2
:10000000B80800202D020008310200083302000861
:10001000350200083702000839020008000000001D
:100020000000000000000000000000003B0200088B
:100030003D020008000000003F02000841020008E5
:10004000430200084302000843020008430200087C
:100050004302000843020008190700084302000891
:10006000430200084302000843020008430200085C
:10007000430200084302000843020008430200084C
:10008000430200084302000843020008430200083C
:100090004302000843020008430200082108000848
:1000A000430200084302000843020008430200081C
:1000B000BD590008755A0008095B00084302000892
:1000C00043020008430200084302000843020008FC
:1000D00043020008955B0008430200084302000841
:1000E00069070008430200084302000843020008B1
:1000F00043020008430200084302000843020008CC
:1001000043020008430200084302000843020008BB
:1001100043020008430200084302000843020008AB
:10012000430200084302000843020008430200089B
:1001300000F002F800F06BF80AA090E8000C82448E
:100140008344AAF10107DA4501D100F060F8AFF26B
:10015000090EBAE80F0013F0010F18BFFB1A43F0A5
:100160000103184738900000589000000A444FF0EF
:10017000000C10F8013B13F0070408BF10F8014B06
:100180001D1108BF10F8015B641E05D010F8016B4B
:10019000641E01F8016BF9D113F0080F1EBF10F8AF
:1001A000014BAD1C0C1B09D16D1E58BF01F801CBD2
:1001B000FAD505E014F8016B01F8016B6D1EF9D555
:1001C0009142D6D37047000000230024002500266A
:1001D000103A28BF78C1FBD8520728BF30C148BFAA
:1001E0000B607047642900F09B80752900F09880AF
:1001F000782900F0CF80632900F02382732900F072
:100200002882002070471FB51FBD10B510BD00F03B
:1002100053FA1146FFF7F7FF05F0F4FD00F071FA0D
:1002200003B4FFF7F2FF03BC05F0FDFC08480047EC
:10023000FEE7FEE7FEE7FEE7FEE7FEE7FEE7FEE796
:10024000FEE7FEE703480449044A054B70470000F7
:1002500031010008B8020020B8080020B8040020CE
:10026000B8040020704700000FB4044910B503AA79
:10027000029800F0F3F910BC5DF814FB04000020B4
:1002800070B5044685690068C10601D5302600E0D6
:100290002026C00707D070BDD4E901213046904721
:1002A000206A401C20626D1EF6D570BD70B50446F4
:1002B00085690078C00707D170BDD4E901212020ED
:1002C0009047206A401C20626D1EF6D570BD70B547
:1002D0000C460546012A05D02878800600D5EA6933
:1002E000002302E0012305E05B1C934202D2E05CA4
:1002F0000028F9D1A869E618C01AA861286A18442C
:1003000028622846FFF7BCFF04E0D5E9012114F874
:10031000010B9047B442F8D32846FFF7C7FF70BDE2
:100320002DE9F0410646002410687529314615A5CF
:1003300010D0AFF30080002802DA404212A507E097
:1003400031688A0701D511A502E0490704D510A537
:10035000012401E0AFF3008000210A2306F1240705
:1003600007E0B0FBF3F203FB120030307854104684
:10037000491C0028F5D123462A463046BDE8F04105
:1003800000F0FCB8000000002D0000002B00000071
:100390002000000070B504460D4621461068AFF3FA
:1003A00000802188090502D50F4A7A4402E00E4AEE
:1003B0007A440E32002104F1240305E000F00F0618
:1003C0000009965D5E54491C0028F7D1207800236F
:1003D000000704D5702D02D009B102231132204646
:1003E000BDE8704000F0CAB8328C00002DE9F05F23
:1003F000894604464FF0000ADFF874B1FB44C0F8A8
:1004000020A02046E1688847002874D0252806D01F
:10041000D4E901219047206A401C2062F1E70026C0
:100420005F462046E16888472028054607DB312DD6
:1004300005D2781910F8200C08B10643F1E7B0078F
:1004400001D526F00406C4F81CA00027C4F818A0A3
:100450002A2D09D0284605F0DFFB38B304EB8708C6
:10046000303DC8F8185019E059F8041B204604EB39
:1004700087029161E1688847012F054618D1E0693C
:10048000002820DA26F020061DE0D8F8180000EB3E
:10049000800005EB40003038C8F818002046E168BD
:1004A0008847054605F0B8FB0028EED1012F0AD099
:1004B0002E2D08D12046E16888477F1C0546022F73
:1004C00046F02006C4DBA069002803DA404246F06B
:1004D0000106A061F00701D026F010066C2D0BD0AC
:1004E000682D09D04C2D39D06A2D35D0742D35D0DA
:1004F0007A2D33D016E038E0E1682F462046884751
:10050000B842054609D16C2F26D04FF48060E168CF
:10051000064320468847054604E06C2F1AD04FF466
:10052000807006430DB3A5F14100192802D820358B
:1005300046F400664A462946204626604E46FFF7A6
:1005400051FE80B101280BD0F61D26F0070000F106
:10055000080956E74020E4E78020D8E70020D6E7E6
:1005600006F104094DE7284652E7206ABDE8F09FEE
:10057000088C000070477047704770472DE9F047BE
:100580000D4699469246044600F124080168880603
:1005900004D5E06921F01001216000E00120A842AB
:1005A00001DD471B00E00027A1697A1902EB090071
:1005B000081AA0612078C00602D42046FFF760FE2A
:1005C000002608E0D4E901211AF806009047206AC5
:1005D000401C761C20624E45F4DB2078C0060AD50C
:1005E0002046FFF74DFE06E0D4E901213020904778
:1005F000206A401C2062381EA7F10107F4DC07E0E6
:10060000D4E9012118F805009047206A401C2062B7
:10061000281EA5F10105F3DC2046FFF747FE2078F0
:10062000000602D50220BDE8F0870120FBE710B5E7
:10063000436913B1AFF3008001E0FFF748FE0120EA
:1006400010BD127800F124010A7000224A700122C4
:10065000EDE711684FF0FF32E9E70000074B70B596
:100660000D467B4400F011F80446284600F020F8BF
:1006700010B14FF0FF3070BD204670BD83570000B1
:1006800001694A1C02610878704700B58FB0CDE956
:1006900001310021059105497944CDE90310114646
:1006A0006846FFF7A3FE0FB000BD0000E5FFFFFFA7
:1006B000007B00F080007047754600F029F8AE46D8
:1006C00005006946534620F00700854618B020B55E
:1006D000FFF7B8FDBDE820404FF000064FF00007DF
:1006E0004FF000084FF0000B21F00701AC46ACE8DA
:1006F000C009ACE8C009ACE8C009ACE8C0098D4647
:1007000070470446AFF300802046FFF789FD0000E4
:10071000004870475402002010B50A2005F028FB5D
:100720000D480068012812D10B48A030006808B9B4
:10073000012000E000200849A03108600748D0F8F7
:10074000880108B9012000E0002005490860012067
:100750000449086010BD00000001214200802242CF
:1007600088812242140401401248006800F40040CD
:10077000D0B111480078022816DA0F48007850B935
:1007800000200E49086001200D49C1F880010B4985
:100790003031086003E00020084930310860064825
:1007A0000078401C044908704FF40040014908607B
:1007B00070470000140401400E0000208001214217
:1007C0000000214210B51448806940F0040012492D
:1007D0008861012000F08EF81048006820F0704019
:1007E0000E4908600846006840F0004008600B4869
:1007F0000830006840F400400849083108600122D0
:100800000F21002000F026F802232822012118469B
:1008100004F044FD10BD0000001002400408014037
:1008200010B50A2005F0A4FA0748006838B907484F
:10083000006808B9012000E0002004490860202079
:100840000349086010BD000014012242A0012142AA
:100850001404014070B504460B46CE1701EB9676A2
:10086000C6F38700CE1701EB9676B610A1EB86068D
:10087000B606350E1C4B9B6943F001031A4EB3615B
:100880004FEAB63353F820300F26AE40B343174E2D
:1008900046F82030334653F8203004FA05F61E435C
:1008A000124B43F82060124B1B6801268E403343E5
:1008B0000F4E336002F0010343B10D4B0C331B6844
:1008C00001268E4033430A4E0C36336002F0020399
:1008D00043B1074B08331E6801238B401E43044B72
:1008E00008331E6070BD0000001002400800014087
:1008F0000004014001464906084A926942F001029B
:10090000064B9A61064A526822F0E062044B5A6034
:100910001A4652680A435A607047000000100240AD
:100920000000014070B5044600261D480588408837
:1009300045431B48808846F60401884216D1184872
:100940008079012812D10020154988712A20488118
:100950002B2088810021084604F016FA0120104956
:1009600088712B2048812A20888103E000210846D5
:1009700004F00AFA04F006FC00260DE04FF4807043
:1009800008490861400048610748046080204861C8
:10099000086180000861761CAE42EFD370BD000094
:1009A00044020020001001400C0C014010B5044628
:1009B000002C60D166498871F02008804FF4A07047
:1009C00048800846808849F2413188420BD060480F
:1009D000808846F60401884205D05D48808845F24B
:1009E000103188421AD12C20594908812A20488187
:1009F0002B2088810846808846F60401884205D06D
:100A00005348808845F21031884206D14FF4A070D7
:100A10004F4908804FF4F070488095E04C4880883A
:100A200048F68911884207D12220494908814E2081
:100A300048814F20888187E04548808845F21051E1
:100A4000884210D14FF43050414908814FF428506A
:100A500048814FF42C5088814FF4F07008804FF497
:100A60004870488070E02220394908812020488160
:100A70002120888168E00120354988714FF4A070F9
:100A80000880F02048800846808849F24131884239
:100A900005D02F48808845F21031884207D12C209C
:100AA0002B4908812A2048812B20888139E0284859
:100AB000808846F60401884207D12C202449088109
:100AC0002B2048812A2088812BE02148808848F605
:100AD0008911884207D122201D4908814F20488171
:100AE0004E2088811DE01A48808845F210518842C6
:100AF00010D14FF43050164908814FF428504881E6
:100B00004FF42C5088814FF4487008804FF4F070F7
:100B1000488006E022200E490881212048812020BB
:100B200088810B48808846F60401884205D0084831
:100B3000808845F21031884206D14FF4F0700449A4
:100B400008804FF4A0704880002003F001FF10BD22
:100B50004402002070B504460D4616469148808830
:100B600049F24131884205D08E48808845F21031E3
:100B7000884240D18B49488904F0F2FA4FF48070E2
:100B80008949086140004861201288490860802036
:100B90008549486108618000086140100861400093
:100BA0004861E0B28149086080207F49486108615E
:100BB000800008617B49888904F0D2FA4FF4807084
:100BC000794908614000486128127849086080200E
:100BD0007549486108618000086140100861400063
:100BE0004861E8B27149086080206F494861086136
:100BF00080000861B9E06B48808845F21051884256
:100C000050D16849488904F0ABFA4FF480706649C6
:100C100008614000486120126449086080206249F0
:100C200048610861800008615E494989491C88B2B1
:100C300004F096FA4FF480705B4908614000486107
:100C4000E0B25A4908608020574948610861800035
:100C500008615449888904F083FA4FF4807052493E
:100C600008614000486128125049086080204E49C0
:100C700048610861800008614A498989491C88B235
:100C800004F06EFA4FF480704749086140004861F3
:100C9000E8B2464908608020434948610861800005
:100CA000086162E03F48808846F60401884249D1E5
:100CB0003C488079012804D13A480088401E001B36
:100CC00084B23849488904F04BFA4FF480703649B1
:100CD0000861400048612012344908608020324990
:100CE0004861086180000861401008614000486167
:100CF000E0B22E49086080202B49486108618000DD
:100D000008612849888904F02BFA4FF4807026493D
:100D10000861400048612812244908608020224967
:100D20004861086180000861401008614000486126
:100D3000E8B21E49086080201B49486108618000B4
:100D4000086112E017488079012804D1154800880D
:100D5000401E001B84B213494889214604F01AFA48
:100D600010498889294604F015FA4FF480700E491D
:100D70004861400048610B4800890C4908608020A8
:100D8000094948610861800008614010086140001D
:100D9000486106480660802048610861800008615B
:100DA00070BD000044020020001001400C0C014006
:100DB0002DE9FC4F05460E4617469846DDF82C9067
:100DC000002001902C48808846F60401884229D1F1
:100DD00029488079012825D1AB4635462648008828
:100DE000C01B401E86B2474623480088A0EB0B007C
:100DF000401E1FFA80F800201F4988712A20488170
:100E00002B20888143463A4631462846CDF800904B
:100E1000FFF7CEFF0120184988712B2048812A2036
:100E2000888127E0781B401C80B2019034461FE087
:100E30002146284603F0A8FF04F0A4F94FF0000A69
:100E400011E04FF480700D490861400048610C4882
:100E5000C0F80090802048610861800008610AF1B4
:100E600001001FFA80FA01988245EADB601C84B217
:100E70004445DDDDBDE8FC8F440200200010014048
:100E80000C0C014010B5FE48806940F00800FC4998
:100E900088610846806940F01000886108468069D2
:100EA00040F0010088610120FFF724FDF54840680B
:100EB0006FF30B00F34948600846406840F2333155
:100EC0000843F04948600846006820F07F40086009
:100ED0000846006840F04C5008600846C06840F47E
:100EE000F860C8604FF03330E7490860091F0860B8
:100EF0004FF6FF70E44908310860322004F038FFF3
:100F00000121002004F046F9322004F031FF0020D6
:100F100003F016FDDD49888008468088FF280ADB3B
:100F2000084680884FF6FF71884204D0D7488088F1
:100F3000B0F5134F7ED1D32004F012F903F0C8FCB2
:100F400003F0C6FC03F0C4FCD049888008468088C2
:100F50004FF6FF7101EA0020CC49888003F0B8FC0D
:100F6000CA4989880843C94988800846808849F267
:100F7000413188426CD0BF2004F0F2F803F0A8FCA5
:100F800003F0A6FC03F0A4FC03F0A2FCBF49888098
:100F9000084680884FF6FF7101EA0020BB4988802F
:100FA00003F096FCB94989880843B8498880084607
:100FB000808846F6040188424AD0D42004F0D0F854
:100FC00003F086FC03F084FC03F082FCAF498880C8
:100FD000084680884FF6FF7101EA0020AB498880FF
:100FE00003F076FCA94989880843A8498880084607
:100FF000808845F2103188422AD04FF45A4004F0DC
:10100000AFF803F065FC4FF45B4004F0A9F803F07F
:101010005FFC9E498880084680884FF6FF7101EA90
:1010200000209A4988804FF45C4004F099F803F05E
:101030004FFC00E00CE0954989880843934988807B
:1010400008468088B0F5004F02D145F210508880E4
:101050008E4881888EA0FFF707F98C48808849F276
:10106000413188427ED1CF2004F07AF8002004F08C
:1010700065F8C12004F062F8302004F05FF8ED203C
:1010800004F06EF8642004F059F8032004F056F8D8
:10109000122004F053F8812004F050F8E82004F006
:1010A0005FF8852004F04AF8102004F047F87A2011
:1010B00004F044F8CB2004F053F8392004F03EF853
:1010C0002C2004F03BF8002004F038F8342004F021
:1010D00035F8022004F032F8F72004F041F820201F
:1010E00004F02CF8EA2004F03BF8002004F026F885
:1010F000002004F023F8C02004F032F81B2004F094
:101100001DF8C12004F02CF8012004F017F8C520C8
:1011100004F026F8302004F011F8302004F00EF826
:10112000C72004F01DF8B72004F008F8362004F0BA
:1011300017F8482004F002F83A2004F011F855207E
:1011400003F0FCFFB12004F00BF8002003F0F6FFE1
:101150001A2003F0F3FFB62004F002F80A2003F08F
:10116000EDFF00E0A9E0A22003F0E8FFF22003F089
:10117000F7FF002003F0E2FF262003F0F1FF01203B
:1011800003F0DCFFE02003F0EBFF0F2003F0D6FFBD
:101190002A2003F0D3FF282003F0D0FF082003F01B
:1011A000CDFF0E2003F0CAFF082003F0C7FF542034
:1011B00003F0C4FFA92003F0C1FF432003F0BEFFEA
:1011C0000A2003F0BBFF0F2003F0B8FF002003F05C
:1011D000B5FF002003F0B2FF002003F0AFFF0020B6
:1011E00003F0ACFFE12003F0BBFF002003F0A6FFFB
:1011F000152003F0A3FF172003F0A0FF072003F042
:101200009DFF112003F09AFF062003F097FF2B208B
:1012100003F094FF562003F091FF3C2003F08EFF73
:10122000052003F08BFF102003F088FF0F2003F050
:1012300085FF3F2003F082FF3F2003F07FFF0F2058
:1012400003F07CFF2B2003F08BFF002003F076FFE0
:10125000002003F073FF012003F070FF3F2003F034
:101260006DFF2A2003F07CFF002003F067FF0020C1
:1012700003F064FF002003F061FFEF2010E00000A6
:101280000010024000100140040C01404402002004
:10129000204C43442049443A25780D0A00000000C0
:1012A00003F04CFF112003F05BFF782004F060FD99
:1012B000292003F055FF03F0FBBAFE48808846F66C
:1012C000040188427ED1112003F04AFF142004F06B
:1012D0004FFDD02003F044FF072003F02FFF4220F2
:1012E00003F02CFF1D2003F029FFD12003F038FF6D
:1012F000002003F023FF1A2003F020FF092003F051
:101300001DFFD22003F02CFF012003F017FF222045
:1013100003F014FFC02003F023FF102003F00EFFA2
:101320003B2003F00BFF002003F008FF022003F036
:1013300005FF112003F002FFC52003F011FF032079
:1013400003F0FCFEC82003F00BFF002003F0F6FEC4
:10135000252003F0F3FE212003F0F0FE052003F02A
:10136000EDFE002003F0EAFE0A2003F0E7FE652010
:1013700003F0E4FE252003F0E1FE772003F0DEFE1B
:10138000502003F0DBFE0F2003F0D8FE002003F016
:10139000D5FEF82003F0E4FE012003F0CFFEFE208E
:1013A00003F0DEFE002003F0C9FE022003F0C6FEBB
:1013B000202003F0D5FE362003F0D2FE082003F0F3
:1013C000BDFE00E02AE03A2003F0CAFE552003F0FB
:1013D000B5FE2B2003F0C4FE002003F0AFFE00207A
:1013E00003F0ACFE012003F0A9FE3F2003F0A6FEAF
:1013F0002A2003F0B5FE002003F0A0FE002003F039
:101400009DFE012003F09AFEDF2003F097FE782076
:1014100004F0AEFC292003F0A3FE4CE7A548808829
:1014200045F21031884240F07C87ED2003F098FEB1
:10143000012003F083FEFE2003F080FEEE2003F087
:101440008FFEDE2003F07AFE212003F077FEF120EC
:1014500003F086FE012003F071FEDF2003F080FE22
:10146000102003F06BFEC42003F07AFE8F2003F0FF
:1014700065FEC62003F074FE002003F05FFEE2204C
:1014800003F05CFEE22003F059FEE22003F056FE7A
:10149000BF2003F065FEAA2003F050FEB02003F049
:1014A0005FFE0D2003F04AFE002003F047FE0D20F2
:1014B00003F044FE002003F041FE112003F03EFE45
:1014C000002003F03BFE192003F038FE002003F05B
:1014D00035FE212003F032FE002003F02FFE2D20E8
:1014E00003F02CFE002003F029FE3D2003F026FE31
:1014F000002003F023FE5D2003F020FE002003F017
:101500001DFE5D2003F01AFE002003F017FEB1203F
:1015100003F026FE802003F011FE002003F00EFEF3
:101520008B2003F00BFE002003F008FE962003F052
:1015300005FE002003F002FEB22003F011FE0020A1
:1015400003F0FCFD002003F0F9FD022003F0F6FD9E
:10155000002003F0F3FD032003F0F0FD002003F072
:10156000EDFDB32003F0FCFD002003F0E7FD0020BB
:1015700003F0E4FD002003F0E1FD002003F0DEFDB8
:10158000002003F0DBFD002003F0D8FD002003F075
:10159000D5FD002003F0D2FD002003F0CFFD002098
:1015A00003F0CCFD002003F0C9FD002003F0C6FDD0
:1015B000002003F0C3FD002003F0C0FD002003F075
:1015C000BDFD002003F0BAFD002003F0B7FD0020B0
:1015D00003F0B4FD002003F0B1FD002003F0AEFDE8
:1015E000002003F0ABFD002003F0A8FD002003F075
:1015F000A5FD002003F0A2FDB42003F0B1FD8B2077
:1016000003F09CFD002003F099FD962003F096FD69
:10161000002003F093FDA12003F090FD002003F0D3
:101620008DFDB52003F09CFD022003F087FD002016
:1016300003F084FD032003F081FD002003F07EFD14
:10164000042003F07BFD002003F078FDB62003F0BA
:1016500087FD002003F072FD002003F06FFDB7202E
:1016600003F07EFD002003F069FD002003F066FD1D
:101670003F2003F063FD002003F060FD5E2003F0D7
:101680005DFD002003F05AFD642003F057FD0020AB
:1016900003F054FD8C2003F051FD002003F04EFDBB
:1016A000AC2003F04BFD002003F048FDDC2003F0EC
:1016B00045FD01E044020020002003F03FFD7020C2
:1016C00003F03CFD002003F039FD902003F036FDCF
:1016D000002003F033FDEB2003F030FD002003F089
:1016E0002DFDDC2003F02AFD002003F027FDB820AB
:1016F00003F036FD002003F021FD002003F01EFD65
:10170000002003F01BFD002003F018FD002003F073
:1017100015FD002003F012FD002003F00FFD002056
:1017200003F00CFDBA2003F01BFD242003F006FD9E
:10173000002003F003FD002003F000FD002003F073
:10174000FDFCC12003F00CFD202003F0F7FC00207D
:1017500003F0F4FC542003F0F1FC002003F0EEFC55
:10176000FF2003F0EBFC002003F0E8FCC22003F0B4
:10177000F7FC0A2003F0E2FC002003F0DFFC042069
:1017800003F0DCFC002003F0D9FCC32003F0E8FCEC
:101790003C2003F0D3FC002003F0D0FC3A2003F0FF
:1017A000CDFC002003F0CAFC392003F0C7FC002068
:1017B00003F0C4FC372003F0C1FC002003F0BEFCA2
:1017C0003C2003F0BBFC002003F0B8FC362003F003
:1017D000B5FC002003F0B2FC322003F0AFFC002087
:1017E00003F0ACFC2F2003F0A9FC002003F0A6FCC2
:1017F0002C2003F0A3FC002003F0A0FC292003F020
:101800009DFC002003F09AFC262003F097FC0020AA
:1018100003F094FC242003F091FC002003F08EFCE4
:10182000242003F08BFC002003F088FC232003F02D
:1018300085FC002003F082FC3C2003F07FFC0020AC
:1018400003F07CFC362003F079FC002003F076FCEA
:10185000322003F073FC002003F070FC2F2003F013
:101860006DFC002003F06AFC2C2003F067FC0020D4
:1018700003F064FC292003F061FC002003F05EFC0F
:10188000262003F05BFC002003F058FC242003F02A
:1018900055FC002003F052FC242003F04FFC0020F4
:1018A00003F04CFC232003F049FC002003F046FC2D
:1018B000C42003F055FC622003F040FC002003F03C
:1018C0003DFC052003F03AFC002003F037FC8420A7
:1018D00003F034FC002003F031FCF02003F02EFC78
:1018E000002003F02BFC182003F028FC002003F05C
:1018F00025FCA42003F022FC002003F01FFC18208C
:1019000003F01CFC002003F019FC502003F016FC2F
:10191000002003F013FC0C2003F010FC002003F067
:101920000DFC172003F00AFC002003F007FC9520B3
:1019300003F004FC002003F001FCF32003F0FEFBA5
:10194000002003F0FBFBE62003F0F8FB002003F08F
:10195000F5FBC52003F004FC322003F0EFFB002070
:1019600003F0ECFB442003F0E9FB002003F0E6FB6E
:10197000652003F0E3FB002003F0E0FB762003F09A
:10198000DDFB002003F0DAFB882003F0D7FB00200A
:1019900003F0D4FBC62003F0E3FB202003F0CEFBD2
:1019A000002003F0CBFB172003F0C8FB002003F05E
:1019B000C5FB012003F0C2FB002003F0BFFBC720E2
:1019C00003F0CEFB002003F0B9FB002003F0B6FBD0
:1019D000002003F0B3FB002003F0B0FBC82003F0AD
:1019E000BFFB002003F0AAFB002003F0A7FB0020B0
:1019F00003F0A4FB002003F0A1FBC92003F0B0FB1F
:101A0000002003F09BFB002003F098FB002003F074
:101A100095FB002003F092FB002003F08FFB0020D9
:101A200003F08CFB002003F089FB002003F086FB11
:101A3000002003F083FB002003F080FB002003F074
:101A40007DFB002003F07AFB002003F077FB0020F1
:101A500003F074FB002003F071FB002003F06EFB29
:101A6000E02003F07DFB162003F068FB002003F06C
:101A700065FB1C2003F062FB002003F05FFB2120CC
:101A800003F05CFB002003F059FB362003F056FB0B
:101A9000002003F053FB462003F050FB002003F02E
:101AA0004DFB522003F04AFB002003F047FB64206B
:101AB00003F044FB002003F041FB7A2003F03EFBDF
:101AC000002003F03BFB8B2003F038FB002003F0E9
:101AD00035FB992003F032FB002003F02FFBA820F8
:101AE00003F02CFB002003F029FBB92003F026FBB8
:101AF000002003F023FBC42003F020FB002003F0B0
:101B00001DFBCA2003F01AFB002003F017FBD220B4
:101B100003F014FB002003F011FBD92003F00EFBAF
:101B2000002003F00BFBE02003F008FB002003F093
:101B300005FBF32003F002FB002003F0FFFAE12095
:101B400003F00EFB162003F0F9FA002003F0F6FA7A
:101B50001C2003F0F3FA002003F0F0FA222003F037
:101B6000EDFA002003F0EAFA362003F0E7FA00204D
:101B700003F0E4FA452003F0E1FA002003F0DEFA76
:101B8000522003F0DBFA002003F0D8FA642003F0BF
:101B9000D5FA002003F0D2FA7A2003F0CFFA002021
:101BA00003F0CCFA8B2003F0C9FA002003F0C6FA48
:101BB000992003F0C3FA002003F0C0FAA82003F034
:101BC000BDFA002003F0BAFAB92003F0B7FA0020FA
:101BD00003F0B4FAC42003F0B1FA002003F0AEFA27
:101BE000CA2003F0ABFA002003F0A8FAD22003F0D9
:101BF000A5FA002003F0A2FAD82003F09FFA0020F3
:101C000003F09CFAE02003F099FA002003F096FA22
:101C1000F32003F093FA002003F090FAE22003F09F
:101C20009FFA052003F08AFA002003F087FA0B20C0
:101C300003F084FA002003F081FA1B2003F07EFAFF
:101C4000002003F07BFA342003F078FA002003F040
:101C500075FA442003F072FA002003F06FFA4F2067
:101C600003F06CFA002003F069FA612003F066FAD1
:101C7000002003F063FA792003F060FA002003F0FB
:101C80005DFA882003F05AFA002003F057FA9720F3
:101C900003F054FA002003F051FAA62003F04EFAA4
:101CA000002003F04BFAB72003F048FA002003F0BD
:101CB00045FAC22003F042FA002003F03FFAC720A1
:101CC00003F03CFA002003F039FAD12003F036FA91
:101CD000002003F033FAD62003F030FA002003F09E
:101CE0002DFADD2003F02AFA002003F027FAF32072
:101CF00003F024FA002003F021FAE32003F030FA85
:101D0000052003F01BFA002003F018FA0A2003F064
:101D100015FA002003F012FA1C2003F00FFA00203D
:101D200003F00CFA332003F009FA002003F006FA5E
:101D3000442003F003FA002003F000FA502003F0DF
:101D4000FDF9002003F0FAF9622003F0F7F9002012
:101D500003F0F4F9782003F0F1F9002003F0EEF934
:101D6000882003F0EBF9002003F0E8F9972003F056
:101D7000E5F9002003F0E2F9A62003F0DFF90020E6
:101D800003F0DCF9B72003F0D9F9002003F0D6F90D
:101D9000C22003F0D3F9002003F0D0F9C72003F0EC
:101DA000CDF9002003F0CAF9D12003F0C7F90020D3
:101DB00003F0C4F9D52003F0C1F9002003F0BEF907
:101DC000DD2003F0BBF9002003F0B8F9F32003F0A5
:101DD000B5F9002003F0B2F9E42003F0C1F90120C5
:101DE00003F0ACF9002003F0A9F9012003F0A6F9F3
:101DF000002003F0A3F9022003F0A0F9002003F073
:101E00009DF92A2003F09AF9002003F097F93C206D
:101E100003F094F9002003F091F94B2003F08EF9C0
:101E2000002003F08BF95D2003F088F9002003F017
:101E300085F9742003F082F9002003F07FF98420F3
:101E400003F07CF9002003F079F9932003F076F990
:101E5000002003F073F9A22003F070F9002003F0D2
:101E60006DF9B32003F06AF9002003F067F9BE2092
:101E700003F064F9002003F061F9C42003F05EF977
:101E8000002003F05BF9CD2003F058F9002003F0A7
:101E900055F9D32003F052F9002003F04FF9DD206B
:101EA00003F04CF9002003F049F9F32003F046F960
:101EB000002003F043F9E52003F052F9002003F07D
:101EC0003DF9002003F03AF9002003F037F9002033
:101ED00003F034F9022003F031F9002003F02EF969
:101EE000292003F02BF9002003F028F93C2003F00F
:101EF00025F9002003F022F94B2003F01FF9002000
:101F000003F01CF95D2003F019F9002003F016F925
:101F1000742003F013F9002003F010F9842003F07B
:101F20000DF9002003F00AF9932003F007F90020CF
:101F300003F004F9A22003F001F9002003F0FEF8F9
:101F4000B32003F0FBF8002003F0F8F8BE2003F004
:101F5000F5F8002003F0F2F8C42003F0EFF80020B9
:101F600003F0ECF8CD2003F0E9F8002003F0E6F8E8
:101F7000D32003F0E3F8002003F0E0F8DC2003F0C6
:101F8000DDF8002003F0DAF8F32003F0D7F80020A2
:101F900003F0D4F8E62003F0E3F8112003F0CEF8C4
:101FA000002003F0CBF8342003F0C8F8002003F041
:101FB000C5F8562003F0C2F8002003F0BFF87620E1
:101FC00003F0BCF8002003F0B9F8772003F0B6F86E
:101FD000002003F0B3F8662003F0B0F8002003F00F
:101FE000ADF8882003F0AAF8002003F0A7F89920A4
:101FF00003F0A4F8002003F0A1F8BB2003F09EF842
:10200000002003F09BF8992003F098F8002003F0DB
:1020100095F8662003F092F8002003F08FF8552021
:1020200003F08CF8002003F089F8552003F086F8BF
:10203000002003F083F8452003F080F8002003F02F
:102040007DF8432003F07AF8002003F077F844206D
:1020500003F074F8002003F071F8E72003F080F833
:10206000322003F06BF8002003F068F8552003F0ED
:1020700065F8002003F062F8762003F05FF8002096
:1020800003F05CF8662003F059F8002003F056F8DE
:10209000672003F053F8002003F050F8672003F0A6
:1020A0004DF8002003F04AF8872003F047F800209D
:1020B00003F044F8992003F041F8002003F03EF8C3
:1020C000BB2003F03BF8002003F038F8992003F020
:1020D00035F8002003F032F8772003F02FF80020C5
:1020E00003F02CF8442003F029F8002003F026F830
:1020F000562003F023F8002003F020F8232003F0FB
:102100001DF8002003F01AF8332003F017F8002020
:1021100003F014F8452003F011F8002003F00EF846
:10212000E82003F01DF8002003F008F8002003F079
:1021300005F8992003F002F8002002F0FFFF872045
:1021400002F0FCFF002002F0F9FF882002F0F6FF09
:10215000002002F0F3FF772002F0F0FF002002F0F1
:10216000EDFF662002F0EAFF002002F0E7FF882082
:1021700002F0E4FF002002F0E1FFAA2002F0DEFFFF
:10218000002002F0DBFFBB2002F0D8FF002002F0AD
:10219000D5FF992002F0D2FF002002F0CFFF662089
:1021A00002F0CCFF002002F0C9FF552002F0C6FF6C
:1021B000002002F0C3FF552002F0C0FF002002F013
:1021C000BDFF442002F0BAFF002002F0B7FF442018
:1021D00002F0B4FF002002F0B1FF552002F0AEFF84
:1021E000002002F0ABFFE92002F0BAFFAA2002F0C3
:1021F000A5FF002002F0A2FF002002F09FFF0020B8
:1022000002F09CFF002002F0ABFFAA2002F096FF34
:10221000CF2002F0A5FF002002F090FF002002F086
:102220008DFF002002F08AFF002002F087FF0020CF
:1022300002F084FF002002F081FF002002F07EFF08
:10224000002002F07BFF002002F078FF002002F067
:1022500075FF002002F072FF002002F06FFF0020E7
:1022600002F06CFF002002F069FF002002F066FF20
:10227000002002F063FF002002F060FFF02002F077
:102280006FFF002002F05AFF502002F057FF00209D
:1022900002F054FF002002F051FF002002F04EFF38
:1022A000F32002F05DFF002002F048FFF92002F069
:1022B00057FF062002F042FF102002F03FFF2920C6
:1022C00002F03CFF002002F039FF3A2002F048FF04
:1022D000552002F033FF112002F042FF642003F08A
:1022E00047FD292002F03CFF352002F039FF002095
:1022F00002F024FF512002F033FFFF2002F01EFF06
:10230000532002F02DFF2C2002F018FF552002F080
:1023100027FF822002F012FF2C2002F021FF02F0A2
:10232000C7BAFE48808845F2105188427ED15521B7
:102330004FF4704002F02EFFAA214FF2010002F08C
:1023400029FF52214FF2020002F024FF08214FF230
:10235000030002F01FFF01214FF2040002F01AFFF8
:102360000D214FF4304002F015FF0D214BF201001A
:1023700002F010FF0D214BF2020002F00BFF34219E
:102380004FF4364002F006FF34214BF2016002F0B8
:1023900001FF34214BF2026002F0FCFE0D214FF4EC
:1023A000314002F0F7FE0D214BF2011002F0F2FE77
:1023B0000D214BF2021002F0EDFE34214FF43740B4
:1023C00002F0E8FE34214BF2017002F0E3FE34210A
:1023D0004BF2027002F0DEFE00214FF4324002F0B8
:1023E000D9FE00214BF2012002F0D4FE00214BF275
:1023F000022002F0CFFE24214FF4384002F0CAFE42
:1024000024214BF6010002F0C5FE24214BF6020008
:1024100002F0C0FE01214FF43F4002F0BBFE0F214D
:102420004FF4334002F0B6FE0F2100E0FEE34BF222
:10243000013002F0AFFE0F214BF2023002F0AAFE93
:1024400034214FF4394002F0A5FE34214BF601103F
:1024500002F0A0FE34214BF6021002F09BFE082190
:102460004FF4354002F096FE08214BF2015002F085
:1024700091FE08214BF2025002F08CFE03214FF432
:10248000424002F087FE24214FF43A4002F082FEDF
:1024900024214BF6012002F07DFE24214BF6022080
:1024A00002F078FE00214FF43C4002F073FE7821E8
:1024B0004BF6014002F06EFE00214BF6024002F0A6
:1024C00069FE00214FF43D4002F064FE78214BF696
:1024D000015002F05FFE00214BF6025002F05AFE5E
:1024E00000214FF43E4002F055FE64214BF601609E
:1024F00002F050FE00214FF4514002F04BFE332118
:102500004DF2011002F046FE00214DF2021002F0E1
:1025100041FE34214DF2031002F03CFE00214DF249
:10252000041002F037FE3A214DF2051002F032FE9F
:1025300000214DF2061002F02DFE4A214DF2071047
:1025400002F028FE00214DF2081002F023FE5C216B
:102550004DF2091002F01EFE00214DF20A1002F0A9
:1025600019FE81214DF20B1002F014FE00214DF2F4
:102570000C1002F00FFEA6214DF20D1002F00AFE23
:1025800000214DF20E1002F005FEE5214DF20F1074
:1025900002F000FE01214DF2101002F0FBFD1321AC
:1025A0004DF2111002F0F6FD01214DF2121002F071
:1025B000F1FD54214DF2131002F0ECFD01214DF21A
:1025C000141002F0E7FD82214DF2151002F0E2FD39
:1025D00001214DF2161002F0DDFDCA214DF2171057
:1025E00002F0D8FD02214DF2181002F0D3FD0021B7
:1025F0004DF2191002F0CEFD02214DF21A1002F038
:10260000C9FD01214DF21B1002F0C4FD02214DF263
:102610001C1002F0BFFD34214DF21D1002F0BAFD76
:1026200002214DF21E1002F0B5FD67214DF21F1080
:1026300002F0B0FD02214DF2201002F0ABFD84212A
:102640004DF2211002F0A6FD02214DF2221002F0FF
:10265000A1FDA4214DF2231002F09CFD02214DF2B8
:10266000241002F097FDB7214DF2251002F092FDE3
:1026700002214DF2261002F08DFDCF214DF22710E0
:1026800002F088FD02214DF2281002F083FDDE21C8
:102690004DF2291002F07EFD02214DF22A1002F0C7
:1026A00079FDF2214DF22B1002F074FD02214DF262
:1026B0002C1002F06FFDFE214DF22D1002F06AFD8C
:1026C00003214DF22E1002F065FD10214DF22F1066
:1026D00002F060FD03214DF2301002F05BFD33216A
:1026E0004DF2311002F056FD03214DF2321002F08E
:1026F00051FD6D214DF2331002F04CFD00214FF4DD
:10270000524002F047FD33214DF2012002F042FD1C
:1027100000214DF2022002F03DFD01E044020020C4
:1027200034214DF2032002F035FD00214DF204204A
:1027300002F030FD3A214DF2052002F02BFD002180
:102740004DF2062002F026FD4A214DF2072002F04C
:1027500021FD00214DF2082002F01CFD5C214DF20C
:10276000092002F017FD00214DF20A2002F012FDAF
:1027700081214DF20B2002F00DFD00214DF20C20C5
:1027800002F008FDA6214DF20D2002F003FD00210C
:102790004DF20E2002F0FEFCE5214DF20F2002F07A
:1027A000F9FC01214DF2102002F0F4FC13214DF24E
:1027B000112002F0EFFC01214DF2122002F0EAFCA0
:1027C00054214DF2132002F0E5FC01214DF21420BA
:1027D00002F0E0FC82214DF2152002F0DBFC012129
:1027E0004DF2162002F0D6FCCA214DF2172002F05D
:1027F000D1FC02214DF2182002F0CCFC00214DF258
:10280000192002F0C7FC02214DF21A2002F0C2FC8E
:1028100001214DF21B2002F0BDFC02214DF21C20D3
:1028200002F0B8FC34214DF21D2002F0B3FC02216D
:102830004DF21E2002F0AEFC67214DF21F2002F087
:10284000A9FC02214DF2202002F0A4FC84214DF2CB
:10285000212002F09FFC02214DF2222002F09AFC7E
:10286000A4214DF2232002F095FC02214DF22420F8
:1028700002F090FCB7214DF2252002F08BFC0221E2
:102880004DF2262002F086FCCF214DF2272002F0E7
:1028900081FC02214DF2282002F07CFCDE214DF269
:1028A000292002F077FC02214DF22A2002F072FC6E
:1028B000F2214DF22B2002F06DFC02214DF22C2072
:1028C00002F068FCFE214DF22D2002F063FC032192
:1028D0004DF22E2002F05EFC10214DF22F2002F06E
:1028E00059FC03214DF2302002F054FC33214DF20B
:1028F000312002F04FFC03214DF2322002F04AFC5D
:102900006D214DF2332002F045FC00214FF453407D
:1029100002F040FC33214DF2013002F03BFC00217B
:102920004DF2023002F036FC34214DF2033002F059
:1029300031FC00214DF2043002F02CFC3A214DF222
:10294000053002F027FC00214DF2063002F022FC97
:102950004A214DF2073002F01DFC00214DF20830F3
:1029600002F018FC5C214DF2093002F013FC00214A
:102970004DF20A3002F00EFC81214DF20B3002F0D4
:1029800009FC00214DF20C3002F004FCA6214DF2AE
:102990000D3002F0FFFB00214DF20E3002F0FAFB89
:1029A000E5214DF20F3002F0F5FB01214DF2103020
:1029B00002F0F0FB13214DF2113002F0EBFB01218C
:1029C0004DF2123002F0E6FB54214DF2133002F0CA
:1029D000E1FB01214DF2143002F0DCFB82214DF2CB
:1029E000153002F0D7FB01214DF2163002F0D2FB78
:1029F000CA214DF2173002F0CDFB02214DF2183002
:102A000002F0C8FB00214DF2193002F0C3FB022195
:102A10004DF21A3002F0BEFB01214DF21B3002F0E4
:102A2000B9FB02214DF21C3002F0B4FB34214DF20F
:102A30001D3002F0AFFB02214DF21E3002F0AAFB66
:102A400067214DF21F3002F0A5FB02214DF220302C
:102A500002F0A0FB84214DF2213002F09BFB022109
:102A60004DF2223002F096FBA4214DF2233002F009
:102A700091FB02214DF2243002F08CFBB7214DF284
:102A8000253002F087FB02214DF2263002F082FB56
:102A9000CF214DF2273002F07DFB02214DF228308C
:102AA00002F078FBDE214DF2293002F073FB0221A7
:102AB0004DF22A3002F06EFBF2214DF22B3002F083
:102AC00069FB02214DF22C3002F064FBFE214DF235
:102AD0002D3002F05FFB03214DF22E3002F05AFB45
:102AE00010214DF22F3002F055FB03214DF2303012
:102AF00002F050FB33214DF2313002F04BFB032149
:102B00004DF2323002F046FB6D214DF2333002F0CF
:102B100041FB00214FF4544002F03CFB33214DF2C5
:102B2000014002F037FB00214DF2024002F032FB7F
:102B300034214DF2034002F02DFB00214DF2044000
:102B400002F028FB3A214DF2054002F023FB002160
:102B50004DF2064002F01EFB4A214DF2074002F002
:102B600019FB00214DF2084002F014FB5C214DF2EC
:102B7000094002F00FFB00214DF20A4002F00AFB6F
:102B800081214DF20B4002F005FB00214DF20C407B
:102B900002F000FBA6214DF20D4002F0FBFA0021ED
:102BA0004DF20E4002F0F6FAE5214DF20F4002F030
:102BB000F1FA01214DF2104002F0ECFA13214DF22E
:102BC000114002F0E7FA01214DF2124002F0E2FA60
:102BD00054214DF2134002F0DDFA01214DF2144070
:102BE00002F0D8FA82214DF2154002F0D3FA012109
:102BF0004DF2164002F0CEFACA214DF2174002F013
:102C0000C9FA02214DF2184002F0C4FA00214DF237
:102C1000194002F0BFFA02214DF21A4002F0BAFA4E
:102C200001214DF21B4002F0B5FA00E004E302215D
:102C30004DF21C4002F0AEFA34214DF21D4002F07C
:102C4000A9FA02214DF21E4002F0A4FA67214DF2CA
:102C50001F4002F09FFA02214DF2204002F09AFA42
:102C600084214DF2214002F095FA02214DF22240DA
:102C700002F090FAA4214DF2234002F08BFA0221D7
:102C80004DF2244002F086FAB7214DF2254002F0C1
:102C900081FA02214DF2264002F07CFACF214DF25A
:102CA000274002F077FA02214DF2284002F072FA32
:102CB000DE214DF2294002F06DFA02214DF22A4048
:102CC00002F068FAF2214DF22B4002F063FA022181
:102CD0004DF22C4002F05EFAFE214DF22D4002F042
:102CE00059FA03214DF22E4002F054FA10214DF210
:102CF0002F4002F04FFA03214DF2304002F04AFA21
:102D000033214DF2314002F045FA03214DF23240B9
:102D100002F040FA6D214DF2334002F03BFA0021FF
:102D20004FF4554002F036FA33214DF2015002F0D3
:102D300031FA00214DF2025002F02CFA34214DF20A
:102D4000035002F027FA00214DF2045002F022FA5B
:102D50003A214DF2055002F01DFA00214DF20650C5
:102D600002F018FA4A214DF2075002F013FA00213E
:102D70004DF2085002F00EFA5C214DF2095002F0BB
:102D800009FA00214DF20A5002F004FA81214DF2B5
:102D90000B5002F0FFF900214DF20C5002F0FAF94D
:102DA000A6214DF20D5002F0F5F900214DF20E5022
:102DB00002F0F0F9E5214DF20F5002F0EBF901219C
:102DC0004DF2105002F0E6F913214DF2115002F0CD
:102DD000E1F901214DF2125002F0DCF954214DF2DB
:102DE000135002F0D7F901214DF2145002F0D2F93C
:102DF00082214DF2155002F0CDF901214DF216500D
:102E000002F0C8F9CA214DF2175002F0C3F90221AD
:102E10004DF2185002F0BEF900214DF2195002F0A7
:102E2000B9F902214DF21A5002F0B4F901214DF224
:102E30001B5002F0AFF902214DF21C5002F0AAF92A
:102E400034214DF21D5002F0A5F902214DF21E5021
:102E500002F0A0F967214DF21F5002F09BF9022108
:102E60004DF2205002F096F984214DF2215002F0EB
:102E700091F902214DF2225002F08CF9A4214DF279
:102E8000235002F087F902214DF2245002F082F91A
:102E9000B7214DF2255002F07DF902214DF2265066
:102EA00002F078F9CF214DF2275002F073F9022198
:102EB0004DF2285002F06EF9DE214DF2295002F059
:102EC00069F902214DF22A5002F064F9F2214DF223
:102ED0002B5002F05FF902214DF22C5002F05AF90A
:102EE000FE214DF22D5002F055F903214DF22E50E6
:102EF00002F050F910214DF22F5002F04BF903214E
:102F00004DF2305002F046F933214DF2315002F0CB
:102F100041F903214DF2325002F03CF96D214DF29E
:102F2000335002F037F900214FF4564002F032F9E5
:102F300033214DF2016002F02DF900214DF20260C3
:102F400002F028F934214DF2036002F023F9002148
:102F50004DF2046002F01EF93A214DF2056002F0D4
:102F600019F900214DF2066002F014F94A214DF2E0
:102F7000076002F00FF900214DF2086002F00AF933
:102F80005C214DF2096002F005F900214DF20A6062
:102F900002F000F981214DF20B6002F0FBF80021F4
:102FA0004DF20C6002F0F6F8A6214DF20D6002F031
:102FB000F1F800214DF20E6002F0ECF8E5214DF23F
:102FC0000F6002F0E7F801214DF2106002F0E2F824
:102FD00013214DF2116002F0DDF801214DF2126073
:102FE00002F0D8F854214DF2136002F0D3F8012119
:102FF0004DF2146002F0CEF882214DF2156002F01D
:10300000C9F801214DF2166002F0C4F8CA214DF250
:10301000176002F0BFF802214DF2186002F0BAF812
:1030200000214DF2196002F0B5F802214DF21A604C
:1030300002F0B0F801214DF21B6002F0ABF8022162
:103040004DF21C6002F0A6F834214DF21D6002F032
:10305000A1F802214DF21E6002F09CF867214DF2AA
:103060001F6002F097F802214DF2206002F092F802
:1030700084214DF2216002F08DF802214DF2226090
:1030800002F088F8A4214DF2236002F083F80221B7
:103090004DF2246002F07EF8B7214DF2256002F077
:1030A00079F802214DF2266002F074F8CF214DF23A
:1030B000276002F06FF802214DF2286002F06AF8F2
:1030C000DE214DF2296002F065F802214DF22A60FE
:1030D00002F060F8F2214DF22B6002F05BF8022161
:1030E0004DF22C6002F056F8FE214DF22D6002F0F8
:1030F00051F803214DF22E6002F04CF810214DF2F0
:103100002F6002F047F803214DF2306002F042F8E0
:1031100033214DF2316002F03DF803214DF232606F
:1031200002F038F86D214DF2336002F033F855218A
:103130004FF4704002F02EF8AA214FF2010002F085
:1031400029F852214FF2020002F024F808214FF230
:10315000030002F01FF800214FF2040002F01AF8F9
:10316000CC214FF4314002F015F800214BF2011050
:1031700002F010F805214FF4364002F00BF87021F0
:103180004FF4374002F006F870214BF2017002F064
:1031900001F801214FF4384001F0FCFF03214BF608
:1031A000010001F0F7FF03214BF6020001F0F2FFEE
:1031B00003214BF6030001F0EDFF02214FF43C40E8
:1031C00001F0E8FF00214BF6014001F0E3FF002190
:1031D0004BF6024001F0DEFFD0214FF4494001F0F0
:1031E000D9FF02214CF6011001F0D4FF50214CF61A
:1031F000021001F0CFFF50214CF6031001F0CAFF7E
:1032000050214CF6041001F0C5FF00214FF454503A
:1032100001F0C0FF55214FF4685001F0BBFF4FF49F
:10322000885001F09DFF782002F0C0FD4FF424503B
:1032300001F096FF01F03CBBFE48808849F2253141
:1032400088427DD147F6F001E52001F0A3FF4FF45D
:103250008071012001F09EFF4FF4E061022001F037
:1032600099FF41F23001032001F094FF0021042076
:1032700001F090FF40F20221082001F08BFF0021B5
:10328000092001F087FF00210A2001F083FF0021BF
:103290000C2001F07FFF00210D2001F07BFF0021B9
:1032A0000F2001F077FF0021102001F073FF0721AC
:1032B000112001F06FFF0021122001F06BFF0021AF
:1032C000132001F067FF0021072001F063FF41F2A6
:1032D0009061102001F05EFF40F22721112001F0E3
:1032E00059FF9D21122001F055FF4FF4C8511320C2
:1032F00001F050FF2521292001F04CFF0D212B204A
:1033000001F048FF0721302001F044FF40F2033173
:10331000312001F03FFF0321322001F03BFF40F25A
:103320000621352001F036FF0821362001F032FF5A
:1033300040F20641372001F02DFF4FF4417100E0CB
:1033400058E0382001F026FF0721392001F022FF44
:1033500040F202613C2001F01DFF08213D2001F0F8
:1033600019FF0021502001F015FFEF21512001F03D
:1033700011FF0021522001F00DFF40F23F115320B8
:1033800001F008FF4FF42741602001F003FF012105
:10339000612001F0FFFE00216A2001F0FBFE002108
:1033A000802001F0F7FE0021812001F0F3FE0021D2
:1033B000822001F0EFFE0021832001F0EBFE0021CE
:1033C000842001F0E7FE0021852001F0E3FE1021BA
:1033D000902001F0DFFE4FF4C061922001F0DAFE90
:1033E00040F23311072001F0D5FE2221002001F028
:1033F000D1FE1FE78F48808849F2283188427DD16D
:1034000041F28F01EC2001F0C5FE41F23421EF20A2
:1034100001F0C0FE4FF48071012001F0BBFE4FF4BB
:10342000E061022001F0B6FE41F23001032001F01C
:10343000B1FE0021042001F0ADFE40F2022108207F
:1034400001F0A8FE0021092001F0A4FE00210A20BD
:1034500001F0A0FE01210C2001F09CFE00210D20B6
:1034600001F098FE00210F2001F094FE00211020B1
:1034700001F090FE0721112001F08CFE00211220A6
:1034800001F088FE0021132001F084FE01210720B5
:1034900001F080FE322002F06BFC41F290411020DE
:1034A00001F078FE40F22721112001F073FE322056
:1034B00002F05EFC8A21122001F06CFE322002F044
:1034C00057FC4FF4D051132001F064FE062129204F
:1034D00001F060FE0D212B2001F05CFE322002F095
:1034E00047FC0021202001F055FE0021212001F0A1
:1034F00051FE322002F03CFC002100E075E030205B
:1035000001F048FE40F20461312001F043FE40F238
:103510000531322001F03EFE0021352001F03AFE57
:1035200040F60941362001F035FE4FF40171372095
:1035300001F030FE40F20131382001F02BFE40F264
:103540000771392001F026FE00213C2001F022FE07
:1035500040F60A213D2001F01DFE322002F008FC59
:103560000021502001F016FEEF21512001F012FE43
:103570000021522001F00EFE40F23F11532001F0D5
:1035800009FE4FF42741602001F004FE0121612073
:1035900001F000FE00216A2001F0FCFD00218020E6
:1035A00001F0F8FD0021812001F0F4FD00218220CE
:1035B00001F0F0FD0021832001F0ECFD00218420CA
:1035C00001F0E8FD0021852001F0E4FD10219020AC
:1035D00001F0E0FD4FF4C061922001F0DBFD40F20C
:1035E0003311072001F0D6FD24E61248808849F205
:1035F000253188427ED147F6F001E52001F0CAFD71
:103600004FF48071012001F0C5FD4FF4E06102200C
:1036100001F0C0FD41F23001032001F0BBFD0021AB
:10362000042001F0B7FD40F20221082001F0B2FDB4
:10363000002101E044020020092001F0ABFD00213F
:103640000A2001F0A7FD00210C2001F0A3FD0021BC
:103650000D2001F09FFD00210F2001F09BFD0021B6
:10366000102001F097FD0721112001F093FD0021AA
:10367000122001F08FFD0021132001F08BFD0021AD
:10368000072001F087FD41F29061102001F082FDDA
:1036900040F22721112001F07DFD9D21122001F033
:1036A00079FD4FF4C851132001F074FD2521292024
:1036B00001F070FD0D212B2001F06CFD0721302061
:1036C00001F068FD40F20331312001F063FD032178
:1036D000322001F05FFD40F20621352001F05AFD55
:1036E0000821362001F056FD40F20641372001F056
:1036F00051FD00E05AE04FF44171382001F04AFDDD
:103700000721392001F046FD40F202613C2001F022
:1037100041FD08213D2001F03DFD0021502001F038
:1037200039FDEF21512001F035FD0021522001F03B
:1037300031FD40F23F11532001F02CFD4FF42741A1
:10374000602001F027FD0121612001F023FD00210F
:103750006A2001F01FFD0021802001F01BFD0021E7
:10376000812001F017FD0021822001F013FD0021CE
:10377000832001F00FFD0021842001F00BFD0021CA
:10378000852001F007FD1021902001F003FD4FF48A
:10379000C061922001F0FEFC40F23311072001F0DD
:1037A000F9FC2221002001F0F5FC43E5FE48808869
:1037B00049F2283188427DD141F28F01EC2001F09D
:1037C000E9FC41F23421EF2001F0E4FC4FF4807178
:1037D000012001F0DFFC4FF4E061022001F0DAFC8F
:1037E00041F23001032001F0D5FC0021042001F05A
:1037F000D1FC40F20221082001F0CCFC002109207C
:1038000001F0C8FC00210A2001F0C4FC01210C20B9
:1038100001F0C0FC00210D2001F0BCFC00210F20B4
:1038200001F0B8FC0021102001F0B4FC07211120A8
:1038300001F0B0FC0021122001F0ACFC00211320AB
:1038400001F0A8FC0121072001F0A4FC322002F0C5
:103850008FFA41F29041102001F09CFC40F22721A8
:10386000112001F097FC322002F082FA8A21122006
:1038700001F090FC322002F07BFA4FF4D05113207B
:1038800001F088FC0621292001F084FC0D212B2069
:1038900001F080FC322002F06BFA0021202001F0C0
:1038A00079FC0021212001F075FC322002F060FA41
:1038B000002100E075E0302001F06CFC40F2046172
:1038C000312001F067FC40F20531322001F062FC4A
:1038D0000021352001F05EFC40F60941362001F060
:1038E00059FC4FF40171372001F054FC40F20131D2
:1038F000382001F04FFC40F20771392001F04AFCFA
:1039000000213C2001F046FC40F60A213D2001F058
:1039100041FC322002F02CFA0021502001F03AFC48
:10392000EF21512001F036FC0021522001F032FC41
:1039300040F23F11532001F02DFC4FF4274160204D
:1039400001F028FC0121612001F024FC00216A2003
:1039500001F020FC0021802001F01CFC00218120CE
:1039600001F018FC0021822001F014FC00218320CA
:1039700001F010FC0021842001F00CFC00218520C6
:1039800001F008FC1021902001F004FC4FF4C0610C
:10399000922001F0FFFB40F23311072001F0FAFB07
:1039A00048E48148808849F2203188427ED1002154
:1039B000084601F0EFFB4FF48071012001F0EAFBB3
:1039C0004FF4E061022001F0E5FB41F230010320F9
:1039D00001F0E0FB0021042001F0DCFB40F20221B9
:1039E000082001F0D7FB0021092001F0D3FB0021C2
:1039F0000A2001F0CFFB01210C2001F0CBFB0021BC
:103A00000D2001F0C7FB00210F2001F0C3FB322085
:103A100002F0AEF940F20111072001F0BBFB3220A9
:103A200002F0A6F94FF48651102001F0B3FB0721F4
:103A3000112001F0AFFB4FF48871122001F0AAFBB6
:103A40004FF43061132001F0A5FB0021292001F083
:103A5000A1FB44F210012B2001F09CFB002150201F
:103A600001F098FBEF21512001F094FB002152203E
:103A700001F090FB40F23F11532001F08BFB4FF41B
:103A80001C51602001F086FB0121612001F082FBC6
:103A900000216A2001F07EFB0021802001F07AFBEA
:103AA0000021812001F076FB002100E02DE0822042
:103AB00001F070FB0021832001F06CFB00218420C9
:103AC00001F068FB0021852001F064FB10219020AB
:103AD00001F060FB0021922001F05CFB01219320AA
:103AE00001F058FB4FF48871952001F053FB002141
:103AF000972001F04FFB0021982001F04BFB40F292
:103B00007311072001F046FB73E42748808849F2CF
:103B1000313188427DD141F21401E72001F03AFBB6
:103B20004FF48071012001F035FB4FF40071022049
:103B300001F030FB41F23801032001F02BFB40F291
:103B40000221082001F026FB0021092001F022FBC0
:103B500000210A2001F01EFB00210C2001F01AFBBD
:103B600000210D2001F016FB00210F2001F012FBB7
:103B70000021102001F00EFB0721112001F00AFBAB
:103B80000021122001F006FB0021132001F002FBAE
:103B9000C82002F0EDF841F29061102001F0FAFA2D
:103BA00040F22721112001E04402002001F0F2FA46
:103BB000322002F0DDF80C21122001F0EBFA322065
:103BC00002F0D6F84FF40061132001F0E3FA11215E
:103BD000292001F0DFFA0B212B2001F0DBFA322043
:103BE00002F0C6F80021202001F0D4FA40F23F1183
:103BF000212001F0CFFA0021302001F0CBFA4FF460
:103C00008371312001F0C6FA0021322001F0C2FA9E
:103C100000E067E04FF40171352001F0BBFA41F29A
:103C20000A61362001F0B6FA40F20771372001F040
:103C3000B1FA4FF48371382001F0ACFA40F2077109
:103C4000392001F0A7FA40F202413C2001F0A2FA2B
:103C500040F60F413D2001F09DFA0021502001F077
:103C600099FAEF21512001F095FA0021522001F03C
:103C700091FA40F23F11532001F08CFA4FF41C519D
:103C8000602001F087FA0121612001F083FA002110
:103C90006A2001F07FFA0021802001F07BFA0021E8
:103CA000812001F077FA0021822001F073FA0021CF
:103CB000832001F06FFA0021842001F06BFA0021CB
:103CC000852001F067FA1021902001F063FA4FF48B
:103CD000C061922001F05EFA40F23311072001F03A
:103CE00059FA81E4FE48808845F2084188427DD136
:103CF0004FF48071012001F04DFA4FF4E061022091
:103D000001F048FA41F23001032001F043FA0021AA
:103D1000042001F03FFA40F20721082001F03AFAAE
:103D20000021092001F036FA00210A2001F032FAC0
:103D300000210C2001F02EFA00210D2001F02AFABA
:103D400000210F2001F026FA142002F011F841F2B0
:103D5000B061102001F01EFA0121112001F01AFAC1
:103D60000121172001F016FA4FF49C71122001F086
:103D700011FA4FF40061132001F00CFA09212920F7
:103D800001F008FA09212A2001F004FA0021A420F8
:103D900001F000FA0021502001F0FCF9EF21512040
:103DA00001F0F8F90021522001F0F4F940F23F113E
:103DB000532001F0EFF94FF41C51602001F0EAF9B3
:103DC0000121612001F0E6F900216A2001F0E2F909
:103DD0000021802001F0DEF90021812001F0DAF9D4
:103DE0000021822001F0D6F9002100E024E08320A8
:103DF00001F0D0F90021842001F0CCF900218520C8
:103E000001F0C8F91321902001F0C4F9002192209B
:103E100001F0C0F90321932001F0BCF94FF488713F
:103E2000952001F0B7F940F27311072001F0B2F9C3
:103E3000322001F09DFFB8E4A948808841F2055185
:103E400088427DD10021072001F0A4F9322001F041
:103E50008FFF4FF48E71122001F09CF90121A420F4
:103E600001F098F90F21082001F094F908210A20A7
:103E700001F090F908210D2001F08CF940F2077152
:103E8000302001F087F90721312001F083F940F259
:103E90000361322001F07EF94FF4E061332001F03C
:103EA00079F940F20221342001F074F90221352021
:103EB00001F070F941F60F71362001F06BF940F214
:103EC0000771372001F066F90021382001F062F90E
:103ED0000021392001F05EF940F207713A2001F02B
:103EE00059F900213B2001F055F907213C2001F050
:103EF00051F900213D2001F04DF9322001F038FF49
:103F00000121072001F046F90121172001F042F9B3
:103F1000322001F02DFF4FF4BD51102001F03AF98D
:103F200040F21721112001F035F94FF48F71122062
:103F300001F030F94FF47061132001F02BF900E02B
:103F400095E000212A2001F025F90A21292001F01D
:103F500021F94FF49F71122001F01CF9002150202B
:103F600001F018F9EF21512001F014F9002152203D
:103F700001F010F940F23F11532001F00BF94FF41A
:103F80001C51602001F006F90121612001F002F9C5
:103F900000216A2001F0FEF80021802001F0FAF8EB
:103FA0000021812001F0F6F80021822001F0F2F8D2
:103FB0000021832001F0EEF80021842001F0EAF8CE
:103FC0000021852001F0E6F81321902001F0E2F8AD
:103FD0004FF44071922001F0DDF80521932001F0AB
:103FE000D9F80021952001F0D5F80021972001F0A3
:103FF000D1F80021982001F0CDF84FF48071012014
:1040000001F0C8F84FF4E061022001F0C3F841F27A
:104010003801032001F0BEF80021042001F0BAF8B5
:1040200000210C2001F0B6F800210F2001F0B2F8B9
:104030000021202001F0AEF80021212001F0AAF893
:104040002121072001F0A6F8142001F091FE612142
:10405000072001F09FF8142001F08AFE40F273114E
:10406000072001F097F8142001F082FE98E41C4824
:1040700080884BF2055188427ED10021084601F02C
:1040800089F80021084601F085F80021084601F072
:1040900081F80021084601F07DF80121A42001F0FB
:1040A00079F8142001F064FE4FF41C51602001F0F7
:1040B00071F840F20221082001F06CF84FF405710C
:1040C000302001F067F843F21571312001F062F8F9
:1040D00040F20461322001F05DF840F6166101E023
:1040E00044020020332001F055F842F2112134201F
:1040F00001F050F84FF4A851352001F04BF848F288
:104100000751362001F046F841F20741372001F00F
:1041100041F841F20341382001F03CF820213920D8
:1041200001F038F81A21902001F034F80021102015
:1041300001F030F80721112001F02CF800211220A5
:1041400001F028F80021132001F024F8142001F0D8
:104150000FFE4FF4E661102001F01CF840F2371119
:10416000112001F017F8142001F002FE4FF4DC7169
:10417000122001F00FF800E086E0142001F0F8FDB5
:104180004FF47061132001F005F880212A2001F01E
:1041900001F84821292000F0FDFF142001F0E8FD7E
:1041A0004FF48071012000F0F5FF4FF4E061022030
:1041B00000F0F0FF41F23801032000F0EBFF40F285
:1041C0000221082000F0E6FF00210A2000F0E2FFB3
:1041D00000210C2000F0DEFF00210D2000F0DAFFAE
:1041E00030210E2000F0D6FF0021502000F0D2FF39
:1041F000EF21512000F0CEFF0021522000F0CAFF35
:1042000040F23F11532000F0C5FF4FF41C516020D5
:1042100000F0C0FF0121612000F0BCFF00216A20F6
:1042200000F0B8FF1121902000F0B4FF4FF4C061FE
:10423000922000F0AFFF40F20241932000F0AAFF6D
:104240000221942000F0A6FF142001F091FD01212D
:10425000072000F09FFF142001F08AFD6121072054
:1042600000F098FF40F27311072000F093FF002147
:10427000202000F08FFF0021212000F08BFF222161
:10428000002000F087FF13E3FE4880884CF20551C0
:1042900088427CD10021084600F07CFF00210846BE
:1042A00000F078FF142001F063FD0021084600F0C3
:1042B00071FF0021084600F06DFF0021084600F064
:1042C00069FF0021084600F065FF0121A42000F0ED
:1042D00061FF142001F04CFD4FF41C51602000F0F0
:1042E00059FF40F60601082000F054FF40F2037128
:1042F000302000F04FFF0121312000F04BFF04215E
:10430000322000F047FF4FF48171332000F042FF6C
:104310004FF44071342000F03DFF40F2031135208E
:1043200000F038FF1F21362000F034FF40F2037107
:10433000372000F02FFF0121382000F02BFF04214F
:10434000392000F027FF1521902000F023FF4FF4C3
:104350008261102000F01EFF40F24721112000F082
:1043600019FF4FF4DE71122000F014FF4FF460616A
:10437000132000F00FFF782001F0FAFC4FF4807159
:10438000012000F007FF4FF40071022000E052E02E
:1043900000F000FF41F23001032000F0FBFE082195
:1043A0000A2000F0F7FE00210C2000F0F3FE20218F
:1043B0000E2000F0EFFE00210F2000F0EBFE0021A8
:1043C000202000F0E7FE0021212000F0E3FE3D2147
:1043D0002A2000F0DFFE142001F0CAFC2D21292044
:1043E00000F0D8FE0021502000F0D4FE4DF2EF0185
:1043F000512000F0CFFE0021522000F0CBFE40F211
:104400003F11532000F0C6FE0021612000F0C2FEE3
:1044100000216A2000F0BEFE4FF44071922000F0AF
:10442000B9FE0521932000F0B5FE4FF480710720FE
:1044300000F0B0FE3CE29348808848F6891188423B
:104440007DD10121002000F0A5FE4AF6A401032041
:1044500000F0A0FE00210C2000F09CFE40F60C01B4
:104460000D2000F097FE4FF42C510E2000F092FE2C
:10447000B0211E2000F08EFE42F63F31012000F0F8
:1044800089FE4FF4C061022000F084FE002110205C
:1044900000F080FE46F27801112000F07BFE002142
:1044A000052000F077FE0021062000F073FE4EF696
:1044B0001C71162000F06EFE0321172000F06AFE2A
:1044C00040F23321072000F065FE00210B2000F0B0
:1044D00061FE00210F2000F05DFE0021412000F070
:1044E00059FE0021422000F055FE0021482000F036
:1044F00051FE40F23F11492000F04CFE00214A20BD
:1045000000F048FE00214B2000F044FE4FF46F41C4
:10451000442000F03FFE0021452000F03BFE40F229
:104520003F11462000F036FE40F20771302000F0C7
:1045300031FE4FF40171312000F02CFE00E03DE02F
:104540004FF40171322000F025FE40F20251332079
:1045500000F020FE40F20751342000F01BFE4FF423
:104560000171352000F016FE4FF40171362000F085
:1045700011FE40F20251372000F00CFE40F20231F1
:104580003A2000F007FE40F202313B2000F002FE2C
:104590000021232000F0FEFD0021242000F0FAFD80
:1045A0004FF40041252000F0F5FD00214F2000F0E0
:1045B000F1FD00214E2000F0EDFD79E131488088C9
:1045C00044F2315188427CD10121002000F0E2FD0B
:1045D0000A2001F0CDFB41F22861102000F0DAFD45
:1045E0000E21122000F0D6FD40F63921132000F0F4
:1045F000D1FD0A2001F0BCFB4021112000F0CAFDD2
:104600005021152000F0C6FD0A2001F0B1FB1E214B
:10461000122000F0BFFD0A2001F0AAFB4FF4B151B7
:10462000102000F0B7FD42F63921132000F0B2FD52
:104630000A2001F09DFB4FF48071012000F0AAFDDB
:104640004FF44071022000F0A5FD41F23801032033
:1046500000F0A0FD40F20221082000F09BFD08219F
:104660000A2000F097FD0021302000F093FD40F279
:104670000241312000F08EFD4FF48371322000F0B2
:1046800089FD01E04402002040F20351332000F094
:1046900081FD4FF48271342000F07CFD40F2013145
:1046A000352000F077FD40F20771362000F072FDF2
:1046B00040F20531372000F06DFD4FF402713820D3
:1046C00000E040E000F066FD40F60B71392000F09C
:1046D00061FD0221412000F05DFD4FF41C5160207E
:1046E00000F058FD0121612000F054FD4FF40471E9
:1046F000902000F04FFD4FF48571922000F04AFDAC
:104700000421932000F046FD4FF48071A02000F0BA
:1047100041FD0121072000F03DFD2121072000F08F
:1047200039FD2321072000F035FD3321072000F05B
:1047300031FD40F23311072000F02CFD0021A020B4
:1047400000F028FDB4E06048808844F2355188428A
:10475000F8D13021152000F01DFD10219A2000F025
:1047600019FD2021112000F015FD43F228411020F1
:1047700000F010FD0221122000F00CFD41F2380182
:10478000132000F007FD282001F0F2FA122108465C
:1047900000F000FD282001F0EBFA43F22041102048
:1047A00000F0F8FC43F23801132000F0F3FC46203F
:1047B00001F0DEFA0021302000F0ECFC40F2024172
:1047C000312000F0E7FC40F20731322000F0E2FC3B
:1047D0004FF44171332000F0DDFC0421342000F05F
:1047E000D9FC40F20141352000F0D4FC40F20771C1
:1047F000362000F0CFFC40F20531372000F0CAFC33
:104800004FF4C261382000F0C5FC4FF4C26139207A
:1048100000F0C0FC4FF48071012000F0BBFC4FF4AD
:104820004071022000F0B6FC41F23001032000F09C
:10483000B1FC40F60801082000F0ACFC08210A2079
:1048400000F0A8FC4FF41C51602000F0A3FC0121F3
:10485000612000F09FFC4FF49F71902000F09AFCC3
:104860004FF48071922000F095FC4FF480719320FA
:1048700000F090FC4FF44051A02000F08BFC102180
:10488000A32000F087FC0121072000F083FC2121F8
:10489000072000F07FFC2321072000F07BFC332160
:1048A000072000F077FC40F23311072000F072FC83
:1048B0000020FCF77BF80120044908604FF6FF70E8
:1048C000FCF730F810BD000044020020A80122428D
:1048D00010B54FF0883017490860091D08600020A6
:1048E00014490C310860881513490861400048617B
:1048F000402048611148808848F68911884202D1D9
:10490000022001F053FA0B480830006884B24020BE
:1049100009490861C00008614FF03330054908605B
:10492000091D08604FF6FF7002490C3108602046EF
:1049300010BD0000000C01400010014044020020A6
:1049400010B50446204600F00BFCFFF7C1FF10BD78
:10495000F0B5054600240027F748807901281ED1CC
:10496000F548808846F60401884218D0082D15D2F3
:10497000DFE805F00406080A0C0E101206250DE00B
:1049800007250BE0042509E0052507E0012505E0E2
:10499000002503E0032501E0022500BF00BFE64833
:1049A000808849F24131884211D0E348808846F638
:1049B000040188420BD0E048808845F210318842DB
:1049C00005D0DD48808845F2105188427ED1082DFF
:1049D0001CD2DFE805F00406090C0F12151800BF01
:1049E00014E044F0800411E044F040040EE044F090
:1049F000C0040BE044F0200408E044F0600405E04B
:104A000044F0A00402E044F0E00400BF00BFCA4844
:104A1000808845F21051884202D14FF4585700E087
:104A20003627C548808845F21031884207D0C248F1
:104A3000808845F21051884201D044F00804BE48F5
:104A4000808846F60401884201D144F002042146E0
:104A5000384600F09FFB04F0200018B9B648807972
:104A600001280DD1B4480088B3494988884214DA36
:104A7000B14806884088B0490880084646800CE066
:104A8000AD480088AC494988884206DDAA480688B6
:104A90004088A949088008464680A748808845F292
:104AA000105188427ED1A449488900F059FB4FF447
:104AB0008070A2490861400048610020A049086058
:104AC00080209E4948610861800000E021E1086182
:104AD00099494989491C88B200F042FB4FF4807023
:104AE000964908614000486100209549086080208F
:104AF000924948610861800008618F494989891C91
:104B000088B200F02DFB4FF480708C4908614000A2
:104B1000486189480088401E001289490860802049
:104B20008649486108618000086183494989C91C38
:104B300088B200F015FB4FF4807080490861400096
:104B400048617D480078401EC0B27D4908608020E1
:104B50007A4948610861800008617749888900F0D6
:104B6000FFFA4FF4807075490861400048610020E9
:104B700073490860802071494861086180000861BC
:104B80006D498989491C88B200F0EAFA4FF48070B7
:104B90006A49086140004861002069490860802036
:104BA000664900E034E048610861800008616249BC
:104BB0008989891C88B200F0D3FA4FF480705F496C
:104BC0000861400048615C484088401E00125C4912
:104BD0000860802059494861086180000861564991
:104BE0008989C91C88B200F0BBFA4FF48070534920
:104BF00008614000486150488078401EC0B250496A
:104C0000086080204D494861086180000861B8E073
:104C10004949488900F0A4FA4FF480704749086177
:104C200040004861002046490860802043494861AF
:104C30000861800008614010086140004861002060
:104C40003F49086080203D49486108618000086153
:104C5000401008614000486137480088401E00123B
:104C60003749086080203549486108618000086143
:104C700040100861400048612F480078401EC0B2D3
:104C80002F49086080202D49486108618000086133
:104C90002949888900F064FA4FF480702749086137
:104CA000400048610020264908608020234948616F
:104CB00008618000086140100861400048610020E0
:104CC0001F49086080201D49486108618000086113
:104CD000401008614000486117484088401E00129B
:104CE0001749086080201549486108618000086103
:104CF00040100861400048610F488078401EC0B2F3
:104D00000F49086080200D494861086180000861F2
:104D100037E0082D22D2DFE805F004070A0D151848
:104D20001B1E44F0300419E044F0100416E044F077
:104D3000200413E000BF11E04402002000100140F5
:104D40000C0C014044F0380408E044F0280405E06D
:104D500044F0180402E044F0080400BF00BF094812
:104D6000808848F68911884204D1112746F2400014
:104D7000044302E0032744F480542146384600F0FF
:104D800009FAF0BD4402002030B504460D468448BF
:104D9000808849F24131884205D08148808845F2B7
:104DA0001031884240D17E49488900F0D9F94FF44A
:104DB00080707C4908614000486120127A4908608F
:104DC00080207849486108618000086140100861CE
:104DD00040004861E0B27449086080207149486130
:104DE0000861800008616E49888900F0B9F94FF4C4
:104DF00080706C4908614000486128126A49086067
:104E0000802068494861086180000861401008619D
:104E100040004861E8B26449086080206149486107
:104E2000086180000861B9E05D48808846F60401A9
:104E3000884249D15A488079012804D158480088CD
:104E4000401E001B84B25649488900F089F94FF48E
:104E5000807054490861400048612012524908603E
:104E60008020504948610861800008614010086155
:104E700040004861E0B24C490860802049494861DF
:104E80000861800008614649888900F069F94FF49B
:104E90008070444908614000486128124249086016
:104EA0008020404948610861800008614010086125
:104EB00040004861E8B23C490860802039494861B7
:104EC00008618000086169E03548808845F210512A
:104ED000884250D13249488900F042F94FF480703D
:104EE000304908614000486120122F490860802045
:104EF0002C49486108618000086129494989491C99
:104F000088B200F02DF94FF4807026490861400006
:104F10004861E0B224490860802022494861086164
:104F2000800008611E49888900F01AF94FF48070EA
:104F30001C4908614000486128121B490860802014
:104F40001849486108618000086115498989491C30
:104F500088B200F005F94FF48070124908614000F2
:104F60004861E8B21049086080200E494861086134
:104F70008000086112E00A488079012804D10848BD
:104F80000088401E001B84B205494889214600F074
:104F900001F903498889294600F0FCF830BD00007A
:104FA00044020020001001400C0C01402DE9F84F94
:104FB0000746884616461C46C3462046E31704EBC0
:104FC0005373DB1021464FEAE47C04EB5C7C4FEA30
:104FD000EC0CA4EBCC0CBCF1000F02D04FF0010C98
:104FE00001E04FF0000C6344224604EBD27C4FEA10
:104FF0006C0C03FB0CF3DBB20093A6F12000C6B2ED
:10500000002556E00C2C07D106EB46002B4901EB9E
:10501000800010F8059013E0102C05D1284800EB13
:10502000061010F805900BE0182C07D106EBC6000F
:10503000244901EB800010F8059001E0BDE8F88FED
:105040004FF0000A2FE009F0800030B11E480288BE
:1050500041463846FBF77EFD07E00A9828B91B4811
:10506000028841463846FBF775FD4FEA49604FEA32
:10507000106908F101001FFA80F815480088B8424D
:1050800000DCDBE7A8EB0B00A04208D1D846781C77
:1050900087B20F480088B84200DCCFE706E00AF18B
:1050A000010000F0FF0ABAF1080FCCDB00BF681C5A
:1050B000C5B200988542A5DB00BFBFE73A7700087C
:1050C000AE7B00089E8100080A0000200C00002032
:1050D000440200202DE9F84704460D4690469946C3
:1050E000DDE9096704F0FF0A08EB04001FFA80F805
:1050F00009EB05001FFA80F916E0444502DB54462F
:10510000A81985B24D4500DB14E0002000903A78E4
:10511000334629462046FFF749FF304606EBD0715B
:1051200004EB61018CB27F1C38787E2802DC387871
:105130002028E2DA00BFBDE8F88700004FF4807154
:10514000054A11614900516104490860802151619B
:105150001161890011617047001001400C0C014081
:105160004FF48071054A516149005161044908605A
:105170008021516111618900116170470010014067
:105180000C0C014000B502490889FFF7E9FF00BD9A
:105190004402002010B504460B462046FFF7E0FF0E
:1051A0004FF480700549086140004861044803607D
:1051B0008020486108618000086110BD0010014036
:1051C0000C0C01401848806940F0040016498861C1
:1051D0000846806940F0200088611448006820F08B
:1051E0000F00124908600846006840F0030008609C
:1051F0000E480830006840F480700C49083108609F
:105200000B48006820F4706009490860084600688F
:1052100040F44070086006480C30006840F004001C
:1052200003490C3108607047001002400408014037
:105230000014014000B5002015490861C860142021
:10524000486100208861C8610846006840F001009C
:105250000860084640680F4908400D494860084604
:1052600000680D4908400A4908600846006820F4B3
:10527000802008600846406820F4FE004860002056
:10528000886000214FF0006000F058F800BD000079
:10529000001002400000FFF8FFFFF6FE2DE9F0418C
:1052A0000746884614461D46284600F033F8C5F1E7
:1052B000040007FA00F60F20284100EA0800064320
:1052C00006F00F06E21704EBD2625211920002F1CF
:1052D000E022D2F800212146E31704EBD3635B11EF
:1052E000A4EB431C012303FA0CF31A432046E317F3
:1052F00004EBD3635B119B0003F1E023C3F80021AF
:105300000348005D40EA061001490855BDE8F081F8
:1053100000E400E00146072323EA01021202054BE4
:1053200018684FF6FF031840034B18431043014B16
:10533000186070470CED00E00000FA05024A0A40D0
:105340000243024B1A60704780FFFF1F08ED00E028
:1053500070B50446002534B1012C06D0032C06D0CC
:10536000042C08D105E0B02505E0982503E01825B8
:1053700001E0302500BF00BF2946552000F0B6FAF5
:1053800070BD2DE9F0410446802522265E2734B108
:10539000012C08D0032C0AD0042C10D10BE040259E
:1053A00011262F270BE066251B264B2707E09925A2
:1053B0002826712703E0C02533268D2700BF00BFB4
:1053C00029464F2000F092FA2946502000F08EFA2C
:1053D0000021512000F08AFA3146522000F086FA6E
:1053E0003946532000F082FA2946542000F07EFA14
:1053F0009E21582000F07AFABDE8F08170B504468D
:10540000402534B1012C06D0032C06D0042C08D141
:1054100005E0302505E0382503E0502501E0602552
:1054200000BF00BF2946562000F060FA70BD0000A2
:1054300070B500253948806940F00400374988611B
:105440000846806940F008008861354800683549A1
:10545000084033490860084600683349084330492A
:1054600008602F480C30006840F010002C490C31C7
:1054700008600846006840F0030008602848001DE6
:1054800000682A4908402649091D08600846006846
:10549000274908432249091D086021480C3000684B
:1054A00040F440401E490C3108600846006840F452
:1054B000C05008600120FBF71DFA00F0E5F88021DC
:1054C000122000F013FA08B1012070BD322000F064
:1054D0004FFC0B2000F058F90446732C01D0022039
:1054E000F3E70A2000F050F90446762C01D00220A0
:1054F000EBE700250DE00F4A02EB450251780D4A1B
:1055000012F8150000F0F2F9022000F031FC681CDE
:1055100085B2732DEFD30020D7E7000000100240C2
:105520000008014000FFF0FF33000300FF0FF00010
:1055300000300383FA8E00082DE9F0410446E72588
:1055400000260027012C06D0022C08D0032C0AD0FC
:10555000042C10D10BE0E5255A265C270BE0E5254D
:105560005826602707E0E52584264C2703E0E5253B
:105570009626402700BF00BF2946132000F0B6F949
:105580003146012000F0B2F93946022000F0AEF9B0
:10559000BDE8F0812DE9F04104460425C0268027AE
:1055A000072C1DD2DFE804F01C04080C10141800AE
:1055B00024258026802713E01425802680270FE0ED
:1055C0001425C02680270BE014254026402707E03D
:1055D00014258026C02703E01425A026402700BFFD
:1055E00000BF29463A2000F081F93146682000F0DA
:1055F0007DF93946672000F079F9BDE8F0812DE9A1
:10560000F04705460E469046994605EB48001FFABE
:1056100080FA06EB490087B2B7F5447F02DDA7F5B3
:10562000447087B2032000F0AFF8044604F0F004A1
:105630000AF00301284661F39F000443214603203A
:1056400000F054F9C5F38701192000F04FF9CAF3AF
:1056500087011A2000F04AF9322000F095F804463C
:1056600004F0C00407F00701304661F3DF00044393
:10567000C6F3C701172000F039F9C7F3C701182096
:1056800000F034F9BDE8F0871048806940F0100060
:105690000E4988610E48006820F47F000C490860BC
:1056A0000846006840F44C1008600846C06840F0A6
:1056B0003000C8600846006820F4700008600846A2
:1056C000006840F44010086070470000001002407D
:1056D0000010014010B5322000F068FB01200B499A
:1056E00008600B49C1F89001322000F05FFB0020F8
:1056F0000649091F0860322000F058FB00200449C9
:10570000C1F89401322000F051FB10BD94012242F7
:105710000000224270B500241848006820F4700090
:10572000164908600846006840F400000860082533
:1057300015E0322000F03AFB0120114908606006B4
:10574000040E1048D0F8140108B1601CC4B2322015
:1057500000F02CFB00200A490860681EC5B2002D2D
:10576000E7DC0648006820F4700004490860084639
:10577000006840F440100860204670BD00100140F1
:10578000900122420000224270B50446002500F03C
:1057900023F8422000F054F8642000F007FB204674
:1057A00000F04EF8642000F001FB00F02FF86420B8
:1057B00000F0FCFA00F010F8432000F041F86420FB
:1057C00000F0F4FAFFF7A6FF0546FFF783FF00F0AD
:1057D0001DF8284670BD000010B501200949086079
:1057E0000949C1F89001322000F0E0FA0020054993
:1057F0000860322000F0DAFA00200349C1F8900175
:1058000010BD0000940122420000224210B5002089
:1058100009490860322000F0C9FA01200749C1F89F
:105820009001322000F0C2FA0120034908603220C2
:1058300000F0BCFA10BD0000940122420000224298
:1058400070B5044600261BE004F0800018B101206A
:105850002349086002E00020214908606006040E28
:10586000322000F0A3FA01201D49091F08603220F0
:1058700000F09CFA00201B49C1F89001701CC6B2D0
:10588000082EE1DB1848006820F470001649086013
:105890000846006840F400000860322000F086FAF4
:1058A00001200F49091F0860322000F07FFA0D48DF
:1058B000D0F8140108B1012500E0002500200849B6
:1058C000091F08600848006820F470000649086055
:1058D0000846006840F440100860284670BD00008B
:1058E00094012242000022420010014070B505469A
:1058F0000C460026FFF770FF4220FFF7A1FF00B122
:105900000126642000F052FA2846FFF799FF00B103
:105910000126642000F04AFA2046FFF791FF00B10B
:105920000126FFF773FF304670BD000030B5044616
:105930000025FFF77FFC1F48006840F480301D49B8
:10594000086000BF1B480068400C0028FAD04FF4E4
:10595000806018494860A01EC4B20846406840EA0A
:10596000844048600846406840F4803048601248EF
:10597000006840F03200104908600E48006840F0AE
:1059800080700C49086000BF0A480068400E00287B
:10599000FAD00848406840F002000649486005E037
:1059A00004484068C0F3870505F00305022DF7D1D0
:1059B00030BD000000100240002002404FF0804146
:1059C000088A2A49097801F08001002948D100F0AD
:1059D0000101D1B12549097801F04001A9B123495C
:1059E000097801F03F013F290AD12049097841F0A7
:1059F00080011E4A11704FF6FF711D4A118004E0AC
:105A00001A490978491C194A117000F0020139B38A
:105A10001649097801F0400199B11449097841F01B
:105A20008001124A11704FF08041898E104A118016
:105A30004FF08041098C21F002014FF08042118427
:105A40000EE000210A4A11804021084A117000210D
:105A50004FF0804291841146098C41F0020111847B
:105A600000214FF080421182704700001100002099
:105A70001200002010B50A48008800F0010038B17B
:105A80000848017808A0FAF7EFFB002005490870E4
:105A90000348008820F001000149088010BD000083
:105AA00010040040100000206672616D653A2564A4
:105AB0006670730D0A00000070B505460C4610486C
:105AC000C06940F002000E49C8610E480580001F01
:105AD00004800C482038008840F001000949203932
