:020000040800F2
:10000000F80600202D0200085F440008730B00086A
:100010005D440008650700087555000800000000F1
:10002000000000000000000000000000274B000856
:100030006707000800000000BD470008E94B000802
:10004000470200084702000847020008470200086C
:100050004702000847020008690700084702000835
:10006000A1070008D9070008110800084702000886
:10007000470200084702000847020008470200083C
:10008000470200084702000847020008470200082C
:100090004702000847020008470200088D080008D0
:1000A000470200084702000847020008470200080C
:1000B00047020008254D0008594D00084702000876
:1000C00047020008470200084702000847020008EC
:1000D00047020008D1530008470200084702000801
:1000E00047020008470200084702000847020008CC
:1000F00047020008470200084702000847020008BC
:100100004702000847020008154E00084702000891
:1001100047020008470200089D4E000847020008F9
:10012000470200084702000847020008470200088B
:1001300000F002F800F06BF80AA090E8000C82448E
:100140008344AAF10107DA4501D100F060F8AFF26B
:10015000090EBAE80F0013F0010F18BFFB1A43F0A5
:1001600001031847EC8500000C8600000A444FF09C
:10017000000C10F8013B13F0070408BF10F8014B06
:100180001D1108BF10F8015B641E05D010F8016B4B
:10019000641E01F8016BF9D113F0080F1EBF10F8AF
:1001A000014BAD1C0C1B09D16D1E58BF01F801CBD2
:1001B000FAD505E014F8016B01F8016B6D1EF9D555
:1001C0009142D6D37047000000230024002500266A
:1001D000103A28BF78C1FBD8520728BF30C148BFAA
:1001E0000B607047642900F0B380752900F0B0807F
:1001F000782900F0E980632900F06182732900F01A
:100200006682002070471FB51FBD10B510BD00F0FD
:1002100079FA1146FFF7F7FF05F092FA00F097FA26
:1002200003B4FFF7F2FF03BC05F0ACF909488047BF
:1002300009480047FEE7FEE7FEE7FEE7FEE7FEE7C8
:10024000FEE7FEE7FEE7FEE704480549034A054BE3
:1002500070470000ED4B000831010008F802002053
:10026000F8060020F8020020704700000FB404498F
:1002700010B503AA029800F02FFA10BC5DF814FB29
:100280005C0000200FB41CB5074B06AA7B446946EE
:100290000090059800F0F1F90020694600F000FA9E
:1002A0001CBC5DF814FB00001104000070B504468E
:1002B00085690068C10601D5302600E02026C00708
:1002C00008D070BDD4E9012130469047206A00F182
:1002D000010020626D1EF5D570BD70B504468569BC
:1002E0000078C00708D170BDD4E9012120209047D3
:1002F000206A00F1010020626D1EF5D570BD70B559
:100300000C460546012A05D02878800600D5EA6902
:10031000002302E0012305E05B1C934202D2E05C73
:100320000028F9D1A869E618C01AA861286A1844FB
:1003300028622846FFF7BAFF04E0D5E9012114F846
:10034000010B9047B442F8D32846FFF7C6FF70BDB3
:100350002DE9F0410646002410687529314616A59E
:1003600011D0AFF30080002803DAC0F1000013A51C
:1003700007E031688A0701D511A502E0490704D5D5
:1003800010A5012401E0AFF3008000210A2306F14B
:10039000240707E0B0FBF3F203FB1200303078547F
:1003A0001046491C0028F5D123462A463046BDE8B0
:1003B000F04100F001B90000000000002D00000035
:1003C0002B0000002000000070B504460D462146B9
:1003D0001068AFF300802188090502D5104A7A44DD
:1003E00002E00F4A7A440E32002104F1240307E0B0
:1003F00000F00F064FEA1010965D5E5401F1010106
:100400000028F5D103462078000704D5702D02D0CE
:1004100009B1113202232046BDE8704000F0CCB88B
:10042000EA8100002DE9F05F894604464FF0000A9A
:10043000DFF878B1FB44C0F820A02046E168884787
:10044000002875D0252806D0D4E901219047206ADC
:10045000401C2062F1E700265F462046E16888479D
:100460002028054608DB312D06D207EB050010F8E1
:10047000200C08B10643F0E7B00701D526F00406CA
:10048000C4F81CA00027C4F818A02A2D09D02846BB
:1004900005F071F838B304EB8708303DC8F8185000
:1004A00019E059F8041B204604EB87029161E168CA
:1004B0008847012F054618D1E069002820DA26F088
:1004C00020061DE0D8F8180000EB800005EB400086
:1004D0003038C8F818002046E1688847054605F01E
:1004E0004AF80028EED1012F0AD02E2D08D120463F
:1004F000E16888477F1C0546022F46F02006C4DBD2
:10050000A069002803DA404246F00106A061F00726
:1005100001D026F010066C2D0BD0682D09D04C2D83
:1005200039D06A2D35D0742D35D07A2D33D016E0E0
:1005300038E0E1682F4620468847B842054609D191
:100540006C2F26D04FF48060E16806432046884730
:10055000054604E06C2F1AD04FF4807006430DB3AB
:10056000A5F14100192802D8203546F400664A4614
:100570002946204626604E46FFF734FE80B101280A
:100580000BD0F61D26F0070000F1080955E74020C2
:10059000E4E78020D8E70020D6E706F104094CE71D
:1005A000284651E7206ABDE8F09F0000BC810000AA
:1005B00070477047704770472DE9F0470D469946E0
:1005C0009246044600F124080168880604D5E069D3
:1005D00021F01001216000E00120A84202DDA0EB23
:1005E000050700E00027A16907EB050202EB0900FF
:1005F000A1EB0000A0612078C00602D42046FFF7DE
:1006000055FE002608E0D4E901211AF806009047BB
:10061000206A401C761C20624E45F4DB2078C00620
:100620000AD52046FFF742FE06E0D4E9012130203A
:100630009047206A401C2062381EA7F10107F4DCB5
:1006400007E0D4E9012118F805009047206A401C12
:100650002062281EA5F10105F3DC2046FFF73DFED0
:100660002078000602D50220BDE8F0870120FBE7D4
:1006700001694A1C02610878704700B58FB0CDE966
:1006800001310021059105497944CDE90310114656
:100690006846FFF7C7FE0FB000BD0000E5FFFFFF93
:1006A0000A6802F8010B0A60704710B5436913B17C
:1006B000AFF3008001E0FFF722FE012010BD1278A9
:1006C00000F124010A7000224A700122EDE711684E
:1006D0004FF0FF32E9E70000074B70B50D467B4451
:1006E000FFF7CBFF0446284600F008F810B14FF0A2
:1006F000FF3070BD204670BD47500000007B00F009
:1007000080007047754600F029F8AE46050069463E
:10071000534620F00700854618B020B5FFF794FD3A
:10072000BDE820404FF000064FF000074FF00008F2
:100730004FF0000B21F00701AC46ACE8C009ACE873
:10074000C009ACE8C009ACE8C0098D467047044652
:10075000AFF300802046FFF763FD000000487047BC
:1007600094020020FEE7704710B50A2004F0A8FFAD
:100770000121094800F0F2F9012806D10749D1F812
:10078000A00138B10020C1F8A001BDE8104001204F
:1007900000F09AB80120F6E70008014000802142ED
:1007A00010B50A2004F08CFF0421094800F0D6F9A6
:1007B00030B90849D1F8940138B10020C1F894014A
:1007C000BDE81040042000F07FB80120F6E70000EB
:1007D000001801400080214210B50A2004F070FF8B
:1007E0000821094800F0BAF930B90849D1F8940154
:1007F00038B10020C1F89401BDE81040082000F095
:1008000063B80120F6E70000001801400000234211
:1008100010B50A2004F054FF1021094800F09EF999
:1008200030B90849D1F8940138B10020C1F89401D9
:10083000BDE81040102000F047B80120F6E70000A6
:1008400000180140008021423EB50821002000F040
:10085000F9F84FF48070002400908DF804400820CF
:100860008DF8050001258DF80650684600F042F825
:1008700017208DF808008DF809408DF80A408DF892
:100880000B5002A803F0ECFD3EBD000010B54FF484
:100890008074204600F01EF801280AD1074A002083
:1008A0001060012111600648016006480178491C6A
:1008B00001702046BDE8104000F006B89881224241
:1008C0008C8121424E0000200149086070470000E1
:1008D00014040140064A014600201268044B0A40F5
:1008E00014331B680B4202D0002A00D0012070474D
:1008F0000004014030B51A4A8379016853B3136884
:100900008B431360111D0B680468A3430B600179CE
:1009100011440B68046823430B60114B08331968BA
:100920000468A14319601C1D21680568A943216062
:100930004179102905D011440A68006802430A6011
:1009400030BD1968026811431960216800680143CD
:10095000216030BD0079104402688A43026030BDD6
:10096000000401404FF0204202EB800000290168A2
:1009700002D041F0010101E0014A114001607047DD
:10098000FEFF0F0030B5D0E901121143D0E9032377
:100990001A43114342690368114382691143C269D2
:1009A0001143026A1143426A1143826A1143C26AC7
:1009B0001143026B11434FF0204242F8231081682B
:1009C000082906D1016802EB81010B6843F040035E
:1009D0000B60416BD1E9003443EA04138C688D89C4
:1009E000240244EA054423430C8A43EA04530C7D61
:1009F000896943EA04630B43016802EB81014B60A0
:100A0000C16AB1F5804F07D000686FF0704102EB0A
:100A10008000C0F8041130BD816B0068D1E900345A
:100A200043EA04138C680D8A240244EA05542343E4
:100A30000C7D896943EA046302EB80000B43C0F834
:100A4000043130BD10B58A0721F003040649120FA6
:100A500021440F238C6893409C438C608B689040AA
:100A600003438B6010BD000000000140F0B5CC785E
:100A7000002204F00F03E40601D58C7823430C78A0
:100A80004FF00F0C4FF0010EDCB105680E880EFA26
:100A900002F42640A64210D196000CFA06F725EA89
:100AA000070703FA06F5CE783D43282E02D0482EDC
:100AB00002D002E0446100E00461521C082AE5D340
:100AC00005600A88FF2A1CD94468002202F1080642
:100AD0000EFA06F50E882E40AE420ED196000CFAA4
:100AE00006F7BC4303FA06F7CE783C43282E00D124
:100AF0004561CE78482E00D10561521C082AE5D305
:100B00004460F0BDF0B5144C002801DAE36900E060
:100B10006368450D2E0185B2C0F30157B540C0F39F
:100B20000342032F05D0C6020AD503269640B343DD
:100B300007E023F07062636823F07063636002E093
:100B4000AB4343F0706201B12A43002801DAE2614D
:100B5000F0BD6260F0BD00000000014002460020D0
:100B600092680A4200D001207047416170470161DC
:100B70007047FEE708B50121442003F039FE1C2030
:100B8000ADF8000048208DF8030069460648FFF7DD
:100B90006DFF0120ADF8000028208DF803006946A4
:100BA0000248FFF763FF08BD00180140000801403C
:100BB0002DE9F0412E4C2F4F2F4D012608B1267004
:100BC00001E02078A0B110212846FFF7C7FFB0B19F
:100BD00008212846FFF7C2FF88B104212846FFF705
:100BE000BDFF60B101213846FFF7B8FF012806D0EC
:100BF00010212846FFF7B2FF012824D035E00A2053
:100C000004F05EFD0020207010212846FFF7A6FFAB
:100C100080B108212846FFF7A1FF70B104212846C2
:100C2000FFF79CFF58B101213846FFF797FF0128D5
:100C300007D01AE00120BDE8F0810220FBE7032085
:100C4000F9E70420F7E708212846FFF787FF012886
:100C50000BD104212846FFF781FF012805D101218E
:100C60003846FFF77BFF00B926700020E3E700005D
:100C70004400002000080140001801402DE9F04325
:100C8000174F0646002438887D884543B888A0F56C
:100C9000D041043902D1B879012807D00021084693
:100CA00003F0AEF903F0A0FB0E4815E00020B87188
:100CB0004FF02A09A7F80A904FF02B08A7F80C80EC
:100CC000014603F09DF90120B871A7F80A80A7F842
:100CD0000C90E7E70680641CAC42FBD3BDE8F083D0
:100CE000BC0100200008006C2DE9F04F4A492A237E
:100CF0002B24898845F2105A4FF4305B4FF4285E5C
:100D00004FF448754FF0F00C49F241394FF4A07799
:100D100045F210364FF4F07280B13F484FF00108B1
:100D2000494580F806800780A0F802C001D0B14292
:100D30003ED12C2505814381848160E036484FF007
:100D40000008494580F80680A0F800C0478006D01A
:100D5000A1F5D04CBCF1040C01D0B1420CD12C2532
:100D600005814381A1F5D0438481043B01D0B14288
:100D70004DD1078042804AE0514507D1A0F808B024
:100D8000A0F80AE04FF42C51818107E0A1F5C85684
:100D9000633E06D12C2101814481838102804580FC
:100DA00035E02221018120214181212181812EE014
:100DB000A1F5D04CBCF1040C03D12C250581448154
:100DC0001CE0514507D1A0F808B0A0F80AE04FF4A4
:100DD0002C5383810AE0A1F5C85CBCF1630C08D1F7
:100DE0004FF02C0CA0F808C043818481058042801C
:100DF00005E0222303812123438120238381A1F560
:100E0000D043043B01D0B14201D102804780BDE80C
:100E1000F04F002003F01CB8BC0100202DE9F04F7A
:100E2000DFF80C81934642460B46B8F804500C0A92
:100E3000DFF800A19189060A5289A5F513470AF146
:100E40000209413F03D0A5F5A647103F0AD1AAF8F1
:100E500000204A46A9F80060C0B2A9F80000AAF82C
:100E600000104DE0A5F5AA47103F14D1AAF80020C4
:100E7000A9F80060521CAAF80020C0B2A9F800002E
:100E8000AAF80010A9F80040491CAAF80010D8B22E
:100E9000A9F8000044E0264FA5F5C85CBE793F885C
:100EA0003F1A7F1EBCF1630C17D106B9B8B2AAF87D
:100EB0000020050A4A46A9F80050C7B2A9F80070F8
:100EC000A9F80050C0B2A9F80000AAF80010A9F8CB
:100ED0000040D8B2A9F8000012E0A5F5D04CBCF152
:100EE000040C11D1012E00D1B8B2AAF80020050AD5
:100EF0004A46A9F80050C0B2A9F80000AAF80010AC
:100F00001480D8B210800BE0012E00D1B8B2014697
:100F1000104603F073FAB8F80C00194603F06EFAA5
:100F2000B8F80810AAF80010A9F800B0BDE8F08FD2
:100F3000BC010020FE07006C2DE9F8431F4D1F4641
:100F40008046AB88089EA3F5D040043802D1A8792A
:100F5000012807D0A2EB0800401C85B20C46DFF840
:100F6000609028E02B880846991A0024AC713A4614
:100F70002A24A3EB08036C812B27491E5B1EAF813B
:100F800089B29BB20096FFF7D7FF0120A8716F814D
:100F9000AC81BDE8F8832146404603F031F803F008
:100FA00023FA0020494602E00E80401C80B2A8428D
:100FB000FAD3641CA4B2BC42EDD9EAE7BC0100201C
:100FC0000008006C2DE9F04F01210E029FB0304661
:100FD00003F0F6FB01214FF4B47003F009FC012784
:100FE000ADF83C704FF010088DF83F8003248DF869
:100FF0003E400FA9FE48FFF739FD4CF23370ADF8C3
:101000003C0018258DF83F508DF83E400FA9F94857
:10101000FFF72CFD4FF68070ADF83C008DF83F5087
:101020008DF83E400FA9F448FFF720FD41F2010082
:10103000ADF83C008DF83F508DF83E400FA9EF48C9
:10104000FFF714FD00200F21CDE918011A901B9025
:101050001C901D901090CDE91104CDE91607149055
:1010600006211590CDE90010CDE9020813900490F7
:101070003101CDE908010690059007908900CDE97E
:101080000A010C9017A80D9010A80E906846FFF763
:1010900079FC01210620FFF765FC322004F010FBEB
:1010A000002002F0ABFED64DD64C49F24139A88063
:1010B00046F6040A45F2103B45F210574FF6FF780A
:1010C000FF2804D3404502D0B0F5134F70D1D32090
:1010D000208002F089FEA88002F086FEA88002F03F
:1010E00083FE08EA00204146A88002F07DFEAA881F
:1010F0001043A88048455BD0BF20208002F074FEDA
:10110000A88002F071FEA88002F06EFEA88002F0B6
:101110006BFE01EA0020A88002F066FEAA88104358
:10112000A880504544D0D420208002F05DFEA880E5
:1011300002F05AFEA88002F057FE01EA0020A880C3
:1011400002F052FEAA881043A880584530D04FF4D0
:101150005A40208002F048FEA8804FF45B40208077
:1011600002F042FE01EA0020A8804FF45C4020809B
:1011700002F03AFEAA881043A880B0F5004F7DD057
:10118000B84215D0A120208002F02EFEA88002F0E7
:101190002BFE01EA0020A88002F026FEA988084361
:1011A000A0F5AE41A880613902D141F66310A88054
:1011B000A98895A0FFF75AF8A888924DAD1C48451C
:1011C0007ED1CF20208000202880C12028803020A0
:1011D0002880ED2020806420288003202880122091
:1011E000288081202880E8202080852028801020E9
:1011F00028807A202880CB202080392028802C202D
:101200002880002028803420288002202880F72091
:10121000208020202880EA2020800020288028802C
:10122000C02020801B202880C12020800120288011
:10123000C5202080302028802880C7202080B7202B
:10124000288036202080482028803A202080552081
:101250002880B1202080002028801A202880B620F5
:1012600020800A202880A2202880F22020800020D0
:101270002880262020800120288000E051E0E02006
:1012800020800F2028802A202880282028800820DD
:1012900028800E2028800820288054202880A9201B
:1012A0002880432028800A2028800F2028800020C2
:1012B0002880288028802880E1202080002000E0ED
:1012C00031E02880152028801720288007202880DA
:1012D00011202880062028802B2028805620288056
:1012E0003C20288005202880102028800F2028807E
:1012F0003F20288028800F2028802B20208000205D
:1013000028802880012028803F2028802A202080D3
:101310000020288028802880EF202880112020802D
:1013200084E0AF8044E7504576D11120208014201E
:1013300004F0C6F9D0202080072028804220288091
:101340001D202880D1202080002028801A2028807D
:1013500009202880D2202080012028802220288077
:10136000C0202080102028803B202880002028805A
:101370000220288011202880C5202080032028807A
:10138000C820208000202880252028802120288037
:1013900005202880002028800A20288065202880B9
:1013A0002520288077202880502028800F20288022
:1013B00000202880F820208001202880FE20208026
:1013C00000202880022028802020208036202080B5
:1013D000082028803A202080552028802B2020803B
:1013E000002028802880012028803F20288014E0C9
:1013F000000C014000140140001801400020014091
:10140000BC010020FE07006C204C43442049443AB4
:1014100025780D0A000000000EE02A202080002020
:101420002880288001202880DF202880782004F070
:1014300047F9292001F02DBC58457DD1ED202080B1
:1014400001202880FE202880EE202080DE202880B9
:1014500021202880F120208001202880DF2020808A
:1014600010202880C42020808F202880C620208043
:1014700000202880E220288028802880BF2020802B
:10148000AA202880B02020800D20288000202880DD
:101490000D2028800020288011202880002028800E
:1014A00019202880002028802120288000202880E2
:1014B0002D202880002028803D20288000202880A2
:1014C0005D202880002028805D2028800020288042
:1014D000B120208080202880002028808B20288038
:1014E000002028809620288000202880B22020809C
:1014F00000202880288002202880002028800320C7
:10150000288000202880B320208000202880288088
:10151000288028802880288028802880288028808B
:10152000288028802880288028802880288028807B
:1015300028802880288000E0FEE3288028802880FA
:10154000B42020808B2028800020288096202880AE
:1015500000202880A120288000202880B52020801D
:101560000220288000202880032028800020288056
:101570000420288000202880B62020800020288099
:101580002880B72020800020288028803F202880C5
:10159000002028805E202880002028806420288069
:1015A000002028808C20288000202880AC202880E3
:1015B00000202880DC2028800020288070202880BF
:1015C000002028809020288000202880EB20288080
:1015D00000202880DC20288000202880B82020805F
:1015E0000020288028802880288028802880288043
:1015F0002880BA202080242028800020288028806D
:101600002880C1202080202028800020288054208D
:10161000288000202880FF20288000202880C220E9
:1016200020800A2028800020288004202880002094
:101630002880C32020803C202880002028803A2059
:10164000288000202880392028800020288037200A
:101650002880002028803C202880002028803620F8
:1016600028800020288032202880002028802F20F9
:101670002880002028802C202880002028802920F5
:1016800028800020288026202880002028802420F0
:1016900028800020288024202880002028802320E3
:1016A0002880002028803C202880002028803620A8
:1016B00028800020288032202880002028802F20A9
:1016C0002880002028802C202880002028802920A5
:1016D00028800020288026202880002028802420A0
:1016E0002880002028802420288000202880232093
:1016F000288000202880C4202080622028800020AC
:101700002880052028800020288084202880002030
:101710002880F020288000202880182028800020A1
:101720002880A420288000202880182028800020DD
:10173000288050202880002028800C20288000202D
:1017400028801720288000202880952028800020CD
:101750002880F320288000202880E6202880002090
:101760002880C52020803220288000202880442026
:10177000288000202880652028800020288076206E
:101780002880002028808820288000202880C620EB
:1017900020802020288000202880172028800020FA
:1017A00028800120288000202880C7202080002059
:1017B0002880288028802880C82020800020288039
:1017C000288028802880C920208000202880288028
:1017D00028802880288028802880288028802880C9
:1017E000288028802880288028802880E020208069
:1017F00016202880002028801C2028800020288097
:101800002120288000202880362028800020288061
:101810004620288000202880522028800020288010
:1018200064202880002028807A20288000202880BA
:101830008B20288000202880992028800020288064
:10184000A820288000202880B92028800020288017
:10185000C420288000202880CA20288000202880DA
:10186000D220288000202880D920288000202880AD
:10187000E020288000202880F32028800020288075
:10188000E120208016202880002028801C2028802D
:1018900000202880222028800020288036202880D0
:1018A0000020288045202880002028805220288081
:1018B0000020288064202880002028807A2028802A
:1018C000002028808B2028800020288099202880D4
:1018D00000202880A820288000202880B920288087
:1018E00000202880C420288000202880CA2028804A
:1018F00000202880D220288000202880D82028801E
:1019000000202880E020288000202880F3202880E4
:1019100000202880E22020800520288000202880C8
:101920000B202880002028801B2028800020288071
:10193000342028800020288044202880002028800F
:101940004F202880002028806120288000202880C7
:101950007920288000202880882028800020288066
:101960009720288000202880A6202880002028801A
:10197000B720288000202880C220288000202880CE
:10198000C720288000202880D1202880002028809F
:10199000D620288000202880DD2028800020288074
:1019A000F320288000202880E32020800520288044
:1019B000002028800A202880002028801C202880E1
:1019C0000020288033202880002028804420288080
:1019D0000020288050202880002028806220288035
:1019E00000202880782028800020288088202880D7
:1019F000002028809720288000202880A62028808A
:101A000000202880B720288000202880C22028803D
:101A100000202880C720288000202880D12028800E
:101A200000202880D520288000202880DD202880E4
:101A300000202880F320288000202880E4202080B7
:101A40000120288000202880012028800020288074
:101A500002202880002028802A202880002028803A
:101A60003C202880002028804B20288000202880CF
:101A70005D20288000202880742028800020288075
:101A8000842028800020288093202880002028801F
:101A9000A220288000202880B320288000202880D1
:101AA000BE20288000202880C42028800020288094
:101AB000CD20288000202880D32028800020288066
:101AC000DD20288000202880F32028800020288026
:101AD000E52020800020288028802880288002207F
:101AE00028800020288029202880002028803C2071
:101AF0002880002028804B202880002028805D201E
:101B000028800020288074202880002028808420BD
:101B10002880002028809320288000202880A22070
:101B2000288000202880B320288000202880BE2024
:101B3000288000202880C420288000202880CD20F4
:101B4000288000202880D320288000202880DC20C6
:101B5000288000202880F320288000202880E6208C
:101B60002080112028800020288034202880002018
:101B70002880562028800020288076202880002079
:101B80002880772028800020288066202880002058
:101B90002880882028800020288099202880002004
:101BA0002880BB20288000202880992028800020C1
:101BB000288066202880002028805520288000204A
:101BC000288055202880002028804520288000205B
:101BD000288043202880002028804420288000205E
:101BE0002880E7202080322028800020288055206F
:101BF00028800020288076202880002028806620E9
:101C000028800020288067202880002028806720E6
:101C10002880002028808720288000202880992084
:101C2000288000202880BB20288000202880992040
:101C300028800020288077202880002028804420C9
:101C400028800020288056202880002028802320FB
:101C500028800020288033202880002028804520EC
:101C6000288000202880E8202080002028802880EC
:101C70009920288000202880872028800020288024
:101C80008820288000202880772028800020288035
:101C90006620288000202880882028800020288036
:101CA000AA20288000202880BB20288000202880AF
:101CB0009920288000202880662028800020288005
:101CC000552028800020288055202880002028804A
:101CD000442028800020288044202880002028805C
:101CE0005520288000202880E9202080AA202880F4
:101CF00000202880288028802080AA202880CF20CB
:101D00002080002028802880288028802880288023
:101D10002880288028802880288028802880288083
:101D2000288028802880F0202080002028805020D3
:101D300028800020288000E02CE028802880F320E4
:101D4000208000202880F920208006202880102074
:101D5000288029202880002028803A2020805520B3
:101D6000288011202080642003F0AAFC29202080F4
:101D7000352020800020288051202080FF202880CE
:101D8000532020802C2028805520208082202880ED
:101D90002C20FCE3B8427DD14FF470435521184606
:101DA00002F02CFB4FF20105AA21284602F026FB87
:101DB0006E1C5221304602F021FBAF1C0821384630
:101DC00002F01CFB4FF204090121484602F016FB09
:101DD0000D214FF4304002F011FB0D214BF20100B8
:101DE00002F00CFB0D214BF2020002F007FB4FF456
:101DF000364A3421504602F001FB34214BF2016097
:101E000002F0FCFA34214BF2026002F0F7FA4FF4D0
:101E1000314B0D21584602F0F1FA0D214BF2011021
:101E200002F0ECFA0D214BF2021002F0E7FA342135
:101E30004FF4374002F0E2FA34214BF2017002F025
:101E4000DDFA34214BF2027002F0D8FA00214FF48F
:101E5000324002F0D3FA00214BF2012002F0CEFA18
:101E600000214BF2022002F0C9FA24214FF438403D
:101E700002F0C4FA24214BF6010002F0BFFA24213B
:101E80004BF6020002F0BAFA01214FF43F4002F093
:101E9000B5FA00E0FEE30F214FF4334002F0AEFA52
:101EA0000F214BF2013002F0A9FA0F214BF2023060
:101EB00002F0A4FA34214FF4394002F09FFA3421A1
:101EC0004BF6011002F09AFA34214BF6021002F0A0
:101ED00095FA08214FF4354002F090FA08214BF2B0
:101EE000015002F08BFA08214BF2025002F086FA00
:101EF00003214FF4424002F081FA24214FF43A408A
:101F000002F07CFA24214BF6012002F077FA24211A
:101F10004BF6022002F072FA00214FF43C4002F02E
:101F20006DFA78214BF6014002F068FA00214BF679
:101F3000024002F063FA00214FF43D4002F05EFAE5
:101F400078214BF6015002F059FA00214BF602506D
:101F500002F054FA00214FF43E4002F04FFA64219F
:101F60004BF6016002F04AFA00214FF4514002F0B2
:101F700045FA33214DF2011002F040FA00214DF2F2
:101F8000021002F03BFA34214DF2031002F036FA4F
:101F900000214DF2041002F031FA3A214DF2051001
:101FA00002F02CFA00214DF2061002F027FA4A2125
:101FB0004DF2071002F022FA00214DF2081002F053
:101FC0001DFA5C214DF2091002F018FA00214DF2C1
:101FD0000A1002F013FA81214DF20B1002F00EFAF2
:101FE00000214DF20C1002F009FAA6214DF20D105D
:101FF00002F004FA00214DF20E1002F0FFF9E52183
:102000004DF20F1002F0FAF901214DF2101002F01A
:10201000F5F913214DF2111002F0F0F901214DF202
:10202000121002F0EBF954214DF2131002F0E6F910
:1020300001214DF2141002F0E1F982214DF2151048
:1020400002F0DCF901214DF2161002F0D7F9CA2195
:102050004DF2171002F0D2F902214DF2181002F0E1
:10206000CDF900214DF2191002F0C8F902214DF20C
:102070001A1002F0C3F901214DF21B1002F0BEF953
:1020800002214DF21C1002F0B9F934214DF21D105D
:1020900002F0B4F902214DF21E1002F0AFF96721EF
:1020A0004DF21F1002F0AAF902214DF2201002F0A9
:1020B000A5F984214DF2211002F0A0F902214DF280
:1020C000221002F09BF9A4214DF2231002F096F9A0
:1020D00002214DF2241002F091F9B7214DF22510A2
:1020E00002F08CF902214DF2261002F087F9CF217F
:1020F0004DF2271002F082F902214DF2281002F071
:102100007DF9DE214DF2291002F078F902214DF21D
:102110002A1002F073F9F2214DF22B1002F06EF941
:1021200002214DF22C1002F069F9FE214DF22D1022
:1021300002F064F903214DF22E1002F05FF9102134
:102140004DF22F1002F05AF903214DF2301002F037
:1021500055F933214DF2311002F050F903214DF2BF
:10216000321002F04BF96D214DF2331002F046F9B6
:1021700000214FF4524002F041F933214DF2012089
:1021800002F03CF900214DF2022002F037F934212F
:102190004DF2032002F032F900214DF2042002F04A
:1021A0002DF93A214DF2052002F028F900214DF2D7
:1021B000062002F023F94A214DF2072002F01EF911
:1021C00000214DF2082002F019F95C214DF209209E
:1021D00002F014F900214DF20A2002F00FF98121DA
:1021E0004DF20B2002F00AF900214DF20C2002F012
:1021F00005F9A6214DF20D2002F000F900214DF263
:102200000E2002F0FBF8E5214DF20F2002F0F6F867
:1022100001214DF2102002F0F1F813214DF21120AE
:1022200002F0ECF801214DF2122002F0E7F85421FF
:102230004DF2132002F0E2F801214DF2142002F0D9
:10224000DDF882214DF2152002F0D8F801214DF27F
:10225000162002F0D3F8CA214DF2172002F0CEF872
:1022600002214DF2182002F0C9F800214DF2192088
:1022700002F0C4F802214DF21A2002F0BFF8012149
:102280004DF21B2002F0BAF802214DF21C2002F0A0
:10229000B5F834214DF21D2002F0B0F802214DF2C4
:1022A0001E2002F0ABF867214DF21F2002F0A6F8C5
:1022B00002214DF2202002F0A1F884214DF22120CC
:1022C00002F09CF802214DF2222002F097F8A4219E
:1022D0004DF2232002F092F802214DF2242002F068
:1022E0008DF8B7214DF2252002F088F802214DF239
:1022F000262002F083F8CF214DF2272002F07EF84D
:1023000002214DF2282002F079F8DE214DF2292039
:1023100002F074F802214DF22A2002F06FF8F22147
:102320004DF22B2002F06AF802214DF22C2002F02F
:1023300065F8FE214DF22D2002F060F803214DF2E8
:102340002E2002F05BF810214DF22F2002F056F8FB
:1023500003214DF2302002F051F833214DF23120AB
:1023600002F04CF803214DF2322002F047F86D21C3
:102370004DF2332002F042F800214FF4534002F0B6
:102380003DF833214DF2013002F038F800214DF2D2
:10239000023002F033F834214DF2033002F02EF80F
:1023A00000214DF2043002F029F83A214DF20530B7
:1023B00002F024F800214DF2063002F01FF84A2105
:1023C0004DF2073002F01AF800214DF2083002F009
:1023D00015F85C214DF2093002F010F800214DF2A1
:1023E0000A3002F00BF881214DF20B3002F006F8B2
:1023F00000214DF20C3002F001F8A6214DF20D3013
:1024000001F0FCFF00214DF20E3001F0F7FFE52155
:102410004DF20F3001F0F2FF01214DF2103001F0CA
:10242000EDFF13214DF2113001F0E8FF01214DF2D3
:10243000123001F0E3FF54214DF2133001F0DEFFC2
:1024400001214DF2143001F0D9FF82214DF21530F7
:1024500001F0D4FF01214DF2163001F0CFFFCA2167
:102460004DF2173001F0CAFF02214DF2183001F091
:10247000C5FF00214DF2193001F0C0FF02214DF2DD
:102480001A3001F0BBFF01214DF21B3001F0B6FF05
:1024900002214DF21C3001F0B1FF34214DF21D300C
:1024A00001F0ACFF02214DF21E3001F0A7FF6721C1
:1024B0004DF21F3001F0A2FF02214DF2203001F059
:1024C0009DFF84214DF2213001F098FF02214DF251
:1024D000223001F093FFA4214DF2233001F08EFF52
:1024E00002214DF2243001F089FFB7214DF2253051
:1024F00001F084FF02214DF2263001F07FFFCF2151
:102500004DF2273001F07AFF02214DF2283001F020
:1025100075FFDE214DF2293001F070FF02214DF2EE
:102520002A3001F06BFFF2214DF22B3001F066FFF3
:1025300002214DF22C3001F061FFFE214DF22D30D1
:1025400001F05CFF03214DF22E3001F057FF102106
:102550004DF22F3001F052FF03214DF2303001F0E7
:102560004DFF33214DF2313001F048FF03214DF290
:10257000323001F043FF6D214DF2333001F03EFF68
:1025800000214FF4544001F039FF332100E080E393
:102590004DF2014001F032FF00214DF2024001F006
:1025A0002DFF34214DF2034001F028FF00214DF2B0
:1025B000044001F023FF3A214DF2054001F01EFFD7
:1025C00000214DF2064001F019FF4A214DF207406B
:1025D00001F014FF00214DF2084001F00FFF5C21D3
:1025E0004DF2094001F00AFF00214DF20A4001F0CE
:1025F00005FF81214DF20B4001F000FF00214DF25B
:102600000C4001F0FBFEA6214DF20D4001F0F6FE5C
:1026100000214DF20E4001F0F1FEE5214DF20F4098
:1026200001F0ECFE01214DF2104001F0E7FE132114
:102630004DF2114001F0E2FE01214DF2124001F095
:10264000DDFE54214DF2134001F0D8FE01214DF280
:10265000144001F0D3FE82214DF2154001F0CEFE70
:1026600001214DF2164001F0C9FECA214DF217407A
:1026700001F0C4FE02214DF2184001F0BFFE00211E
:102680004DF2194001F0BAFE02214DF21A4001F05C
:10269000B5FE00E0FFE201214DF21B4001F0AEFE6D
:1026A00002214DF21C4001F0A9FE34214DF21D40E3
:1026B00001F0A4FE02214DF21E4001F09FFE6721B1
:1026C0004DF21F4001F09AFE02214DF2204001F030
:1026D00095FE84214DF2214001F090FE02214DF241
:1026E000224001F08BFEA4214DF2234001F086FE32
:1026F00002214DF2244001F081FEB7214DF2254028
:1027000001F07CFE02214DF2264001F077FECF2140
:102710004DF2274001F072FE02214DF2284001F0F7
:102720006DFEDE214DF2294001F068FE02214DF2DE
:102730002A4001F063FEF2214DF22B4001F05EFED3
:1027400002214DF22C4001F059FEFE214DF22D40A8
:1027500001F054FE03214DF22E4001F04FFE1021F6
:102760004DF22F4001F04AFE03214DF2304001F0BE
:1027700045FE33214DF2314001F040FE03214DF280
:10278000324001F03BFE6D214DF2334001F036FE48
:1027900000214FF4554001F031FE33214DF201503C
:1027A00001F02CFE00214DF2025001F027FE3421F1
:1027B0004DF2035001F022FE00214DF2045001F0D1
:1027C0001DFE3A214DF2055001F018FE00214DF298
:1027D000065001F013FE4A214DF2075001F00EFEA3
:1027E00000214DF2085001F009FE5C214DF2095024
:1027F00001F004FE00214DF20A5001F0FFFD81219D
:102800004DF20B5001F0FAFD00214DF20C5001F099
:10281000F5FDA6214DF20D5001F0F0FD00214DF225
:102820000E5001F0EBFDE5214DF20F5001F0E6FDF9
:1028300001214DF2105001F0E1FD13214DF2115034
:1028400001F0DCFD01214DF2125001F0D7FD5421C1
:102850004DF2135001F0D2FD01214DF2145001F060
:10286000CDFD82214DF2155001F0C8FD01214DF240
:10287000165001F0C3FDCA214DF2175001F0BEFD04
:1028800002214DF2185001F0B9FD00214DF219500E
:1028900001F0B4FD02214DF21A5001F0AFFD01210B
:1028A0004DF21B5001F0AAFD02214DF21C5001F027
:1028B000A5FD34214DF21D5001F0A0FD02214DF285
:1028C0001E5001F09BFD67214DF21F5001F096FD57
:1028D00002214DF2205001F091FD84214DF2215052
:1028E00001F08CFD02214DF2225001F087FDA42160
:1028F0004DF2235001F082FD02214DF2245001F0EF
:102900007DFDB7214DF2255001F078FD02214DF2F9
:10291000265001F073FDCF214DF2275001F06EFDDE
:1029200002214DF2285001F069FDDE214DF22950BF
:1029300001F064FD02214DF22A5001F05FFDF22109
:102940004DF22B5001F05AFD02214DF22C5001F0B6
:1029500055FDFE214DF22D5001F050FD03214DF2A9
:102960002E5001F04BFD10214DF22F5001F046FD8D
:1029700003214DF2305001F041FD33214DF2315031
:1029800001F03CFD03214DF2325001F037FD6D2185
:102990004DF2335001F032FD00214FF4564001F06A
:1029A0002DFD33214DF2016001F028FD00214DF293
:1029B000026001F023FD34214DF2036001F01EFDA1
:1029C00000214DF2046001F019FD3A214DF205603D
:1029D00001F014FD00214DF2066001F00FFD4A21C7
:1029E0004DF2076001F00AFD00214DF2086001F090
:1029F00005FD5C214DF2096001F000FD00214DF262
:102A00000A6001F0FBFC81214DF20B6001F0F6FC45
:102A100000214DF20C6001F0F1FCA6214DF20D6099
:102A200001F0ECFC00214DF20E6001F0E7FCE52125
:102A30004DF20F6001F0E2FC01214DF2106001F057
:102A4000DDFC13214DF2116001F0D8FC01214DF2A3
:102A5000126001F0D3FC54214DF2136001F0CEFC62
:102A600001214DF2146001F0C9FC82214DF2156084
:102A700001F0C4FC01214DF2166001F0BFFCCA2137
:102A80004DF2176001F0BAFC02214DF2186001F01E
:102A9000B5FC00214DF2196001F0B0FC02214DF2AD
:102AA0001A6001F0ABFC01214DF21B6001F0A6FCA5
:102AB00002214DF21C6001F0A1FC34214DF21D6099
:102AC00001F09CFC02214DF21E6001F097FC672191
:102AD0004DF21F6001F092FC02214DF2206001F0E6
:102AE0008DFC84214DF2216001F088FC02214DF221
:102AF000226001F083FCA4214DF2236001F07EFCF2
:102B000002214DF2246001F079FCB7214DF22560DD
:102B100001F074FC02214DF2266001F06FFCCF2120
:102B20004DF2276001F06AFC02214DF2286001F0AD
:102B300065FCDE214DF2296001F060FC02214DF2BE
:102B40002A6001F05BFCF2214DF22B6001F056FC93
:102B500002214DF22C6001F051FCFE214DF22D605E
:102B600001F04CFC03214DF22E6001F047FC1021D6
:102B70004DF22F6001F042FC03214DF2306001F074
:102B80003DFC33214DF2316001F038FC03214DF260
:102B9000326001F033FC6D214DF2336001F02EFC08
:102BA0005521184601F02AFCAA21284601F026FCEE
:102BB0005221304601F022FC0821384601F01EFC6B
:102BC0000021484601F01AFCCC21584601F016FCC1
:102BD00000214BF2011001F011FC0521504601F0DB
:102BE0000DFC70214FF4374001F008FC70214BF2CE
:102BF000017001F003FC01214FF4384001F0FEFBAD
:102C000003214BF6010001F0F9FB03214BF6020012
:102C100001F0F4FB03214BF6030001F0EFFB02216E
:102C20004FF43C4001F0EAFB00214BF6014001F07B
:102C3000E5FB00214BF6024001F0E0FBD0214FF410
:102C4000494001F0DBFB02214CF6011001F0D6FBFC
:102C500050214CF6021001F0D1FB50214CF603102C
:102C600001F0CCFB50214CF6041001F0C7FB002111
:102C70004FF4545001F0C2FB55214FF4685001F05D
:102C8000BDFB4FF488502080782002F033FD4FF4D4
:102C900024502080FEE3A0F513414FF4E06940F298
:102CA000022A4FF4274B25397ED147F6F001E52063
:102CB00001F0A4FB3146012001F0A0FB49460220AF
:102CC00001F09CFB41F23001032001F097FB002151
:102CD000042001F093FB5146082001F08FFB0021F6
:102CE000092001F08BFB00210A2001F087FB002165
:102CF0000C2001F083FB00210D2001F07FFB00215F
:102D00000F2001F07BFB0021102001F077FB072151
:102D1000112001F073FB0021122001F06FFB002154
:102D2000132001F06BFB0021072001F067FB41F24B
:102D30009061102001F062FB40F22721112001F088
:102D40005DFB9D21122001F059FB4FF4C851132067
:102D500001F054FB2521292001F050FB0D212B20EF
:102D600001F04CFB0721302001F048FB40F2033119
:102D7000312001F043FB0321322001F03FFB40F200
:102D80000621352001F03AFB0821362001F036FB00
:102D900040F20641372001F031FB4FF441713820F9
:102DA00001F02CFB072100E04DE0392001F026FB6B
:102DB00040F202613C2001F021FB08213D2001F09E
:102DC0001DFB0021502001F019FBEF21512001F0E3
:102DD00015FB0021522001F011FB40F23F1153205E
:102DE00001F00CFB5946602001F008FB0121612035
:102DF00001F004FB00216A2001F000FB002180208B
:102E000001F0FCFA0021812001F0F8FA0021822073
:102E100001F0F4FA0021832001F0F0FA002184206F
:102E200001F0ECFA0021852001F0E8FA1021902051
:102E300001F0E4FA4FF4C061922001F0DFFA40F2B1
:102E400033110720FEE3A0F5134140F2077728393C
:102E50007DD141F28F01EC2001F0D0FA41F2342112
:102E6000EF2001F0CBFA3146012001F0C7FA4946C4
:102E7000022001F0C3FA41F23001032001F0BEFA52
:102E80000021042001F0BAFA5146082001F0B6FAF8
:102E90000021092001F0B2FA00210A2001F0AEFA67
:102EA00001210C2001F0AAFA00210D2001F0A6FA60
:102EB00000210F2001F0A2FA0021102001F09EFA5B
:102EC0000721112001F09AFA0021122001F096FA50
:102ED0000021132001F092FA0121072001F08EFA5F
:102EE000322002F0EDFB41F29041102001F086FA11
:102EF00040F22721112001F081FA322002F0E0FB9C
:102F00008A21122001F07AFA322002F0D9FB4FF424
:102F1000D051132001F072FA0621292001F06EFA37
:102F20000D212B2001F06AFA322002F0C9FB0021AA
:102F3000202001F063FA0021212001F05FFA322005
:102F400002F0BEFB0021302001F058FA00E03FE023
:102F500040F20461312001F051FA40F20531322093
:102F600001F04CFA0021352001F048FA40F6094101
:102F7000362001F043FA4FF40171372001F03EFA98
:102F800040F20131382001F039FA3946392001F098
:102F900035FA00213C2001F031FA40F60A213D20AB
:102FA00001F02CFA322002F08BFB0021502001F0BE
:102FB00025FAEF21512001F021FA0021522001F0E1
:102FC0001DFA40F23F11532001F018FA59465EE114
:102FD000A0F513414FF4887B20397DD1084601F0DC
:102FE0000DFA3146012001F009FA4946022001F0AC
:102FF00005FA41F23001032001F000FA002104201B
:1030000001F0FCF95146082001F0F8F900210920EF
:1030100001F0F4F900210A2001F0F0F901210C205F
:1030200001F0ECF900210D2001F0E8F900210F205A
:1030300001F0E4F9322002F043FB40F201110720D5
:1030400001F0DCF9322002F03BFB4FF486511020F6
:1030500001F0D4F90721112001F0D0F95B4659465F
:10306000122001F0CBF94FF43061132001F0C6F9C2
:103070000021292001F0C2F944F210012B2001F0B7
:10308000BDF90021502001F0B9F9EF21512001F0E4
:10309000B5F90021522001F0B1F940F23F1153205F
:1030A00001F0ACF94FF41C51602001F0A7F90121A7
:1030B000612001F0A3F900216A2001F09FF90021AD
:1030C000802001F09BF90021812001F097F9002177
:1030D000822001F093F900E027E00021832001F035
:1030E0008DF90021842001F089F90021852001F06B
:1030F00085F91021902001F081F90021922001F042
:103100007DF90121932001F079F91946952001F00C
:1031100075F90021972001F071F90021982001F044
:103120006DF940F27311072097E3A0F5134131398F
:103130007DD141F21401E72001F060F93146012010
:1031400001F05CF94FF40071022001F057F941F2EF
:103150003801032001F052F95146082001F04EF9E0
:103160000021092001F04AF900210A2001F046F966
:1031700000210C2001F042F900210D2001F03EF960
:1031800000210F2001F03AF90021102001F036F95A
:103190000721112001F032F90021122001F02EF94F
:1031A0000021132001F02AF9C82002F089FA41F227
:1031B0009061102001F022F940F22721112001F046
:1031C0001DF9322002F07CFA0C21122001F016F9D0
:1031D000322002F075FA4FF40061132001F00EF96D
:1031E0001121292001F00AF90B212B2001F006F909
:1031F000322002F065FA0021202001F0FFF840F2B1
:103200003F131946212001F0F9F80021302001F088
:10321000F5F84FF483742146312001F0EFF80021D6
:10322000322001F0EBF84FF40171352000E059E055
:1032300001F0E4F841F20A61362001F0DFF8394686
:10324000372001F0DBF82146382001F0D7F8394665
:10325000392001F0D3F840F202413C2001F0CEF8D1
:1032600040F60F413D2001F0C9F80021502001F047
:10327000C5F8EF21512001F0C1F80021522001F0E2
:10328000BDF81946532001F0B9F84FF41C516020E5
:1032900001F0B4F80121612001F0B0F800216A20AA
:1032A00001F0ACF80021802001F0A8F80021812075
:1032B00001F0A4F80021822001F0A0F80021832071
:1032C00001F09CF80021842001F098F8002185206D
:1032D00001F094F81021902001F090F84FF4C061B3
:1032E0009220FCE3A0F5A84108397CD131460120A9
:1032F00001F084F84946022001F080F841F23001E3
:10330000032001F07BF80021042001F077F840F25F
:103310000721082001F072F80021092001F06EF861
:1033200000210A2001F06AF800210C2001F066F863
:1033300000210D2001F062F800210F2001F05EF85D
:10334000142002F0BDF941F2B061102001F056F8EE
:103350000121112001F052F80121172001F04EF84F
:103360004FF49C71122001F049F84FF400611320D2
:1033700001F044F80921292001F040F809212A2010
:1033800001F03CF80021A42001F038F80021502081
:1033900001F034F8EF21512001F030F800215220E3
:1033A00001F02CF840F23F11532001F027F84FF4C0
:1033B0001C51602001F022F80121612001F01EF86B
:1033C00000216A2001F01AF80021802001F016F88F
:1033D0000021812001F012F80021822001F00EF876
:1033E0000021832000E020E001F008F80021842083
:1033F00001F004F80021852001F000F8132190204D
:1034000000F0FCFF0021922000F0F8FF0321932040
:1034100000F0F4FF5946952000F0F0FF40F27311E0
:10342000072000F0EBFF322013E1A0F5A8514FF484
:10343000407B05397ED1072000F0E0FF322002F00A
:103440003FF94FF48E71122000F0D8FF0121A42023
:1034500000F0D4FF0F21082000F0D0FF08210A203F
:1034600000F0CCFF08210D2000F0C8FF39463020C5
:1034700000F0C4FF0721312000F0C0FF40F20361DB
:10348000322000F0BBFF4C464946332000F0B6FF27
:10349000514600E06CE3342000F0B0FF02213520FB
:1034A00000F0ACFF41F60F71362000F0A7FF39465F
:1034B000372000F0A3FF0021382000F09FFF0021FB
:1034C000392000F09BFF39463A2000F097FF002199
:1034D0003B2000F093FF07213C2000F08FFF0021EC
:1034E0003D2000F08BFF322002F0EAF80121072096
:1034F00000F084FF0121172000F080FF322002F04D
:10350000DFF84FF4BD51102000F078FF40F2172192
:10351000112000F073FF4FF48F71122000F06EFF46
:103520004FF47061132000F069FF00212A2000F0A1
:1035300065FF00E090E00A21292000F05FFF4FF4D2
:103540009F71122000F05AFF0021502000F056FF1A
:10355000EF21512000F052FF0021522000F04EFFD9
:1035600040F23F11532000F049FF4FF41C516020FE
:1035700000F044FF0121612000F040FF00216A209B
:1035800000F03CFF0021802000F038FF0021812066
:1035900000F034FF0021822000F030FF0021832062
:1035A00000F02CFF0021842000F028FF002185205E
:1035B00000F024FF1321902000F020FF59469220B4
:1035C00000F01CFF0521932000F018FF002195203A
:1035D00000F014FF0021972000F010FF0021982038
:1035E00000F00CFF3146012000F008FF21460220C8
:1035F00000F004FF41F23801032000F0FFFE00213B
:10360000042000F0FBFE00210C2000F0F7FE00215A
:103610000F2000F0F3FE0021202000F0EFFE00213B
:10362000212000F0EBFE2121072000F0E7FE14200E
:1036300002F046F86121072000F0E0FE142002F0BD
:103640003FF800E005E140F27311072000F0D6FEDC
:10365000142002F035F8B8E3A0F5354105397CD1E6
:10366000084600F0CBFE0021084600F0C7FE00210E
:10367000084600F0C3FE0021084600F0BFFE01210D
:10368000A42000F0BBFE142002F01AF84FF41C54E2
:103690002146602000F0B2FE55465146082000F059
:1036A000ADFE4FF40571302000F0A8FE43F2157115
:1036B000312000F0A3FE40F20461322000F09EFEB3
:1036C00040F61661332000F099FE42F211213420B9
:1036D00000F094FE4FF4A851352000F08FFE48F220
:1036E0000751362000F08AFE41F20741372000F0F2
:1036F00085FE41F20341382000F080FE2021392070
:1037000000F07CFE1A21902000F078FE00211020AD
:1037100000F074FE0721112000F070FE002112203D
:1037200000F06CFE0021132000F068FE142001F070
:10373000C7FF4FF4E661102000F060FE40F2371141
:10374000112000F05BFE142001F0BAFF4FF4DC7191
:10375000122000F053FE142000E07FE001F0B0FFE3
:103760004FF47061132000F049FE80212A2000F000
:1037700045FE4821292000F041FE142001F0A0FF61
:103780003146012000F03AFE4946022000F036FEA4
:1037900041F23801032000F031FE2946082000F0F4
:1037A0002DFE00210A2000F029FE00210C2000F04F
:1037B00025FE00210D2000F021FE30210E2000F01A
:1037C0001DFE0021502000F019FEEF21512000F0D5
:1037D00015FE0021522000F011FE40F23F1153204F
:1037E00000F00CFE2146602000F008FE012161205F
:1037F00000F004FE00216A2000F000FE112190205C
:1038000000F0FCFD4FF4C061922000F0F7FD40F2A3
:103810000241932000F0F2FD0221942000F0EEFD21
:10382000142001F04DFF0121072000F0E7FD1420D6
:1038300001F046FF6121072000F0E0FD40F2731126
:10384000072000F0DBFD0021202000F0D7FD002143
:10385000212000F0D3FD2221002087E1A0F5454181
:1038600005397CD1084600F0C9FD0021084600F06A
:10387000C5FD142001F024FF0021084600F0BEFD24
:103880000021084600F0BAFD0021084600F0B6FD10
:103890000021084600F0B2FD0121A42000F0AEFD99
:1038A000142001F00DFF4FF41C51602000F0A6FD24
:1038B00040F60601082000F0A1FD40F2037319460E
:1038C000302000F09BFD0121312000F097FD042104
:1038D000322000F093FD4FF48171332000F08EFD13
:1038E0005C465946342000F089FD40F20311352032
:1038F00000F084FD1F21362000F080FD194637209E
:1039000000F07CFD0121382000F078FD04213920F1
:1039100000F074FD1521902000F070FD4FF48261DD
:10392000102000F06BFD40F24721112000F066FDF1
:103930004FF4DE71122000F061FD4FF4606113203E
:1039400000F05CFD782001F0BBFE3146012000F064
:1039500055FD4FF40071022000F050FD00E04CE0F6
:1039600041F23001032000F049FD08210A2000F057
:1039700045FD00210C2000F041FD20210E2000F02B
:103980003DFD00210F2000F039FD0021202000F036
:1039900035FD0021212000F031FD3D212A2000F0DD
:1039A0002DFD142001F08CFE2D21292000F026FD94
:1039B0000021502000F022FD4DF2EF01512000F0D7
:1039C0001DFD0021522000F019FD40F23F1153204F
:1039D00000F014FD0021612000F010FD00216A209C
:1039E00000F00CFD2146922000F008FD05219320F7
:1039F00000F004FD3146FFF796BBA0F58A4131394E
:103A00006ED10121002000F0F9FC0A2001F058FEDF
:103A100041F22861102000F0F1FC0E21122000F08C
:103A2000EDFC40F63921132000F0E8FC0A2001F0FB
:103A300047FE4021112000F0E1FC5021152000F04C
:103A4000DDFC0A2001F03CFE1E21122000F0D6FC15
:103A50000A2001F035FE4FF4B151102000F0CEFCE9
:103A600042F63921132000F0C9FC0A2001F028FE9B
:103A70003146012000F0C2FC5946022000F0BEFC95
:103A800041F23801032000F0B9FC5146082000F053
:103A9000B5FC08210A2000F0B1FC0021302000F024
:103AA000ADFC40F20241312000F0A8FC4FF48371DC
:103AB000322000F0A3FC40F20351332000F09EFCC2
:103AC0004FF48271342000F099FC40F2013135202E
:103AD00000F094FC3946362000F090FC01E0F1E063
:103AE00047E040F20531372000F088FC4FF40271C6
:103AF000382000F083FC40F60B71392000F07EFC8A
:103B00000221412000F07AFC4FF41C51602000F0AB
:103B100075FC0121612000F071FC4FF404719020CC
:103B200000F06CFC4FF48571922000F067FC0421DA
:103B3000932000F063FC3146A02000F05FFC0121DF
:103B4000072000F05BFC2121072000F057FC232117
:103B5000072000F053FC3321072000F04FFC40F217
:103B60003311072000F04AFC0021A02000F046FCA1
:103B70002BE1A0F58A4135397DD13021152000F0A7
:103B80003DFC10219A2000F039FC2021112000F08A
:103B900035FC43F22841102000F030FC02211220B5
:103BA00000F02CFC41F23801132000F027FC282003
:103BB00001F086FD1221084600F020FC282001F0CB
:103BC0007FFD43F22041102000F018FC43F2380141
:103BD000132000F013FC462001F072FD002130207C
:103BE00000F00CFC40F20241312000F007FC40F2F2
:103BF0000731322000F002FC4FF44171332000F015
:103C0000FDFB0421342000F0F9FB40F20141352096
:103C100000F0F4FB3946362000F0F0FB40F20531AD
:103C2000372000F0EBFB4FF4C2631946382000F058
:103C3000E5FB1946392000F0E1FB3146012000F098
:103C4000DDFB5946022000F0D9FB41F23001032090
:103C500000F0D4FB40F60801082000F0CFFB08215B
:103C60000A2000F0CBFB4FF41C51602000F0C6FB93
:103C70000121612000E02AE000F0C0FB4FF49F71B9
:103C8000902000F0BBFB3146922000F0B7FB31469C
:103C9000932000F0B3FB4FF44051A02000F0AEFBA6
:103CA0001021A32000F0AAFB0121072000F0A6FBB1
:103CB0002121072000F0A2FB2321072000F09EFB1A
:103CC0003321072000F09AFB40F2331193E6A0F570
:103CD000C851633979D1E22020801D20288002203C
:103CE000288004202880642001F004FDE02020804A
:103CF000012028800A2001F0E3FCE020208003203E
:103D000028800C2001F0DCFC012020800A2001F03A
:103D1000D7FCE62020802F202880FF2028802880C4
:103D2000B0202080202028800020288003202880A8
:103D300040F21F3028800120288040F2DF102880C8
:103D400000202880B42020800420288040F21F40DA
:103D50002880002028802E2028800020288028808D
:103D600028802880B6202080022028804FF403700D
:103D700028800020288017202880152028800020F7
:103D800028802880F020208003202880292020807F
:103D9000D020208000202880BE2020800520288080
:103DA000FE2028800120288000202880288028806C
:103DB000B82020800320288001202880BA2020807D
:103DC00001202880642000F025F80020FCF78CFFFB
:103DD0000449012008604046FCF750FF1FB0BDE8D1
:103DE000F08F000080812142034808B50088ADF8BB
:103DF0000000BDF8000008BD0008006C044910B5C3
:103E00000880052001F076FCBDE81040FFF7ECBF0C
:103E1000FE07006C0C4A10B5BE211180941C0521D0
:103E2000218002F03AFE4FF06632084B02F048FE65
:103E300002F006FE208001202080FF20208000204C
:103E40002080208010BD0000FE07006C66660440E4
:103E5000F0B5694E00243146B379898846F60402EC
:103E600041F66315012B01D02BB11DE091421BD00F
:103E7000A94202D118E0A94216D1082814D2DFE8DD
:103E800000F00406080A0C0E101206200CE00720B1
:103E90000AE0042008E0052006E0012004E00020FC
:103EA00002E0032000E00220A1F5134345F2103C9C
:103EB00045F21057413B07D0914205D0614503D0F0
:103EC000B94201D0A9427AD1082812D2DFE800F025
:103ED000110406080A0C0E1080240AE0402408E0B1
:103EE000C02406E0202404E0602402E0A02400E0D6
:103EF000E024B94202D14FF4585000E03620614529
:103F000005D0B94203D0A94201D044F0080491423F
:103F100001D144F00204214600F070FAB288AA42AE
:103F20000BD0A00600283088718802DA884202D3BC
:103F300003E0884201D9318070803048811CBA4248
:103F40007289028023D100230B80531C038000233D
:103F50000B80931C038033885B1EC3F30F240C80FB
:103F6000D21C0280DAB20A80B289028000230B8060
:103F7000531C038000230B80931C038073885B1EFB
:103F8000C3F30F240C80D21C0280D8B214E00022AC
:103F90000A800A803288521EC2F30F230B80D2B2ED
:103FA0000A80B28902800020088008807088401E44
:103FB000C0F30F220A80C0B20880F0BDFFE70828D6
:103FC00012D2DFE800F0040608110A0C0E103024AB
:103FD0000AE0102408E0202406E0382404E0282425
:103FE00002E0182400E0082444F48051BDE8F040C9
:103FF000032000F003BA0000BC010020FE07006CA3
:104000002DE9F04F4F4F0B463A46BD880C0ADFF8BA
:1040100038B191895289A5F513464FEA102C0BF15E
:10402000020A413E03D0A5F5A646103E0AD1ABF8E0
:1040300000205246AAF800C0C0B2AAF80000ABF8AF
:1040400000101CE03F4EBE46A5F5D04796F80690FE
:104050003688043FA6EB0008A8F1010814D1B9F195
:10406000010F01D11FFA88F0ABF80020050A524673
:10407000AAF80050C0B2AAF80000ABF800101480F3
:10408000D8B21080BDE8F08FA5F5C857633F2FD197
:10409000B9F1000F1DD0ABF800205246AAF800C0BD
:1040A000C0B2AAF80000761EC6F30F20AAF80000DE
:1040B000F0B21080ABF8001011461480D8B2108016
:1040C000BEF80200401EC0F30F220A80C0B2088072
:1040D000D8E71FFA88F0ABF8002000265246AAF86D
:1040E0000060AAF80060060AAAF80060C0B2E0E723
:1040F000A5F5AA477646103F14D1ABF80020AAF8E0
:1041000000C0521CABF80020C0B2AAF80000ABF807
:104110000010AAF80040491CABF80010D8B2AAF869
:104120000000AFE7B9F1010F01D11FFA88F0014695
:10413000104600F063F9B089BDE8F04F194600F071
:104140005DB90000BC010020FE07006C2DE9FC4FAA
:10415000044691464844401E86B2C818401E83B2A9
:10416000009004EB0900401EC0F3072EDFF850C199
:1041700000980D46C0F3072B6046BCF804204FEAB8
:10418000112881894089A2F513474FEA142A413F3B
:1041900010D0A2F5A647103F0CD0A2F5D047043F9F
:1041A00008D09CF8067041F6631C0197012F13D1CB
:1041B000624511D1434F3880B81CA0F800A0E2B28C
:1041C0000280A0F800E0F2B202803980A0F80080FE
:1041D000E9B2018059461DE0394F62453F881ED142
:1041E000A7EB0902121B374C009B92B29BB22080B6
:1041F000160AA01C0680D6B206804A44521EC2F39C
:104200000F260680D2B202802180A0F80080E9B299
:104210000180190A0180D9B20180BDE8FC8FA2F5A6
:10422000A04CBCF5A26C22D1264A1080971CA7F89E
:1042300000A000F1010CA2F800C0E4B23C80841C94
:104240001480A7F800E0C01C1080F0B23880118004
:10425000A7F80080481C1080E8B23880881C1080C5
:10426000A7F800B0C91C1180D8B23880D5E70198F2
:1042700001281CD0B04621462E4650204FF0510A4E
:104280004FF05209532700F0B9F84146504600F06C
:10429000B5F83146484600F0B1F81946384600F006
:1042A000ADF829462046BDE8FC4FFFF7A9BEB81B74
:1042B000401E86B2381B9846401E294683B2DCE772
:1042C000BC010020FE07006C2DE9F84F82461F4616
:1042D0000C468B46580700D0012000EBD700790828
:1042E0004843203AC0B202F0FF090026009041E0A6
:1042F0000C2F10D0102F12D0182F3ED1204909EBCF
:10430000C90001EB80004FF00008855D28060AD542
:104310001C4802880BE009EB49001B49F1E71B49E7
:1043200001EB0910EFE70A9828B9164842882146A0
:104330005046FCF773FD6806050E1548641CA4B2D0
:104340004088A04219D9A4EB0B00B84209D10AF168
:1043500001001FFA80FA0E485C46018851450CD9CD
:1043600006E008F1010000F0FF08B8F1080FCDD316
:10437000761CF6B200988642BAD3BDE8F88F0000EA
:104380002077000846000020BC6C0008307100084F
:10439000BC0100202DE9F84F044600F0FF08101979
:1043A0000D46DDE90A761FFA80FA58191FFA80F9DE
:1043B0004FF0000B11E0544502D3E819444685B292
:1043C0004D450FD23B4629462046CDF800B0FFF7B9
:1043D0007BFF04EB570084B2761C3278A2F12000F8
:1043E0005E28E8D9BDE8F88F0248034900890880B3
:1043F00070470000BC010020FE07006C024A1080DC
:10440000901C018070470000FE07006C38B5012148
:10441000482000F0EDF92024ADF8004010208DF880
:10442000030003200B4D8DF8020069462846FCF777
:104430001DFB20212846FCF79AFBADF80040064CF6
:1044400069462046FCF712FB20212046FCF78FFB33
:1044500038BD0000000C014000180140FEE7704725
:1044600070B50F23C278017801244FF0E025DAB14E
:10447000124A126802F4E062C2F5E062120AC2F166
:104480000406D3404278B24086781E400C4B164357
:104490003201CA54007800F01F018C40400905EB3E
:1044A0008000C0F8004170BD01F01F008440480941
:1044B00005EB8000C0F8804170BD00000CED00E00D
:1044C00000E400E002490843024908607047000028
:1044D0000000FA050CED00E0002130B1012806D003
:1044E000032806D0042807D105E0B02104E0982174
:1044F00002E0182100E03021552000F0F5BA70B537
:10450000802622255E2430B1012808D003280AD055
:1045100004280FD10BE0402611252F240AE066263F
:104520001B254B2406E099262825712402E0C0268D
:1045300033258D2431464F2000F0D6FA31465020E5
:1045400000F0D2FA0021512000F0CEFA2946522084
:1045500000F0CAFA2146532000F0C6FA3146542032
:1045600000F0C2FABDE870409E21582000F0BCBAAD
:10457000402130B1012806D0032806D0042807D1F5
:1045800005E0302104E0382102E0502100E0602104
:10459000562000F0A9BA0000F8B50024012140F22D
:1045A0003D1000F025F94FF48075ADF80050482615
:1045B0008DF803600320354F8DF8020069463846B8
:1045C000FCF754FA29463846FCF7D1FA1820ADF822
:1045D00000002F4F10258DF8035069463846FCF730
:1045E00045FA18213846FCF7C2FAFF20ADF8000062
:1045F0008DF8036069462748FCF738FA4020ADF88B
:104600000000254E8DF8035069463046FCF72EFA1F
:1046100040213046FCF7ABFA4FF44046ADF800605D
:104620008DF803501D4D69462846FCF71FFA3146A8
:104630002846FCF79CFA01211948FCF763FA00F0C0
:104640002DF98021122000F04FFA08B10120F8BDA9
:10465000322001F035F80B2000F0ACF9732804D1BA
:104660000A2000F0A7F9762801D00220F8BD0D4DF0
:1046700005EB4400417815F8140000F035FA641C8D
:10468000A4B2A82CF4D30020F8BD0000000801401B
:10469000000C0140001001400014014000200140C6
:1046A000000230007C84000870B50025E7212C460C
:1046B000012806D0022808D003280AD004280FD1E8
:1046C0000BE0E5215A255C240AE0E5215825602409
:1046D00006E0E52184254C2402E0E52196254024CE
:1046E000132000F001FA2946012000F0FDF92146CF
:1046F000BDE87040022000F0F7B970B50421C02475
:104700008025072816D2DFE800F0150406090B0EF5
:104710001200242100E0142180240BE0142109E080
:104720001421402405E014218024C02502E0142136
:10473000A02440253A2000F0D7F92146682000F057
:10474000D3F92946BDE87040672000F0CDB92DE9C6
:10475000F041054600EB420086B201EB430084B213
:104760000F46B4F5447F02D9A4F54474A4B20320E3
:1047700000F020F906F00302294600F0F00062F391
:104780009F010143032000F0AFF9C5F38701192011
:1047900000F0AAF9C6F387011A2000F0A5F932202B
:1047A00000F008F9C7F3C701172000F09DF9C4F322
:1047B000C701BDE8F041182000F096B9704700002D
:1047C000044A0029516901D0014300E0814351614D
:1047D0007047000000100240044A0029D16901D04E
:1047E000014300E08143D1617047000000100240A6
:1047F000044A0029916901D0014300E0814391619D
:10480000704700000010024030B5204A5168204B2C
:1048100011F00C0103D0042901D0082901D0036054
:1048200012E05168536801F470114FF0020413F460
:10483000803F04EB914102D053689B0301D5154B97
:1048400000E0134B5943016051680F2303EA111133
:10485000114B5C5C0168E14041605468072505EA42
:1048600014241C5D21FA04F48460546805EAD424FD
:104870001B5DD940C1605268032303EA9232064BA4
:104880001B1F9A5CB1FBF2F1016130BD00100240C8
:1048900000127A0000093D006400002038B50121B3
:1048A0004FF49070FFF7A4FF4FF40055ADF800509F
:1048B00048208DF803000320114C8DF80200694652
:1048C0002046FCF7D3F829462046FCF750F908208B
:1048D000ADF8000010200B4D8DF803006946284606
:1048E000FCF7C4F808212846FCF741F9606820F479
:1048F00070006060606840F44010606038BD000087
:10490000002001400014014070B5322000F0F2FE9A
:10491000094D01202860094E3060322000F0EAFE87
:1049200000243460322000F0E5FE2C60BDE87040C9
:10493000322000F0DFBE0000B40124428C8122420C
:104940002DE9F047184F0024786820F47000786053
:10495000786840F400007860DFF85090144E082525
:104960004FF00108A246322000F0C4FEC6F88C8148
:104970006006040ED9F8340108B1641CE4B2322098
:1049800000F0B8FEC6F88CA16D1E15F0FF05EAD147
:10499000786820F470007860786840F4401078609F
:1049A0002046BDE8F08700000020014000002442BE
:1049B0000080224210B5044600F022F8422000F0A8
:1049C0004BF8642000F096FE204600F045F8642085
:1049D00000F090FE00F028F8642000F08BFE00F05C
:1049E0000FF8432000F038F8642000F083FEFFF752
:1049F000A7FF0446FFF788FF00F016F8204610BD19
:104A000070B5074E01203060064D2860322000F05E
:104A100071FE00243460322000F06CFE2C6070BD0A
:104A2000B40124428C81224270B5094C00202060E0
:104A3000322000F05FFE074801250560322000F0BB
:104A400059FE2560BDE87040322000F053BE0000E2
:104A5000B40124428C8122422DE9F04700241F4EEC
:104A60001F4F0546A0464FF00109280601D54846CC
:104A700000E04046C6F8B4016806050E322000F09A
:104A800039FEC7F88C91322000F034FEC7F88C81D3
:104A9000641CE4B2082CE8D3124C606820F4700067
:104AA0006060606840F400006060322000F022FE28
:104AB000C7F88C91322000F01DFED6F8340100B109
:104AC0000120C7F88C81616821F470016160616820
:104AD00041F440116160BDE8F0870000000024420D
:104AE000008022420020014070B50D460646002499
:104AF000FFF786FF4220FFF7AFFF00B101246420DB
:104B000000F0F8FD3046FFF7A7FF00B10124642054
:104B100000F0F0FD2846FFF79FFF00B10124FFF7EA
:104B200083FF204670BD70470CB5002226480092D6
:104B30000192016841F4803101604FF4A063016883
:104B400001F4003101910099491C0091019911B9BA
:104B500000999942F3D10168890333D5012101916C
:104B60001A490A6842F010020A600A6822F0030239
:104B70000A600A6842F002020A60416841604168C6
:104B80004160416841F480614160416821F47C11D9
:104B90004160416841F4E8114160016841F0807171
:104BA000016001688901FCD5416821F00301416081
:104BB000416841F0020141604168C1F3810102296D
:104BC000FAD10CBD01920CBD001002400020024041
:104BD0004FF0E0210428086903D020F004000861A8
:104BE000704740F00400FAE7704700000F4810B526
:104BF000016841F00101016041680D4A11404160C6
:104C000001680C4A11400160016821F480210160B3
:104C1000416821F4FE0141604FF41F018160FFF7FC
:104C200083FF05494FF00060086010BD001002408E
:104C30000000FFF8FFFFF6FE08ED00E070B5048C01
:104C400024F001040484058B048C4FF6FF7606EAF9
:104C50000313134325F0F3050E4A2B4390420ED065
:104C60000D4A90420BD0B0F1804F08D00B4A9042D1
:104C700005D00B4A904202D00A4A904202D124F059
:104C8000020201E024F00A020A4342F00101038318
:104C9000018470BD002C014000340140000400403C
:104CA00000080040000C0040F0B5048C24F0100413
:104CB0000484078B048C4FF6FF7527F4734705EACD
:104CC00003333B4305EA02221A43114B05EA01165E
:104CD00098420ED00F4B98420BD0B0F1804F08D0C5
:104CE0000D4B984205D00D4B984202D00C4B984288
:104CF00005D124F02001314341F0100104E024F0FB
:104D0000A0030B4343F0100102830184F0BD0000B7
:104D1000002C014000340140000400400008004025
:104D2000000C004010B50A4C0121204600F023F988
:104D300000280AD00121204600F003F90549D1F8E6
:104D4000940118B10020C1F8940110BD0120FAE7C8
:104D5000000400400000234210B50C4C0121204605
:104D600000F009F901280AD10948016988470021A2
:104D7000204600F0B3F96421204600F0ADF920464A
:104D8000BDE81040012100F0DCB800000008004040
:104D9000C8000020F0B50C46074687B00121082066
:104DA000FFF71AFD01210420FFF722FD0220ADF8D4
:104DB000180003258DF81A5004268DF81B6006A9EB
:104DC0001248FBF753FEADF81070ADF80C4000240C
:104DD0000F4FADF81240ADF80E4003A9384600F071
:104DE000A7F90120ADF80400ADF80060ADF802406D
:104DF000ADF80640ADF808506946384600F0C8F8EE
:104E00000121384600F0A0F807B0F0BD00080140CD
:104E1000000C004070B51F4C1F4D2078000633D4A5
:104E20000121284600F0A7F838B12178480604D5BA
:104E3000C843800612D0491C21700221284600F088
:104E40009AF808B3217848060FD541F08000207009
:104E5000284600F083F86080002112E041F08000D5
:104E600020704FF6FF706080E7E7002020706080C0
:104E70000146284600F032F92078022140F0400037
:104E80002070284600F022F92846BDE87040032132
:104E900000F057B850000020000C004070B5094DDC
:104EA0000121284600F067F830B1074C07A061786F
:104EB000FBF7DCF9002060702846BDE87040012156
:104EC00000F03FB800100040500000206672616D95
:104ED000653A25646670730D0A0000007FB50D46C3
:104EE000044601211020FFF777FCADF804400020B4
:104EF000ADF80050104CADF80600ADF80200694660
:104F0000204600F015F901224121204600F0D6F894
:104F10000121204600F018F836208DF80C00012001
:104F20008DF80D0003218DF80E108DF80F0003A8E9
:104F3000FFF796FA7FBD000000100040C9430182D0
:104F40007047C943018270470029018802D041F0AF
:104F5000010101E021F0010101807047808E70475E
:104F6000008F7047808C704702460020128A0A42E8
:104F700000D00120704702460020138A92890B421C
:104F800002EA010202D0002A00D00120704700008E
:104F90002DE9F84F0D4604460888434FDFF80CC151
:104FA000DFF80C81DFF80C914988AA882B894FF033
:104FB000804A48B3042830D04FF6FF76082893463D
:104FC00034D0208C9E4620F480502084A38B208CEB
:104FD00006EA0132009223F4734306EA0B221A43D5
:104FE00006EA0E331343BC420AD0644508D0544548
:104FF00006D0444504D04C4502D02F4A944245D1B6
:1050000020F40050009943E02046FFF717FEE9889E
:105010002046BDE8F84F00F063B82046FFF744FE95
:10502000E9882046BDE8F84F00F062B8208C20F4F3
:1050300080702084B4F81CE0208C06EA031306EA92
:1050400001222EF0F30E43EA0B0343EA0E03009213
:10505000BC420AD0644508D0544506D0444504D02B
:105060004C4502D0144A944203D120F400700099B8
:1050700001E020F42060084340F48070A383208482
:10508000E9882046BDE8F84F00F03EB820F4024021
:10509000084340F48050A3832084E9882046BDE87B
:1050A000F84F00F039B80000002C014000340140F6
:1050B0000004004000080040000C0040002A8289E3
:1050C00001D00A4300E08A4382817047028C22F0BB
:1050D00002020A43028470478185704781847047C9
:1050E000028B22F00C020283028B0A430283704778
:1050F000028B22F440620283028B4FF6FF7303EAB5
:1051000001210A4302837047828B22F00C028283C2
:10511000828B0A4382837047828B22F440628283AF
:10512000828B4FF6FF7303EA01210A4382837047A3
:1051300030B502881B4C1C4DA0420DD0A8420BD0AC
:10514000B0F1804F08D0194B984205D0184B9842C7
:1051500002D0184B984203D122F070034A881A43B8
:10516000154B984206D0154B984203D022F4407359
:10517000CA881A4302808A8882850A880285A042EA
:105180000AD0A84208D00E4A904205D00D4A90425B
:1051900002D00D4A904201D1097A01860121818213
:1051A00030BD0000002C01400034014000040040EC
:1051B00000080040000C00400010004000140040B7
:1051C00000400140004401400048014070B50446E1
:1051D000002504E000F00AF8A84200D905462000A6
:1051E000A4F10104E4B2F5D1284670BD70B500F019
:1051F0006FF84FF60B640B4D08E0FFF7B3FEA042CB
:1052000004D92846BDE87040FFF7ACBE042128460B
:10521000FFF7AAFE00282846EFD0BDE87040FFF750
:105220009FBE0000000C004030B5401E81B285B02A
:105230004FF6FF70FFF7AEFD00246D46FFF7D6FF77
:1052400025F814000A2000F03BFA641CE4B20A2C92
:10525000F4D300214C1CE0B20BE035F8113035F8E6
:105260001020934203D925F8112025F81030401C56
:10527000C0B20A28F1D3E1B20929EBD30021022000
:1052800035F81020401C1144C0B289B20828F7D369
:105290000620B1FBF0F0074C6080618806A0FAF7A9
:1052A000E5FF6088B0F5004F02D3012005B030BDA6
:1052B0000020FBE74A000020747061645F6465664B
:1052C00061756C745F76616C3A25640D0A000000AC
:1052D00038B501210420FFF78BFA0220ADF8000059
:1052E00010208DF8030003200F4C8DF80200694652
:1052F0002046FBF7BBFB02212046FBF736FC0520CE
:1053000000F0DEF9094D00212846FFF7E7FE0521F0
:105310002846FFF716FE04218DF803106946204643
:10532000FBF7A4FB38BD000000080140000C004062
:1053300070B501000D4C4FF000054FF0030002D096
:10534000002106202170FFF741FF61886431884207
:10535000207804D900B901250320207000E010B1A5
:10536000C0B2401E2070284670BD00004A000020D8
:105370007FB50D46044601210420FFF72DFAADF854
:1053800004400020ADF80050104CADF80600ADF818
:10539000020069462046FFF7CBFE0122412120464C
:1053A000FFF78CFE1E218DF80C1003218DF80D10D7
:1053B0008DF80E1001208DF80F0003A8FFF750F8AC
:1053C00001212046FFF7C0FD7FBD0000000800401E
:1053D00070B5154C40F22551204600F035F80028F4
:1053E0000ED0204600F0C2F8104AC1B21088030463
:1053F00006D444044FF0000306D50A2901D01380D7
:1054000070BD40F400400DE00D2909D0C0F30D043B
:10541000074D401C80B229551080C728EFD870BDB9
:1054200040F48040108070BD0038014058000020DA
:10543000CA0100200029818902D041F4005101E015
:1054400021F400518181704770B501F01F050126DC
:105450000024C1F3421306FA05F2012B0FD0022BF0
:105460000FD0838A4FEA11210088134206FA01F611
:1054700000EA060001D000B10124204670BD8389F6
:10548000F0E7038AEEE710B5C1F3421301F01F0401
:105490000121A140012B07D0022B07D01430002A94
:1054A000026805D00A4304E00C30F8E71030F6E754
:1054B0008A43026010BD000030B50446008A85B002
:1054C0000D464CF6FF710840E98801432182A0890E
:1054D0004EF6F3110840A9882A8911436A890243CC
:1054E0001143A181A08A4FF6FF410840A9890143D9
:1054F000A1826846FFF788F91B48844201D10398CE
:1055000000E00298A1890904002900EBC00101EB29
:105510000010296802DA4FEA410101E04FEA8101F7
:10552000B0FBF1F06422B0FBF2F14FEA01114FEA57
:1055300011136FF018056B4300EB8300A3891D0462
:105540004FF0320306D503EBC000B0FBF2F000F0E1
:10555000070005E003EB0010B0FBF2F000F00F00D5
:105560000843208105B030BD003801408088C0F379
:1055700008007047FEE730380A2801D20120704742
:1055800000207047704700002DE9F047DFF8D89001
:1055900099F80000002864D00420FEF759FC334934
:1055A0004FF4A0728888A0F5C853633B0FD10888D8
:1055B0004988F038A1F5A07101EBD17100EBD070F2
:1055C0001346C1F34F01C0F34F00F02214E0A0F5E1
:1055D000AA43103B02D013F500730FD10888498805
:1055E000A0F5A070F03901EBD17100EBD070C1F3E0
:1055F0004F01C0F34F00F023FEF7A8FDFEF7F4FEC5
:105600001B48002707601B4C10212160251F2960C3
:105610002160012202602960174EDFF86080384661
:105620004FF6FF734FF4963A2160B268296003EA9F
:1056300002222160D6F808C029600CF0FF0C4CEA69
:10564000020CA8F800C0401C5045EDD30C4989F865
:1056500000700878401C0870BDE8F0470020FEF795
:10566000F7BBBDE8F08700004E000020BC01002021
:10567000B8012442140C0140001001400008006CE5
:105680005100002010B56FF00400FFF7A1FA09489F
:1056900009490068B0FBF1F00849C0B200EB4002D4
:1056A0000870C2EBC0104FF6FF7202EAC0004880DB
:1056B00010BD00003000002000127A0054000020CD
:1056C0000B49498848434FF0E021486100238B6132
:1056D000086940F0010008610869C20701D0C003F1
:1056E000FAD5086920F0010008618B61704700005D
:1056F000540000200B49097848434FF0E0214861ED
:1057000000238B61086940F0010008610869C20745
:1057100001D0C003FAD5086920F0010008618B614F
:10572000704700005400002004490A885206FCD546
:10573000024AC1B2121D11807047000000380140BA
:1057400086B04FF0000802273E463D464446C2461A
:10575000C146FFF797FF4FF4A060FEF7B3FE4FF48A
:10576000E13000F0CDF9A548416848208847FEF7B0
:105770004DFEFBF7FFF9FBF725FC0620FFF754FD74
:105780009F494FF478404FF0100B08809DA1CDE960
:1057900000B15B46C82232211E20FEF7FBFD9DA111
:1057A000CDE900B11023C82246211E20FEF7F2FDEC
:1057B0009BA1CDE900B11023C8225A211E20FEF77B
:1057C000E9FD9BA1CDE900B11023C8226E211E2066
:1057D000FEF7E0FD99A1CDE900B11023C822822196
:1057E0001E20FEF7D7FD99A1CDE900B11023C822F4
:1057F00096211E20FEF7CEFD98A1CDE900B1102321
:10580000C822AA211E20FEF7C5FD98A1CDE900B14E
:105810001023C822BE211E20FEF7BCFD97A1CDE9B2
:1058200000B11023C822D2211E20FEF7B3FD97A19C
:10583000CDE900B11023C822E6211E20FEF7AAFD03
:1058400017E096A1CDE900B11023C822E6211E2061
:10585000FEF7A0FDC820FFF733FF4FF6FF70009062
:10586000F623EF22E6211E20FBF766FBC820FFF798
:1058700027FFFEF791FE0028E3D18CA1CDE900B10E
:105880001023C822E6211E20FEF784FD40F2DC50E2
:10589000FFF716FF4046FEF707FF3846FEF72FFEDC
:1058A0003046FEF719FE2846FEF762FE2046FEF758
:1058B00024FF41F61F4142F21070FFF70FFBFAF789
:1058C000C3FF4FF4A073F022B0210C20FEF73FFF7E
:1058D0007A4900200860FBF7D1F90020FBF768F94E
:1058E00000283FD04FF01409012806D0022813D019
:1058F00003281DD0042835D126E008F10100C0B2EC
:105900008046042801D900208046FEF7CDFE6C4970
:1059100051F828206BA122E07F1CFFB2042F00D990
:1059200000273846FEF7EBFD7AB2921E66A116E01C
:10593000761CF6B2042E00D900263046FEF7CCFDC8
:1059400072B2921E64A10AE06D1CEDB2042D00D962
:1059500000252846FEF70CFE6AB2921E62A102A83C
:10596000FAF790FC0020FFF7E3FC88B1641CE4B276
:10597000062C00D900242046FEF7BFFE504851A156
:10598000143050F8242002A8FAF77CFC4FF01409D8
:10599000FFF7FAFDB9F1000F1CD056493C2202ABCB
:1059A00008884988F038A1F5A07101EBD17102EBAC
:1059B000610100EBD0701E22CDE900B302EB600064
:1059C00089B280B21023C822FEF7E4FCA9F10100DD
:1059D00000F0FF090AF1010000F0FF0ABAF10F0F11
:1059E0007FF47BAF44494FF0000AD1F8940118B11D
:1059F0000020C1F8940170E70120FAE7C8000020F8
:105A000046000020576172536869702053544D332B
:105A1000320000004F56373637302054455354007B
:105A200041544F4D40414C49454E54454B000000B8
:105A3000323031352F312F31380000004B4559308D
:105A40003A4C69676874204D6F6465004B45593165
:105A50003A53617475726174696F6E004B455932C7
:105A60003A4272696768746E657373004B45595F9B
:105A700055503A436F6E74726173740054504144D0
:105A80003A45666665637473000000004F5637360A
:105A9000373020496E69742E2E2E00004F5637364F
:105AA0003730204572726F72212100004F56373611
:105AB000373020496E6974204F4B0000BC012442EE
:105AC00000000020257300005361747572617469D1
:105AD0006F6E3A25640000004272696768746E65F3
