:020000040800F2
:10000000F0470020092B0108151C0008171C0008E8
:10001000351C0008391C00083D1C000800000000C9
:10002000000000000000000000000000411C00086B
:10003000431C000800000000375101089B530108D1
:10004000232B0108232B0108232B0108232B010854
:10005000232B0108232B0108232B0108232B010844
:10006000232B0108232B0108232B0108232B010834
:10007000232B0108232B0108232B0108232B010824
:10008000232B0108232B0108232B0108232B010814
:1000900057740008232B0108232B0108B9F100082D
:1000A000232B0108232B0108232B0108232B0108F4
:1000B0005BED0008232B0108232B0108232B0108EB
:1000C000232B0108232B0108232B0108232B0108D4
:1000D000232B0108A585000867B70008232B01081A
:1000E00019F20008232B0108232B0108232B0108F8
:1000F000232B0108232B0108232B0108232B0108A4
:10010000232B0108232B0108232B0108232B010893
:100110009DD30008232B0108232B010895B4000868
:10012000232B0108232B0108232B0108232B010873
:10013000232B0108232B0108232B0108232B010863
:100140000DA20008232B0108232B0108232B0108F3
:10015000232B0108232B01085D850008232B0108B0
:10016000232B0108232B0108232B0108232B010833
:10017000232B0108232B0108232B0108232B010823
:10018000232B0108232B0108DFF80CD015F006FD06
:1001900000480047251B0008F04700204021FD488B
:1001A0000FF0AAFB04464FF48061FB480FF0A4FB5C
:1001B00005465FE04021F7480FF09EFBA0422ED09D
:1001C0000A2014F0BDFE4021F2480FF095FBA0423A
:1001D0004CD04021EF480FF08FFB04460421EF483C
:1001E0000FF0A4FB4FF4C07009F0FBFF4FF4C87090
:1001F00009F0F7FF4FF4D07009F0F3FF4FF4D87017
:1002000009F0EFFF9FEDE60A0AF0E6FE052014F084
:10021000D0FD9FEDE30AE34880ED000A26E04FF4AD
:100220008061DD480FF068FBA8421FD00A2014F05F
:1002300087FE4FF48061D8480FF05EFBA84215D0CE
:100240004FF48061D4480FF057FB05460421D34892
:100250000FF06CFB57224021C0200AF042FE9FEDB8
:10026000D00A0AF0B9FE0F2014F0A3FD4FF47A7003
:1002700014F066FE9EE72DED048BCB48002102684A
:10028000CA48006814F04DF9072001F099FD99E083
:10029000C748007800F0070008287DD2DFE800F0AA
:1002A000040506070809357100BF00BF00BF00BF85
:1002B00000BF04214FF4D0700AF0B1FDBD480068C2
:1002C000BD49484300EE900AF8EEE00AB0EE600A3D
:1002D0004FF47A614FF4D07009F005FF05214FF417
:1002E000D8700AF09CFD9FEDB50A40F243100AF069
:1002F000F5FE5722402108460AF0F3FD40F2DC519A
:100300004FF4D8700AF08DFC00BF9FEDAD0AA548F0
:1003100080ED000A02F059FF082001F051FD642031
:1003200014F00EFE02E0322014F00AFEA54890ED13
:10033000020ADFEDA50A30EE200A10EE101A084678
:1003400015F05EFA41EC100BB0EE409AF0EE609AB8
:1003500015F00EFDB0EE408AF0EE608A9FED9B0B2B
:1003600053EC102B51EC180B15F072FADBD336213D
:10037000984810F036FD5722002140200AF0B1FDC8
:1003800000BF052014F015FD4FF4D8700AF0C4FC2E
:1003900000209149088000E00FE0092001F010FDE5
:1003A0008E48006814F06CF90DF0D2F90F2001F0BE
:1003B00007FDFF2014F0FDFC03E0FF2014F0F9FC22
:1003C00000BF00BF64E786480021026883480068D8
:1003D00014F0A7F87648007800F00700072809D045
:1003E00041F2883014F0ACFD07F0BCFD04216B48ED
:1003F0000FF09CFA29E007F09DFE4FF4C0700AF060
:10040000FBFB4FF4C0700AF087FCC82014F098FD85
:10041000744880680A2190FBF1F004B2724890EDB4
:10042000020AF2EE040A20EE200ABDEEC00A10EE27
:10043000100A03B26D48407E642510FB05F2664841
:10044000408801B220460AF0EFFED4E708B56848BC
:10045000002102686748006814F063F86648008865
:10046000B0F5FA7F07D165480088B0F5FA7F02D170
:10047000002063490870012001F0A2FCFEE36148FE
:10048000006814F0FDF84A48007800F007000828DA
:100490007ED2DFE800F004FCFBFAF9F8F7F6012061
:1004A000524981F824009FED580A3E4880ED000A29
:1004B000022001F085FC5548B0F9000000F2591007
:1004C00000EE100AB8EEC00AF0EE401ADFED344A32
:1004D0009FED334ADFED4E3A9FED4D3ADFED302A86
:1004E0009FED4C2A9FED4C1ADFED4C0A9FED4B0A15
:1004F00000231A460121084602F0C7F8032001F044
:100500005FFC0120394908754548006814F0B8F8C7
:100510000120364988720020C87288714148B0F9BC
:10052000000000F5827000EE100AB8EEC00AF0EE8E
:10053000401ADFED1B4A9FED1A4ADFED193A9FED95
:100540003A3ADFED172A9FED392A9FED391ADFED90
:10055000330A9FED370A012300221146184602F0A4
:1005600094F8042001F02CFC9FED150A0D4880ED55
:10057000000A3048B0F9000000F5EB7001EE900A77
:10058000F8EEE11AF0EE613A2B48B0F9000055E0C0
:10059000FBE3000000140240000402400008024097
:1005A0000000000048000020B40200209802002053
:1005B0001603002000000020FAD8FFFF0000F044DE
:1005C00000007A43E82700200000344300000000C8
:1005D0000000F03F004C00401C280020A00200203A
:1005E000BC020020382A0020842A0020F4270020A2
:1005F000B0020020900200202203002020030020EF
:10060000150300209C0200200000C843FC020020CB
:1006100000000C4300003442000048420000484300
:1006200094020020FE02002000008C4200008C4357
:100630000000BE4308030020060300201E3001EE28
:10064000900AF8EEE11AB0EE613AFE48B0F9000007
:100650006A3001EE900AF8EEE11AB0EE612AFA482B
:10066000B0F90000323001EE900AF8EEE11AB0EE77
:10067000611AF648D0ED011AF0EE610AD0ED001AC9
:1006800006E0FDE3FDE3FDE36FE3B4E282E192E027
:10069000B0EE610ADFEDEE2ADFEDEE1A03F0E3FAC9
:1006A0000220F5EE003A9FEDEC3ADFEDEC2A9FEDEB
:1006B000EC2ADFEDEC1A9FEDEC1ADFEDEB0A9FED73
:1006C000EA0A01231A4600210090084602F0B9FB0D
:1006D000052001F075FB0020E449487188711FED89
:1006E000500A0AF079FC4FF4D07009F07AFDDF4827
:1006F000807D38B90120DD498875002048711920B6
:1007000014F057FB9FEDDA0A41F288314FF4C870BC
:1007100009F0E9FC1FED440AD64880ED000A3521B6
:10072000D54810F05EFBD548B0F9000000F2145037
:1007300001EE100AB8EEC11AF0EE411AC34890ED6E
:10074000011AF0EE410A90ED001AB0EE410A5FED99
:10075000643A1FED4E3A5FED6E2A9FEDBD2A9FED84
:10076000C81A03F080FA0320DFEDC63A1FED743A91
:10077000F6EE002A9FEDC42ADFEDC41A9FEDC41ADD
:10078000DFEDC30A9FEDC20A012300221946009043
:10079000184602F056FB9FEDB60A41F288314FF43D
:1007A000C87009F0A0FC062001F00AFBB9480068F7
:1007B00013F066FFF5E31FED6C0AAE4880ED000A0A
:1007C0000120AA490875B448006813F059FF9F48F2
:1007D00090ED011AF0EE410A90ED001AB0EE410AD8
:1007E000DFEDAE3A1FED923ADFEDAD2A1FED942A10
:1007F0005FED721A9FEDAB1A03F035FA0120DFEDC1
:10080000A13A1FED993ADFEDA02A9FED9F2A5FEDF7
:100810009C1A1FED951A5FED960A1FED800A03469C
:1008200000220146009002F00CFB01208F4981F864
:1008300024009D48B0F9000000F5EB7001EE900A2D
:10084000F8EEE11AF0EE613A9848B0F900001E3077
:1008500001EE900AF8EEE11AB0EE613A7948B0F98B
:1008600000006A3001EE900AF8EEE11AB0EE612A5B
:100870007548B0F90000323001EE900AF8EEE11A46
:10088000B0EE611A7148D0ED011AF0EE610AD0EDB8
:10089000001AB0EE610ADFED6E2ADFED6E1A03F08A
:1008A000E2F90220F5EE003A9FED6B3ADFED6B2A9C
:1008B0009FED6B2ADFED6B1A9FED6B1ADFED6A0A75
:1008C0009FED690A01231A4600210090084602F0B4
:1008D000B8FA6648807D38B90120644988750020DF
:1008E0004871192014F065FA4FF4D07009F079FCC2
:1008F0009FED5F0A41F288314FF4C87009F0F3FBB5
:100900006B494FF4D8700AF08CF91FEDC10A5948B1
:1009100080ED000A5948B0F9000000F2145001EED1
:10092000100AB8EEC11AF0EE411A484890ED011ACB
:10093000F0EE410A90ED001AB0EE410A5FEDE03AA8
:100940001FEDCA3A5FEDEA2A9FED412A9FED4C1A4E
:1009500003F089F90320DFED4B3A1FEDEF3AF6EE95
:10096000002A9FED492ADFED491A9FED491ADFED74
:10097000480A9FED470A01230022194600901846B5
:1009800002F05FFA062001F01BFA4248006813F0FB
:1009900077FE06E31FEDE40A364880ED000A2B4897
:1009A00090ED011AF0EE410A90ED001AB0EE410A06
:1009B000F2EE043A9FED3F3ADFED3F2A1FEDE62AC3
:1009C000DFED3E1A9FED3B1A03F04DF90120DFEDFC
:1009D0002D3A9FED3B3ADFED2C2A9FED2B2ADFEDE0
:1009E000381A9FED2B1ADFED2A0A9FED360A0346CF
:1009F00000220146009002F024FA01201B4981F8F0
:100A00002400022001F0DCF92748B0F9000000F5CD
:100A1000EB7001EE900AF8EEE11AF0EE613A23482D
:100A2000B0F900001E3001EE900AF8EEE11AB0EEC7
:100A3000613A0448B0F900006A3001EE900AF8EE1D
:100A4000E11A41E00403002000030020E827002011
:100A50000000B442008059446666263FCDCCCC3EAF
:100A60003333B33E0000B4C20000A043F42700209B
:100A70000000FAC448000020004C0040020300209F
:100A80000000D743CDCC4C3E9A99993E000034C328
:100A90000000AF43980200209402002000005C4355
:100AA0000000F042000082430803002006030020FB
:100AB00024FAFFFF0000C8420000D4420000D243E5
:100AC0000000000000007A43B0EE612AFE48B0F951
:100AD0000000323001EE900AF8EEE11AB0EE611A31
:100AE000FA48D0ED011AF0EE610AD0ED001AB0EE2E
:100AF000610A5FED292A5FED291A03F0B4F802209C
:100B0000DFEDF33A1FED2B3ADFEDF22A1FED2C2A31
:100B10005FED2C1A1FED2C1A5FED2D0A1FED2E0A2A
:100B200001231A4619460090184602F08AF9EA484D
:100B3000807D38B90120E849887500204871192066
:100B400014F037F99FEDE50AE54880ED000A03202F
:100B500001F036F94FF4D07009F043FB1FED3C0A69
:100B600041F288314FF4C87009F0BDFADD494FF405
:100B7000D8700AF056F8DC48B0F9000000F20F50C7
:100B800001EE100AB8EEC11AF0EE411ACF4890ED0E
:100B9000011AF0EE410A90ED001AB0EE410ADFEDC5
:100BA000D33A1FED3C3A5FED3A2A1FED572A9FEDED
:100BB000D01A03F058F803205FED4E3A1FED403A8B
:100BC0005FED4F2A1FED502A5FED501A1FED501AAE
:100BD0005FED510A1FED520A01231A461946009093
:100BE000184602F02EF9C348006813F049FD0620AC
:100BF00001F0E6F8D5E19FEDB90AB94880ED000AA9
:100C0000DFEDBA4A9FEDBC4A5FED563A1FED573A09
:100C10005FED6C2A9FEDB92ADFEDB91A9FEDB31A8B
:100C2000DFEDB20A1FED660A01231A46194618467F
:100C300001F02BFD0120A8494871B248006813F06B
:100C40001FFD0120A44908759FEDAF0AA44880ED5F
:100C5000000A9D48B0F90000373000EE100AB8EEE7
:100C6000C00AF0EE401ADFEDA14A9FEDA34ADFED86
:100C7000A43A1FED703A5FED852A00E0F5E11FED23
:100C80008B2A1FED871A5FED880A1FED890A012361
:100C900000221146104601F0F8FC8F48807D58B9BB
:100CA00001208D49887500204871192014F081F8C1
:100CB0001FED7D0A0AF090F99FED880A884880EDC3
:100CC000000A032001F07CF84FF4D07009F089FA93
:100CD0001FED990A41F288314FF4C87009F003FA08
:100CE00080494FF4D87009F09CFF7F48B0F90000AC
:100CF00000F21E5001EE100AB8EEC11AF0EE411AD1
:100D0000724890ED011AF0EE410A90ED001AB0EE33
:100D1000410A5FED943A9FED753A5FED972A1FED1A
:100D2000B42A1FEDA91A02F09EFF03205FEDAB3A33
:100D30001FED9D3AF6EE002A1FEDAD2A5FEDAD1ACC
:100D40001FEDAD1A5FEDAE0A1FEDAF0A01230022C1
:100D500019460090184602F074F86648006813F0CF
:100D60008FFC062001F02CF81BE19FED680A5C481F
:100D700080ED000A6348006813F082FC9FED640A6E
:100D80000AF02AF95FEDB14A00E009E19FED5A4A05
:100D90005FEDB83A9FED553A5FEDB72A1FEDB92ADE
:100DA000DFED5C1A9FED511A5FEDBE0A9FED5A0A06
:100DB000012300221946184601F067FC9FED570AEF
:100DC0000AF00AF9DFED564A9FED564ADFED4C3A3C
:100DD0001FEDC83ADFED542A9FED542ADFED4D1A7E
:100DE0009FED421ADFED410A9FED400A01231A46AA
:100DF0000021084601F049FC1FEDCF0A0AF0ECF88B
:100E0000192013F0D6FF314890ED011AF0EE410A97
:100E100090ED001AB0EE410ADFED343A1FEDDB3AF7
:100E20005FEDD92A1FEDF62ADFED411A9FED301A4A
:100E300002F019FF032000903E4890ED000A9FED5C
:100E4000321AB4EEC10AF1EE10FA02D29FED2E0A68
:100E500002E0384890ED000AF0EE400A5FEDF73A04
:100E60001FEDE93A5FEDF82A1FEDF92A5FEDF91A57
:100E70009FED251A1FEDFA0A01231A46194602E0D2
:100E800089E087E007E0184601F0DBFF19480068B9
:100E900013F0F6FB85E09FED110A114880ED000A82
:100EA0001148B0F9000000F2145001EE100AB8EE3B
:100EB000C11AF0EE411A054890ED011AF0EE410A10
:100EC00090ED001A38E0000000030020E827002021
:100ED000CDCC0C3F9A99193FF42700200000C8435D
:100EE0004800002024FAFFFF0203002000004843CE
:100EF0000080C043980200200000484200000244E5
:100F000000008C4294020020000016430000BE4303
:100F10000000164400005C42000096430000484474
:100F200000008C430000A0420000C8C200804F4473
:100F30000080A74444000020B0EE410A5FED0A3A69
:100F4000B3EE0E3ADFEDFD2A9FEDFD2A9FEDFD1A6F
:100F500002F089FE0320DFEDFC3A9FEDF83AF6EE51
:100F6000002A9FEDFA2ADFEDFA1A9FEDFA1A5FEDDB
:100F7000210A9FEDF80A0123002219460090184625
:100F800001F05FFF062000F01BFFF348006813F03C
:100F900077FB06E000BFF048006813F071FB00E04B
:100FA00000BF00BFED4800210268ED48006813F063
:100FB000B8FA0C2000F004FF40F6B83013F0C0FF80
:100FC00009F0F7FFE748007800F00700062805D190
:100FD000E448007800F00700072820D0E2480078B5
:100FE00010F0010F0DD157220021102009F079FFD8
:100FF000C82013F0A5FF57221021084609F071FF01
:101000000DE057220021102009F06BFF4FF4FA7019
:1010100013F096FF57221021084609F062FF41F2B3
:10102000883013F08DFF41F2883013F089FFCF49EB
:101030004FF4D87009F0F5FD57222021084609F039
:1010400050FF9FEDCB0A4FF4A1700AF047F8012042
:10105000C849C8759FEDC80A4FF47A614FF4C07053
:1010600009F041F8FF2013F0A4FEFFF708BA2DEDB8
:10107000048B86B0C14800210268C148006813F0A3
:1010800050FAE9E14FF47A7013F05AFF20E00A2099
:1010900013F0B9FC0A2013F053FF032000214FF492
:1010A0008072B84BCDE90132CDE903100A20034626
:1010B000B54A0090AFF66B4013F050FC0A2013F0D5
:1010C0003FFFA748006813F0DBFA642013F038FFF5
:1010D000AE4890ED000AF3EE040AB4EEE00AF1EE39
:1010E00010FA0BD29F48007800F00700062805D0C0
:1010F0009C48007800F007000728C8D14FF4FA6038
:1011000013F01EFF10E006F093FF06F009FF042124
:101110009F480EF00DFC4FF400619E480EF006FC57
:1011200041F2883013F00CFF9B4890ED000A10EE5E
:10113000101A084614F064FB41EC100BB0EE409A14
:10114000F0EE609A14F014FEB0EE408AF0EE608A81
:101150009FED920B53EC102B51EC180B14F064FB29
:10116000D1D34FF400618B480EF0E2FB7D4800784C
:1011700010F0070006D0012861D0022872D00328A1
:1011800071D14FE102E0C82013F0DAFE854890EDFE
:10119000000A5FEDAA0AB4EEE00AF1EE10FAF2D30B
:1011A000322181480FF01DFE4FF461707F490880A5
:1011B0000846B0F9000000EE100AB8EEC00A09F0C7
:1011C0000BFF02E0C82013F0BBFE764890ED010A49
:1011D0005FEDB30AB4EEE00AF1EE10FAF2D30120AB
:1011E0006449887102E0642013F0AAFE6D4890ED16
:1011F000010ADFED6F0AB4EEE00AF1EE10FAF2D365
:1012000001205C494871002088714FF4487067499B
:1012100008800846B0F9000000EE100AB8EEC00AD7
:1012200009F0DAFEC82013F08BFE6048B0F9000028
:1012300000EE100AB8EEC00A09F0CEFE06E102E0A8
:10124000642013F07DFE574890ED010ADFED590A46
:10125000B4EEE00AF1EE10FAF2D31FEDD00A09F075
:10126000BBFE04E031E0F0E0C82013F069FE4D4819
:1012700090ED010ADFED500AB4EEE00AF1EE10FA4B
:10128000F2D301203B49887102E0642013F058FE3C
:10129000444890ED010ADFED490AB4EEE00AF1EEB0
:1012A00010FAF2D3012033494871002088714FF4BD
:1012B00061703E4908800846B0F9000000EE100A4F
:1012C000B8EEC00A09F088FEC0E002E0642013F026
:1012D00037FE344890ED010ADFED390AB4EEE00A3A
:1012E000F1EE10FAF2D39FED370A09F075FE02E035
:1012F000642013F025FE2B4890ED010A5FEDF80AFB
:10130000B4EEE00AF1EE10FAF2D3012019490875A3
:101310002D48006813F0B4F902E0642013F010FEC9
:10132000204890ED010ADFED290AB4EEE00AF1EE63
:1013300010FAF2D301200F4988714CE00000000040
:101340000000B4420000D743CDCC4C3E9A99993E60
:10135000000034C30000A04398020020B002002027
:101360009002002016030020D502002024FAFFFF7F
:101370000080D444F427002000602FC7C002002062
:101380009C020020D0070020CC0B0020440000204D
:1013900000080240000C0240042900200000000068
:1013A00000002440E8270020004C0040EC01002011
:1013B000008018440000704200007A4300001B4483
:1013C0000000C84200002F44940200200000D243D5
:1013D000642013F0B5FDF74890ED000ADFEDF60A42
:1013E000B4EEE00AF1EE10FAF2D3F44890ED010AFF
:1013F000DFEDF30AB4EEE00AF1EE10FAE8D30120D3
:10140000F0494871002088714FF46170EE490880FE
:101410000846B0F9000000EE100AB8EEC00A09F064
:10142000DBFD13E002E0642013F08AFDE34890ED59
:10143000010ADFEDE60AB4EEE00AF1EE10FAF2D3AB
:101440009FEDE30A09F0C8FD00E000BF00BFFF20E8
:1014500013F0AFFC00BFFEE714E6DE48002102688F
:10146000DD48006813F05DF8DC48007820B90321FE
:101470004FF4D07009F0D3FC2CE0D848007840B18C
:10148000D748B0F90010D748B0F9000005F03DFA90
:1014900001E00DF079F8CB48007D012807D1D24852
:1014A000007820B1D14890ED000A05F0FDFC4FF422
:1014B000D07009F0A1FB4FF4C87009F09DFB4FF408
:1014C000D07009F014FC4FF4C87009F010FCC8206B
:1014D00013F036FDD1E705E00AF0B0F94FF47A7069
:1014E00013F02EFDC248006A0028F5D04FF4FC60CE
:1014F00007F02FFA4FF47A7013F022FD05E00BF09D
:10150000FDF84FF47A7013F01BFDF8E715E04FF487
:101510000041B8480EF00CFA4FF4C07009F06CFBB3
:1015200041F2883013F00CFD4FF40041B1480EF049
:10153000FDF941F2883013F003FDE8E72DED068B4D
:1015400086B0002413F03AFF002012F064FFAA498D
:101550000860002012F05FFF9F490860002012F031
:101560005AFFA6490860002012F055FFA449086000
:10157000002012F050FFA349086000200DF054F93C
:1015800006F07BFC09F0BCFF032000214FF48072C1
:101590009D4BCDE90132CDE903103C2003469B4A27
:1015A0000090AFF2970013F0D9F9032000214FF417
:1015B0008072974BCDE90132CDE903103720034605
:1015C000944A0090AFF2F10013F0C8F9924800215C
:1015D00002688948006812F0A4FF06F029FD642023
:1015E00013F0AEFC06F05FFD8C480168002011F09E
:1015F00089FF8B4908608B480168002011F082FF49
:101600008949086006F020FC09F061FF8548006800
:1016100064238222002100908348006812F0DFF8E2
:101620004FF4005181480EF067F905464FF48051A0
:101630007E480EF061F945EA40054FF480417B4851
:101640000EF05AF945EA800079490870032000211C
:101650004FF48072774BCDE90132CDE903100A20B7
:101660000346754A0090754813F078F9032000216D
:101670004FF48072724BCDE90132CDE9031019208D
:101680000346704A0090AFF22D2013F067F9032053
:1016900000214FF480726C4BCDE90132CDE903108B
:1016A0001E200346694A0090AFF23D6013F056F9E0
:1016B000032000214FF48072654BCDE90132CDE962
:1016C000031039200346634A0090634813F046F93B
:1016D000032000214FF48072604BCDE90132CDE947
:1016E00003100F2003465E4A00905E4813F036F95F
:1016F000032000214FF480725B4BCDE90132CDE92C
:10170000031004200346594A0090594813F026F963
:1017100007E04FF4006157480EF008F9642013F019
:101720000FFC102154480EF0E7F80028F1D04FF4D8
:10173000006150480EF0FCF8312150480FF051FB89
:10174000032000F0A1FA462006F09FFD38480078FB
:1017500000F0070008282CD2DFE800F0BFC0C1C2AB
:1017600004F1F0EF4648006813F0F4FF41EC100B71
:10177000B0EE40AAF0EE60AA9FED420B53EC102BA6
:1017800051EC1A0B13F005FF41EC100BB0EE409A30
:10179000F0EE609A51EC190B14F06EF808EE100A96
:1017A0009FED3A1AF0EE480A9FED390A06F0FAFA70
:1017B00073E0A5E1DC0200200000F042E8270020F1
:1017C00000002544F4270020EC0100200000AF4376
:1017D00000006144B802002094020020150300209C
:1017E000220300202003002014030020D802002040
:1017F00044320020000002409002002098020020A5
:101800009C020020A0020020D01F0020CC2300203A
:10181000D00B0020CC0F0020B0020020AC02002032
:1018200088020020A40200208C0200200014024044
:1018300016030020D0070020CC0B00204D04000828
:10184000D00F0020CC130020D0130020CC17002094
:10185000D0170020CC1B0020C7030008D01B00209D
:10186000CC1F002077020008D0230020CC270020C6
:101870009D010008000C024000180240004C00408E
:10188000000000209A99999999D9434000000000DE
:101890003D8A1042642013F053FB4FF40061C948A5
:1018A0000EF02AF80028F5D00BF012FE5722002186
:1018B000302009F016FB9FEDC40A41F658314FF471
:1018C000D07008F010FCC148C1494860C149486067
:1018D0004FF4967013F034FB12E100BF00BF00BF5D
:1018E000BD48006813F036FF41EC100BB0EE40AA83
:1018F000F0EE60AA1FED1D0B53EC102B51EC1A0BF0
:1019000013F047FE41EC100BB0EE409AF0EE609AF7
:1019100051EC190B13F0B0FF08EE100A1FED251A59
:10192000F0EE480A1FED260A06F0EAF94FF40061CE
:10193000A4480DF0E1FF044605E09CE057E01DE0FF
:10194000642013F0FDFA4FF400619E480DF0D4FFBF
:10195000A042F5D057220021202009F0C2FA0BF056
:10196000B7FD9FED9E0A40F2431009F0B7FB9FEDD3
:101970009C0A4FF4A17009F0B1FBC1E0022000F015
:101980004BFA954800684FF45C71484300EE100A2A
:10199000B8EEC00AF0EE400A9FED921A1FED7A0AE7
:1019A00006F000FA4FF4006186480DF0A5FF0446EA
:1019B00002E0642013F0C4FA4FF4006181480DF096
:1019C0009BFFA042F5D09FED850A40F2431009F03D
:1019D00085FB9FED830A4FF4A17009F07FFB0BF0AC
:1019E00077FD57220021F02009F07BFA88E04FF4C0
:1019F000006174480DF080FF0446774800686FF07E
:101A0000B301484300EE100AB8EEC00AB0EE401A27
:101A10007148006840F23251484300EE100AB8EEB7
:101A2000C00AF0EE400A9FED700A06F069F95722ED
:101A30001021084609F055FA9FED6C0A40F2431058
:101A400009F04CFB9FED660A4FF4A17009F046FBCC
:101A500002E0642013F074FA4FF4006159480DF06D
:101A60004BFFA042F5D057224021E02009F039FA7F
:101A70000BF040FE44E04F2006F007FC5722902177
:101A8000F02009F02EFA022000F0C6F95248006852
:101A90006FF0B301484300EE100AB8EEC00AB0EE92
:101AA000401A4D48006840F23251484300EE100A97
:101AB000B8EEC00AF0EE400A9FED4B0A06F072F94C
:101AC0004FF400613F480DF017FF04469FED470AB1
:101AD00040F2431009F002FB9FED410A4FF4A17060
:101AE00009F0FCFA0BF006FE02E0642013F028FA7D
:101AF0004FF4006133480DF0FFFEA042F5D000BF67
:101B000000BF002000F05CF9022000F085F93848A1
:101B1000006812F0B5FD04E004F07EFE642013F0CE
:101B20000FFAF9E700B585B010F055FF00F08EF818
:101B300000F0C6F800F024F908F0C6F806F021FF1E
:101B40004FF4A0600DF008FD05F07EFB08F0A0F951
:101B500006F002FC09F0F8FC0BF0CCFBFA2125485A
:101B60000DF03CFAFA2124480DF038FAC821234838
:101B70000DF034FAC82122480DF030FA1421214822
:101B80000DF02CFA142120480DF028FA09F084FBFE
:101B90000DF0AEF811F002F9032000214FF480722D
:101BA0001A4BCDE90132CDE9031005200346184A4E
:101BB0000090AFF2776012F0D1FE11F016FA00201B
:101BC00005B000BD0014024000D072C5D3F0FFFF85
:101BD000F0010020100200200000002000806D4471
:101BE0000080ED44000034430000B4420000F044A3
:101BF000900200201C330020403300208C32002053
:101C0000B0320020D4320020F8320020D00300206F
:101C1000CC070020704704210A480DF087FE08E039
:101C20004FF4006108480DF08CFE4FF4FA7000F09C
:101C3000F3F8F5E700BFFEE700BFFEE700BFFEE7F1
:101C40007047704700080240000C02401CB501219B
:101C500008200EF035F819480DF07EFD01208DF8B2
:101C6000040000208DF806004FF400600090002072
:101C70008DF80500694611480DF0DCFD4FF4006158
:101C80000E480DF055FE1CBD70B50446002511E050
:101C90004FF4006109480DF049FE642000F0BCF8E3
:101CA0004FF4006105480DF043FE642000F0B4F8E5
:101CB000681CC5B2A542EBDB70BD0000000C024001
:101CC0001CB5012120200DF0FBFF012108460DF07D
:101CD000F7FF012104200DF0F3FF012110200DF08A
:101CE000EFFF23480DF038FD22480DF035FD224866
:101CF0000DF032FD21480DF02FFD01208DF804007C
:101D000000208DF806001420009000208DF80500BA
:101D1000694617480DF08EFD4FF40040009069466B
:101D200014480DF087FD4FF480400090694612483A
:101D30000DF080FD40200090694610480DF07AFDBE
:101D400010210B480DF0F2FD4FF4004109480DF051
:101D5000EDFD402109480DF0E9FD042104480DF096
:101D6000E5FD4FF4804104480DF0E0FD1CBD00008E
:101D7000001402400000024000080240001002402F
:101D80001CB5012102200DF09BFF4FF44070009024
:101D900001208DF8040000208DF8060002208DF847
:101DA000050069461A480DF045FD4FF4807118484A
:101DB0000DF0BCFD4FF4007115480DF0B9FD1CBDD0
:101DC00070B50446112C00DD11241248055D002673
:101DD0001AE04FF480710E480DF0AAFD15F0010FC6
:101DE00005D04FF400710A480DF0A0FD04E04FF457
:101DF000007107480DF09CFD4FF4807104480DF010
:101E000095FD6D10701CC6B2082EE2DB70BD00009F
:101E100000040240A470010810B5002107E04AF256
:101E2000104200BF1300A2F10102FBD1491C814204
:101E3000F5D310BD10B5002106E0282200BF130025
:101E4000A2F10102FBD1491C8142F6D310BD00BFB3
:101E50000100A0F1010290B2FAD1704770B52DEDEA
:101E60000A8B044694ED000AB1EE400ADFEDF80A51
:101E700020EE200ABDEEC00AF64880ED000A94ED7F
:101E8000010AB1EE400ADFEDF20A20EE200ABDEEB3
:101E9000C00AF14880ED000A94ED020AB1EE400A52
:101EA000DFEDEB0A20EE200ABDEEC00AEB4880ED24
:101EB000000A94ED030AB1EE400ADFEDE50A20EED8
:101EC000200ABDEEC00AE64880ED000AE24800683C
:101ED00013F040FC41EC100BB0EE40CAF0EE60CACB
:101EE00013F046FFB0EE40AAF0EE60AAD9480068B1
:101EF00013F030FC41EC100BB0EE40CAF0EE60CABB
:101F000013F036FFB0EE40BAF0EE60BA53EC1A2B85
:101F100051EC1B0B13F09CFC0CD2CE48006813F064
:101F200019FC41EC100BB0EE40AAF0EE60AA13F0E1
:101F30001FFF0BE0C848006813F00CFC41EC100BCD
:101F4000B0EE40AAF0EE60AA13F012FFB0EE409A95
:101F5000F0EE609A51EC190B13F01AFC0546C048DC
:101F6000006813F0F7FB41EC100BB0EE40CAF0EE46
:101F700060CA13F0FDFEB0EE40BAF0EE60BAB748AA
:101F8000006813F0E7FB41EC100BB0EE40CAF0EE36
:101F900060CA13F0EDFEB0EE409AF0EE609A53EC9A
:101FA0001B2B51EC190B13F053FC0CD2AB480068FF
:101FB00013F0D0FB41EC100BB0EE409AF0EE609ABB
:101FC00013F0D6FE0BE0A648006813F0C3FB41EC0B
:101FD000100BB0EE409AF0EE609A13F0C9FEB0EE2E
:101FE00040AAF0EE60AA51EC1A0B13F0D1FB0646A2
:101FF000B54201DD284600E030460546B5F5E15F13
:1020000033DD00EE105AB8EEC00ADFED960A80EE1E
:10201000808A904890ED000AB8EEC00A20EE080AC7
:10202000BDEEC00A80ED000A8B4890ED000AB8EEC4
:10203000C00A20EE080ABDEEC00A80ED000A8748FB
:1020400090ED000AB8EEC00A20EE080ABDEEC00A04
:1020500080ED000A824890ED000AB8EEC00A20EE3A
:10206000080ABDEEC00A80ED000A7A480168022025
:1020700005F099FF78480168032005F094FF774840
:102080000168042005F08FFF75480168012005F004
:102090008AFF05F0B2FFBDEC0A8B70BD10B52DEDC7
:1020A000060B2DED0C8B86B000200190AFE09DF863
:1020B000040000EB40006C4A02EB800090ED020A45
:1020C000DFED6A0A30EE600A10EE101A084613F0CF
:1020D00097FB41EC100BB0EE40DAF0EE60DA13F053
:1020E000DBFDB0EE40BAF0EE60BA9DED140ADFED14
:1020F000600A20EE200A9FED5F1AC0EE010A9DF8EB
:10210000040000EB4000584901EB800090ED001AFC
:102110009DED130A00EE810A10EE104A204613F0DE
:102120006FFB41EC100BB0EE40CAF0EE60CA53EC0E
:102130001B2B51EC1C0B13F02CFA41EC100BB0EEE6
:10214000409AF0EE609A9DF8040000EB4000464A89
:1021500002EB800090ED020A10EE101A084613F010
:102160004FFB41EC100BB0EE40DAF0EE60DA13F00A
:1021700093FDB0EE40BAF0EE60BA9DED140ADFEDCB
:102180003C0A20EE200A9FED3B1AC0EE010A9DF8A2
:10219000040000EB4000344901EB800090ED010A9F
:1021A000B1EE401A9DED120A00EE810A10EE104ABF
:1021B000204613F025FB41EC100BB0EE40CAF0EEC8
:1021C00060CA53EC1B2B51EC1C0B13F0E2F941ECF1
:1021D000100BB0EE40AAF0EE60AA53EC192B51ECB4
:1021E0001A0B13F02FF941EC100BB0EE408AF0EE11
:1021F000608A51EC180B13F03FFB02A99DF80420F4
:1022000041F822009DF80400401CC0B201909DF8E6
:1022100004000428FFF64BAF02A8FFF71FFE06B02C
:10222000BDEC0C8B06B010BD10B52DED040B2DEDE3
:10223000108B8EB0DDED200A0F4890ED000AB8EE4D
:10224000C00A20EE800A8DED200A00200890D5E11A
:10225000E3A57E4134000020380000203C0000202F
:10226000400000200000E14504000020DB0FC93FD2
:10227000DB0F494000003443000000209DF820009F
:1022800000EB4000E34A02EB800090ED020A5FEDB4
:10229000090A30EE600A10EE101A084613F0B0FA80
:1022A00041EC100BB0EE40AAF0EE60AA13F0F4FC83
:1022B000B0EE408AF0EE608A9DED200A5FED140AD0
:1022C00020EE200A1FED151AC0EE010A9DF820002D
:1022D00000EB4000CF4901EB800090ED001ACE48A2
:1022E00090ED000AB8EEC00A21EE000A20EE800A46
:1022F00010EE104A204613F083FA41EC100B8DEDDE
:10230000000BC64890ED020A5FED270A20EE200A76
:102310005FED280A80EE201A11EE104A204613F0D5
:102320006FFA41EC100BB0EE40FAF0EE60FA13F0E9
:10233000B3FCB0EE40DAF0EE60DA9DED1F0A10EE6D
:10234000101A084613F05CFA41EC100BB0EE40EAAC
:10235000F0EE60EA53EC1D2B51EC1E0B13F019F953
:1023600041EC100BB0EE40BAF0EE60BAAB4890ED25
:10237000020A5FED410A20EE200A5FED420A80EE7C
:10238000201A11EE104A204613F03AFA41EC100BD5
:10239000B0EE40FAF0EE60FA13F0F6FCB0EE40DA80
:1023A000F0EE60DA9DED1E0AB1EE400A10EE101A52
:1023B000084613F025FA41EC100BB0EE40EAF0EEBF
:1023C00060EA53EC1D2B51EC1E0B13F0E2F841ECCC
:1023D000100BB0EE40CAF0EE60CA53EC1B2B51EC70
:1023E0001C0B13F02FF841EC100BB0EE40AAF0EEEE
:1023F00060AA9DED000B53EC102B51EC1A0B13F05F
:1024000021F841EC100BB0EE409AF0EE609A53ECDC
:10241000182B51EC190B13F0BCF841EC100B8DED9F
:10242000040B9DF8200000EB40007A4A02EB80008C
:1024300090ED020A10EE101A084613F0E1F941EC93
:10244000100BB0EE40AAF0EE60AA13F025FCB0EE3F
:10245000408AF0EE608A9DED200A5FED7B0A20EE57
:10246000200A1FED7C1AC0EE010A9DF8200000EB47
:102470004000684901EB800090ED010AB1EE401A7E
:10248000654890ED000AB8EEC00A21EE000A20EE81
:10249000800A10EE104A204613F0B2F941EC100BFE
:1024A0008DED000B5D4890ED020A5FED8F0A20EE86
:1024B000200A5FED900A80EE201A11EE104A2046A5
:1024C00013F09EF941EC100BB0EE40FAF0EE60FA1A
:1024D00013F05AFCB0EE40DAF0EE60DA9DED1F0A20
:1024E00010EE101A084613F08BF941EC100BB0EE09
:1024F00040EAF0EE60EA53EC1D2B51EC1E0B13F09A
:1025000048F841EC100BB0EE40BAF0EE60BA434828
:1025100090ED020A5FEDAA0A20EE200A5FEDAB0AF9
:1025200080EE201A11EE104A204613F069F941ECB2
:10253000100BB0EE40FAF0EE60FA13F0ADFBB0EE27
:1025400040DAF0EE60DA9DED1E0A10EE101A084631
:1025500013F056F941EC100BB0EE40EAF0EE60EAF1
:1025600053EC1D2B51EC1E0B13F013F841EC100B28
:10257000B0EE40CAF0EE60CA53EC1B2B51EC1C0BC2
:1025800012F060FF41EC100BB0EE40AAF0EE60AA32
:102590009DED000B53EC102B51EC1A0B12F052FF77
:1025A00041EC100BB0EE409AF0EE609A53EC182B11
:1025B00051EC190B12F0EDFF41EC100B8DED020BFD
:1025C0009DED040B53EC102B9DED020B51EC100B09
:1025D00012F038FF41EC100B8DED060B9DED060B54
:1025E00051EC100B13F048F909A99DF8202041F88F
:1025F00022009DF82000401CC0B208909DF82000E9
:102600000428FFF63BAE09A8FFF728FC0EB0BDEC8E
:10261000108B1FBD0400002000000020E8270020D0
:1026200010B52DED0A8BB0EE409AB0EE608AF0EE58
:10263000419AF0EE618A9FEDFE0AB0EE40AA39EEB3
:10264000C90A20EE000A78EEC80A38EEC81A00EE71
:10265000810A10EE101A084613F0D2F841EC100B64
:10266000B0EE40CAF0EE60CA13F0FAFBB0EE40BA2A
:10267000F0EE60BA51EC1B0B13F0FEF80AEE100AF4
:10268000B0EE4A0ABDEC0A8B10BD2DE9F0412DEDEC
:10269000108B04460D4616461F46B0EE408AF0EEFB
:1026A000608AB0EE419AF0EE619AB0EE42AAF0EE86
:1026B00062AAB0EE43DAF0EE63DAB0EE44EAF0EE8E
:1026C00064EADC480470447545708570C670067114
:1026D0000772D94880ED008AD848C0ED008AD848F2
:1026E00080ED009AD74890ED000AD74880ED000AA7
:1026F000D44890ED010AD54880ED000AD14890ED0C
:10270000020AD34880ED000AD248C0ED009AD248B0
:1027100080ED00AAD148C0ED00AAD14880ED00DAD2
:10272000D048C0ED00DACC48D0ED001AC94890ED91
:10273000001AC648D0ED000AC34890ED000AFFF722
:102740006FFFC94880ED000AC84880ED00EAC8481C
:10275000C0ED00EAC24890ED000AC248D0ED000A80
:1027600030EE200AC048D0ED000AB4EEE00AF1EEE7
:1027700010FA0FDD0421BF480DF0D8F84FF40061C6
:10278000BD480DF0D3F8FF2012F013FBBDEC108B09
:10279000BDE8F081B54890ED000AB548D0ED000ADB
:1027A00030EE200AB048D0ED000AB4EEE00AF1EEB7
:1027B00010FA10DD00209F49C87008710421AD484F
:1027C0000DF0B4F84FF40061AB480DF0AFF8FF2006
:1027D00012F0EFFADAE7994890ED000AA74880ED89
:1027E000000A9FED930AA64880ED020A0120914954
:1027F0004872974890ED000AA24880ED020A954879
:1028000090ED000A9048D0ED000A30EE600A10EE1C
:10281000101A084612F0F4FF41EC100BB0EE40CA5B
:10282000F0EE60CA13F0A4FAB0EE40BAF0EE60BA6F
:102830009FED950B53EC102B51EC1B0B12F0F4FF9A
:1028400006D201207B49C87102209149087082E0BC
:1028500000207849C871804890ED000A7B48D0ED8F
:10286000000A30EE600A7B48D0ED000A764890ED11
:10287000001A70EEC10A80EE201A864880ED001A18
:10288000D0ED000A90ED001AB7EE000A00EE810AC2
:1028900010EE101A084612F0B3FF41EC100BB0EE28
:1028A00040CAF0EE60CA13F0DBFAB0EE40BAF0EEC8
:1028B00060BA53EC1B2B9FED780B51EC100B12F010
:1028C000DAFE41EC100BB0EE40FAF0EE60FA51EC9B
:1028D0001F0B12F0D1FF724908606E48006812F0B9
:1028E0008FFF41EC100BB0EE40CAF0EE60CA13F05F
:1028F0003FFAB0EE40BAF0EE60BA9FED670B53ECD2
:10290000102B51EC1B0B12F08FFF11D201206049EC
:1029100008704E4890ED000A4B48D0ED000A5D4823
:1029200090ED001A00EEC10A5E4880ED000A12E048
:10293000022057490870454890ED000A5548D0EDEF
:10294000000A80EE201A404890ED000A30EE410A5D
:10295000544880ED000A00203649C87201205249CF
:10296000087001F03FFD05F0DBFA042141480CF04E
:10297000DFFF01202F49887200204C49086002E0E7
:10298000322012F0DDFA334890ED000A2E48D0EDE7
:10299000000A30EE600A2B48D0ED000A2D4890ED79
:1029A000001A70EEC10A20EE200A2B48D0ED000A72
:1029B000264890ED001A70EEC10A224890ED011AE7
:1029C0002548D0ED001A31EE611A00EE810A10EEB2
:1029D000101A084612F014FF41EC100BB0EE40BA8A
:1029E000F0EE60BA9FED320B53EC102B51EC1B0B49
:1029F00012F01AFFC4D30F48007A98B900200D498D
:102A000088720846407A50B1144890ED001A124876
:102A1000D0ED000A0F4890ED000A03F030FF0120CE
:102A20000449C87200200349887200BFAEE6000066
:102A300000000000F42700208C00002090000020FF
:102A400094000020E8270020580000205C000020AF
:102A50006000002064000020680000206C0000205E
:102A60007000002074000020780000207C0000200E
:102A70008000002000080240000C024044000020BA
:102A8000D02700204C000020000000000000E03FA4
:102A90009C000020A0000020000000000000F03F8B
:102AA000A8000020A4000020DC000020E00200209C
:102AB000000000000000E0BFD1ED021AB0EE610A94
:102AC00060EE001AF0EE610A60EE801AB0EE611A54
:102AD000D0ED0C1A61EE811A90ED0D2A42EE201A0B
:102AE00090ED0E2A42EE001A90ED0F2A71EE821A36
:102AF000C1ED001AD0ED101A61EE811A90ED112A85
:102B000042EE201A90ED122A42EE001A90ED132A9E
:102B100071EE821AC1ED011A704790ED000A80ED46
:102B20000F0A90ED020AD0ED000A30EE600AF0EED6
:102B3000080A20EE200A80ED0E0A90ED040AD0ED7E
:102B4000020A70EE600A90ED0E0AB0EE081A11EE5D
:102B5000200A80ED0D0A90ED060AD0ED000A30EE55
:102B6000600AD0ED0D0A30EE600AD0ED0E0A30EEAC
:102B7000600A80ED0C0A90ED010A80ED130A90EDD9
:102B8000030AD0ED010A30EE600AF0EE080A20EEEA
:102B9000200A80ED120A90ED050AD0ED030A70EECE
:102BA000600A90ED120AB0EE081A11EE200A80EDCC
:102BB000110A90ED070AD0ED010A30EE600AD0ED5F
:102BC000110A30EE600AD0ED120A30EE600A80ED94
:102BD000100A704770B52DED0C8B044694ED080A71
:102BE000DFEDFC0A20EE200ADFEDFB0A80EE201A62
:102BF00011EE105A94ED090ADFEDF60A20EE200AD4
:102C0000DFEDF50A80EE201A11EE106A284612F068
:102C1000F7FD41EC100BB0EE40DAF0EE60DA13F0A5
:102C20003BF8B0EE40BAF0EE60BA94ED0A0A10EE4E
:102C3000101A084612F0E4FD41EC100BB0EE40CA49
:102C4000F0EE60CA53EC1B2B51EC1C0B12F0A1FCF4
:102C500041EC100BB0EE409AF0EE609A94ED000A51
:102C600010EE101A084612F0CBFD41EC100BB0EE3E
:102C700040AAF0EE60AA53EC192B51EC1A0B12F09B
:102C8000E1FB41EC100BB0EE408AF0EE608A51ECB3
:102C9000180B12F0F1FDA060284612F0B1FD41ECD6
:102CA000100BB0EE40DAF0EE60DA13F06DF8B0EE33
:102CB00040BAF0EE60BA94ED0A0A10EE101A084617
:102CC00012F09EFD41EC100BB0EE40CAF0EE60CA6F
:102CD00053EC1B2B51EC1C0B12F05BFC41EC100B6A
:102CE000B0EE409AF0EE609A94ED010A10EE101AE0
:102CF000084612F085FD41EC100BB0EE40AAF0EE54
:102D000060AA53EC192B51EC1A0B12F09BFB41EC0F
:102D1000100BB0EE408AF0EE608A51EC180B12F006
:102D2000ABFDE060304612F06BFD41EC100BB0EEF5
:102D300040DAF0EE60DA12F0AFFFB0EE40BAF0EE3B
:102D400060BA94ED0B0A10EE101A084612F058FD06
:102D500041EC100BB0EE40CAF0EE60CA53EC1B2BF6
:102D600051EC1C0B12F015FC41EC100BB0EE409A2C
:102D7000F0EE609A94ED060A10EE101A084612F072
:102D80003FFD41EC100BB0EE40AAF0EE60AA53EC10
:102D9000192B51EC1A0B12F0F6FB41EC100BB0EEB4
:102DA000408AF0EE608A51EC180B12F065FD20614C
:102DB000304612F025FD41EC100BB0EE40DAF0EE9B
:102DC00060DA12F0E1FFB0EE40BAF0EE60BA94EDD6
:102DD0000B0A10EE101A084612F012FD41EC100B0F
:102DE000B0EE40CAF0EE60CA53EC1B2B51EC1C0B4A
:102DF00012F0CFFB41EC100BB0EE409AF0EE609A6F
:102E000094ED070A10EE101A084612F0F9FC41EC96
:102E1000100BB0EE40AAF0EE60AA53EC192B51EC67
:102E20001A0B12F0B0FB41EC100BB0EE408AF0EE42
:102E3000608A51EC180B12F01FFD6061BDEC0C8B29
:102E400070BD2DE9F0412DED108B04460D46164660
:102E50001F46B0EE408AF0EE608AB0EE419AF0EE86
:102E6000619AB0EE42EAF0EE62EAB0EE43FAF0EEBA
:102E700063FADDF858804FF4006158480CF058FDB3
:102E80005748FFF7A7FE5648FFF747FE544890ED16
:102E9000072AF0EE421A90ED062AB0EE421A90EDA3
:102EA000012AF0EE420A90ED002AB0EE420AFFF746
:102EB000B7FBF0EE000A80EE801A4A4880ED001A57
:102EC0009FED490A494880ED020A464890ED000A04
:102ED000474880ED020A45494148FFF7EDFD444966
:102EE0003F48FFF7E9FD424890ED000A3F48D0ED2A
:102EF000000A30EE600A3F4880ED000A3C4890ED41
:102F0000010A3A48D0ED010A30EE600A394880EDF6
:102F1000010A39480470447545708570C6700671A1
:102F20000772364880ED008A3548C0ED008A354882
:102F300080ED009A344890ED000A344880ED000A94
:102F4000314890ED010A324880ED000A2E4890ED9C
:102F5000020A304880ED000A214890ED060A2E480A
:102F600080ED000A1E4890ED070A2C4880ED000A0B
:102F70002B48C0ED009A2B4880ED00EA2A48C0EDAE
:102F800000EA2A4880ED00FA2948C0ED00FA2948F5
:102F900080F80080234890ED000A2348D0ED000A15
:102FA00030EE200AF7EE000AB4EEE00AF1EE10FA75
:102FB00044DD042120480CF0B9FC4FF400610748BF
:102FC0000CF0B4FCFF2011F0F4FEBDEC108BBDE85A
:102FD000F0810000DB0F494000003443000C024048
:102FE00050280020E000002000000000A028002061
:102FF000AC280020CC000020F42700208C0000200A
:103000009000002094000020E827002058000020B5
:103010005C000020600000206400002068000020A8
:103020006C000020AC000020B0000020B4000020A4
:10303000B80000205802002000080240FE4890ED31
:10304000000AFE48D0ED000A30EE200AF7EE000A32
:10305000B4EEE00AF1EE10FA0FDD0421F8480CF0AE
:1030600065FC4FF40061F7480CF060FCFF2011F0A4
:10307000A0FEBDEC108BBDE8F081F34890ED000A96
:10308000F24880ED000A1FED280AF14880ED020A9F
:10309000F0480078032805D19FEDEF0AEF4880ED56
:1030A000020A05E0EE4890ED000AEC4880ED020AC5
:1030B0000020EC49C8720220EB49087001F092F937
:1030C0000120E849487204F02BFF0421DC480CF091
:1030D0002FFC0120E349887247E0E448B0F9000082
:1030E00012F038FB41EC100BB0EE40DAF0EE60DA93
:1030F00012F03EFEB0EE40CAF0EE60CA9FEDDC0B6F
:1031000053EC102B51EC1C0B12F03DFA41EC100B60
:10311000B0EE40BAF0EE60BA12F02AFEB0EE40AA6D
:10312000F0EE60AA9FEDD40B53EC102B51EC1A0B70
:1031300012F08EFB16D2D24890ED010ADFEDD10AD3
:10314000B4EEE00AF1EE10FA0CDD9FEDCF0A41F289
:1031500088314FF4C87006F0C6FFCC48006811F003
:103160008FFA86E7322011F0EBFEC94890ED020A93
:10317000C848D0ED000AB7EE001A71EE600AB4EE4E
:10318000E00AF1EE10FAA8D34FF40061AD480CF05C
:10319000CDFBB448007A98B90020B249887208463D
:1031A000407A50B1BC4890ED001ABC48D0ED000AFE
:1031B000BB4890ED000A03F062FB0120A949C872E8
:1031C0000020A849887200BF53E710B52DED048B8D
:1031D000B448B0F9000000F2325000EE100AB8EE28
:1031E000C00A9E4880ED010A9FED9B0A80ED020A0D
:1031F0001FED830A964880ED010A00209949087264
:103200009FEDA90A914880ED000A0020C8720320B2
:103210009549087001F0E6F804F082FE0421884820
:103220000CF086FB01208F498872487211E09448A7
:1032300090ED000ADFED9D0AB4EEE00AF1EE10FA1F
:1032400004DD9FED9B0A814880ED000A322011F0D9
:1032500077FE984890ED000A10EE101A084612F01A
:10326000CFFA41EC100BB0EE409AF0EE609A12F0FB
:103270007FFDB0EE408AF0EE608A9FED7D0B53EC4F
:10328000102B51EC180B12F0E3FA05D208218A48F2
:103290000CF032FB0128CAD09FED880A6B4880ED04
:1032A000000A9FED870A07F097FE4FF47A7011F03D
:1032B00047FE02E0322011F043FE7E4890ED000A06
:1032C00010EE101A084612F09BFA41EC100BB0EE0B
:1032D000409AF0EE609A12F04BFDB0EE408AF0EEAC
:1032E000608A9FED780B53EC102B51EC180B12F009
:1032F000AFFADFD357220421084607F0F2FD594800
:10330000007AC8B90020574988720846407A80B1CF
:103310005B4890ED011AF0EE410A90ED001AF7EECD
:10332000001A31EE211AB0EE410A9FED4B1A03F05C
:10333000A6FA01204B49C87200204A498872BDECA8
:10334000048B10BD10B52DED0E8B404890ED000A9A
:103350005E48D0ED000A30EE600A10EE101A084602
:1033600012F04EFA41EC100BB0EE40AAF0EE60AA5B
:1033700012F0FEFCB0EE409AF0EE609A9FED540B16
:1033800053EC102B51EC190B12F062FA52D23C485C
:1033900090ED010AF0EE401A90ED000AB0EE401AEE
:1033A0004D48D0ED000A4D4890ED000AFFF738F97E
:1033B000B0EE408AB0EE480A4948D0ED000AB4EEBB
:1033C000E00AF1EE10FA36D290ED000AC8EE000ADB
:1033D00010EE904A204612F013FA41EC100BB0EEBA
:1033E00040EAF0EE60EA12F03BFDB0EE40CAF0EECB
:1033F00060CA154890ED000A3448D0ED000A30EE5E
:10340000600A10EE101A084612F0FAF941EC100B9F
:10341000B0EE40DAF0EE60DA53EC1C2B51EC1D0BF1
:1034200012F0B7F841EC100BB0EE40AAF0EE60AA33
:10343000054857E07CE071E0B4000020B8000020AF
:1034400000080240000C02409000002044000020D0
:10345000D027002058020020000034C34C00002078
:1034600060000020F4270020DC0000208002002003
:103470000000000000003E40000000000000F03F9F
:10348000E82700200080A2440000FAC4980200202F
:10349000A0280020E00000206C0000206800002030
:1034A0006400002002030020000016430080FC435B
:1034B0000000C842042900200018024000004842D1
:1034C0000000614400000000008041408C000020AA
:1034D0009A9999999999B93F5C0000205800002069
:1034E00070000020006812F08BF941EC100BB0EE78
:1034F00040BAF0EE60BA53EC1A2B51EC1B0B12F0F1
:1035000042F841EC100BB0EE409AF0EE609A51ECAC
:10351000190B12F0B1F9FE49086012E0FD4890ED78
:10352000000AFB4880ED000A0020FB49087008E013
:10353000F84890ED000AF64880ED000A0020F649B0
:103540000870BDEC0E8B10BD10B52DED0C8BF24844
:103550008078012822D1F14890ED011AF0EE410A5D
:1035600090ED001AB0EE410AED48D0ED001AED489A
:1035700090ED001AFFF754F8EB48D0ED000AB4EED6
:10358000E00AF1EE10FA09D8E14890ED000AE748A8
:1035900080ED000A0020E04988700870DE488078DD
:1035A000002861D1DD4890ED011AF0EE410A90ED5E
:1035B000001AB0EE410ADA48D0ED001AD94890ED71
:1035C000001AFFF72DF8D848D0ED000A80EE201A37
:1035D00011EE104A204612F013F941EC100BB0EE38
:1035E00040DAF0EE60DA12F03BFCB0EE40BAF0EEFA
:1035F00060BACF4890ED000ACC48D0ED000A30EE1A
:10360000600A10EE101A084612F0FAF841EC100B9E
:10361000B0EE40CAF0EE60CA53EC1B2B51EC1C0B11
:1036200011F0B7FF41EC100BB0EE409AF0EE609A4B
:10363000BF48006812F0E4F841EC100BB0EE40AA6D
:10364000F0EE60AA53EC192B51EC1A0B11F09BFF12
:1036500041EC100BB0EE408AF0EE608A51EC180B92
:1036600012F00AF9AA490860BDEC0C8B10BD10B528
:10367000A9480079012827D1A84890ED011AF0EE59
:10368000410A90ED001AB0EE410AAA48D0ED001AA6
:10369000A94890ED001AFEF7C3FFA848D0ED000A34
:1036A000B4EEE00AF1EE10FA0EDD9C4890ED000A4F
:1036B000A34880ED000A994890ED010AA14880EDE9
:1036C000000A002094490871944890ED011AF0EE28
:1036D000410A90ED001AB0EE410A9648D0ED001A6A
:1036E000954890ED001AFEF79BFF9448D0ED000A34
:1036F000954890ED001A70EE810AB4EEE00AF1EE02
:1037000010FA09DD00208449C870904890ED000A45
:103710008F4880ED020A10BD7F48007938BB7F4892
:1037200090ED011AF0EE410A90ED001AB0EE410A58
:103730008448D0ED001A824890ED001AFEF770FF21
:103740008248D0ED000A834890ED001A70EEC10A5D
:1037500060EE200A7C4890ED001A80EE810A7D48D8
:10376000D0ED000A30EE200A794880ED020A00BF51
:10377000D1E76948C079F8B19FED770A774880EDC5
:10378000000A674890ED000A6A48D0ED000AB4EEDE
:10379000E00AF1EE10FA06DD5D4890ED000A6F4890
:1037A00080ED010A4EE05A4890ED000AB1EE400A61
:1037B0006A4880ED010A45E05A4890ED000A5E48EB
:1037C000D0ED000AB4EEE00AF1EE10FA1BDD50482D
:1037D00090ED000A6248D0ED000A20EE200A5F4812
:1037E00080ED000A4A4890ED000A5D48D0ED000ADD
:1037F00020EE200A5B48D0ED000A20EE200A574850
:1038000080ED010A1EE0424890ED000AB1EE400A48
:103810005348D0ED000A20EE200A504880ED000AFF
:103820003B4890ED000AB1EE400A4D48D0ED000A49
:1038300020EE200A4B48D0ED000A20EE200A47482F
:1038400080ED010A704710B52DED0C8B304890EDDE
:10385000000A3048D0ED000A30EE600A10EE101A6F
:10386000084611F0CDFF41EC100BB0EE409AF0EE9F
:10387000609A12F07DFAB0EE408AF0EE608A1FED99
:10388000EC0B53EC102B51EC180B11F0E1FF71D243
:10389000354890ED020A3548D0ED000AB4EEE00A52
:1038A000F1EE10FA67D2304890ED020A2F48D0EDC1
:1038B000000A80EE201A11EE104A204611F0A0FFF7
:1038C00041EC100BB0EE40DAF0EE60DA12F0C8FA1C
:1038D000B0EE40BAF0EE60BA254890ED000A0D480F
:1038E000D0ED000A30EE600A10EE101A084611F012
:1038F00087FF41EC100BB0EE40CAF0EE60CA53EC0B
:103900001B2B51EC1C0B11F044FE41EC100B33E06F
:10391000440000208C000020F4270020E82700202D
:10392000680000206400002074000020980000203F
:10393000940000205C000020580000207C00002043
:103940008400002088000020800000206C000020FF
:103950004C0000206000002000000000D027002064
:10396000A8000020A0000020A0280020AC0000201B
:10397000900000202BE020E0B0EE409AF0EE609A3C
:10398000FE48006811F03CFF41EC100BB0EE40AA7D
:10399000F0EE60AA53EC192B51EC1A0B11F0F3FD69
:1039A00041EC100BB0EE408AF0EE608A51EC180B3F
:1039B00011F062FFF249086012E0F24890ED000A4F
:1039C000EF4880ED000A0020EF49087008E0ED485C
:1039D00090ED000AEA4880ED000A0020EA490870EC
:1039E000BDEC0C8B10BD10B52DED0C8BE64880782E
:1039F000012818D1E54890ED020AF7EE000A30EEF2
:103A0000C00AE348D0ED000AB4EEE00AF1EE10FA85
:103A100009D8DB4890ED000ADE4880ED000A00205E
:103A2000D94988700870D8488078E8BBD74890EDAD
:103A3000020AF7EE000A30EEC00AD548D0ED000ABF
:103A400080EE201A11EE104A204611F0D9FE41EC0A
:103A5000100BB0EE40DAF0EE60DA12F001FAB0EEE0
:103A600040BAF0EE60BACC4890ED000AC948D0EDFB
:103A7000000A30EE600A10EE101A084611F0C0FE7F
:103A800041EC100BB0EE40CAF0EE60CA53EC1B2BB9
:103A900051EC1C0B11F07DFD41EC100BB0EE409A87
:103AA000F0EE609ABC4800E01AE0006811F0A8FE51
:103AB00041EC100BB0EE40AAF0EE60AA53EC192BCB
:103AC00051EC1A0B11F05FFD41EC100BB0EE408A87
:103AD000F0EE608A51EC180B11F0CEFEA849086098
:103AE000BDEC0C8B10BDA8480079012813D1A74864
:103AF00090ED020AA948D0ED000AB4EEE00AF1EE1A
:103B000010FA08DDA14890ED020AA54880ED000AF0
:103B100000209D4908719D4890ED020A9F48D0ED14
:103B2000000AA04890ED001A70EE810AB4EEE00A97
:103B3000F1EE10FA09DD00209349C8709A4890ED23
:103B4000000A9A4880ED020A70478F480079F0B960
:103B50008E4890ED020A9248D0ED000A30EE600ADD
:103B60009148D0ED000A924890ED001A70EEC10A1B
:103B700020EE200A8B48D0ED000A80EE201A8C48F7
:103B800090ED000A31EE000A884880ED020A00BF7D
:103B9000DAE77D48C079F8B11FED910A854880EDDC
:103BA000000A854890ED000A8448D0ED000AB4EE82
:103BB000E00AF1EE10FA06DD714890ED000A7D484A
:103BC00080ED010A4EE06E4890ED000AB1EE400A29
:103BD000784880ED010A45E0794890ED000A79487F
:103BE000D0ED000AB4EEE00AF1EE10FA1BDD6448F5
:103BF00090ED000A7448D0ED000A20EE200A6D48CE
:103C000080ED000A5E4890ED000A6F48D0ED000A92
:103C100020EE200A6D48D0ED000A20EE200A65480B
:103C200080ED010A1EE0564890ED000AB1EE400A10
:103C30006548D0ED000A20EE200A5E4880ED000ABB
:103C40004F4890ED000AB1EE400A5F48D0ED000AFF
:103C500020EE200A5D48D0ED000A20EE200A5548EB
:103C600080ED010A70475A48C0ED092A80ED082A04
:103C700080ED0A3AC0ED0B3A80ED000AC0ED010A72
:103C800080ED061AC0ED071A704710B52DED088BB0
:103C9000B0EE409AF0EE609A1FEDD10AB0EE408A85
:103CA0004C4890ED010A20EE000AD0ED000A90ED9C
:103CB000001A00EE810A10EE101A084611F0A0FD5D
:103CC00041EC100BB0EE40BAF0EE60BA12F0C8F85A
:103CD000B0EE40AAF0EE60AA51EC1A0B11F0CCFD48
:103CE00008EE900A274890ED000A2448D0ED000A1B
:103CF000B4EEE00AF1EE10FA03DD224890ED000A7E
:103D000002E01E4890ED000AB0EE408A224890ED95
:103D1000000AB4EEC08AF1EE10FA02DDB0EE480AF5
:103D200002E01D4890ED000AB0EE408A2A4890ED6E
:103D3000000ADFED2A0AB4EEE00AF1EE10FA5DD2D5
:103D4000274890ED010ADFED270A30EEC00ADFEDCB
:103D5000260A20EE200A2048D0ED000A9FED231A03
:103D600071EE600A9FED221A01EE600A0448D0ED60
:103D7000000A9FED201A40EE010A3DE0900000206D
:103D8000440000208C000020F4270020A028002000
:103D9000B00000209800002094000020B400002013
:103DA000C8000020B80000206C0000204C0000205B
:103DB00060000020D0270020680000205C00002068
:103DC0006400002058000020A8000020A00000206F
:103DD0005028002004290020DC0200200000C843F5
:103DE000E8270020008059448FC2353F0000BE43C1
:103DF000CDCC4C3FCDCC4C3EC0ED000AFE4890ED02
:103E0000010ADFEDFE0AB4EEE00AF1EE10FA0EDD73
:103E1000FB4890ED000A5FED0B0AB4EEE00AF1EE0C
:103E200010FA04D29FEDF70AF74880ED000AF44833
:103E300090ED000A5FED170AB4EEE00AF1EE10FA19
:103E40000CDBF2488188F24890F90000401EF14AEC
:103E50001278642303FB1020814212DCEB48818836
:103E6000EB4890F90000401EEB4A1278642303FBF4
:103E7000102081422BDDE948007800F0070003287C
:103E800025D0E748807D98B93421E6480CF0A9FF99
:103E90009FEDDC0A07F0A0F80120E14988750020B9
:103EA00048719FEDE10AE14880ED000A0020C870EA
:103EB0009FEDDF0A38EE800AD34880ED000A9FEDBF
:103EC000DD0ADD4880ED020A192010F072FF9FED37
:103ED000DB0A38EE800ACC48D0ED000AB4EEE00AE6
:103EE000F1EE10FA05D29FEDD50A38EE800A80ED8A
:103EF000000AC54890ED000A30EE090A30EE290AA2
:103F0000F0EE080A80EE201A80ED001A90ED000A0B
:103F1000B5EEC00AF1EE10FA03D29FEDBA0A80EDB9
:103F2000000AB94890ED000AB4EEC80AF1EE10FAA2
:103F300001DD80ED008AB54A928802EB82025200D0
:103F400011B2AD4A92ED010ABDEEC00A10EE102A80
:103F500010B2AD4A92ED000ABDEEC00A10EE102A72
:103F600013B2A74A92ED000ABDEEC00A10EE102A65
:103F700012B207F01EF9BDEC088B10BD10B52DED87
:103F8000108B82B0B0EE40FAA548C07B28B9B7EEDE
:103F9000000A02B0BDEC108B10BDA94840686F212B
:103FA00090FBF1F000EE100AB8EEC00A9248D0ED96
:103FB000020A9FEDA41A70EE810A30EE200ADFEDAE
:103FC000A20A80EE201A9FEDA10A21EE000A10EE4F
:103FD000104A204611F014FC41EC100BB0EE40DA10
:103FE000F0EE60DA11F0D0FEB0EE40BAF0EE60BA5A
:103FF0001FEE100A11F004FC41EC100BB0EE40CAA9
:10400000F0EE60CA53EC1B2B51EC1C0B11F0C1FA03
:1040100041EC100BB0EE409AF0EE609A7648D0ED8D
:10402000020A9FED891A80EE810ADFED880A20EEF0
:10403000200A10EE104A204611F0E2FB41EC100B72
:10404000B0EE40EAF0EE60EA11F09EFEB0EE40DA2B
:10405000F0EE60DA9FED7E0B53EC102B51EC1D0B54
:1040600011F097FA41EC100BB0EE40BAF0EE60BAE6
:10407000614890ED010A10EE101A084611F0C0FBDD
:1040800041EC100BB0EE40CAF0EE60CA53EC1B2BB3
:1040900051EC1C0B11F0D6F941EC100BB0EE40AA1C
:1040A000F0EE60AA53EC192B51EC1A0B11F0CAF97F
:1040B00041EC100B8DED000B9DED000B51EC100B46
:1040C00011F0DAFB08EE100A18EE100A62490860D7
:1040D000624890ED000AF7EE000AB4EEE00AF1EE55
:1040E00010FA23DD90ED010AF7EE000AB4EEE00AC3
:1040F000F1EE10FA1ADD90ED020AF7EE000AB4EEC6
:10410000E00AF1EE10FA11DD90ED000A30EE080A37
:10411000D0ED010A30EE200AD0ED020A30EE600A3E
:10412000F0EE000A80EE201AB0EE418A4B4890ED86
:10413000030A80ED040A90ED020A80ED030A90ED77
:10414000010A80ED020A90ED000A80ED010A80ED7F
:10415000008A9FED430AB4EEC08AF1EE10FA03DD47
:104160000620404908703FE09FED3F0AB4EEC08A48
:10417000F1EE10FA05DD05203A490870F2EE0E8ADC
:1041800032E09FED3A0AB4EEC08AF1EE10FA05DD96
:10419000042034490870F3EE0E8A25E09FED340ABE
:1041A000B4EEC08AF1EE10FA05DD03202D49087047
:1041B000DFED308A18E09FED300AB4EEC08AF1EEF0
:1041C00010FA05DD022027490870F3EE0E8A0BE095
:1041D0009FED2A0AB4EEC08AF1EE10FA04DD012048
:1041E00020490870F2EE0E8A1C4890ED000AF7EEA6
:1041F000000AB4EEE00A43E0E827002000405844FB
:10420000DC02002000000000440000201C280020E8
:10421000150300200B0300200A03002016030020D2
:10422000F4270020004C00400000C3434800002059
:1042300000001643000034C34C0000200000C842B8
:10424000382A00200000B44200003443DB0F49400C
:104250006666666666264A40C40000203028002054
:1042600000C01E44BC00002000400D440080E0431C
:104270000000B7430000344200808843000011432F
:10428000F1EE10FA7EDD90ED010AF7EE000AB4EED1
:10429000E00AF1EE10FA75DD90ED000AD0ED040AA7
:1042A00030EE600A4A4880ED000A5FED190A88EE98
:1042B000A00A5FED1A0A20EE200A10EE104A2046EE
:1042C00011F09EFA41EC100BB0EE40CAF0EE60CA5D
:1042D00011F0E2FCB0EE40AAF0EE60AA3C480068A3
:1042E00011F08EFA41EC100BB0EE40BAF0EE60BA6D
:1042F00053EC1A2B51EC1B0B11F0BDF941EC100BD8
:10430000B0EE409AF0EE609A51EC190B11F0B4FA4D
:104310002F4908602F4890ED000AF7EE000AB4EE2E
:10432000E00AF1EE10FA30DD90ED010AF7EE000A36
:10433000B4EEE00AF1EE10FA27DD90ED020AF7EE96
:10434000000AB4EEE00AF1EE10FA1EDD084690ED28
:10435000000AF6EE000A20EE200A1E48D0ED000A00
:10436000B5EE001A00EE810AD0ED010A9FED1A1A8F
:1043700000EE810AD0ED020A9FED181A00EE810AC4
:10438000084600E010E080ED000A124890ED010AB6
:1043900080ED020A90ED000A80ED010A0C4890EDD4
:1043A000000A0C4880ED000A0D4890ED000AF0E587
:1043B000D0ED000A91ED001A60EE810A90ED011A2D
:1043C000D1ED011A41EE210AB0EE600A70470000FB
:1043D000C0000020442800209A99193ECDCCCC3D45
:1043E000C40000209FEDFE0AFE4880ED000A9FED0C
:1043F000FC0AFD4880ED000A9FEDF90AFB4880EDBC
:10440000000AFB48007801282AD002283BD0032864
:1044100076D1F84890ED000AF74880ED000AF74899
:1044200090ED000AF64880ED000AF64890ED000A8B
:10443000F54880ED000AB1EE080AF44880ED000A64
:104440009FEDF30AF34880ED000A9FEDE50AF2487C
:1044500080ED000A9FEDE20AF04880ED000A78E066
:10446000EF4890ED000AE44880ED000AED4890ED39
:10447000000AE34880ED000AEB4890ED000AE248AC
:1044800080ED000A65E0E9480078012812D1E8488B
:1044900090ED000AD84880ED000AE64890ED000A49
:1044A000D74880ED000AE44890ED000AD64880ED38
:1044B000000A4CE0DD480078022822D1DF4890ED68
:1044C000000ACD4880ED000ADD4890ED000ACC4896
:1044D00080ED000ADB4890ED000ACB4880ED000A31
:1044E0009FEDD90AC94880ED000A9FEDD80AC94856
:1044F00080ED000A9FEDD60AC74880ED000A26E04D
:1045000026E0D44890ED000ABB4880ED000AD2486E
:1045100090ED000ABA4880ED000AD04890ED000AFC
:10452000B94880ED000AB1EE040AB84880ED000AEF
:104530009FEDC70AB74880ED000A9FEDA90AB6486B
:1045400080ED000A9FEDA60AB44880ED000A00E065
:1045500000BF00BF9FEDA20AC14880ED000A70476E
:1045600010B52DED0C8BBF4890ED010ABC48D0ED85
:10457000000A30EEC00ABC4880ED000A006811F065
:104580003FF941EC100BB0EE409AF0EE609A11F05A
:10459000EFFBB0EE408AF0EE608A9FEDB40B53EC77
:1045A000102B51EC180B11F03FF905D29FED8C0A3E
:1045B000AD4880ED000A49E0AB48006811F020F9F1
:1045C00041EC100BB0EE40DAF0EE60DA11F0D0FB07
:1045D000B0EE40BAF0EE60BAA34890ED000AF0EEFB
:1045E000080A20EE200A10EE101A084611F008F909
:1045F00041EC100BB0EE40CAF0EE60CA53EC1B2B3E
:1046000051EC1C0B11F037F841EC100BB0EE409A56
:10461000F0EE609A9448006811F0F2F841EC100B4B
:10462000B0EE40AAF0EE60AA53EC192B51EC1A0B35
:1046300010F0A9FF41EC100BB0EE408AF0EE608A5A
:1046400051EC180B11F018F987490860864890ED75
:10465000000A8848D0ED000A30EE600ADFED860AD5
:1046600020EE200A8048D0ED000A9FED841A01EE6A
:10467000200AD0ED000A7F4890ED001AF0EE001AF3
:1046800041EEC10A7E4890ED001A70EE810A9FED5E
:10469000541A01EE200A7B48D0ED010A30EE200AC0
:1046A00080ED010A7848006811F0AAF841EC100B7F
:1046B000B0EE408AF0EE608A724890ED010A10EE8A
:1046C000101A084611F09CF841EC100BB0EE40AA0D
:1046D000F0EE60AA11F04CFBB0EE409AF0EE609A5A
:1046E00053EC182B51EC190B11F0B2F838D2654885
:1046F00090ED010A10EE101A084611F081F841EC15
:10470000100BB0EE40BAF0EE60BA11F031FBB0EE33
:10471000409AF0EE609A5B4890ED010A5A48D0ED5D
:10472000000A20EE200A10EE101A084611F068F870
:1047300041EC100BB0EE40AAF0EE60AA53EC192B3E
:1047400051EC1A0B10F097FF41EC100BB0EE408AC1
:10475000F0EE608A51EC180B11F08EF84949486070
:10476000444890ED000A464880ED000A3E4890ED2E
:10477000000A404880ED000A424890ED021AD0ED50
:10478000010A90ED000AFDF74FFDBDEC0C8B10BD4A
:1047900010B52DED0E8BB0EE408A3C4890ED000A2E
:1047A000DFED3B0AB4EEE00AF1EE10FA0DDD394818
:1047B00090ED000ADFED380AB4EEE00AF1EE10FAEF
:1047C00003DD9FED350A80ED000A304890ED000AC8
:1047D000DFED320AB4EEE00AF1EE10FA6EDD5FE0D2
:1047E000000000004C020020500200205402002073
:1047F000DC000020A0010020D0010020A401002046
:10480000D4010020A8010020D80100206C01002064
:104810000AD7A33C70010020740100207801002019
:10482000E4000020E8000020EC00002058020020F6
:10483000AC010020B0010020B4010020B80100202C
:10484000BC010020C0010020CDCC2C40CDCCCC3C04
:104850000AD7233CC4010020C8010020CC0100205D
:10486000DC01002004290020640200200000000078
:1048700000000840680200206666263FCDCC4C3D13
:104880006C020020D027002048000020E8270020EC
:104890000080FC43440000200000C8420040034464
:1048A000FE4890ED000ADFEDFE0AB4EEE00AF1EEFC
:1048B00010FA03DD9FEDFB0A80ED000AFA4890ED47
:1048C000010A38EE400AF94880ED000A006810F04D
:1048D00097FF41EC100BB0EE40AAF0EE60AA11F089
:1048E00047FAB0EE409AF0EE609A9FEDF10B53EC70
:1048F000102B51EC190B10F097FF05D21FED480A51
:10490000EA4880ED000A49E0E848006810F078FFC6
:1049100041EC100BB0EE40EAF0EE60EA11F028FA3C
:10492000B0EE40CAF0EE60CAE04890ED000AF6EE44
:10493000000A20EE200A10EE101A084610F060FF60
:1049400041EC100BB0EE40DAF0EE60DA53EC1C2BC9
:1049500051EC1D0B10F08FFE41EC100BB0EE40AA95
:10496000F0EE60AAD148006810F04AFF41EC100B4D
:10497000B0EE40BAF0EE60BA53EC1A2B51EC1B0BC0
:1049800010F001FE41EC100BB0EE409AF0EE609A90
:1049900051EC190B10F070FFC4490860C64890ED47
:1049A000000AF0EE000AB4EEE00AF1EE10FA0ADDB9
:1049B000BE4890ED000AF0EE000A20EE200ABF4843
:1049C00080ED000A09E0B94890ED000AF0EE000A17
:1049D00020EE200AB94880ED000AB04890ED000AA8
:1049E000B74880ED000AFFF7BBFDB64991ED010A1B
:1049F000AD49D1ED010A30EE600ABDEEC00A10EEFD
:104A0000101A08B2B04991ED010ABDEEC00A10EECD
:104A1000101A0BB2AA4991ED010ABDEEC00A10EEC0
:104A2000101A0AB2A54991ED000ABDEEC00A10EEB7
:104A3000101A09B206F0F8FBA34890ED010ABDEE8A
:104A4000C00A10EE100A03B2974890ED020ABDEEBC
:104A5000C00A10EE100A02B2934890ED010ABDEEB2
:104A6000C00A10EE100A01B28C4890ED000ABDEEAB
:104A7000C00A10EE100A00B206F09BFB904A92EDBD
:104A8000000ABDEEC00A10EE102A13B28E4A92ED53
:104A9000000ABDEEC00A10EE102A11B2824A92ED51
:104AA000000ABDEEC00A10EE102A10B2002203F078
:104AB000FDF9BDEC0E8B10BD10B52DED068BF0EEA3
:104AC000408A794890ED020A38EEC00A7F4880EDAE
:104AD000000A006810F094FE41EC100BB0EE40AA02
:104AE000F0EE60AA11F044F9B0EE409AF0EE609A50
:104AF0009FED770B53EC102B51EC190B10F094FE3B
:104B000004D21FEDC90A714880ED000A724890ED89
:104B1000000A6E48D0ED000A20EE200A6F48D0ED62
:104B2000000A6F4890ED001A00EE810A6748D0ED48
:104B3000000A6C4890ED001A70EEC10A6A4890EDC8
:104B4000001A01EE200A5E4880ED020A90ED020A8A
:104B500010EE101A084610F053FE41EC100BB0EEA8
:104B600040AAF0EE60AA11F003F9B0EE409AF0EE20
:104B7000609A51EC190B10F07FFE08EE100A5948AC
:104B800090ED000A594880ED000A504890ED000A67
:104B9000544880ED000A1FEDC00AB4EEC08AF1EE61
:104BA00010FA0BDD464890ED020A5FEDC50A20EED3
:104BB000200AC0EE080AC0ED020A0AE0484890ED5B
:104BC000000A4248D0ED000A30EE200A444880ED49
:104BD000000ABDEC068B10BD10B52DED068B04460A
:104BE00094ED000A3048D0ED000A30EE600A4048EB
:104BF00080ED000A94ED010A2B48D0ED010A30EE59
:104C0000600A2A4880ED000A94ED020A2648D0ED99
:104C1000020A30EE600A2D4880ED000A344890ED1B
:104C2000000AFFEE000AB4EEE00AF1EE10FA0CDD25
:104C300090ED000AF7EE000AB4EEE00AF1EE10FA89
:104C400003D29FED2C0A80ED000A184890ED000A6F
:104C5000FFEE000AB4EEE00AF1EE10FA0CDD90ED82
:104C6000000AF7EE000AB4EEE00AF1EE10FA03D201
:104C70009FED200A80ED000A144890ED000ADFED58
:104C80001E0AB4EEE00AF1EE10FA40DD90ED000AE3
:104C9000DFED1A0AB4EEE00A32E000004400002022
:104CA000008054440000AA42E82700208001002030
:104CB000000000000000E03F44010020DC01002073
:104CC000D02700204C00002004290020840100206F
:104CD0009A9999999999B93F6C0100207001002027
:104CE0007801002090010020740100209C01002028
:104CF0007C01002000000000CDCC4CBECDCC4C3E51
:104D0000F1EE10FA03D21FED050A80ED000AFE480D
:104D100090ED000AB5EEC00AF1EE10FA14D1FB488E
:104D200090ED000AB5EEC00AF1EE10FA0CD1F84889
:104D300090ED000AB5EEC00AF1EE10FA04D104219C
:104D4000F4480AF0F3FD05E003F0EAF80421F14825
:104D50000AF0EEFDEC48006810F052FD41EC100B3B
:104D6000B0EE40AAF0EE60AA11F002F8B0EE409A60
:104D7000F0EE609A9FEDE80B53EC102B51EC190B01
:104D800010F052FD17D8E64890ED000ADE48D0ED4D
:104D9000000A20EE200AD0ED000AE24890ED001A49
:104DA00070EEC10AE04890ED001A01EE200ADF48DB
:104DB00080ED000A47E0D448006810F021FD41EC86
:104DC000100BB0EE40AAF0EE60AA10F0D1FFB0EEEA
:104DD000409AF0EE609A9FEDD60B53EC102B51ECFD
:104DE000190B10F021FD17D8D34890ED000AC648E2
:104DF000D0ED000A20EE200AD0ED000AC94890ED5F
:104E0000001A70EEC10ACD4890ED001A01EE200A9A
:104E1000C64880ED000A16E0C94890ED000ABA487D
:104E2000D0ED000A20EE200AD0ED000ABD4890ED3A
:104E3000001A70EEC10AC34890ED001A01EE200A74
:104E4000BA4880ED000AB148006810F0D9FC41EC86
:104E5000100BB0EE40AAF0EE60AA10F089FFB0EEA1
:104E6000409AF0EE609A9FEDAC0B53EC102B51EC96
:104E7000190B10F0D9FC17D8B34890ED000AA348DD
:104E8000D0ED000A20EE200AD0ED000AAF4890EDE8
:104E9000001A70EEC10AAE4890ED001A01EE200A29
:104EA000A24880ED010A47E09848006810F0A8FC8D
:104EB00041EC100BB0EE40AAF0EE60AA10F058FFE3
:104EC000B0EE409AF0EE609A9FED990B53EC102BE8
:104ED00051EC190B10F0A8FC17D89E4890ED000A71
:104EE0008A48D0ED000A20EE200AD0ED000A97484B
:104EF00090ED001A70EEC10A974890ED001A01EE8D
:104F0000200A8A4880ED010A16E0944890ED000AD4
:104F10007E48D0ED000A20EE200AD0ED000A8B4832
:104F200090ED001A70EEC10A8D4890ED001A01EE66
:104F3000200A7E4880ED010A8A4890ED000A7448F4
:104F4000D0ED000A20EE200AD0ED000A864890ED50
:104F5000001A70EEC10A854890ED001A01EE200A91
:104F6000724880ED020A684890ED000A6D4880EDB5
:104F7000000A664890ED000A744880ED000A644813
:104F800090ED000A784880ED000A684890ED000A2C
:104F900020EE000AD0ED010A90ED011A00EE810A20
:104FA00010EE101A084610F02BFC41EC100BB0EE7E
:104FB00040AAF0EE60AA10F053FFB0EE409AF0EE77
:104FC000609A51EC190B10F057FC08EE100A684873
:104FD00090ED000AB4EEC08AF1EE10FA18DD5348E5
:104FE00090ED000A6248D0ED000A20EE200AC0EEE3
:104FF000080A4E48C0ED000A90ED010A5C48D0ED69
:10500000000A20EE200AC0EE080A4848C0ED010A56
:10501000464890ED020A10EE101A084610F0F0FB18
:1050200041EC100BB0EE40AAF0EE60AA10F0A0FE2A
:10503000B0EE409AF0EE609A51EC190B10F01CFCA7
:1050400008EE100A9FED4B0AB4EEC08AF1EE10FA9A
:105050000ADD364890ED020ADFED460A20EE200A0E
:10506000C0EE080AC0ED020A304890ED021AD0EDF9
:10507000010A90ED000AFDF7D7F83F4890ED000ACD
:1050800020EE000AD0ED010A90ED011A00EE810A2F
:1050900010EE101A084610F0B3FB41EC100BB0EE06
:1050A00040AAF0EE60AA10F0DBFEB0EE409AF0EEFF
:1050B000609A51EC190B10F0DFFB08EE100ABDEC02
:1050C000068B10BD10B52DED0A8B2C48B0F90000F1
:1050D00000EE100AB8EEC00A294880ED000A6FF011
:1050E000630026490880274890F8230000287DD1D6
:1050F000234890ED000ADFED240A30EE200A10EE7E
:10510000101A084642E000007C01002080010020C7
:10511000840100200008024000000000000014404C
:105120005C0100208801002060010020D0270020C1
:1051300000000000000034404C010020500100201D
:105140003C01002040010020640100208C0100206F
:105150006801002054010020580100204401002073
:10516000480100206C010020900100207401002003
:10517000480000200000484204290020800200204E
:105180004C020020F42700200000C84210F038FB39
:1051900041EC100BB0EE40AAF0EE60AA10F0E8FD72
:1051A000B0EE409AF0EE609A9FEDFE0B53EC102BA0
:1051B00051EC190B10F038FB7ED2FC48007F401CEC
:1051C000FA490877FA48D0ED020AB0EE600AFFF714
:1051D00073FCF84890ED021AD0ED010A90ED000A38
:1051E000FDF722F8F24991ED010A00E0D1E2F2491F
:1051F000D1ED010A30EE600ABDEEC00A10EE101AC1
:1052000008B2EE4991ED010ABDEEC00A10EE101A87
:105210000BB2E84991ED010ABDEEC00A10EE101A7A
:105220000AB2E74991ED000ABDEEC00A10EE101A6D
:1052300009B205F0F9FFE14890ED010ABDEEC00AA0
:1052400010EE100A03B2DC4890ED020ABDEEC00A6F
:1052500010EE100A02B2D84890ED010ABDEEC00A65
:1052600010EE100A01B2D74890ED000ABDEEC00A58
:1052700010EE100A00B205F09CFFCE4A92ED000A33
:10528000BDEEC00A10EE102A13B2CC4A92ED000A0D
:10529000BDEEC00A10EE102A11B2C74A92ED000A04
:1052A000BDEEC00A10EE102A10B2002202F0FEFD80
:1052B000BE48007F052800E010E00CDD0020BB495F
:1052C000C8720421C0480AF031FB0F200FF071FDB5
:1052D000FF200FF06EFDBDEC0A8B10BD0020B3491E
:1052E0000877BA48006810F08BFA41EC100BB0EE6A
:1052F00040CAF0EE60CA10F03BFDB0EE40BAF0EEEE
:1053000060BA9FEDB30B53EC102B51EC1B0B10F05C
:105310003AF941EC100BB0EE40AAF0EE60AA10F0A2
:1053200027FDB0EE409AF0EE609A9FED9E0B53EC95
:10533000102B51EC190B10F077FA7CD29C48D0ED71
:10534000020AB0EE600AFFF7B7FB9848807B38B9D5
:105350009748D0ED010AB0EE600AFFF719FABAE7F4
:105360009248807B012817D1934890ED000ADFED29
:105370009A0AB4EEE00AF1EE10FA0DD2904890EDE0
:10538000000A8C4880ED010A8E4890ED000A894899
:1053900080ED000AFFF7E4F8854991ED010A86499E
:1053A000D1ED010A30EE600ABDEEC00A10EE101A0F
:1053B00008B2824991ED010ABDEEC00A10EE101A42
:1053C0000BB27C4991ED010ABDEEC00A10EE101A35
:1053D0000AB27B4991ED000ABDEEC00A10EE101A28
:1053E00009B205F021FF754890ED010ABDEEC00A33
:1053F00010EE100A03B2704890ED020ABDEEC00A2A
:1054000010EE100A02B26C4890ED010ABDEEC00A1F
:1054100010EE100A01B26B4890ED000ABDEEC00A12
:1054200010EE100A00B205F0C4FE624A92ED000AC6
:10543000BDEEC00A00E016E010EE102A13B25F4A7B
:1054400092ED000ABDEEC00A10EE102A11B25A4ABF
:1054500092ED000ABDEEC00A10EE102A10B2002232
:1054600002F024FD37E75248D0ED020AB0EE600AA0
:10547000FFF722FB01204D498873544890ED000A44
:105480005648D0ED000A70EE600A4D4890ED000AD3
:10549000534890ED001A01EE200A5248D0ED000A60
:1054A0004A4890ED001A00EE810AD0ED000A4B4800
:1054B00090ED001AF0EE001A41EEC10A4A4890ED54
:1054C000001A70EE810A494890ED001A01EE200A98
:1054D0003B4880ED000A006810F092F941EC100B97
:1054E000B0EE40AAF0EE60AA10F042FCB0EE409A96
:1054F000F0EE609A9FED3E0B53EC102B51EC190B24
:1055000010F092F904D29FED3C0A2D4880ED000A7C
:105510002B48006810F074F941EC100BB0EE40AA73
:10552000F0EE60AA10F024FCB0EE409AF0EE609A23
:105530009FED320B53EC102B51EC190B10F088F946
:1055400066D21F48006810F05BF941EC100BB0EE1A
:1055500040CAF0EE60CA10F00BFCB0EE40AAF0EECC
:1055600060AA174890ED000ADFED260A20EE200A17
:1055700010EE101A084610F043F941EC100BB0EE93
:1055800040BAF0EE60BA53EC1A2B51EC1B0B10F042
:1055900072F841EC100BB0EE409AF0EE609A51ECCC
:1055A000190B31E07B14AE47E17A843FF4270020E9
:1055B0004C000020D0270020E827002004290020EC
:1055C000DC01002044000020000802404C020020C2
:1055D0000000000000003E400000FA43500200209E
:1055E000D0010020D401002054020020D801002066
:1055F0009A9999999999B93F00000000000000001C
:10560000000069400000484310F036F9FE49086088
:10561000FE4890ED000AFE4880ED000AFD4890ED3E
:10562000000AFA4880ED000AF74890ED000AFA48AF
:1056300080ED010AF94890ED000AF74880ED000A74
:1056400090ED000A20EE000AD0ED010A90ED011A5B
:1056500000EE810A10EE101A084610F0D1F841EC65
:10566000100BB0EE40AAF0EE60AA10F0F9FBB0EE1D
:10567000409AF0EE609A51EC190B10F0FDF808EE2C
:10568000100AE74890ED000AB4EEC08AF1EE10FA75
:1056900018DDE14890ED000AE148D0ED000A20EE67
:1056A000200AC0EE080ADC48C0ED000A90ED010AAD
:1056B000DB48D0ED000A20EE200AC0EE080AD648EA
:1056C000C0ED010AFEF74CFFD64991ED010AD6491B
:1056D000D1ED010A30EE600ABDEEC00A10EE101ADC
:1056E00008B2D24991ED010ABDEEC00A10EE101ABF
:1056F0000BB2C94991ED010ABDEEC00A10EE101AB5
:105700000AB2C14991ED000ABDEEC00A10EE101AAE
:1057100009B205F089FDC54890ED010ABDEEC00A49
:1057200010EE100A03B2C04890ED020ABDEEC00AA6
:1057300010EE100A02B2BC4890ED010ABDEEC00A9C
:1057400010EE100A01B2B54890ED000ABDEEC00A95
:1057500010EE100A00B205F02CFDAF4A92ED000ADF
:10576000BDEEC00A10EE102A13B2B04A92ED000A44
:10577000BDEEC00A10EE102A11B2AB4A92ED000A3B
:10578000BDEEC00A10EE102A10B2002202F08EFB0D
:1057900049E0A04890ED000ADFEDA50A30EE200AAE
:1057A00010EE101A084610F02BF841EC100BB0EE7A
:1057B00040AAF0EE60AA10F0DBFAB0EE409AF0EEEC
:1057C000609A1FED880B53EC102B51EC190B10F065
:1057D0002BF805D29748007F401C9649087702E0D5
:1057E0000020944908779348007F05280DDD0020AC
:1057F0009049C872042190480AF098F80F200FF0E1
:10580000D8FAFF200FF0D5FA65E58648D0ED020AF8
:10581000B0EE600AFFF750F98248D0ED010AB0EE11
:10582000600AFEF7B5FF7B4800680FF0E9FF41EC26
:10583000100BB0EE40AAF0EE60AA10F099FAB0EEAC
:10584000409AF0EE609A9FED7D0B53EC102B51ECDB
:10585000190B0FF0E9FF13D2734890ED000ADFED4A
:10586000790AB4EEE00AF1EE10FA09D290ED010ADD
:105870006C4880ED010A01206E4981F8230044E064
:10588000694890ED000ADFED6F0AB4EEE00AF1EE30
:1058900010FA3AD26C4800886B49098910FB01F074
:1058A000002832DC684800886749098910FB01F04C
:1058B00010F10A0F29DD6448D0ED010AB0F90800A3
:1058C00000EE100AB8EEC00A20EE800A5E48B0F979
:1058D000000000EE900AF8EEE00A5B4890ED031A33
:1058E00000EEC10AB0F908005749B1F90010401A9A
:1058F00000EE900AF8EEE00A80EE201A494880EDAA
:10590000011A01204B4981F8230000BFE3E410B5E0
:105910004E480078072836D2DFE800F035292F23DB
:1059200019040F00B2EE0A0A494880ED000A1FED83
:10593000CB0A3B4880ED000A26E001203D49487132
:10594000002088711FEDD40A05F046FB10BD4148C8
:10595000007800EE100AB8EE400A3D4880ED000ADB
:1059600012E09FED3D0A3A4880ED000A0CE0B3EEEC
:10597000090A374880ED000A06E09FED370A3448EF
:1059800080ED000A00E000BF00BF3448007800F05E
:105990000700022804D1B3EE0B0A2D4880ED000A5F
:1059A0002B4890ED000A2E48D0ED000A30EE600A38
:1059B0002C4880ED000A90ED000ADFED2B0A20EE66
:1059C000200AD0ED000A294890ED001A70EEC10AB5
:1059D000B2EE041A00EE810ABDEEC00A10EE100A03
:1059E00000B2234908801F4890ED000A1F4880ED4F
:1059F000000A0846B0F90000B0F5617F3ADD4FF4C7
:105A0000617008803EE00000DC01002050020020B0
:105A1000540200204C020020D02700204400002027
:105A2000480000204C000020E82700200429002026
:105A30000000C842F42700200008024000000000D7
:105A40000000F03F0000024470020020BC00002073
:105A5000480200200E030020000000421603002030
:105A6000C0000020400200200000824244020020CA
:105A7000EC010020FE48B0F90000642802DA64203E
:105A8000FB490880FA48B0F9000000EE100AB8EEB1
:105A9000C00A05F0A1FA00BF58E710B52DED0C8B38
:105AA000F44890ED000AF448D0ED000A30EE600AA8
:105AB000F24880ED000AEF4890ED010AEE48D0ED83
:105AC000010A30EE600AED4880ED010AEC49FEF76C
:105AD0006FFCEB48D0ED000A60EEA00A90ED011AD1
