:020000040800F2
:10000000A84700207D4C01086520000867200008F3
:1000100085200008892000088D20000800000000CD
:100020000000000000000000000000009120000817
:10003000932000080000000073720108D7740108C3
:10004000974C0108974C0108974C0108974C010800
:10005000974C0108974C0108974C0108974C0108F0
:10006000974C0108974C0108974C0108974C0108E0
:10007000974C0108974C0108974C0108974C0108D0
:10008000974C0108974C0108974C0108974C0108C0
:1000900033800008974C0108974C0108D9010108EA
:1000A000974C0108974C0108974C0108974C0108A0
:1000B00027010108974C0108974C0108974C01084B
:1000C000974C0108974C0108974C0108974C010880
:1000D000974C0108E19200084DB10008974C0108C7
:1000E00039020108974C0108974C0108974C010808
:1000F000974C0108974C0108974C0108974C010850
:10010000974C0108974C0108974C0108974C01083F
:10011000B9DE0008974C0108974C0108F3AF0008BE
:10012000974C0108974C0108974C0108974C01081F
:10013000974C0108974C0108974C0108974C01080F
:10014000A99D0008974C0108974C0108974C01089D
:10015000974C0108974C010899920008974C0108A8
:10016000974C0108974C0108974C0108974C0108DF
:10017000974C0108974C0108974C0108974C0108CF
:10018000974C0108974C0108DFF80CD017F0ACFD34
:10019000004800478D1F0008A84700204021FC4868
:1001A00011F06EFC04464FF48061FA4811F068FCCF
:1001B0000546B0E008F005FE4FF4C0700AF0A7FA5B
:1001C0004021F34811F05CFCA04256D00A2016F002
:1001D00059FF4021EE4811F053FCA0424CD00421BD
:1001E000EB4811F069FC4021E94811F049FC044654
:1001F0000421E94811F05EFC4FF4C07009F0BFFD26
:100200004FF4C87009F0BBFD4FF4D07009F0B7FD92
:100210004FF4D87009F0B3FD9FEDE00A0AF07AFCC4
:100220005722202130200AF0F3FB052016F062FE51
:100230000F2016F05FFE9FEDD90AD94880ED000A25
:1002400041F2883016F01EFF4FF4407008F0D2FCE7
:1002500001214FF4C0700AF075FB01214FF4C87002
:100260000AF070FB01214FF4D0700AF06BFB012102
:100270004FF4D8700AF066FB4AE04FF48061C5483D
:1002800011F0FEFBA84243D0C648007E01283FD1B2
:100290000A2016F0F7FE4FF48061BE4811F0F0FB23
:1002A000A84235D01021BA4811F006FC4FF4806105
:1002B000B84811F0E5FB05460421B74811F0FAFBF8
:1002C0005722202130200AF0A3FB9FEDB40A0AF048
:1002D00021FC0F2016F00EFE41F2883016F0D2FEFF
:1002E0004FF4407008F086FC01214FF4C0700AF012
:1002F00029FB01214FF4C8700AF024FB01214FF4BF
:10030000D0700AF01FFB01214FF4D8700AF01AFBDD
:10031000C82016F0B7FE4DE7A34800210268A348A5
:10032000006816F0A4F9072001F072FF64E0A0480D
:10033000007800F00700082859D2DFE800F0040533
:1003400006070809323D00BF00BF00BF00BF00BF65
:1003500005214FF4D8700AF0F5FA572220213020F9
:100360000AF056FB40F2DC514FF4D8700AF0E4F981
:100370009FED900A8A4880ED000A9FED8F0A4FF4A6
:10038000A1700AF04DFC9FED8D0A40F6AC514FF480
:10039000C07009F072FC5722042108460AF038FBAD
:1003A00000BF03F0E4F8082001F032FF57220021DB
:1003B00020200AF02DFB00BF052016F09BFD092030
:1003C00001F026FF4FF4FA6016F05CFE4FF4407027
:1003D00008F010FC0421704811F06CFB0DF0D3FE06
:1003E0000E2001F015FFFF2016F084FD03E0FF2032
:1003F00016F080FD00BF00BF99E72DED068B704819
:10040000002102686F48006816F031F900206E493B
:10041000888161E04FF4FA7016F034FE6B4890ED7D
:10042000000A6B4880ED000A6A4890ED000A6748B0
:1004300080ED000A664890ED000ADFED670AB4EE31
:10044000E00AF1EE10FA47DD90ED000ADFED630AF5
:10045000B4EEE00AF1EE10FA3ED25C4890ED000AEC
:10046000DFED5D0AB4EEE00AF1EE10FA34DD90ED56
:10047000000ADFED5A0AB4EEE00AF1EE10FA2BD2D0
:10048000574890F9000017F003FA41EC180B4F4859
:1004900090ED000A4E48D0ED000A30EE600A10EEF2
:1004A000101A084617F04AFA41EC1A0BB0EE4A0A45
:1004B000F0EE6A0A17F0E8FCB0EE409AF0EE609AAF
:1004C00053EC182B51EC190B17F04CFA04D23E48A0
:1004D0008089401C3C4988813B488089022899DBFF
:1004E00000203949088002E0642016F0CBFD3D4829
:1004F00080683D49884205DD3348008842F210712A
:100500008842F1DB5722102118200AF081FA4FF4BB
:100510007A7016F0B7FD01202249C8759FED330AA5
:1005200041F270714FF4C07009F0A7FB01201D4922
:1005300008760DE0C82016F0A5FD2D4CB4F90E305C
:10054000B4F90C20B4F90A10B4F9080011F001F85C
:10055000F0E72DED088B82B00024264800210268C8
:100560002548006816F083F82448B0F90000B0F57B
:10057000FA7F08D12248B0F90000B0F5FA7F02D125
:10058000002020490870012001F042FEFEE3000037
:100590000014024000040240000802400000000075
:1005A00094000020C428002014030020F40200203E
:1005B0009703002000007A4300806D4400409CC5F2
:1005C0001C030020FC020020EC2800204C0000202E
:1005D0004800002044030020000048420000C842B8
:1005E0008A030020A02A002058A4FEFF00606AC6EB
:1005F000002B002010030020EC020020A6030020A6
:10060000A403002085030020FE48006816F0DEF8F1
:10061000FD48007800F0070008287DD2DFE810F0E0
:100620000800BA0112039204650505065D065E0620
:100630000120F64981F824009FEDF50AF54880ED88
:10064000000A022001F0E4FDF348B0F9000000F5D3
:10065000A97000EE100AB8EEC00AB0EE402AEF48CA
:1006600090ED020AF0EE401A1FED345A5FED354A64
:100670009FEDEB4ADFEDEA3A1FED383A5FED2A2AAB
:100680001FED2B1A5FED350A9FEDE60A00231A468F
:100690000121084602F0ABF9032001F0B9FD40F654
:1006A000B8314FF4C07009F09CFF0120D74908759C
:1006B000DD48006816F08AF80120D44988720020CD
:1006C000C8728871D948B0F9000000F5827001EE57
:1006D000900AF8EEE11AB0EE612AD54890F90000D0
:1006E00000EBC00101EB00104FF4BE71A1EB8000E4
:1006F00001EE900AF8EEE11AB0EE611ACC4890F9DA
:10070000000000EBC00101EB0010CA490988A1EB11
:10071000400001EE900A00E0F8E3F8EEE11AF0EE96
:10072000610AC34890F9000000EBC00101EB001022
:100730004FF4BE71A1EB800001EE900AF8EEE11AD1
:10074000B0EE610A9FEDB75A5FED6C4A1FED6D4A3E
:10075000B948008801EE900AF8EE613A1FED713A4F
:10076000DFEDB62AF2EE041A01231A4600211846DC
:1007700002F03DF9042001F04BFD1FED720AA5487F
:1007800080ED000AAE48B0F9000000F5EB7001EE14
:10079000900AF8EEE11AF0EE613AAA48B0F90000CA
:1007A0001E3001EE900AF8EEE11AB0EE613AA6486A
:1007B000B0F900005A3001EE900AF8EEE11AF0EEBE
:1007C000612AA248B0F900006A3001EE900AF8EE02
:1007D000E11AB0EE612A9E48B0F90000323001EE15
:1007E000900AF8EEE11AB0EE611A8C48D0ED011AC9
:1007F000F0EE610AD0ED001AB0EE610ADFED951A55
:1008000003F027FC02200090934890F90000401E5E
:1008100000EBC00101EB00104FF4A07101EB800070
:1008200001EE900AF8EEE11AB0EE611A8A4890F9EA
:100830000000401E00EBC00101EB00104FF4A0715E
:1008400001EB800001EE900AF8EEE11AF0EE610A89
:10085000814890F90000401E00EBC00101EB001040
:100860004FF4A07101EB800001EE900AF8EEE11A5E
:10087000B0EE610AF5EE003A9FED783ADFED782AA6
:100880009FED782ADFED781A01231A4600210846E9
:1008900002F052FC052001F0BBFC00205B494871CE
:1008A00088711FEDC20A0AF035F94FF4D07009F0D3
:1008B00066FA5648807D38B9012054498875002071
:1008C0004871192016F016FB9FED680A41F2883135
:1008D0004FF4C87009F0D1F904214FF4D0700AF038
:1008E00031F89FED630A4FF47A614FF4D07009F04C
:1008F000C4F99FED470A474880ED000A35215D485D
:1009000012F033FB5C48B0F9000000F21E5001EE1B
:10091000100AB8EEC11AF0EE411A404890ED011AE3
:10092000F0EE410A90ED001AB0EE410A5FEDDF3AB9
:100930009FED3C3A5FEDE72A9FED502A9FED501A5C
:1009400003F087FB0320F6EE003A9FED4E3AF6EEF9
:10095000002A9FED4D2ADFED4D1A9FED4D1ADFED78
:100960004C0A9FED4B0A01231A461946009018467F
:1009700002F0E2FB9FED3D0A41F288314FF4C8706E
:1009800009F07BF9062001F043FC4248006815F0AD
:100990001DFFD6E29FED1E0A1E4880ED000A224888
:1009A000006815F013FF0120184908751F48B0F9B9
:1009B000000000F5827001EE900AF8EEE11AB0EE48
:1009C000611A1648D0ED011AF0EE610AD0ED001A56
:1009D000B0EE610ADFED303A9FED303ADFED302ABC
:1009E0009FED2E2ADFED151A03F033FB0120DFED1A
:1009F0002D3A9FED2A3ADFED242A9FED232ADFEDE1
:100A0000271A51E0F802002097030020C428002094
:100A10000000C843940000206803002050280020F4
:100A200000000C4300004843F00200206A0300204D
:100A3000860300208C0300208E03002000008C43DE
:100A4000740300207203002076030020700300204E
:100A50006C03002000805944840300206666263F12
:100A6000CDCCCC3E3333B33E0000B4C20000FAC458
:100A7000005A07C7004C00406E0300200000B4423B
:100A80000000D743CDCCCC3D9A99993E000034C3A9
:100A900000009643F402002000005C4300000000C8
:100AA0000000F042CDCC4C3E9FEDFE1ADFEDFD0A7A
:100AB0001FED240A034600220146009002F03CFB91
:100AC0000120F94981F82400F848B0F9000000F548
:100AD000EB7001EE900AF8EEE11AF0EE613AF4489C
:100AE000B0F900001E3001EE900AF8EEE11AB0EE07
:100AF000613AF048B0F900006A3001EE900AF8EE71
:100B0000E11AB0EE612AEC48B0F90000323001EE93
:100B1000900AF8EEE11AB0EE611AE848D0ED011A39
:100B2000F0EE610AD0ED001AB0EE610A5FED2D2AF9
:100B30005FED381A03F08DFA0220F5EE003A1FED52
:100B4000393A5FED392A1FED392A5FED391A9FEDE9
:100B5000DC1ADFEDDB0A9FEDDA0A01231A460021D9
:100B60000090084602F0E8FACF48807D38B90120AD
:100B7000CD49887500204871192016F0BBF94FF453
:100B8000D07009F0FCF81FED470A41F288314FF4AC
:100B9000C87009F072F804214FF4D07009F0D2FE49
:100BA000C8494FF4D87009F0C7FD1FED4F0A4FF444
:100BB0007A614FF4D07009F060F81FED4B0AC2481B
:100BC00080ED000AC148B0F9000000F5A56001EE13
:100BD000100AB8EEC11AF0EE411AB84890ED011AA9
:100BE000F0EE410A90ED001AB0EE410A5FED583A7E
:100BF000B3EE0E3A5FED572A1FED602A1FED601A23
:100C000003F027FA0320F6EE003A1FED623AF6EE03
:100C1000002A1FED632A5FED631A9FEDA21A5FEDB4
:100C20007F0A9FEDA00A01231A4619460090184634
:100C300002F082FA062001F0EBFAA548006815F0F0
:100C4000C5FD51E3A34808F09AF81FED8F0A9E48AE
:100C500080ED000A022001F0DBFA9F48B0F90000A5
:100C600000F2591000EE100AB8EEC00AB0EE402AA9
:100C7000924890ED020AF0EE401A1FED785A5FEDAF
:100C8000794A1FED994A5FED9A3A1FED7C3ADFED04
:100C9000932A9FED921ADFED830A1FED9E0A00232F
:100CA0001A460121084601F0A2FE032001F0B0FA25
:100CB00001207D49087588720020C8728871012062
:100CC00081F824008648B0F9000000F5827000EE3B
:100CD000100AB8EEC00AB0EE402A784890ED020A39
:100CE000F0EE401A1FED935A5FED944A1FED954ABE
:100CF000DFED7C3A1FED973A5FEDB02A9FED691A60
:100D0000DFED760A9FED670A01230022114618469F
:100D100001F06DFE042001F07BFA9FED620A6A4843
:100D200080ED000A6148B0F9000000F5EB7001EEBB
:100D3000900AF8EEE11AF0EE613A5D48B0F9000071
:100D40001E3001EE900AF8EEE11AB0EE613A664804
:100D5000B0F900005A3001EE900AF8EEE11AF0EE18
:100D6000612A5448B0F900006A3001EE900AF8EEAA
:100D7000E11AB0EE612A5048B0F90000323001EEBD
:100D8000900AF8EEE11AB0EE611A00E07DE34B48FC
:100D9000D0ED011AF0EE610AD0ED001AB0EE610A52
:100DA0005FEDD41A03F055F90220F5EE003A1FED7D
:100DB000D53A5FEDD52A1FEDD52A5FEDD51A9FED07
:100DC000391ADFED380A9FED370A01231A46002150
:100DD0000090084602F0B0F9052001F019FA002051
:100DE0003149487188711FEDD30A09F093FE4FF421
:100DF000D07008F0C4FF2C48807D38B901202A4902
:100E0000887500204871192016F074F81FEDE90A62
:100E100041F288314FF4C87008F02FFF04214FF4DD
:100E2000D07009F08FFD1FEDEE0A4FF47A614FF498
:100E3000D07008F022FF9FED2D0A234880ED000AB4
:100E400035212B4812F091F82048B0F9000000F24B
:100E50001E5001EE100AB8EEC11AF0EE411A174802
:100E600090ED011AF0EE410A90ED001AB0EE410A41
:100E7000DFED0C3A9FED1F3A5FEDF82A9FED1E2A39
:100E80009FED1E1A03F0E5F80320F6EE003A9FED01
:100E90001C3AF6EE002A9FED1B2ADFED1B1A9FED90
:100EA000011A34E000007A43C428002074030020B3
:100EB00072030020700300206C03002050280020E3
:100EC0000000A04324FAFFFF940000206E030020DE
:100ED000F402002000C2EB0B68030020000048422F
:100EE0006A03002000002A43760300200000C84364
:100EF000004C0040000048430000B4420000D743CB
:100F0000CDCCCC3D9A99993E000034C3EBE15FED26
:100F10001B0A1FED1C0A01231A46194600901846A9
:100F200002F00AF99FEDFD0A41F288314FF4C870D2
:100F300008F0A3FE062001F06BF9F948006815F0EF
:100F400045FCD1E11FED170AF64880ED000AF6488E
:100F5000006815F03BFC40F6B8314FF4C07009F062
:100F600040FBF24890ED020AF0EE401A1FED1F5AC6
:100F70005FED264A9FEDEE4ADFEDED3A9FEDED3A4B
:100F8000DFEDED2A9FEDED2A9FEDED1A5FED270ACB
:100F90001FED3C0A01231A461946184601F027FDA9
:100FA0000120E84948710875B3EE0E0ADD4880ED6E
:100FB000000AE548B0F900002F3000EE100AB8EE44
:100FC000C00AB0EE402AD94890ED020AF0EE401A6D
:100FD0009FEDDE5ADFEDDD4A9FEDDC4ADFEDDB3AC7
:100FE0009FEDD43ADFEDDA2A1FED4B1A5FED4C0A84
:100FF0001FED4D0A012300221146104601F0F7FCB7
:10100000D048807D58B90120CE49887500204871AC
:10101000192015F06FFF9FEDCD0A09F07BFD1FED44
:101020004D0AC04880ED000A032001F0F1F84FF4AA
:10103000D07008F0A4FE9FEDB90A41F288314FF458
:10104000C87008F01AFE04214FF4D07009F07AFC41
:10105000C0494FF4D87009F06FFB9FEDBF0A4FF401
:101060007A614FF4D07008F008FEBC48B0F9000077
:1010700000F5A56001EE100AB8EEC11AF0EE411AB3
:10108000AA4890ED011AF0EE410A90ED001AB0EE78
:10109000410ADFEDB33A9FEDB33ADFEDAC2A1FED25
:1010A0006A2A1FED6A1A02F0D4FF0320F6EE003A16
:1010B0001FED6D3AF6EE002A1FED6E2A5FED6E1AF7
:1010C0001FED881A5FED750A1FED8A0A01231A4683
:1010D00019460090184602F02FF89148006815F064
:1010E00075FB062001F094F8FEE09FED9F0A8D4805
:1010F00080ED000A8C48006815F068FB9FED9B0AA4
:1011000009F008FD894890ED020AF0EE401A1FED43
:101110009B5A5FED8E4A9FED864A5FED8A3A9FEDBE
:101120008B3ADFED932A9FED852A1FED8E1ADFEDB6
:10113000800A9FED8B0A012300221946184601F010
:1011400056FC9FED8C0A09F0E5FC784890ED020A08
:10115000F0EE401A9FED885ADFED824A9FED874AF4
:10116000DFED733A9FED863ADFED862A9FED732A15
:101170001FEDA01A5FEDA10A1FEDA20A01231A4676
:101180000021084601F033FC9FED700A09F0C2FC13
:10119000192015F0AFFE04214FF4D07009F0D2FBF6
:1011A0009FED6D0A4FF47A614FF4D07008F065FD41
:1011B0006A48B0F9000000F5A56001EE100AB8EE2B
:1011C000C11AF0EE411A594890ED011AF0EE410AA9
:1011D00090ED001AB0EE410ADFED613AB3EE0E3A3F
:1011E000DFED5A2A1FEDBC2A1FEDBC1A02F031FFB9
:1011F0000320DFED653A9FED553AF6EE002A1FED2C
:10120000BF2A5FEDBF1A1FEDD91A5FEDC60A1FEDA9
:10121000DB0A0123002219460090184601F08CFFDA
:101220003F48006815F0D2FA5EE01FEDD00A3D4855
:1012300080ED000A04214FF4D07009F083FB40F6E2
:10124000B8314FF4C07009F0CCF99FED430A4FF468
:101250007A614FF4D07008F010FD4048B0F90000FA
:1012600000F2245001EE100AB8EEC11AF0EE411A55
:101270002E4890ED011AF0EE410A90ED001AB0EE02
:10128000410ADFED373AB3EE0E3ADFED302A1FEDBB
:10129000E62A1FEDE61A02F0DCFE0320DFED3A3A03
:1012A0009FED2A3AF6EE002A1FEDEA2A5FEDEA1AD0
:1012B0009FED361A5FEDF10A9FED340A01230022FB
:1012C00019460090184601F037FF062000F0A0FFF5
:1012D0001348006815F07AFA06E000BF104800686D
:1012E00015F074FA00E000BF00BF29480021026831
:1012F0002848006815F0BBF90C2000F089FF40F683
:10130000B83015F0BFFE13494FF4D87009F014FA45
:1013100057220421084609F07BFB3DE00000FAC497
:10132000F402002094000020F00200205028002049
:101330000000C8420000B4C20080224400005C42A9
:1013400000001643C42800206C03002000000000A9
:101350000080594424FAFFFF005A07C76E0300209B
:10136000000096430000A0420000BE430000164467
:101370000000D2430000484400008C4300008C422F
:101380000000C8C200804F44CDCC4C3E00007A43E0
:1013900010030020EC0200209FEDFE0AFE494FF4EE
:1013A000C07008F06AFC02E0642015F06BFEFB4898
:1013B000806810F57A4FF7DC09F099FB4FF47A70EA
:1013C00015F060FEF648007800F00700062805D109
:1013D000F348007800F00700072846D0002423E0F7
:1013E000204616F066FA41EC1B0B9FEDEE0B53EC1A
:1013F000102B16F06CF941EC1A0B9FEDEC0B53EC33
:10140000102B16F0BDF841EC190B16F0DBFA08EEC4
:10141000100AB0EE480A4FF4A17009F001FC6420F4
:1014200015F030FE601CC4B2322CD9DBE1480078E4
:1014300000F00600062814D0DF480078012810D1FB
:1014400057220821084609F0E3FADC49C98901EB73
:101450008101480015F016FE57220021082009F0EE
:10146000D7FA4FF4FA6015F00DFE4FF4FA6015F05C
:1014700009FED3494FF4D87009F05EF94FF4FA60D1
:1014800015F000FEFF2015F035FDFFF7BDB82DED7E
:10149000048B86B0CB4800210268CB48006815F069
:1014A000E6F868E24FF47A7015F0ECFD20E00A20CF
:1014B00015F04EFB0A2015F0E5FD032000214FF446
:1014C0008072C24BCDE90132CDE903100A200346F8
:1014D000BF4A0090AFF6857015F0E5FA0A2015F0C6
:1014E000D1FDBC48006815F071F9642015F0CAFD03
:1014F000B94890ED000AF3EE040AB4EEE00AF1EE0A
:1015000010FA0BD2A648007800F00700062805D094
:10151000A348007800F007000728C8D14FF4FA600C
:1015200015F0B0FD10E007F0CAFB07F041FB042105
:10153000AA4810F0C1FA4FF40061A94810F0BAFAB5
:1015400041F2883015F09EFDA64890ED000AD0EDDE
:10155000000A20EE200AD0ED010A90ED011A00EEFB
:10156000810A10EE101A084616F0E8F941EC190B42
:10157000B0EE490AF0EE690A16F0F6FCB0EE408AC9
:10158000F0EE608A9FED980B53EC102B51EC180B8A
:1015900016F0E8F9C7D34FF40061914810F08CFAC7
:1015A0007F48007800F0070030B101287ED0022883
:1015B0007DD003287CD1C4E102E0C82015F062FD93
:1015C0008B4890ED000A5FEDA20AB4EEE00AF1EE5E
:1015D00010FAF2D33221874811F0C7FC864890F9FF
:1015E0000000864909884843C0F5617000B284490B
:1015F00008800846B0F9000000EE100AB8EEC00AF4
:1016000009F088FA02E0C82015F03CFD784890ED1A
:10161000010A5FEDAD0AB4EEE00AF1EE10FAF2D382
:1016200001207849887118E0714890ED010A5FED5A
:10163000B10AB4EEE00AF1EE10FA0BDDC8207049F1
:1016400008800846B0F9000000EE100AB8EEC00AA3
:1016500009F060FA642015F015FD654890ED010A67
:10166000DFED690AB4EEE00AF1EE10FA1DD2674828
:1016700090ED000ADFED660AB4EEE00AF1EE10FA32
:101680000DD364480078062809DB594890ED010A1B
:10169000DFED610AB4EEE00AF1EE10FA05D2474838
:1016A00080885E4909788842BEDB02E02CE0D0E009
:1016B0005AE101205349487100204049888051492E
:1016C00088714D4890F9000000EBC00101EB00105B
:1016D00040F25231A1EB8000494908800846B0F938
:1016E000000000EE100AB8EEC00A09F013FAC82094
:1016F00015F0C8FC4248B0F9000000EE100AB8EE40
:10170000C00A09F007FA30E102E0642015F0BAFCE3
:10171000374890ED010ADFED420AB4EEE00AF1EE3F
:1017200010FAF2D31FEDED0A09F0F4F902E064209B
:1017300015F0A8FC2E4890ED010ADFED3A0AB4EE50
:10174000E00AF1EE10FAF2D33748006815F03EF8DF
:1017500002E0C82015F096FC254890ED010A5FEDE7
:10176000F50AB4EEE00AF1EE10FAF2D301202549B1
:10177000887102E0642015F085FC1D4890ED010A97
:10178000DFED2A0AB4EEE00AF1EE10FAF2D30120FE
:101790001C494DE000E87DC7D8DCFFFFA02A0020EF
:1017A000970300200000000000001E400000000021
:1017B00000B08D404103002087030020EC2800206A
:1017C00024FAFFFF20030020F80200203808002040
:1017D000340C0020EC0200209000002000080240A1
:1017E000000C02406C290020000000000000244092
:1017F00050280020004C0040860300209003002069
:1018000048020020C428002000003944480300207A
:101810000000F04220010020008027447B030020CC
:101820000000704200001643F002002000001B443C
:101830004871002088714FF44870FE4908800846BE
:10184000B0F9000000EE100AB8EEC00A09F062F923
:101850008BE002E0C82015F015FCF74890ED000A77
:10186000DFEDF60AB4EEE00AF1EE10FAF2D34FF42F
:101870006170F04908800846B0F9000000EE100AD7
:10188000B8EEC00A09F046F902E0C82015F0FAFBEC
:10189000E94890ED010ADFEDEA0AB4EEE00AF1EE64
:1018A00010FAF2D30120E749887102E0642015F0B4
:1018B000E9FBE14890ED010ADFEDE30AB4EEE00A4E
:1018C000F1EE10FA1DD2E14890ED000ADFEDE00ADA
:1018D000B4EEE00AF1EE10FA0DD3DE4800780628E7
:1018E00009DBD54890ED010ADFEDDB0AB4EEE00A32
:1018F000F1EE10FA05D2D9488088D9490978884292
:10190000D4DB0120CF49487100208871D54890F977
:10191000000000EBC00101EB00104FF46171A1EB7E
:10192000C00000B2C34908800846B0F9000000EECC
:10193000100AB8EEC00A09F0EDF8C82015F0A2FBB5
:1019400013E002E0642015F09DFBBB4890ED010A16
:10195000DFEDC50AB4EEE00AF1EE10FAF2D39FED26
:10196000BA0A09F0D7F800E000BF00BFFF2015F069
:10197000C1FA00BFFEE795E5BC4800210268BC48FB
:10198000006814F074FEBB48007828B103214FF4BE
:10199000D07008F0D7FF04E004214FF4D07008F0B5
:1019A000D1FF37E0B348007840B1B348B0F9001038
:1019B000B248B0F9000004F0C7FF01E00DF034FDBB
:1019C000A048007D012812D1AD48007828B1AD486B
:1019D00090ED000A06F030F809E09A48807930B1BD
:1019E0009548D0ED010AB0EE600A0DF0CFFD4FF43E
:1019F000D07008F08CFE4FF4C87008F088FE4FF4E9
:101A0000D07008F003FF4FF4C87008F0FFFEC82044
:101A100015F038FBC6E705E009F0ECFC4FF47A70EE
:101A200015F030FB9848006A0028F5D04FF4FC60B0
:101A30000EF015FE4FF47A7015F024FB05E00BF064
:101A400024FA4FF47A7015F01DFBF8E717E04FF415
:101A500000418E4810F030F84FF4D07008F057FE77
:101A600009F045F841F2883015F00CFB4FF40041C5
:101A7000864810F01FF841F2883015F003FBE6E7C6
:101A800086B0002415F038FD002014F06AFD80496E
:101A90000860002014F065FD75490860002014F00E
:101AA00060FD7C490860002014F05BFD7A49086005
:101AB000002014F056FD7949086004200DF020FF45
:101AC00007F037F809F0CBFA032000214FF48072B9
:101AD000734BCDE90132CDE903103C200346714A36
:101AE0000090AFF2970014F0DEFF032000214FF4C6
:101AF00080726D4BCDE90132CDE9031037200346EA
:101B00006A4A0090AFF2F10014F0CDFF684800215E
:101B100002685F48006814F0AAFD07F0D0F864205E
:101B200015F0B0FA07F006F962480168002013F0DA
:101B300095FD6149086061480168002013F08EFD41
:101B40005F49086006F0DCFF09F070FA5B48006846
:101B500064238222002100905948006813F0E4FEBB
:101B60004FF4005157480FF08BFF05464FF480515A
:101B700054480FF085FF45EA40054FF48041514835
:101B80000FF07EFF45EA80004F49087003200021D6
:101B90004FF480724D4BCDE90132CDE903100A209C
:101BA00003464B4A00904B4814F07DFF0320002170
:101BB0004FF48072484BCDE90132CDE90310192072
:101BC0000346464A0090AFF24F2014F06CFF03200A
:101BD00000214FF48072424BCDE90132CDE9031070
:101BE0001E2003463F4A0090AFF25D7014F05BFF89
:101BF000032000214FF480723B4BCDE90132CDE947
:101C0000031039200346394A0090394814F04BFF3D
:101C1000032000214FF48072364BCDE90132CDE92B
:101C200003100F200346344A0090344814F03BFF61
:101C3000032065E0480200205028002000004843AF
:101C400000009643C428002000002F4448030020D1
:101C50000000E2422001002000401C44EC2800204B
:101C60007B0300208603002000007A431803002035
:101C7000F002002085030020A6030020A40300201A
:101C80008403002044030020D432002000000240DE
:101C9000EC020020F4020020F8020020FC020020E8
:101CA0003820002034240020380C0020341000207C
:101CB000100300200C030020E40200200403002095
:101CC000E80200200014024097030020380800209A
:101CD000340C002053050008381000203414002074
:101CE000381400203418002038180020341C00203C
:101CF000FB030008381C00203420002019030008D2
:101D000000214FF48072BD4BCDE90132CDE90310C3
:101D100004200346BA4A0090BA4814F0C4FE07E013
:101D20004FF40061B8480FF0C5FE642015F0AAF921
:101D30000421B6480FF0A4FE0028F1D00821B348D2
:101D40000FF09EFE0028EBD04FF40061AE480FF07C
:101D5000B3FE3121AE4811F008F9032000F0BCF9C0
:101D600046214FF4B07007F02EF9AA48007800F031
:101D70000700082830D2DFE800F030313233046049
:101D800090C29FEDA51ADFEDA50A9FEDA50A06F00A
:101D90002FFE02E0642015F075F94FF40061A148B0
:101DA0000FF06EFE0028F5D00CF0FAF8572208214B
:101DB0004C2008F02DFE9FED9C0A41F658314FF45F
:101DC000D07007F05AFF994899494860994948608E
:101DD0004FF4967015F056F9C6E000BF00BF00BF83
:101DE0009FED8D1ADFED8D0A9FED8D0A06F0AEFD99
:101DF0004FF400618B480FF043FE044602E064207C
:101E000015F040F94FF4006186480FF039FEA0420A
:101E1000F5D0572208215C2008F0FAFD0CF0C0F83C
:101E20009FED850A40F2431008F0FAFE9FED830A09
:101E30004FF4A17008F0F4FE96E0022000F014FACE
:101E40009FED7F1ADFED7F0A9FED7F0A06F0D0FD40
:101E50004FF4006173480FF013FE044602E0642063
:101E600015F010F94FF400616E480FF009FEA04222
:101E7000F5D09FED710A40F2431008F0D1FE9FEDBE
:101E80006F0A4FF4A17008F0CBFE0CF089F85722CE
:101E900008217C2008F0BCFD66E04FF40061614839
:101EA0000FF0EEFD04469FED661ADFED680A9FED28
:101EB000680A06F04BFD57220021482008F0A8FDD3
:101EC0009FED5D0A40F2431008F0AAFE9FED610A03
:101ED0004FF4A17008F0A4FE02E0642015F0D2F8DF
:101EE0004FF400614F480FF0CBFDA042F5D05722D0
:101EF0002021342008F08CFD0CF017F934E04F213C
:101F00004FF4B07007F05FF8572210213C2008F022
:101F10007FFD022000F0A8F99FED491ADFED4B0A82
:101F20009FED4B0A06F064FD4FF400613D480FF051
:101F3000A7FD04469FED400A40F2431008F070FEF2
:101F40009FED440A4FF4A17008F06AFE0CF0EDF822
:101F500002E0642015F096F84FF4006131480FF06C
:101F60008FFDA042F5D000BF00BF002000F050F967
:101F7000022000F079F93848006814F027FC04E0EA
:101F800004F069FC642015F07DF8F9E700B585B030
:101F900012F0DAFD00F082F800F0BAF800F018F95B
:101FA00007F060FC0EF073FB4FF4A0600FF09AFB9B
:101FB00005F0FEFE07F036FD07F06CF809F072F848
:101FC0000BF04CFE08F015FF0EF078F812F0A0FFB1
:101FD000032000214FF48072204BCDE90132CDE97E
:101FE0000310052003461E4A0090AFF26B5014F018
:101FF0005AFD13F0B4F8002005B000BD38240020CD
:10200000342800209D010008000C02400018024006
:10201000004C00409703002000000000CDCC1E4281
:102020003D8A10420014024000D072C5D3F0FFFF79
:102030004C0200206C020020000082440080ED442D
:10204000000034C300005C440000F0420040A6449D
:102050000000B44200806D44EC02002038040020EF
:1020600034080020704704210A480FF023FD08E0DF
:102070004FF4006108480FF028FD4FF4FA7000F0AB
:10208000F3F8F5E700BFFEE700BFFEE700BFFEE79D
:102090007047704700080240000C02401CB5012147
:1020A00008200FF0D1FE19480FF01AFC01208DF81E
:1020B000040000208DF806004FF40060009000201E
:1020C0008DF80500694611480FF078FC4FF4006167
:1020D0000E480FF0F1FC1CBD70B50446002511E060
:1020E0004FF4006109480FF0E5FC642000F0BCF8F3
:1020F0004FF4006105480FF0DFFC642000F0B4F8F5
:10210000681CC5B2A542EBDB70BD0000000C0240AC
:102110001CB5012120200FF097FE012108460FF089
:1021200093FE012104200FF08FFE012110200FF0FB
:102130008BFE23480FF0D4FB22480FF0D1FB22483E
:102140000FF0CEFB21480FF0CBFB01208DF80400EF
:1021500000208DF806001420009000208DF8050066
:10216000694617480FF02AFC4FF40040009069467A
:1021700014480FF023FC4FF4804000906946124849
:102180000FF01CFC40200090694610480FF016FC30
:1021900010210B480FF08EFC4FF4004109480FF05E
:1021A00089FC402109480FF085FC042104480FF008
:1021B00081FC4FF4804104480FF07CFC1CBD000002
:1021C00000140240000002400008024000100240DB
:1021D0001CB5012102200FF037FE4FF44070009033
:1021E00001208DF8040000208DF8060002208DF8F3
:1021F000050069461A480FF0E1FB4FF4807118485A
:102200000FF058FC4FF4007115480FF055FC1CBD41
:1022100070B50446112C00DD11241248055D00261E
:102220001AE04FF480710E480FF046FC05F00100F3
:1022300028B14FF400710A480FF03CFC04E04FF461
:10224000007107480FF038FC4FF4807104480FF01C
:1022500031FC6D10701CC6B2082EE2DB70BD0000B0
:1022600000040240AC91010810B5002107E04AF2D9
:10227000104200BF1300A2F10102FBD1491C8142B0
:10228000F5D310BD10B5002106E0282200BF1300D1
:10229000A2F10102FBD1491C8142F6D310BD00BF5F
:1022A0000100A0F1010290B2FAD1704770B52DED96
:1022B0000A8B044694ED000AB1EE400ADFEDFE0AF7
:1022C00020EE200ABDEEC00AFC4880ED000A94ED25
:1022D000010AB1EE400ADFEDF80A20EE200ABDEE59
:1022E000C00AF74880ED000A94ED020AB1EE400AF8
:1022F000DFEDF10A20EE200ABDEEC00AF14880EDC4
:10230000000A94ED030AB1EE400ADFEDEB0A20EE7D
:10231000200ABDEEC00AEC4880ED000AE8480068DB
:1023200015F0B6FA41EC1C0BB0EE4C0AF0EE6C0A5C
:1023300015F0AAFDB0EE40AAF0EE60AADF480068F2
:1023400015F0A6FA41EC1C0BB0EE4C0AF0EE6C0A4C
:1023500015F09AFDB0EE40BAF0EE60BA53EC1A2BCD
:1023600051EC1B0B15F016FB0CD2D448006815F08D
:102370008FFA41EC1A0BB0EE4A0AF0EE6A0A15F039
:1023800083FD0BE0CE48006815F082FA41EC1A0B91
:10239000B0EE4A0AF0EE6A0A15F076FDB0EE409A09
:1023A000F0EE609A51EC190B15F090FA0546C6480C
:1023B000006815F06DFA41EC1C0BB0EE4C0AF0EE23
:1023C0006C0A15F061FDB0EE40AAF0EE60AABD48BF
:1023D000006815F05DFA41EC1C0BB0EE4C0AF0EE13
:1023E0006C0A15F051FDB0EE40BAF0EE60BA53EC55
:1023F0001A2B51EC1B0B15F0CDFA0CD2B14800682A
:1024000015F046FA41EC1A0BB0EE4A0AF0EE6A0AF1
:1024100015F03AFD0BE0AC48006815F039FA41ECD4
:102420001A0BB0EE4A0AF0EE6A0A15F02DFDB0EE76
:10243000409AF0EE609A51EC190B15F047FA0646F7
:10244000B54201DD284600E030460546B5F5E15FBE
:1024500033DD00EE105AB8EEC00ADFED9C0A80EEC4
:10246000808A964890ED000AB8EEC00A20EE080A6D
:10247000BDEEC00A80ED000A914890ED000AB8EE6A
:10248000C00A20EE080ABDEEC00A80ED000A8D48A1
:1024900090ED000AB8EEC00A20EE080ABDEEC00AB0
:1024A00080ED000A884890ED000AB8EEC00A20EEE0
:1024B000080ABDEEC00A80ED000A804801680220CB
:1024C00006F0B8FB7E480168032006F0B3FB7D48A8
:1024D0000168042006F0AEFB7B480168012006F08D
:1024E000A9FB06F0D1FBBDEC0A8B70BD10B52DED3C
:1024F000060B2DED0C8B86B00020019093E09DF82B
:10250000040000EB4000724A02EB800090ED020AEA
:10251000DFED700A30EE600A10EE101A084615F072
:102520000DFA41EC1D0BB0EE4D0AF0EE6D0A15F000
:1025300047FCB0EE40BAF0EE60BA9DED140ADFED54
:10254000660A20EE200A9FED651AC0EE010A9DF88A
:10255000040000EB40005E4901EB800090ED001AA2
:102560009DED130A00EE810A10EE104A204615F088
:10257000E5F941EC1C0B53EC1B2B15F0A8F841ECD2
:10258000190B9DF8040000EB4000514A02EB80005B
:1025900090ED020A10EE101A084615F0CFF941EC42
:1025A0001D0BB0EE4D0AF0EE6D0A15F009FCB0EE11
:1025B00040BAF0EE60BA9DED140ADFED470A20EE56
:1025C000200A9FED461AC0EE010A9DF8040000EBB8
:1025D00040003F4901EB800090ED010AB1EE401A46
:1025E0009DED120A00EE810A10EE104A204615F009
:1025F000A5F941EC1C0B53EC1B2B15F068F841ECD2
:102600001A0B53EC192B14F0BBFF41EC180B15F00F
:10261000D9F902A99DF8042041F822009DF8040090
:10262000401CC0B201909DF804000428FFF667AF7B
:1026300002A8FFF73BFE06B0BDEC0C8B06B010BD48
:1026400010B52DED040B2DED108B8EB09DED200AF5
:10265000F7EE000A20EE200A8DED200A00200890F7
:1026600080E19DF8200000EB4000194A02EB800059
:1026700090ED020ADFED170A30EE600A10EE101A34
:10268000084615F05BF941EC1A0BB0EE4A0AF0EE81
:102690006A0A15F095FBB0EE408AF0EE608A9DED77
:1026A000200ADFED0D0A20EE200A9FED0C1AC0EE85
:1026B000010A9DF8200013E0E3A57E418000002080
:1026C00084000020880000208C0000200000E145EC
:1026D00050000020DB0FC93FDB0F494000003443AE
:1026E00000EB4000A54901EB800090ED000AB7EE39
:1026F000001A20EE010A20EE800A10EE104A204651
:1027000015F01CF9CDE900019D4890ED020A5FED3E
:102710000E0A20EE200A5FED0F0A80EE201A11EE5D
:10272000104A204615F00AF941EC1F0BB0EE4F0A93
:10273000F0EE6F0A15F044FBB0EE40DAF0EE60DA2E
:102740009DED1F0A10EE101A084615F0F7F841EC3F
:102750001E0B53EC1D2B14F0BAFF41EC1B0B8848E9
:1027600090ED020A5FED240A20EE200A5FED250AB3
:1027700080EE201A11EE104A204615F0DFF841ECE9
:102780001F0BB0EE4F0AF0EE6F0A15F089FBB0EEAA
:1027900040DAF0EE60DA9DED1E0AB1EE400A10EE6E
:1027A000101A084615F0CAF841EC1E0B53EC1D2B0D
:1027B00014F08DFF41EC1C0B53EC1B2B14F0E0FECE
:1027C00041EC1A0B9DED000B53EC102B14F0D8FECE
:1027D00041EC190B53EC182B14F079FFCDE90401EF
:1027E0009DF8200000EB4000644A02EB800090ED71
:1027F000020A10EE101A084615F0A0F841EC1A0B68
:10280000B0EE4A0AF0EE6A0A15F0DAFAB0EE408A43
:10281000F0EE608ADDED200A1FED510A60EE800ABD
:102820001FED521A80EE810A9DF8200000EB400057
:10283000524901EB8000D0ED010AF1EE600AB7EEDB
:10284000001A60EE810A20EE200A10EE104A20469F
:1028500015F074F8CDE90001494890ED020A5FEDEA
:10286000620A20EE200A5FED630A80EE201A11EE64
:10287000104A204615F062F841EC1F0BB0EE4F0AEB
:10288000F0EE6F0A15F00CFBB0EE40DAF0EE60DA15
:102890009DED1F0A10EE101A084615F04FF841EC96
:1028A0001E0B53EC1D2B14F012FF41EC1B0B344894
:1028B00090ED020A5FED780A20EE200A5FED790ABA
:1028C00080EE201A11EE104A204615F037F841EC40
:1028D0001F0BB0EE4F0AF0EE6F0A15F071FAB0EE72
:1028E00040DAF0EE60DA9DED1E0A10EE101A08468E
:1028F00015F024F841EC1E0B53EC1D2B14F0E7FEF1
:1029000041EC1C0B53EC1B2B14F03AFE41EC1A0B60
:102910009DED000B53EC102B14F032FE41EC190B23
:1029200053EC182B14F0D3FECDE902019DED040BFE
:1029300053EC102B9DED020B51EC100B14F020FE0C
:10294000CDE906019DED060B51EC100B15F03AF8A0
:1029500009A99DF8202041F822009DF82000401C84
:10296000C0B208909DF820000428FFF67AAE09A8AE
:10297000FFF79CFC0EB0BDEC108B1FBD500000207B
:102980005028002010B52DED0A8BB0EE409AB0EE25
:10299000608AF0EE419AF0EE618A9FEDFE0AB0EE99
:1029A00040AA39EEC90A20EE000A78EEC80A38EECD
:1029B000C81A00EE810A10EE101A084614F0BEFF85
:1029C00041EC1C0BB0EE4C0AF0EE6C0A15F0CCFAA0
:1029D000B0EE40BAF0EE60BA51EC1B0B14F0F2FF0F
:1029E0000AEE100AB0EE4A0ABDEC0A8B10BDF0B533
:1029F0002DED108B83B004460D4616461F46B0EEF3
:102A0000408AF0EE608AB0EE419AF0EE619AB0EE44
:102A100042AAF0EE62AAB0EE43BAF0EE63BAB0EEAC
:102A200044DAF0EE64DAB0EE45EA9FEDDA0AF0EE51
:102A300040EAD9480470447545708570C6700671C7
:102A40000772D64880ED008AD548C0ED008AD54887
:102A500080ED009AD048007D01281BD1D248007833
:102A600000F00700B0B9D148B0F9000000F5AF7030
:102A700000EE100AB8EEC00ACD4880ED000A9FEDC6
:102A8000CD0ACD4880ED000A9FEDC20ACB4880ED0B
:102A9000000A0EE0CA4890ED000AC54880ED000A21
:102AA000C74890ED010AC44880ED000AC348C0ED54
:102AB000009AC44880ED00AAC348C0ED00AAC348EC
:102AC00080ED00BAC248C0ED00BAC24880ED00DA1D
:102AD000BD48D0ED001ABB4890ED001AB648D0EDC5
:102AE000000AB34890ED000AFFF74CFFBA4880EDAA
:102AF000000ABA48C0ED00DAB94880ED00EAB448EF
:102B000090ED000AB348D0ED000A30EE200AB2483A
:102B1000D0ED000AB4EEE00AF1EE10FA0FDD042168
:102B2000B0480EF0C7FF4FF40061AF480EF0C2FF8F
:102B3000FF2014F0DFF903B0BDEC108BF0BDA74807
:102B400090ED000AA648D0ED000A30EE200AA24817
:102B5000D0ED000AB4EEE00AF1EE10FA10DD00202C
:102B60008D49C870087104219E480EF0A3FF4FF4F0
:102B700000619D480EF09EFFFF2014F0BBF9DAE7DC
:102B8000874890ED000A994880ED000A9FED810A80
:102B9000974880ED020A01207F494872874890EDEE
:102BA000000A944880ED020A864890ED000A8048A9
:102BB000D0ED000A30EE600A10EE101A084614F04C
:102BC000BDFE41EC1F0BB0EE4F0AF0EE6F0A15F0A0
:102BD0005BF9B0EE40CAF0EE60CA9FED870B53EC94
:102BE000102B51EC1C0B14F0BDFE06D201206A49DB
:102BF000C87102208249087080E000206649C871CF
:102C0000714890ED000A6C48D0ED000A30EE600A81
:102C10006C48D0ED000A664890ED001A70EEC10ACB
:102C200080EE201A774880ED001AD0ED000A90ED72
:102C3000001AB7EE000A00EE810A10EE101A0846DC
:102C400014F07CFE41EC1F0BB0EE4F0AF0EE6F0A61
:102C500015F08AF9B0EE40CAF0EE60CA53EC1C2BB6
:102C60009FED690B51EC100B14F0A3FDCDE90001B1
:102C70009DED000B51EC100B14F0A4FE64490860AC
:102C80006048006814F05AFE41EC1F0BB0EE4F0A8A
:102C9000F0EE6F0A15F0F8F8B0EE40CAF0EE60CA38
:102CA0009FED590B53EC102B51EC1C0B14F05AFEFA
:102CB00011D20120524908703F4890ED000A3C486B
:102CC000D0ED000A4F4890ED001A00EEC10A5148BD
:102CD00080ED000A12E0022049490870364890ED64
:102CE000000A4848D0ED000A80EE201A304890EDE6
:102CF000000A30EE410A474880ED000A00202649CC
:102D0000C87201204449087001F064FD05F050FFCD
:102D1000042134480EF0D0FE01201F4988720020A3
:102D20003E49086002E0322014F0ACF9254890EDED
:102D3000000A1F48D0ED000A30EE600A2048D0EDAE
:102D4000000A204890ED001A70EEC10A20EE200A19
:102D50001D48D0ED000A184890ED001A70EEC10A27
:102D6000174890ED011A1848D0ED001A31EE611A9B
:102D700000EE810A10EE101A084614F0DFFD41EC57
:102D80001C0B9FED270B53EC102B14F0EBFDCAD35B
:102D9000014849E000000000C4280020EC000020A9
:102DA000F0000020F40000209703002078030020AA
:102DB000B800002000004842BC000020C0000020F5
:102DC00050280020C4000020C8000020CC000020B3
:102DD000D0000020D4000020D8000020DC0000201B
:102DE000E000002000080240000C0240900000209B
:102DF0003828002098000020000000000000E03F7C
:102E0000FC00002000010020000000000000F03F56
:102E10000801002004010020B40000204C03002021
:102E2000000000000000E0BF007A98B90020FE49D1
:102E300088720846407A50B1FC4890ED001AFC4870
:102E4000D0ED000AFB4890ED000A03F037FD0120A9
:102E5000F549C8720020F449887200BF6BE6D1EDD5
:102E6000021AB0EE610A60EE001AF0EE610A60EE3E
:102E7000801AB0EE611AD0ED0C1A61EE811A90ED55
:102E80000D2A42EE201A90ED0E2A42EE001A90ED25
:102E90000F2A71EE821AC1ED001AD0ED101A61EE00
:102EA000811A90ED112A42EE201A90ED122A42EE7C
:102EB000001A90ED132A71EE821AC1ED011A7047C3
:102EC00090ED000A80ED0F0A90ED020AD0ED000AA5
:102ED00030EE600AF0EE080A20EE200A80ED0E0ABD
:102EE00090ED040AD0ED020A70EE600A90ED0E0A31
:102EF000B0EE081A11EE200A80ED0D0A90ED060AD8
:102F0000D0ED000A30EE600AD0ED0D0A30EE600A16
:102F1000D0ED0E0A30EE600A80ED0C0A90ED010A49
:102F200080ED130A90ED030AD0ED010A30EE600A3D
:102F3000F0EE080A20EE200A80ED120A90ED050A54
:102F4000D0ED030A70EE600A90ED120AB0EE081A96
:102F500011EE200A80ED110A90ED070AD0ED010A6A
:102F600030EE600AD0ED110A30EE600AD0ED120AA0
:102F700030EE600A80ED100A704770B52DED0C8BB5
:102F8000044694ED080ADFEDAC0A20EE200ADFEDDE
:102F9000AB0A80EE201A11EE105A94ED090ADFED0B
:102FA000A60A20EE200ADFEDA50A80EE201A11EE17
:102FB000106A284614F0C2FC41EC1D0BB0EE4D0A1D
:102FC000F0EE6D0A14F0FCFEB0EE40BAF0EE60BA1E
:102FD00094ED0A0A10EE101A084614F0AFFC41EC0A
:102FE0001C0B53EC1B2B14F072FB41EC190B94EDF2
:102FF000000A10EE101A084614F0A0FC41EC1A0B5F
:1030000053EC192B14F0BCFA41EC180B14F0DAFC59
:10301000A060284614F092FC41EC1D0BB0EE4D0A66
:10302000F0EE6D0A14F03CFFB0EE40BAF0EE60BA7C
:1030300094ED0A0A10EE101A084614F07FFC41ECD9
:103040001C0B53EC1B2B14F042FB41EC190B94EDC1
:10305000010A10EE101A084614F070FC41EC1A0B2D
:1030600053EC192B14F08CFA41EC180B14F0AAFC59
:10307000E060304614F062FC41EC1D0BB0EE4D0AEE
:10308000F0EE6D0A14F09CFEB0EE40BAF0EE60BABD
:1030900094ED0B0A10EE101A084614F04FFC41ECA8
:1030A0001C0B53EC1B2B14F012FB41EC190B94ED91
:1030B000060A10EE101A084614F040FC41EC1A0BF8
:1030C00053EC192B14F0FDFA41EC180B14F07AFCB8
:1030D0002061304614F032FC41EC1D0BB0EE4D0A7D
:1030E000F0EE6D0A14F0DCFEB0EE40BAF0EE60BA1D
:1030F00094ED0B0A10EE101A084614F01FFC41EC78
:103100001C0B53EC1B2B14F0E2FA41EC190B94ED61
:10311000070A10EE101A084614F010FC41EC1A0BC6
:1031200053EC192B14F0CDFA41EC180B14F04AFCB7
:103130006061BDEC0C8B70BD2DE9F0412DED108B65
:1031400004460D4616461F46B0EE408AF0EE608AF1
:10315000B0EE419AF0EE619AB0EE42AAF0EE62AAA9
:10316000B0EE43DAF0EE63DADDF858804FF4006138
:1031700033480EF0A1FC3348FFF7FFFE3148FFF75C
:103180009FFE304890ED072AF0EE421A90ED062A95
:10319000B0EE421A90ED012AF0EE420A90ED002ABC
:1031A000B0EE420AFFF7EEFBF0EE000A80EE801A66
:1031B000254880ED001A9FED250A254880ED020A7A
:1031C000214890ED000A234880ED020A20491D485D
:1031D000FFF745FE1F491B48FFF741FE1D4890EDD4
:1031E000000A1B48D0ED000A30EE600A1A4880ED54
:1031F000000A184890ED010A1548D0ED010A30EE9A
:10320000600A154880ED010A07480470447545704E
:103210008570C67006710772104880ED008A1048EC
:10322000C0ED008A0F481FE0C4280020CC00002019
:10323000C8000020C4000020DB0F494000003443D8
:10324000000C02405C2800200C010020000000005F
:10325000AC280020B8280020A4000020EC000020AA
:10326000F0000020F400002080ED009AFE4890ED70
:10327000000AFE4880ED000AFB4890ED010AFC4878
:1032800080ED000AF84890ED020AFA4880ED000A45
:10329000F94890ED060AF94880ED000AF64890EDED
:1032A000070AF74880ED000AF648C0ED009AF64894
:1032B00080ED00AAF548C0ED00AAF54880ED00DADF
:1032C000F448C0ED00DAF44880F80080EE4890ED54
:1032D000000AEE48D0ED000A30EE200AF7EE000AB0
:1032E000B4EEE00AF1EE10FA0FDD0421EB480EF027
:1032F000E1FB4FF40061EA480EF0DCFBFF2013F025
:10330000F9FDBDEC108BBDE8F081E14890ED000ABD
:10331000E048D0ED000A30EE200AF7EE000AB4EEE5
:10332000E00AF1EE10FA0CDD0421DC480EF0C2FBDD
:103330004FF40061DA480EF0BDFBFF2013F0DAFD18
:10334000DFE7D84890ED000AD74880ED000A1FED6E
:10335000410AD64880ED020AC64890ED000AD448DA
:1033600080ED020A0020D349C8720220D2490870B9
:1033700001F030FA0120CF49487205F019FC042110
:10338000C6480EF099FB0120CA498872BEE0B648D3
:1033900090ED010ADFEDC90AB4EEE00AF1EE10FA91
:1033A00068DD90ED020A5FED5B0A30EE200A10EE58
:1033B000101A084614F0C2FA41EC1C0BB0EE4C0A8D
:1033C000F0EE6C0A14F060FDB0EE40BAF0EE60BAB8
:1033D0009FEDBB0B53EC102B51EC1B0B14F0C2FAFE
:1033E00048D2B94890ED000ADFEDB80AB4EEE00A21
:1033F000F1EE10FA2DD3B648B0F9000014F048FAF7
:1034000041EC1E0BB0EE4E0AF0EE6E0A14F03CFDDD
:10341000B0EE40CAF0EE60CA9FEDAE0B53EC102B3D
:1034200051EC1C0B14F04DF941EC1F0BB0EE4F0AA0
:10343000F0EE6F0A14F028FDB0EE40BAF0EE60BA7C
:103440009FEDA60B53EC102B51EC1B0B14F0A2FAC2
:1034500010D2A448007801280CD19FEDA30A41F2B4
:1034600088314FF4C87006F008FCA048006813F0DB
:10347000ADF946E79648B0F9000014F009FA41ECBE
:103480001E0BB0EE4E0AF0EE6E0A14F0FDFCB0EE2C
:1034900040CAF0EE60CA9FED8F0B53EC102B51EC3D
:1034A0001C0B14F00EF941EC1B0BB0EE4B0AF0EEC6
:1034B0006B0A14F0E9FCB0EE40FAF0EE60FA9FED12
:1034C000870B53EC102B51EC1F0B14F063FA1AD23C
:1034D000654890ED010ADFED860AB4EEE00AF1EEF0
:1034E00010FA10DD7F48007801280CD09FED7E0A8D
:1034F00041F288314FF4C87006F0BFFB7B4800688A
:1035000013F064F9FDE6322013F0BCFD794890ED2C
:10351000020A7948D0ED000AB7EE001A71EE600A8F
:10352000B4EEE00AF1EE10FAFFF431AF4FF40061AF
:103530005B480EF0BFFA5F48007A98B900205D49F9
:1035400088720846407A50B14E4890ED001A4C48B7
:10355000D0ED000A494890ED000A03F0AFF90120D0
:103560005449C87200205349887200BFC9E610B59B
:103570002DED048B9FED610A4D4880ED010A9FED12
:10358000600A80ED020A1FEDCF0A484880ED010A6B
:103590000020484908725B4890F9000000EB800069
:1035A0008000C0F1960000EE100AB8EEC00A3E4856
:1035B00080ED000A0020C87203203F49087001F026
:1035C00009F905F0F5FA042134480EF075FA0120E6
:1035D0003849887248724C48007800F00700062885
:1035E00003D144F6206013F04DFD1FE0314890F800
:1035F0002100012809D01C4890ED000ADFED430AA4
:10360000B4EEE00AF1EE10FA0DDD274890ED000A65
:10361000DFED3F0AB4EEE00AF1EE10FA03DD9FEDB4
:103620003C0A80ED000A322013F02CFD394890ED61
:10363000000A10EE101A084614F080F941EC190B3C
:10364000B0EE490AF0EE690A14F01EFCB0EE408AB2
:10365000F0EE608A9FED1F0B53EC102B51EC180B12
:1036600014F098F964D257E050280020B8000020E8
:10367000BC000020C00000205C280020C400002006
:10368000C8000020CC000020100100201401002000
:10369000180100201C010020040200200008024044
:1036A000000C0240F000002090000020382800208C
:1036B00098000020C4280020B400002000409C4452
:1036C00000000000000014403C0300200000904275
:1036D000DC0200200000000000003E40000000006E
:1036E0000000F03F8B0300200000FAC4F402002029
:1036F0000080A244AC2800200C0100200000A64459
:10370000000034C386030020970300200000024419
:103710000000C8426C2900200821FE480EF0B0F9D4
:10372000012805D1FC4890F8260000283FF45EAF40
:103730009FEDFA0AFA4880ED000A04214FF4D07098
:1037400007F000F94FF47A7013F09CFC02E032208D
:1037500013F098FCF34890ED000A10EE101A08469A
:1037600014F0ECF841EC190BB0EE490AF0EE690ADE
:1037700014F08AFBB0EE408AF0EE608A1FED2B0B4E
:1037800053EC102B51EC180B14F004F9DFD3E6487E
:10379000007800F00700062805D1E348007800F023
:1037A0000700072810D0E148006813F00FF85722EF
:1037B0004821084607F02CF99FEDDD0A41F27071AF
:1037C0004FF4C07006F059FAD348007AC8B9002007
:1037D000D14988720846407A80B1D64890ED011AE6
:1037E000F0EE410A90ED001AF7EE001A31EE211AC0
:1037F000B0EE410A1FED3E1A03F060F80120C64901
:10380000C8720020C4498872BDEC048B10BD10B58D
:103810002DED0E8BC24890ED000AC748D0ED000A8E
:1038200030EE600A10EE101A084614F087F841ECEA
:103830001A0BB0EE4A0AF0EE6A0A14F025FBB0EE5D
:10384000409AF0EE609A9FEDBD0B53EC102B51ECBB
:10385000190B14F09FF864D2B64890ED010AF0EE0F
:10386000401A90ED000AB0EE401AB648D0ED000ABA
:10387000B54890ED000AFFF785F8B0EE408AB0EE4B
:10388000480AB248D0ED000AB4EEE00AF1EE10FAB0
:103890003DD290ED000AC8EE000A10EE904A204694
:1038A00014F04CF841EC1E0BB0EE4E0AF0EE6E0A2E
:1038B00014F05AFBB0EE40CAF0EE60CAA44890ED96
:1038C000000A9D48D0ED000A30EE600A10EE101A92
:1038D000084614F033F841EC1D0B53EC1C2B13F08D
:1038E000F6FE41EC1A0B9A48006814F027F841ECF8
:1038F0001B0B53EC1A2B13F0E4FE41EC190B14F0E4
:1039000061F800EE100A864880ED000A12E08A484D
:1039100090ED000A824880ED000A00207E49087080
:1039200008E0854890ED000A7D4880ED000A0020FF
:1039300079490870BDEC0E8B10BD10B52DED0C8BC8
:1039400075488078012822D17A4890ED011AF0EE6E
:10395000410A90ED001AB0EE410A7E48D0ED001AFF
:103960007D4890ED001AFFF70DF87C48D0ED000A75
:10397000B4EEE00AF1EE10FA09D8694890ED000AB9
:10398000774880ED000A002063498870087062481B
:103990008078E8BB674890ED011AF0EE410A90ED9F
:1039A000001AB0EE410A6B48D0ED001A6A4890ED5B
:1039B000001AFEF7E7FF6948D0ED000A80EE201AF2
:1039C00011EE104A204613F0B9FF41EC1D0BB0EE8A
:1039D0004D0AF0EE6D0A14F0C7FAB0EE40BAF0EE00
:1039E00060BA604890ED000A5D48D0ED000A30EE04
:1039F000600A10EE101A084613F0A0FF41EC1C0BF1
:103A000053EC1B2B13F063FE41EC190B554800E0FF
:103A100011E0006813F092FF41EC1A0B53EC192BE4
:103A200013F04FFE41EC180B13F0CCFF00EE100A20
:103A30003B4880ED000ABDEC0C8B10BD10B536483C
:103A40000079012827D13B4890ED011AF0EE410A98
:103A500090ED001AB0EE410A3A48D0ED001A3A480B
:103A600090ED001AFEF78EFF3F48D0ED000AB4EE4D
:103A7000E00AF1EE10FA0EDD2E4890ED000A3B4808
:103A800080ED000A2B4890ED010A394880ED000ACC
:103A9000002021490871274890ED011AF0EE410AF3
:103AA00090ED001AB0EE410A2648D0ED001A2648E3
:103AB00090ED001AFEF766FF2B48D0ED000A2D4866
:103AC00090ED001A70EE810AB4EEE00AF1EE10FA01
:103AD00009DD00201049C870274890ED000A2748EA
:103AE00080ED020A10BD0C48007988B9114890EDAC
:103AF000011AF0EE410A90ED001AB0EE410A1C489E
:103B0000D0ED001A194890ED001AFEF73BFF37E0A0
:103B10004DE0000000180240C42800200000484288
:103B2000900000206C29002097030020FC02002058
:103B300000C8AFC750280020EC0000209A9999993E
:103B40009999B93FBC000020B8000020D0000020A7
:103B5000F0000020C8000020C4000020D400002095
:103B6000F8000020F4000020DC000020E400002029
:103B7000E8000020E0000020CC0000209800002099
:103B8000F848D0ED000AF84890ED001A70EEC10A2E
:103B900060EE200AF54890ED001A80EE810AF248A6
:103BA000D0ED000A30EE200AF14880ED020A00BF95
:103BB00098E7F048C079F8B19FEDEF0AEF4880ED43
:103BC000000AEF4890ED000AEE48D0ED000AB4EE8E
:103BD000E00AF1EE10FA06DDEB4890ED000AE74846
:103BE00080ED010A4EE0E84890ED000AB1EE400A8F
:103BF000E24880ED010A45E0E44890ED000AE4481F
:103C0000D0ED000AB4EEE00AF1EE10FA1BDDDE485A
:103C100090ED000ADF48D0ED000A20EE200AD748D8
:103C200080ED000AD84890ED000ADA48D0ED000A8D
:103C300020EE200AD848D0ED000A20EE200ACF4816
:103C400080ED010A1EE0D04890ED000AB1EE400A76
:103C5000D048D0ED000A20EE200AC84880ED000AC6
:103C6000C94890ED000AB1EE400ACA48D0ED000AFA
:103C700020EE200AC848D0ED000A20EE200ABF48F6
:103C800080ED010A704710B52DED0C8BBE4890ED0C
:103C9000000AC248D0ED000A30EE600A10EE101A99
:103CA000084613F04BFE41EC190BB0EE490AF0EE5A
:103CB000690A14F0E9F8B0EE408AF0EE608A1FED70
:103CC000610B53EC102B51EC180B13F063FE56D222
:103CD000B34890ED020AB348D0ED000AB4EEE00A12
:103CE000F1EE10FA41D2AE4890ED020AAD48D0EDA7
:103CF000000A80EE201A11EE104A204613F01EFE34
:103D000041EC1D0BB0EE4D0AF0EE6D0A14F02CF9EB
:103D1000B0EE40BAF0EE60BAA34890ED000A9F48BA
:103D2000D0ED000A30EE600A10EE101A084613F0CB
:103D300005FE41EC1C0B53EC1B2B13F0C8FC41ECB3
:103D4000190B9948006813F0F9FD41EC1A0B53EC7C
:103D5000192B13F0B6FC41EC180B13F033FE00EEF8
:103D6000100A894880ED000A12E08C4890ED000AA4
:103D7000854880ED000A00207E49087008E08748E9
:103D800090ED000A804880ED000A00207949087013
:103D9000BDEC0C8B10BD10B52DED0C8B75488078EB
:103DA000012818D17E4890ED020AF7EE000A30EEA5
:103DB000C00A7E48D0ED000AB4EEE00AF1EE10FA37
:103DC00009D8714890ED000A794880ED000A00207A
:103DD00068498870087067488078E0BB704890ED4B
:103DE000020AF7EE000A30EEC00A7048D0ED000A71
:103DF00080EE201A11EE104A204613F09FFD41EC90
:103E00001D0BB0EE4D0AF0EE6D0A14F0ADF8B0EEF9
:103E100040BAF0EE60BA674890ED000A6448D0ED11
:103E2000000A30EE600A10EE101A084613F086FD04
:103E300041EC1C0B53EC1B2B13F049FC41EC190B10
:103E40005C48006813F07AFD41EC1A0B53EC192B17
:103E500013F037FC00E008E041EC180B13F0B2FD62
:103E600000EE100A484880ED000ABDEC0C8B10BD36
:103E700040480079012813D1494890ED020A4E4884
:103E8000D0ED000AB4EEE00AF1EE10FA08DD444885
:103E900090ED020A494880ED000A0020354908717A
:103EA0003F4890ED020A4448D0ED000A444890EDA6
:103EB000001A70EE810AB4EEE00AF1EE10FA09DDA4
:103EC00000202C49C870274890ED000A284880ED52
:103ED000020A704727480079F0B9314890ED020A8C
:103EE0003648D0ED000A30EE600A1E48D0ED000AD8
:103EF0001D4890ED001A70EEC10A20EE200A3048ED
:103F0000D0ED000A80EE201A174890ED000A31EE3D
:103F1000000A174880ED020A00BFDAE71548C079A9
:103F2000F8B19FED150A154880ED000A144890ED90
:103F3000000A1448D0ED000AB4EEE00AF1EE10FADF
:103F400006DD114890ED000A0C4880ED010A7FE083
:103F50000D4890ED000AB1EE400A084880ED010AD4
:103F600076E02FE0CC000020C0000020E000002020
:103F700098000020C42800200000000038280020FD
:103F8000C8000020BC00002090000020C4000020D9
:103F9000B80000200801002000010020EC000020F3
:103FA000AC28002010010020F000002014010020A7
:103FB000F8000020F4000020180100202C0100204F
:103FC0001C010020FE4890ED000AFE48D0ED000ADA
:103FD000B4EEE00AF1EE10FA1BDDFB4890ED000AAA
:103FE000FA48D0ED000A20EE200AF94880ED000AD8
:103FF000F54890ED000AF548D0ED000A20EE200AC1
:10400000F448D0ED000A20EE200AF14880ED010AC4
:104010001EE0ED4890ED000AB1EE400AEB48D0ED0D
:10402000000A20EE200AEA4880ED000AE64890EDFA
:10403000000AB1EE400AE548D0ED000A20EE200A61
:10404000E448D0ED000A20EE200AE14880ED010AA4
:104050007047E148C0ED092A80ED082A80ED0A3A50
:10406000C0ED0B3A80ED000AC0ED010A80ED061AA2
:10407000C0ED071A704710B52DED0A8BB0EE409ACF
:10408000F0EE609A1FED440AB0EE408A1FED460A3A
:10409000B0EE40AAD14890ED010AD0ED010A20EE21
:1040A000200AD0ED000A90ED001A00EE810A10EE11
:1040B000101A084613F042FC41EC1C0BB0EE4C0AFF
:1040C000F0EE6C0A13F050FFB0EE40BAF0EE60BABA
:1040D00051EC1B0B13F076FC08EE900AC04890EDF3
:1040E000000AC048D0ED000AB4EEE00AF1EE10FA82
:1040F00003DDBB4890ED000A02E0BA4890ED000AEB
:10410000B0EE408AB84890ED000AB4EEC08AF1EEF5
:1041100010FA02DDB0EE480A02E0B34890ED000A62
:10412000B0EE408AB14890ED000ADFEDB10AB4EE7E
:10413000E00AF1EE10FA38D2AE4890ED010ADFED58
:10414000AE0A30EEC00ADFEDAD0A20EE200AA74825
:10415000D0ED000A9FEDAA1A71EE600A9FEDA91A30
:1041600001EE600AB0EE40AA974890ED000ADFED3C
:10417000A60A0AEE200A80ED000A90ED000AF3EE8E
:104180000E0AB4EEE00AF1EE10FA0ED29F4890ED5E
:10419000000ADFED970AB4EEE00AF1EE10FA04DD52
:1041A0009FED9B0A884880ED000A924890ED010A35
:1041B000DFED980AB4EEE00AF1EE10FA0EDD8B485E
:1041C00090ED000ADFED8E0AB4EEE00AF1EE10FA8F
:1041D00004D21FED970A7C4880ED000A834890EDD9
:1041E000000ADFED830AB4EEE00AF1EE10FA15DB07
:1041F000894890F90000401E88490978642202FB32
:104200001010874991F9001001EBC10202EB011176
:1042100000EB41008349898888421BDB7E4890F986
:104220000000401E80490978642202FB10107C497E
:1042300091F9001001EBC10202EB011100EB8100CA
:1042400078498988884252DA7848007800F0070077
:1042500003284CD07648807D10BB342175480EF081
:1042600084FE1FEDBB0A06F055FC012070498875DD
:1042700000204871704890F90000401EC0EBC0005B
:1042800000EB80004FF4C37101EB800000EE100AD8
:10429000B8EEC00A694880ED000A00206449C87081
:1042A0009FED670A78EE800A5D4890F9000000EB08
:1042B0008000000100EE100AB8EEC00A30EEC00A1D
:1042C000414880ED000A9FED5F0A5F4880ED020AD9
:1042D00004214FF4D07006F035FB4FF4D07005F098
:1042E0004EFD192012F006FEBDEC0A8B10BD9FEDAD
:1042F000570A38EE800A3448D0ED000AB4EEE00ADE
:10430000F1EE10FA05D29FED510A38EE800A80EDE9
:10431000000A2D4890ED000A30EE090A30EE290A15
:10432000F0EE080A80EE201A80ED001A90ED000AE7
:10433000B5EEC00AF1EE10FA03D21FEDF10A80EDDE
:10434000000A214890ED000AB4EEC80AF1EE10FA16
:1043500001DD80ED008A3848007840B93448807D1E
:10436000012804D11FEDFC0A174880ED000A00BFA8
:10437000BAE710B52DED108B82B0B0EE40FA2C48A4
:10438000C07B28B9B7EE000A02B0BDEC108B10BD9F
:104390002F4840686F2190FBF1F000EE100AB8EE54
:1043A000C00A1448D0ED020A9FED2A1A70EE810A65
:1043B00030EE200ADFED280A80EE201A4EE00000E1
:1043C000C4000020B8000020900000200801002058
:1043D00038280020000100205C2800206C290020E3
:1043E000EC000020F0000020F40000204803002032
:1043F0000000C8435028002000804F44CDCC4C3FE3
:104400000000BE43B81E453F7B142E3EA80200208C
:104410000000484200405844850300207B030020F0
:1044200086030020EC2800207A0300209703002058
:10443000C4280020004C0040840300209400002089
:10444000000016430000B4C2980000200000C842DB
:10445000A02A00200000B442000034439FEDCB0AA4
:1044600021EE000A10EE104A204613F067FA41ECE4
:104470001D0BB0EE4D0AF0EE6D0A13F011FDB0EE1B
:1044800040BAF0EE60BA1FEE100A13F057FA41EC92
:104490001C0B53EC1B2B13F01AF941EC190BBC4805
:1044A000D0ED020A1FED141A80EE810ADFEDB70A83
:1044B00020EE200A10EE104A204613F03FFA41EC9D
:1044C0001E0BB0EE4E0AF0EE6E0A13F0E9FCB0EEF1
:1044D00040DAF0EE60DA9FEDAF0B53EC102B51ECAD
:1044E0001D0B13F0F4F841EC1B0BA94890ED010AE9
:1044F00010EE101A084613F021FA41EC1C0B53EC95
:104500001B2B13F03DF841EC1A0B53EC192B13F055
:1045100037F8CDE900019DED000B51EC100B13F0C5
:1045200051FA08EE100A18EE100A9C4908609C48DF
:1045300090ED000AF7EE000AB4EEE00AF1EE10FA90
:1045400023DD90ED010AF7EE000AB4EEE00AF1EE89
:1045500010FA1ADD90ED020AF7EE000AB4EEE00A56
:10456000F1EE10FA11DD90ED000A30EE080AD0ED00
:10457000010A30EE200AD0ED020A30EE600AF0EEB9
:10458000000A80EE201AB0EE418A854890ED030AB9
:1045900080ED040A90ED020A80ED030A90ED010A15
:1045A00080ED020A90ED000A80ED010A80ED008A9C
:1045B0009FED7C0AB4EEC08AF1EE10FA03DD06200E
:1045C000794908703FE09FED790AB4EEC08AF1EEB8
:1045D00010FA05DD052074490870F2EE0E8A32E00B
:1045E0009FED730AB4EEC08AF1EE10FA05DD0420E7
:1045F0006D490870F3EE0E8A25E09FED6E0AB4EE69
:10460000C08AF1EE10FA05DD032067490870DFED7E
:104610006A8A18E09FED690AB4EEC08AF1EE10FADA
:1046200005DD022060490870F3EE0E8A0BE09FED75
:10463000640AB4EEC08AF1EE10FA04DD01205A4992
:104640000870F2EE0E8A564890ED000AF7EE000A66
:10465000B4EEE00AF1EE10FA7EDD90ED010AF7EE1D
:10466000000AB4EEE00AF1EE10FA7BDD90ED000AEC
:10467000D0ED040A30EE600A524880ED000A5FED8A
:104680008A0A88EEA00ADFED410A20EE200A10EE29
:10469000104A204613F052F941EC1C0BB0EE4C0AC4
:1046A000F0EE6C0A13F08CFBB0EE40AAF0EE60AABC
:1046B0004448006813F042F941EC1B0B53EC1A2BF1
:1046C00013F077F841EC190B13F07CF93D490860C1
:1046D0003D4890ED000AF7EE000AB4EEE00AF1EE74
:1046E00010FA2EDD90ED010AF7EE000AB4EEE00AB2
:1046F000F1EE10FA25DD90ED020AF7EE000AB4EEB5
:10470000E00AF1EE10FA1CDD084690ED000AF6EE24
:10471000000A20EE200A2C48D0ED000AB5EE001A5F
:1047200000EE810AD0ED010A9FED281A00EE810A01
:10473000D0ED020A9FED261A00EE810A084680EDB0
:10474000000A214890ED010A80ED020A90ED000A6E
:1047500080ED010A1B4800E004E090ED000A1A48D1
:1047600080ED000A0D4890ED000A0DE6D0ED000A3C
:1047700091ED001A60EE810A90ED011AD1ED011A57
:1047800041EE210AB0EE600A70470000DB0F49409D
:10479000502800206666666666264A40280100208A
:1047A0000029002000C01E442001002000400D44CC
:1047B0000080E0430000B74300003442008088439B
:1047C0000000114324010020142900209A99193E69
:1047D000CDCCCC3D9FEDFB0AFB4880ED000A9FED60
:1047E000F90AFA4880ED000A9FEDF60AF84880EDD4
:1047F000000AF848007801282AD002283BD0032874
:1048000076D1F54890ED000AF44880ED000AF448AE
:1048100090ED000AF34880ED000AF34890ED000A9D
:10482000F24880ED000AB1EE080AF14880ED000A76
:104830009FEDF00AF04880ED000A9FEDE20AEF4894
:1048400080ED000A9FEDDF0AED4880ED000A78E078
:10485000EC4890ED000AE14880ED000AEA4890ED4E
:10486000000AE04880ED000AE84890ED000ADF48C1
:1048700080ED000A65E0E6480078012812D1E5489D
:1048800090ED000AD54880ED000AE34890ED000A5B
:10489000D44880ED000AE14890ED000AD34880ED4D
:1048A000000A4CE0DA480078022822D1DC4890ED7A
:1048B000000ACA4880ED000ADA4890ED000AC948AB
:1048C00080ED000AD84890ED000AC84880ED000A43
:1048D0009FEDD60AC64880ED000A9FEDD50AC6486E
:1048E00080ED000A9FEDD30AC44880ED000A26E05F
:1048F00026E0D14890ED000AB84880ED000ACF4884
:1049000090ED000AB74880ED000ACD4890ED000A0E
:10491000B64880ED000AB1EE040AB54880ED000A01
:104920009FEDC40AB44880ED000A9FEDA60AB34883
:1049300080ED000A9FEDA30AB14880ED000A00E077
:1049400000BF00BF9FED9F0ABE4880ED000A704780
:1049500000B52DED0C8B83B0BB4890ED010AB94832
:10496000D0ED000A30EEC00AB84880ED000A0068B9
:1049700012F0E4FF41EC190BB0EE490AF0EE690ABF
:1049800013F082FAB0EE408AF0EE608A9FEDB00B31
:1049900053EC102B51EC180B12F0E4FF05D29FEDF5
:1049A000890AAA4880ED000A33E0A848006812F09E
:1049B000C5FF41EC1D0BB0EE4D0AF0EE6D0A13F091
:1049C00063FAB0EE40BAF0EE60BAA048006812F0A8
:1049D000B5FF41EC1D0B9FED9E0B53EC102B12F01D
:1049E00076FE41EC1C0B53EC1B2B12F0E2FE41EC6B
:1049F000190B9648006812F0A1FF41EC1A0B53EC1A
:104A0000192B12F05EFE41EC180B12F0DBFF8F4900
:104A100008609148007870BB8C4890ED000A8F4880
:104A2000D0ED000A70EE600A864890ED000A9FED16
:104A30008C1A01EE200A8548D0ED000A9FED891AF4
:104A400001EE200AD0ED000A844890ED001AF0EE45
:104A5000001A41EEC10A844890ED001A70EE810AF6
:104A60009FED581A01EE200A804880ED010A0120CE
:104A7000794908702CE0FFE7744890ED000A774808
:104A8000D0ED000A30EE600AF7EE080A20EE200AA8
:104A90006E48D0ED000A9FED761A01EE200AD0EDA7
:104AA000000A6E4890ED001AF0EE001A41EEC10ABD
:104AB0006D4890ED001A70EE810A9FED421A01EEEA
:104AC000200A6A48D0ED010A30EE200A80ED010A82
:104AD000684890ED000A10EE100A12F02FFF41EC2A
:104AE000180B624890ED010A10EE101A084612F0F9
:104AF00025FF41EC1A0BB0EE4A0AF0EE6A0A13F0F9
:104B0000C3F9B0EE409AF0EE609A53EC182B51ECDA
:104B1000190B12F03FFF2FD2544890ED010A10EE0E
:104B2000101A084612F00AFF41EC1B0BB0EE4B0ABC
:104B3000F0EE6B0A13F0A8F9B0EE409AF0EE609A2E
:104B40004A4890ED010A4B48D0ED000A20EE200AB9
:104B500010EE101A084612F0F1FE41EC1A0B53EC5D
:104B6000192B12F026FE41EC180B12F02BFF00EE71
:104B7000100A3E4880ED010A384890ED000A3A4894
:104B800080ED000A314890ED000A344880ED000ABB
:104B9000364890ED000A8DED000A90ED010A8DED8A
:104BA000010A90ED020A8DED020A9DED021ADDED7B
:104BB000010A9DED000AFDF743FD03B0BDEC0C8B2F
:104BC00000BD000000000000EC010020F00100200A
:104BD000F4010020B4000020F80100202C02002085
:104BE000FC010020300200200002002034020020DE
:104BF000B80100200AD7A33CBC010020C00100205E
:104C0000C4010020300100203401002038010020C0
:104C100004020020080200200C02002010020020E4
:104C200014020020180200201C020020CDCC2C40D1
:104C3000CDCCCC3C0AD7233C20020020240200200B
:104C400028020020380200206C290020BC0200202D
:104C5000000000000000F83FC8020020C002002051
:104C60003333333FCDCC4C3DC402002038280020E4
:104C7000AE47613D9400002010B52DED0E8BB0EED7
:104C8000408AFE4890F8210001280DD1FC4890EDA3
:104C9000000ADFEDFC0AB4EEE00AF1EE10FA03DDE3
:104CA0009FEDF80A80ED000AF74890ED010A38EE12
:104CB000400AF64880ED000A006812F03FFE41EC21
:104CC0001A0BB0EE4A0AF0EE6A0A13F0DDF8B0EE05
:104CD000409AF0EE609A9FEDEE0B53EC102B51ECE6
:104CE000190B12F03FFE05D21FED4A0AE74880ED8E
:104CF000000A33E0E548006812F020FE41EC1E0B8C
:104D0000B0EE4E0AF0EE6E0A13F0BEF8B0EE40CAF6
:104D1000F0EE60CADD4890ED000AF6EE000A20EEE3
:104D2000200A10EE101A084612F008FE41EC1D0B86
:104D300053EC1C2B12F03DFD41EC1A0BD3480068DC
:104D400012F0FCFD41EC1B0B53EC1A2B12F0B9FCDA
:104D500041EC190B12F036FECC490860CE4890EDBC
:104D6000000AF0EE000AB4EEE00AF1EE10FA0ADDF5
:104D7000C64890ED000AF0EE000A20EE200AC7486F
:104D800080ED000A09E0C14890ED000AF0EE000A4B
:104D900020EE200AC14880ED000AB94890ED000AD3
:104DA000BF4880ED000AFFF7D3FDBDEC0E8B10BDB0
:104DB00010B52DED068BF0EE408AB34890ED020A57
:104DC00038EEC00AB74880ED000A006812F0B6FD60
:104DD00041EC1A0BB0EE4A0AF0EE6A0A13F054F8EE
:104DE000B0EE409AF0EE609A9FEDAF0B53EC102BB3
:104DF00051EC190B12F0B6FD04D21FED8E0AA94832
:104E000080ED000AAA4890ED000AA648D0ED000AFD
:104E100020EE200AA748D0ED000AA74890ED001A1E
:104E200000EE810A9F48D0ED000AA44890ED001AD8
:104E300070EEC10AA24890ED001A01EE200A9848CF
:104E400080ED020A90ED020A10EE101A084612F0E8
:104E500075FD41EC1A0BB0EE4A0AF0EE6A0A13F047
:104E600013F8B0EE409AF0EE609A51EC190B12F084
:104E7000A9FD08EE100A914890ED000A914880EDD6
:104E8000000A884890ED000A8C4880ED000A9FEDEA
:104E90007D0AB4EEC08AF1EE10FA0BDD804890ED89
:104EA000020ADFED780A20EE200AC0EE080AC0ED03
:104EB000020A0AE0804890ED000A7A48D0ED000A24
:104EC00030EE200A7C4880ED000ABDEC068B10BD58
:104ED00010B52DED068B84B0044694ED000A6A48A7
:104EE000D0ED000A30EE600A774880ED000A94EDBC
:104EF000010A6548D0ED010A30EE600A634880ED92
:104F0000000A94ED020A6048D0ED020A30EE600A11
:104F1000644880ED000A6C4890ED000AFFEE000A3C
:104F2000B4EEE00AF1EE10FA0CDD90ED000AF7EEB7
:104F3000000AB4EEE00AF1EE10FA03D21FEDDF0A28
:104F400080ED000A514890ED000AFFEE000AB4EE31
:104F5000E00AF1EE10FA0CDD90ED000AF7EE000A1F
:104F6000B4EEE00AF1EE10FA03D21FEDEA0A80ED8A
:104F7000000A4C4890ED000ADFED540AB4EEE00A56
:104F8000F1EE10FA0CDD90ED000ADFED510AB4EEFF
:104F9000E00AF1EE10FA03D21FEDF60A80ED000AE6
:104FA000494890ED000AB5EEC00AF1EE10FA14D1AE
:104FB000364890ED000AB5EEC00AF1EE10FA0CD1B9
:104FC000384890ED000AB5EEC00AF1EE10FA04D1AF
:104FD000042140480CF06EFD05E003F0E9FD0421DA
:104FE0003C480CF069FD3848006812F0A7FC41EC21
:104FF0001A0BB0EE4A0AF0EE6A0A12F045FFB0EE64
:10500000409AF0EE609A9FED340B53EC102B51EC6C
:10501000190B12F0A7FC17D8314890ED000A2A4866
:10502000D0ED000A20EE200AD0ED000A2D4890EDC8
:10503000001A70EEC10A2C4890ED001A01EE200A09
:10504000174880ED000A84E01F48006812F076FCE3
:1050500041EC1A0BB0EE4A0AF0EE6A0A12F014FFA5
:10506000B0EE409AF0EE609A9FED200B53EC102BBF
:1050700051EC190B12F076FC54D83BE0C428002008
:10508000900000200000C84250280020CC010020E1
:10509000000000000000E03F9001002038020020E6
:1050A00038280020D00100209A9999999999B93F00
:1050B000B8010020BC010020C4010020DC01002058
:1050C000C0010020E8010020C8010020CDCC4CBE6A
:1050D000CDCC4C3E0008024000000000000014400F
:1050E000A8010020D4010020AC0100200000000035
:1050F00000003440FC4890ED000AFC48D0ED000A66
:1051000020EE200AD0ED000AF94890ED001A70EE6A
:10511000C10AF84890ED001A01EE200AF64880ED29
:10512000000A16E0F54890ED000AF048D0ED000ABC
:1051300020EE200AD0ED000AED4890ED001A70EE46
:10514000C10AEF4890ED001A01EE200AEA4880ED0E
:10515000000AEC48006812F0F1FB41EC1A0BB0EECB
:105160004A0AF0EE6A0A12F08FFEB0EE409AF0EEB4
:10517000609A1FED270B53EC102B51EC190B12F01A
:10518000F1FB17D8E04890ED000ADE48D0ED000AA8
:1051900020EE200AD0ED000ADC4890ED001A70EEF7
:1051A000C10ADB4890ED001A01EE200AD24880EDDA
:1051B000010A47E0D348006812F0C0FB41EC1A0B2B
:1051C000B0EE4A0AF0EE6A0A12F05EFEB0EE409AC5
:1051D000F0EE609A1FED3B0B53EC102B51EC190BCA
:1051E00012F0C0FB17D8CB4890ED000AC548D0EDAF
:1051F000000A20EE200AD0ED000AC44890ED001A03
:1052000070EEC10AC44890ED001A01EE200ABA48B7
:1052100080ED010A16E0C14890ED000AB948D0EDD2
:10522000000A20EE200AD0ED000AB84890ED001ADE
:1052300070EEC10ABA4890ED001A01EE200AAE489D
:1052400080ED010AB74890ED000AB748D0ED000A9A
:1052500020EE200AD0ED000AB44890ED001A70EE5E
:10526000C10AB34890ED001A01EE200AA24880ED71
:10527000020A9E4890ED000A9D4880ED000AA14870
:1052800090ED000AA14880ED000AA74890ED000AC1
:10529000A64880ED000A984890ED000AD0ED000A7B
:1052A00020EE200AD0ED010A90ED011A00EE810AED
:1052B00010EE101A084612F041FB41EC1A0BB0EE4A
:1052C0004A0AF0EE6A0A12F04FFEB0EE409AF0EE93
:1052D000609A51EC190B12F075FB08EE100A954814
:1052E00090ED000AB4EEC08AF1EE10FA18DD8248A3
:1052F00090ED000A8F48D0ED000A20EE200AC0EEA3
:10530000080A7D48C0ED000A90ED010A8948D0EDF9
:10531000000A20EE200AC0EE080A7748C0ED010A14
:10532000754890ED020A10EE101A084612F006FBBE
:1053300041EC1A0BB0EE4A0AF0EE6A0A12F0A4FD34
:10534000B0EE409AF0EE609A51EC190B12F03AFB75
:1053500008EE100A9FED780AB4EEC08AF1EE10FA5A
:105360000ADD654890ED020ADFED730A20EE200A9F
:10537000C0EE080AC0ED020A5F4890ED000A8DED0C
:10538000010A90ED010A8DED020A90ED020A8DED01
:10539000030A9DED031ADDED020A9DED010AFDF7FA
:1053A0004FF9664890ED000AD0ED000A20EE200A81
:1053B000D0ED010A90ED011A00EE810A10EE101AEC
:1053C000084612F0BBFA41EC190BB0EE490AF0EEB8
:1053D000690A12F0C9FDB0EE40AAF0EE60AA51ECE5
:1053E0001A0B12F0EFFA08EE100A04B0BDEC068BAF
:1053F00010BD10B52DED108B84B05148B0F90000F0
:1054000000EE100AB8EEC00A4E4880ED000A6FF0B8
:1054100063004B4908804C48807B18B14A48007FA4
:1054200005285FDD494890ED020ADFED490A30EEBC
:10543000200A10EE101A084612F080FA41EC190BFF
:10544000B0EE490AF0EE690A12F01EFDB0EE408A95
:10545000F0EE608A1FEDE00B53EC102B51EC180BB3
:1054600012F080FA3ED23B4890ED000ADFED3A0A96
:10547000B4EEE00AF1EE10FA34D290ED000AF2EE4A
:10548000040AB4EEE00AF1EE10FA2BDD334800789E
:10549000012827D1324890F9000012F0F9F941ECC7
:1054A000180B2A4890ED020ADFED290A30EE200A97
:1054B000DFED270A80EE201A9FED2A0A21EE000A6E
:1054C00010EE104A204612F039FA41EC1E0BB0EEF5
:1054D0004E0AF0EE6E0A12F0E3FCB0EE40DAF0EEA7
:1054E00060DA41E0A1E0000098010020C80100203E
:1054F000D40100209C0100203828002088010020D1
:105500008C010020CC010020B0010020D801002037
:10551000B4010020A0010020A4010020900100207F
:1055200094010020B8010020D0010020DC010020FF
:10553000C001002094000020000048426C29002097
:10554000DC020020EC010020C428002050280020AC
:10555000000034433C030020000090428B030020F5
:1055600089030020DB0F49409FEDFA0B53EC102B11
:1055700051EC1D0B12F0ABF841EC1B0BF74890ED12
:10558000020A5FED0D0A70EE200A1FED0F1A80EE81
:10559000810A5FED0C0A20EE200A10EE104A204628
:1055A00012F0CCF941EC1F0BB0EE4F0AF0EE6F0A8F
:1055B00012F006FCB0EE40DAF0EE60DAE84800687F
:1055C00012F0BCF941EC1E0B53EC1D2B12F07FF8CE
:1055D00041EC1C0B53EC1B2B12F073F841EC190B34
:1055E000DE4890ED010A10EE101A084612F0A6F9F6
:1055F00041EC1A0B53EC192B11F0C2FF53EC182B92
:10560000CDE900019DED000B51EC100B12F059F8A3
:10561000CDE902019DED020B51EC100B12F0D2F915
:1056200000EE100ACF4880ED010ACF4890F8230021
:1056300000287DD1CD4890ED000ADFEDCD0A30EE97
:10564000200A10EE101A084612F078F941EC190BF6
:10565000B0EE490AF0EE690A12F016FCB0EE408A8C
:10566000F0EE608A9FEDC30B53EC102B51EC180B3E
:1056700012F078F93CD2BB48D0ED020AB0EE600AD5
:10568000FFF796FBB748D0ED010AB0EE600AFFF7CE
:10569000F3FAB548007F401CB3490877AF4A92ED52
:1056A000010ABDEEC00A10EE102A13B2AD4A92ED07
:1056B000010ABDEEC00A10EE102A11B2AB4A92EDFB
:1056C000000AF2EE040A20EE200ABDEEC00A10EE37
:1056D000102A10B2A24A92ED000ABDEEC00A10EEE6
:1056E000102A12B20BF035FF04B0BDEC108B10BDC8
:1056F00000209D4908779D48006812F01FF941EC91
:105700001B0BB0EE4B0AF0EE6B0A12F0BDFBB0EED5
:1057100040AAF0EE60AA9FED990B53EC102B51ECD0
:105720001A0B11F0CEFF41EC190BB0EE490A00E064
:1057300076E0F0EE690A12F0A7FBB0EE408AF0EED8
:10574000608A9FED8C0B53EC102B51EC180B12F070
:1057500009F934D28348D0ED020AB0EE600AFFF7AF
:1057600027FB8048D0ED010AB0EE600AFFF784FA0B
:105770007A4A92ED010ABDEEC00A10EE102A13B269
:10578000784A92ED010ABDEEC00A10EE102A11B25D
:10579000764A92ED000AF2EE040A20EE200ABDEEEF
:1057A000C00A10EE102A10B26D4A92ED000ABDEE4A
:1057B000C00A10EE102A12B20BF0CBFE94E7694833
:1057C000D0ED020AB0EE600AFFF7F2FA0120664956
:1057D0008873624A92ED010ABDEEC00A10EE102AEB
:1057E00013B2604A92ED010ABDEEC00A10EE102A13
:1057F00011B25E4A92ED000AF2EE040A20EE200A8F
:10580000BDEEC00A10EE102A10B2554A92ED000A01
:10581000BDEEC00A10EE102A12B20BF09AFE60E044
:10582000524890ED000ADFED520A30EE200A10EEE9
:10583000101A084612F082F841EC190BB0EE490A32
:10584000F0EE690A12F020FBB0EE408AF0EE608ABA
:105850009FED480B53EC102B51EC180B12F082F813
:1058600005D24148007F401C3F49087702E00020F4
:105870003D49087701203C4988733A48D0ED020A37
:10588000B0EE600AFFF794FA3648D0ED010AB0EEA8
:10589000600AFFF7F1F9314A92ED010ABDEEC00A44
:1058A00010EE102A13B22F4A92ED010ABDEEC00A83
:1058B00010EE102A11B22D4A92ED000AF2EE040AFF
:1058C00020EE200ABDEEC00A10EE102A10B2244AC3
:1058D00092ED000ABDEEC00A10EE102A12B20BF0D3
:1058E00038FE2848B0F90000962804DC2548B0F9B5
:1058F0000800962800DDF7E61C48006812F01EF844
:1059000041EC190BB0EE490AF0EE690A12F0BCFA4C
:10591000B0EE408AF0EE608A9FED1B0B53EC102B2B
:1059200051EC180B12F01EF834D20C4890ED000A1E
:10593000DFED170AB4EEE00AF1EE10FA2AD290ED8C
:10594000010A084880ED010A0120074981F8230077
:105950008AE000000000000000C0474050280020FE
:105960003C03002098000020C4280020EC01002007
:105970000000C8427B14AE47E17A843F000000007B
:1059800000003E40CC020020000000000000F03F7C
:1059900000000244FE4890ED000A5FED030AB4EEF9
:1059A000E00AF1EE10FA43D2FA480088F949098971
:1059B00010FB01F000283BDCF6480088F549098916
:1059C00010FB01F010F10A0F32DDF248B0F90000CF
:1059D000F049B1F9081088422AD0EE48D0ED010A0A
:1059E000B0F9080000EE100AB8EEC00A20EE800AF6
:1059F000E848B0F9000000EE900AF8EEE00AE54849
:105A000090ED031A00EEC10AB0F90800E149B1F9BE
:105A10000010401A00EE900AF8EEE00A80EE201A1C
:105A2000DD4880ED011A0120DC4981F823001BE0EC
:105A3000D74890ED000ADFEDDA0AB4EEE00AF1EEA5
:105A400010FA11D2D0ED010AD248B0F9000000EEF0
:105A5000100AB8EEC00A30EE800ACF4880ED010A85
:105A60000120CE4981F8230000BF3DE610B5C848AB
:105A700090ED010ADFEDCB0AB4EEE00AF1EE10FA88
:105A800005DDC948007800F0070000B910BDC7481F
:105A9000007807284BD2DFE800F04A3E44382D0456
:105AA0000F00B3EE010AC24880ED000A9FEDC10A63
:105AB000C14880ED000A3BE00120B8494871002050
:105AC0008871B948007800F00700022808D14FF427
:105AD0009670BA4908809FEDBA0AB74880ED000A6F
