:020000040800F2
:10000000C8FD012029820008ED030008EF03000865
:10001000F3030008F7030008FB03000800000000DA
:10002000000000000000000000000000FF030008C6
:1000300001040008000000000304000841820008D9
:10004000438200084382000843820008438200087C
:10005000438200084382000843820008438200086C
:10006000438200084382000843820008438200085C
:10007000438200084382000843820008438200084C
:1000800043820008F93A00084382000843820008CE
:1000900009400008438200084382000843820008A8
:1000A000438200084382000843820008438200081C
:1000B000438200084382000843820008438200080C
:1000C00043820008438200084382000843820008FC
:1000D0004382000843820008633B00084382000813
:1000E00043820008438200084382000843820008DC
:1000F00043820008438200084382000843820008CC
:1001000043820008438200084382000843820008BB
:1001100043820008438200084382000843820008AB
:10012000438200085F0300084382000843820008FE
:10013000438200084382000843820008438200088B
:10014000438200084382000843820008438200087B
:10015000438200084382000843820008438200086B
:10016000438200084382000843820008438200085B
:10017000438200084382000843820008438200084B
:100180004382000843820008DFF80CD008F0A6FB89
:10019000004800479D010008C8FD01201CB507F07C
:1001A000AAFF4FF4A06005F02BFE04F002FF00F060
:1001B00029F903F047FE07E04FF40041734805F0CA
:1001C00086FF322000F076F900F0FEFA0128F3D025
:1001D0004FF400416D4805F06FFFC82000F06AF948
:1001E00000F0DAFA0021084604F081FE2220684976
:1001F00008804FF6FF700021062366A2CDE90010AB
:100200003C21002004F0E2FA4FF6FF7000210323A6
:1002100062A2CDE900105021002004F0D7FA4FF679
:10022000FF70002103235EA2CDE9001064210020AD
:1002300004F0CCFA4FF6FF700021032359A2CDE958
:1002400000107821002004F0C1FA4FF6FF70002161
:10025000052355A2CDE900108C21002004F0B6FA48
:100260004FF6FF700021052351A2CDE90010A02117
:10027000002004F0ABFA4FF6FF70002106234EA2D7
:10028000CDE90010B421002004F0A0FA00204C4970
:10029000086063E04B48007800285FD04A48016856
:1002A0004A4800F085FC0021084604F020FE222088
:1002B0003749088000204649086034E0002045495D
:1002C000086014E042480068C0F1280000EB80009C
:1002D0003D49096801EB00103E490968405C2C4922
:1002E000891C08803B480068401C3A49086039482E
:1002F00000685028E6DB50203649086009E04FF4DA
:1003000078402349891C088032480068401C3149E4
:10031000086030480068B0F5A07FF0DB2C4800682A
:10032000401C2B4908602A4800682928C6DB2A4857
:100330000068012804D12448006801F01BFE03E096
:100340002148006801F007FC02F018FB234880ED0B
:10035000000A03F025FF00201A4908709AE710B53B
:100360001F49204807F051F878B11F491D4807F090
:100370001BF81B491B4807F071F8002007F00CF927
:1003800001201049087007F007F910BD0000024075
:10039000FEFF1F6C73746167653A00006E753A006A
:1003A00072723A0048643A0053746F703A00000069
:1003B000446973743A000000556C4469733A000054
:1003C000800200200000002038000020AC02002045
:1003D0001000002014000020D4000020180000208D
:1003E000008800102864024000080010704700BF19
:1003F000FEE700BFFEE700BFFEE700BFFEE7704775
:10040000704770471CB50121082006F01FF8012134
:10041000042006F01BF80121202006F017F84FF405
:100420000040009001208DF8040000208DF80600A7
:100430008DF807008DF8050069461A4805F0C0FDE3
:1004400000208DF8040001208DF807004003009083
:1004500040000090400000906946134805F0B0FD50
:1004600001208DF8040002208DF805004020009046
:1004700069460E4805F0A4FD4FF40041094805F017
:100480001BFE1CBD04204FF0E02148610F210848ED
:10049000C1724FF000004FF0E02188614FF0010081
:1004A000086170470000024000080240001402404A
:1004B00018ED00E010B5002107E04AF2104200BF3D
:1004C0001300A2F10102FBD1491C8142F5D310BDFA
:1004D00010B5002106E0282200BF1300A2F101029E
:1004E000FBD1491C8142F6D310BD00001CB501218F
:1004F00040F2831005F0AAFF0D220421D74805F031
:10050000EAFD0D220621D54805F0E5FD0D22092161
:10051000D24805F0E0FD0D220A21D04805F0DBFDB0
:100520000D220621CE4805F0D6FD0D220721CC482C
:1005300005F0D1FD0D220B21CA4805F0CCFD0D229E
:100540000C21C84805F0C7FD0D220E21C54805F055
:10055000C2FD0D220621C44805F0BDFD0D22072174
:10056000C14805F0B8FD4FF4CA60009002208DF834
:10057000040003208DF8050000208DF806000120FE
:100580008DF807006946B54805F01AFDC0200090B7
:100590006946B34805F014FD4FF4B0400090694639
:1005A000B04805F00DFDC02000906946AE4805F04A
:1005B00007FD0121402005F049FF4FF4C070009075
:1005C00001208DF8040003208DF8050000208DF82F
:1005D00006008DF807006946A44805F0F1FC80216B
:1005E000A24805F06BFD4FF48071A04805F064FD52
:1005F00000F046F900220821984805F06CFD4FF400
:100600008070009003208DF8050002208DF8040012
:1006100000208DF8060001208DF8070069468F48FC
:1006200005F0CEFC0021084605F030FE1CBD1FB5CC
:100630000121084605F01BFF0020ADF80000ADF8D1
:1006400002002020ADF804008020ADF80600002054
:10065000ADF80800ADF80A00ADF80C00684606F0E9
:100660002DFF1FBD30B591B005460C460121880510
:1006700005F0ECFE39208DF8040003208DF805000C
:100680008DF8060001208DF8070001A805F0BDFBDC
:10069000774806F035FD4FF00070029075480390E2
:1006A000049500200590069407904FF48060089010
:1006B0008000099040000A9040110B9040020C907D
:1006C00004200D9003200E9000200F901090012226
:1006D0001021674806F07CFE02A9654806F0B2FDCD
:1006E00011B030BDF8B506460F4614461D46C5F399
:1006F00047012C2000F0F4F969462A2000F01BFA8B
:1007000005F001009DF8001001EA800000909DF8BE
:1007100000102A2000F0E4F9C4F38701292000F03A
:10072000DFF969462A2000F006FA04F003009DF87C
:100730000010084000909DF800102A2000F0D0F929
:10074000F8BD10B500240FE04B4A02EB440251788B
:10075000494A12F8140000F0C3F9012800D110BD75
:100760000520FFF7A7FE641C4A2CEDD30020F6E716
:1007700010B500240CE0404A02EB440251783E4A96
:1007800012F8140000F0ACF9012800D110BD641C6F
:100790004A2CF0D30020F9E710B50121344806F0C7
:1007A0008BFD012006F0E9FE012006F0F5FE10BDEC
:1007B00010B500212E4806F07FFD002006F0DDFE7A
:1007C000002006F0E9FE10BD08B500200090FFF7FC
:1007D0008DFE0A20FFF76EFE8021122000F080F9C6
:1007E000012800D108BD0A20FFF764FE69461C20DD
:1007F00000F0A1F9012800D1F4E79DF800007F285E
:1008000001D00120EEE7FFF712FF4FF4FA411B4839
:10081000FFF728FFFFF795FF012800D1E2E7C82383
:100820004FF4A07200210846FFF75CFF0020D9E7D3
:1008300010B5FFF7FCFE4FF4FA411048FFF712FF26
:10084000FFF796FF012800D110BDC8234FF4A07216
:1008500000210846FFF746FF0020F5E700000240B0
:1008600000040240001C0240002002400018024028
:100870002864024028000550F8920008AC020020CD
:100880001CB50121022005F0E1FD4FF4406000900D
:1008900003208DF8050001208DF804008DF8060076
:1008A00000208DF807006946C04805F089FB1CBD93
:1008B000642001E0411EC8B20028FBD1704700B59A
:1008C0004FF48060B9491A310880FFF7F1FF4FF407
:1008D0000060B6491A310880FFF7EAFF4FF48060E4
:1008E000B24918310880FFF7E3FF4FF40060AF49C9
:1008F00018310880FFF7DCFF00BD00B54FF4006041
:10090000AA491831088040100880FFF7D1FFA74896
:100910001030006808B9012000E0002010F4006FDA
:1009200001D0002000BD4FF40060A0491A310880BA
:10093000FFF7BEFF9D481030006810F4006F01D033
:100940000020EFE74FF4006098491A310880FFF764
:10095000AFFF0120E6E700B54FF4806093491A31FC
:100960000880FFF7A5FF4FF4006090491A31088016
:10097000FFF79EFF4FF480608C4918310880FFF725
:1009800097FF4FF4806089491A310880FFF790FF84
:1009900000BD00B54FF4806084491A310880FFF72C
:1009A00087FF4FF40060814918310880FFF780FF0E
:1009B0004FF480607D4918310880FFF779FF4FF4CC
:1009C00080607A491A310880FFF772FF00BD00B5D8
:1009D0004FF4806075491A310880FFF769FF4FF4C2
:1009E0000060724918310880FFF762FF4FF48060A1
:1009F0006E4918310880FFF75BFF6C4810300068C3
:100A000010F4006F08D04FF4806068491A310880F4
:100A1000FFF74EFF002000BD4FF4806063491A319C
:100A20000880FFF745FF0120F5E700B502460823DF
:100A30001FE04FF480605D491A310880FFF738FFEE
:100A400012F0800F05D04FF400605849183108802B
:100A500004E04FF4006055491A3108805006020E38
:100A6000FFF726FF4FF48060504918310880FFF7E8
:100A70001FFF1800A3F10101CBB2DAD14FF480605F
:100A80004A491A31088000BD00B508230022180227
:100A900046491831088017E05006020E4FF4806076
:100AA00042491A310880FFF703FF4FF480603F4945
:100AB00018310880FFF7FCFE3C481030006810F445
:100AC000006F01D042F001021800A3F10101CBB286
:100AD000E2D14FF4806035491A310880104600BDDC
:100AE00030B505460C46FFF708FF4220FFF79DFF93
:100AF000FFF76DFF18B9FFF7E2FE012030BDFFF7E9
:100B0000D7FE2846FFF791FFFFF761FF18B9FFF7FF
:100B1000D6FE0120F2E7FFF7CBFE2046FFF785FF68
:100B2000FFF755FF18B9FFF7CAFE0120E6E7FFF708
:100B3000C6FE0020E2E770B506460D46FFF7DDFE73
:100B40004220FFF772FFFFF742FF18B9FFF7B7FE29
:100B5000012070BDFFF7ACFE3046FFF766FFFFF7E0
:100B600036FF18B9FFF7ABFE0120F2E7FFF7A7FE4B
:100B7000FFF79EFEFFF7C1FE4320FFF756FFFFF78A
:100B800026FF18B9FFF79BFE0120E2E7FFF790FE72
:100B9000FFF77AFF04462C70FFF78AFEFFF7F9FE95
:100BA000FFF786FEFFF78BFE0020D2E7000402402D
:100BB00070B503460C4600200021002200BF1EE055
:100BC0000F25B0FBF5F2002116E0151D4543561C1C
:100BD00056437608C6EB0616AD1BED1C05EB8505E6
:100BE00003EBC5158E0035F816502D1200EB80066C
:100BF00004EB06167554491C5029E6D3401C2928DD
:100C0000DED370BD70B503460C46002000210022E3
:100C100000BF1EE00F25B0FBF5F2002116E0151D08
:100C20004543561C56437608C6EB0616AD1BED1C15
:100C300005EB850503EBC5158E0035F816502D1212
:100C400000EB800604EB06167554491C5029E6D3C8
:100C5000401C2928DED370BD2DE9F04F2DED048B0B
:100C6000BFB004464FF0000B282135A807F0F5FA75
:100C7000A4210CA807F0F1FA00200B900A9009902B
:100C80000890079006900590049000260025804665
:100C9000814600278246039002900190FD4908603A
:100CA000FD490860FD4908609FEDFD0BFE4880EDA1
:100CB000000B0020FD490860FD49086000BF9CE072
:100CC00000200B90F949086007900690002667E025
:100CD000C7F1280000EB800006EB0010C01C205C70
:100CE000C7F1280101EB810106EB0111615C401A9B
:100CF000099006F11400502812DAC7F1280000EB21
:100D0000800006EB0010C01C215CC7F1280000EB3E
:100D1000800006EB00101430205C081A089003E0F5
:100D2000E4480068801C08900B990998884223DDEC
:100D3000E0490998096888421EDDDE49089809687B
:100D4000884219DDC7F1280000EB800006EB001097
:100D5000205CD649096888420EDD09980B90C7F1DE
:100D6000280000EB800006EB0010205CCF490860F3
:100D7000B01C35A941F82700C7F1280000EB80001E
:100D800006EB0010215C0798814208DDC7F12800BE
:100D900000EB800006EB0010205C07900696761CA6
:100DA0004D2E95DB35A850F8270000B335A951F832
:100DB00027200699501A07F0E3FB41EC100BB0EE28
:100DC000409AF0EE609A07F0DDFDB0EE408AF0EE5A
:100DD000608A9FEDB90B53EC102B51EC180B07F008
:100DE00013FC04D2AC480068401CAB490860AA4818
:100DF0000068052800DB03E07F1C0A2FFFF660AFC8
:100E000000BFA5480068032843DB4FF0070A3CE019
:100E100035A951F82A20AAF1010135AB53F8211068
:100E2000501A07F0ADFB41EC100BB0EE409AF0EE1B
:100E3000609A07F0A7FDB0EE408AF0EE608A9FED61
:100E4000A00B53EC102B51EC180B07F0DDFB0CD270
:100E5000AAF1010035A951F8200030B1AAF1010032
:100E600051F820B08B4908600DE0AAF1010035A9C6
:100E700051F8200038B935A850F82A10AAF101001D
:100E800035AA42F82010AAF1010ABAF1000FBFDC1E
:100E900002E001208C4908608C48C0F800B0282589
:100EA000C8E000200B908149086005900490ABF1E8
:100EB0000F000390012801DA012003900BF10A00D2
:100EC00002904B2801DD4B200290DDF80C9052E09F
:100ED00005EB850009EB0010C01C205C05EB8501CB
:100EE00009EB0111615C401A099009F114005028C6
:100EF0000EDA05EB850009EB0010C01C215C05EB48
:100F0000850009EB00101430205C081A089003E0FB
:100F100068480068801C08900B990998884228DD71
:100F2000644909980968884223DD6249089809687C
:100F300088421EDD05EB850009EB0010C01C205C1B
:100F40005A490968884214DD09980B9005EB850021
:100F500009EB0010205C5549086009F1020B05EB14
:100F600085000BEB0010401C205C59490968401AB1
:100F70000A9009F1010902988145A9DB4FF00008A8
:100F800028E005EB850008EB0010215C0A988142FF
:100F900018DDFF2005EB850108EB01116054ABF172
:100FA0000800404505DC1A30804502DA0598401CEF
:100FB00005903A480068401C384908600498401C75
:100FC000049005E0002005EB850108EB0111605459
:100FD00008F10108B8F1500FD3DB0CA9059841F8CE
:100FE0002500272D25DA3B48B0F90000B42820DA87
:100FF0000CA850F8250008281BDDA81C51F820007B
:10100000082816DC4FF000080CE0A81C00EB80005C
:1010100008EB0010205C05EB850108EB0111605422
:1010200008F10108B8F1500FEFDB08200CA941F8D6
:1010300025006D1E002DBFF634AF184890ED000A54
:10104000B8EEC00ADFED240A80EE201A8DED001AFA
:10105000009807F0C5FA41EC100B134880ED000B27
:101060009FED1E0B53EC102B90ED000B51EC100B71
:1010700007F0DEFA4AD39FED1B0B53EC102B0A4806
:1010800090ED000B51EC100B07F0BEFA3ED3174861
:1010900000682DE040010020BC000020C0000020BE
:1010A000000000000000000030010020CC00002003
:1010B00008010020400000200000000000002E4039
:1010C0000000000000001C40A8000020AC00002030
:1010D0004C000020E001002000004D450000000011
:1010E0000000E03F7B14AE47E17A843FF800002027
:1010F00001280EDB9FEDFC0B53EC102BFC4890ED10
:10110000000B51EC100B07F093FA02D20120F949C1
:1011100008603FB0BDEC048BBDE8F08F2DE9F04FC7
:101120002DED048B9FB006460027002500240020EB
:101130001E9080461D90824683461C9081461B90DF
:101140001A901990189028210EA807F086F8002010
:101150000D902C2102A807F080F800200190E649AC
:1011600008601FED310BE24880ED000B28256FE091
:1011700000201E90824618900D900190002454E0AB
:1011800005EB850004EB0010C01C305C05EB85010D
:1011900004EB0111715CA0EB010804F11900502867
:1011A0000EDA05EB850004EB0010C01C315C05EB8A
:1011B000850004EB00101930305C081A1D9003E024
:1011C000CE480068801C1D90CC48006880451BDD1F
:1011D0001E98804518DD05EB850004EB0010C01C4F
:1011E000315C189881420FDDC4491D980968884216
:1011F0000ADD05EB850004EB0010C01C305C189084
:10120000CDF8788004F1010A05EB850004EB0010AD
:10121000315C0D98814207DD05EB850004EB001081
:10122000305C0D90E0B20190641C4D2CA8DBBAF14B
:10123000000F08D00EA840F829A002A90D9801F8C7
:10124000090009F10109B9F1050F00DD02E06D1E89
:10125000002D8DDA00BFB9F1050F13DC0120A5497F
:10126000086028250BE0002406E0FF2005EB85013F
:1012700004EB01117054641C502CF6DB6D1E002D24
:10128000F1DA11E1A9F102074EE00EA951F8272089
:10129000791E0EAB53F82110501A07F071F941EC8A
:1012A000100BB0EE409AF0EE609A07F06BFBB0EED8
:1012B000408AF0EE608A9FED920B53EC102B51ECBC
:1012C000180B07F0A1F926D20EA951F827200EAB72
:1012D000791C53F82110501A07F052F941EC100B09
:1012E000B0EE409AF0EE609A07F04CFBB0EE408A08
:1012F000F0EE608A9FED820B53EC102B51EC180B33
:1013000007F082F907D20EA850F8270018B10EA8EE
:1013100050F827001B9002A8C15D1A98814202DD97
:1013200002A8C05D19907F1E002FAEDC1B9898B9F3
:1013300001207049086028250BE0002406E0FF200A
:1013400005EB850104EB01117054641C502CF6DB95
:101350006D1E002DF1DAA7E028258FE000201E90F9
:10136000824618901B98A0F10A0B1B9814301C9011
:10137000BBF1000F00DAD3461C984D2801DD4D204B
:101380001C905C464AE005EB850004EB0010C01C95
:10139000305C05EB850104EB0111715CA0EB0108E9
:1013A00004F10F0050280EDA05EB850004EB001065
:1013B000C01C315C05EB850004EB00100F30305C85
:1013C000081A1D9003E04D480068801C1D904B4892
:1013D0000068804521DD1E9880451EDD05EB8500F7
:1013E00004EB0010C01C315C1898814215DD4349A4
:1013F0001D980968884210DDCDF8788005EB8500DE
:1014000004EB0010C01C305C189005EB850004EB69
:101410000010C01C305C1A90A246641C1C988442C8
:10142000B1DBBAF1000F01D0CDF86CA0002422E0AE
:1014300005EB850004EB0010315C334A1A98126802
:10144000801A814210DDFF2005EB850104EB0111BC
:1014500070545C450EDB1C9884420BDA2648006809
:10146000401C2549086005E0002005EB850104EBE0
:1014700001117054641C502CDADB6D1E002DBFF678
:101480006DAF1D4890ED000AB8EEC00A5FEDEE0AA0
:1014900080EE201A8DED001A009807F0A1F841ECBB
:1014A000100B134880ED000B9FED180B53EC102B25
:1014B0000F4890ED000B51EC100B07F0B9F80BD36F
:1014C0009FED140B53EC102B094890ED000B51ECE1
:1014D000100B07F099F802D20120064908601FB0EE
:1014E000BDEC048BBDE8F08F666666666666D63F27
:1014F00030010020A8000020C0000020440000208F
:101500000000000000002840500000209A9999999E
:101510009999C93FB81E85EB51B88E3F2DE9F04F20
:101520002DED048BBDB005464FF0000A282133A8ED
:1015300006F093FE00203290319030902F902E9044
:101540002D902C902B908046002400268346002767
:1015500081462A9029902890279026902C211BA81C
:1015600006F07BFE2C2110A806F077FE2C2105A8A2
:1015700006F073FE0020049003900290019000900A
:10158000FD490860FD490860FD490860FD490860A3
:101590009FEDFD0BFE4880ED000B00BFC5E0002075
:1015A000329028902C902B90804689E0C7F128003B
:1015B00000EB800008EB0010C01C285CC7F128017C
:1015C00001EB810108EB0111695C401A3090B8F120
:1015D000020F12DBC7F1280000EB800008EB0010BF
:1015E000C01C295CC7F1280000EB800008EB00104C
:1015F000801E285C081A2E9003E0E6480068801CD4
:101600002E9008F10F00502812DAC7F1280000EBE5
:10161000800008EB0010C01C295CC7F1280000EB1B
:10162000800008EB00100F30285C081A2F9003E0B0
:10163000D8480068801C2F9032993098884229DD64
:10164000D4492F980968884224DDD2493098096826
:1016500088421FDDCF492E98096888421ADDC7F1FC
:10166000280000EB800008EB0010C01C295C2898C3
:1016700081420FDD30983290C7F1280000EB8000E6
:1016800008EB0010C01C285C289008F1020033A968
:1016900041F82700C7F1280000EB800008EB00109C
:1016A000295C2C98814209DDC7F1280000EB8000FD
:1016B00008EB0010285C2C90CDF8AC8008F10108F4
:1016C000B8F14D0FFFF672AF33A850F8270038B3CA
:1016D00033A951F827202B99891A0A2901DA012107
:1016E00000E00021084606F04BFF41EC180BB0EE7D
:1016F000480AF0EE680A07F045F9B0EE409AF0EEBD
:10170000609A9FEDA10B53EC102B51EC190B06F0D6
:101710007BFF05D09A480068401C9949086003E0A7
:10172000002033A941F827007F1C0A2FFFF637AFAE
:101730009348006802285FDB4FF0070940E033A9B7
:1017400051F82920A9F1010133AB53F82110501AA7
:1017500006F016FF41EC100BB0EE409AF0EE609AE6
:1017600007F010F9B0EE408AF0EE608A9FED8A0B28
:1017700053EC102B51EC180B06F046FF0CD2A9F1DC
:10178000010033A951F8200030B1A9F1010051F84E
:1017900020A07A49086011E033A850F8290068B108
:1017A000A9F1010033A951F8200038B933A850F845
:1017B0002910A9F1010033AA42F82010A9F101096A
:1017C000B9F1000FBBDCBAF1000F0ED14FF00509E3
:1017D00008E033A850F8290010B133A850F829A028
:1017E000A9F10109B9F1000FF3DCBAF1000F06D13C
:1017F00001206B49086002E00120694908606948DE
:10180000C0F800A028244EE10020329028900390D8
:1018100002902790AAF108002A90001C01D5002010
:101820002A900AF1080029904C2801DD4C202990CB
:10183000DDF8A8B051E004EB84000BEB0010C01CF5
:10184000285C04EB84010BEB0111695C401A3090B9
:101850000BF1140050280EDA04EB84000BEB00109F
:10186000C01C295C04EB84000BEB00101430285CD6
:10187000081A2F9003E047480068401D2F903299C6
:101880003098884227DD434930980968884222DD34
:1018900040492F98096888421DDD04EB84000BEB5A
:1018A0000010C01C295C2798814214DD30983290CA
:1018B00004EB84000BEB0010C01C285C27900BF19C
:1018C000020A04EB84000AEB0010401C285C364935
:1018D0000968401A31900BF1010B29988345AADB66
:1018E00010A901F804A0002621E004EB840006EB17
:1018F0000010295C3198814212DDAAF10500B04246
:101900000EDC113086420BDAFF2004EB840106EB7B
:101910000111685405A90E550398401C039005E079
:10192000002004EB840106EB01116854761C502E54
:10193000DBDB03980A2804DA0398032801DD3198D9
:101940002D901BA9039808551848006802287DD1DE
:10195000262C4CDA022C4ADD10A90A5D10AB611C62
:10196000595C501A06F00CFE41EC100BB0EE409A98
:10197000F0EE609A1CE000005C01002040010020B5
:10198000BC000020C000002000000000000000009B
:10199000300100204800002000000000000010403E
:1019A000A8000020AC00002054000020E40000202B
:1019B00006F0E8FFB0EE408AF0EE608A9FEDF70B8C
:1019C00053EC102B51EC180B06F032FE0FD800260A
:1019D0000BE0601C00EB800006EB0010285C04EBC1
:1019E000840106EB01116854761C502EF1DB022CA9
:1019F0002FDD262C2DDA1BA8005D082829DD1BA968
:101A0000601C085C082824DC2698062821DAE548B2
:101A1000006808B9E348046000260BE0601C00EB96
:101A2000800006EB0010285C04EB840106EB01113A
:101A30006854761C502EF1DB1BA9601C085C08550D
:101A40002698401C269010A9601C00E004E0085C69
:101A5000085510A810F804A004EB8400502101EBF5
:101A60000010801E285CFF2807D004EB84000121B1
:101A700001EB0010285CFF2803D1019808B9E0B2FF
:101A80000190019884420DDA002606E0002004EB64
:101A9000840106EB01116854761C502EF6DB002001
:101AA0001BA90855641E002CBFF6AEAE002707E048
:101AB0001BA8C05DBC4909680844BB4908607F1C7D
:101AC000292FF5DBB848006806F05AFD41EC100BF1
:101AD000B0EE408AF0EE608A9FEDB40B53EC102B11
:101AE00051EC180B06F0DDFC41EC100BB14880ED19
:101AF000000B9FEDB10B53EC102B90ED000B51EC54
:101B0000100B06F081FD0BD39FEDAD0B53EC102BAA
:101B1000A84890ED000B51EC100B06F089FD02D2A5
:101B20000120A94908609FEDA40B53EC102BA1489C
:101B300090ED000B51EC100B06F066FD06D2A348A9
:101B40000068042802D101209F4908603DB0BDEC27
:101B5000048BBDE8F08F2DE9F04F2DED048B95B08F
:101B600005469948006800287ED11490C82013903B
:101B70004FF000084FF00009954807680024002640
:101B8000A246002012901190834610900F900E9064
:101B90000D900C900B902C21684606F05EFB022005
:101BA0008C49086000BF05E000208B4941F82A00FD
:101BB0000AF1010ABAF1290FF6DB282483E100209B
:101BC0000B90282C65D1A7F108000F90001C01D5BF
:101BD00000200F9007F108000E904F2801DD4F20E4
:101BE0000E900F9E39E004EB840006EB0010295C98
:101BF00004EB840006EB0010401E285C081A002845
:101C000008DD04EB840006EB0010401C285C002873
:101C100000DD149604EB840006EB0010295C04EB55
:101C2000840006EB0010A0F10100285C081A08D51A
:101C300004EB840006EB0010401E285C002800DD49
:101C4000139604EB840006EB0010285CFF2803D1F8
:101C50000B98401CC0B20B90761C0E988642C2DBDB
:101C6000DDE91321881800E07FE100EBD071491015
:101C7000594A42F82410104650F8247050F82400B5
:101C80004B2805DD524807680068114641F82400DA
:101C900015E1282CFCDA002100220020A7F108031E
:101CA00012931B1C01D50023129307F10803119313
:101CB000502B01DD50231193129BD8B20CE004EBA2
:101CC000840300EB0313EB5CFF2B03D10B9B5B1C2A
:101CD000DBB20B93431CD8B2119B9842EFDD04EBAF
:101CE000840307EB0313EB5CFF2B1BD0DDF848A04C
:101CF0000BE004EB84030AEB0313EB5CFF2B01D135
:101D0000D14600E000BF0AF1010A119B9A45F0DBC1
:101D100004EB840309EB0313EB5CFF2B03D02D4B87
:101D20001C60D3E0B946A9F1080BB9F1080301D54D
:101D30004FF0000B09F108031093502B01DD5023E5
:101D40001093C8460BE004EB840308EB0313EB5C31
:101D5000FF2B02D1214B43F82480A8F10108D8457C
:101D6000F1DA1E4B53F824305B4514D1CDF834B072
:101D70000EE004EB840C0D9B03EB0C13EB5CFF2BD0
:101D800001D1491C01E000230D930D9B5B1E0D93B7
:101D90000D9B002BEDDAC8462EE00000000000008D
:101DA000000008405C010020C0000020000000008E
:101DB00000A0A940300100207B14AE47E17A843FA7
:101DC000333333333333C33FA8000020E000002017
:101DD000AC0000209400002050F70120ACF6012058
:101DE00004EB840308EB0313EB5CFF2B02D1FE4BE7
:101DF00043F8248008F10108109B9845F0DDFA4B68
:101E000053F824C0109B9C4514D1109B0C930EE0FA
:101E100004EB840C0C9B03EB0C13EB5CFF2B01D14C
:101E2000521C01E04F230C930C9B5B1C0C930C9BEE
:101E3000502BEDDBDFF8B4C35CF824C0DFF8A8E377
:101E40005EF824E00CEB0E0303EBD37C4FEA6C0C42
:101E5000DFF89CE34EF824C004291CDDE54B1B6829
:101E6000CBB9E54B1B68262B15DA0123DFF884C3B9
:101E7000CCF80030E14B1B68012B07D163461B688F
:101E8000012B03D1DFF878C3CCF800300123DFF851
:101E900074C38CF80030042A0DDDDB4B1B6853B98A
:101EA000D54B1B68262B06DA0123DFF85CC3CCF880
:101EB0000030D64B1C60CE4B53F8247000BF0B98FB
:101EC0000DF80400641E022C3FF779AE00BF1A24FF
:101ED0002CE0C74951F824200B46A11C53F82110CF
:101EE000501A06F04DFB41EC100BB0EE409AF0EEAC
:101EF000609A06F047FDB0EE408AF0EE608A1FED72
:101F0000590B53EC102B51EC180B06F091FB0CD82D
:101F1000BF48B0F90000BF490968884205DD0120CB
:101F2000B44908600320B7490870641E022CD0DC55
:101F3000B5480068012803D0AE480068012802D1E6
:101F40000120AC490860B4480068C0F12800AA49E3
:101F50000860084600680A2803DA0120AF490860D3
:101F600002E00020AD49086000BF15B0BDEC048B55
:101F7000BDE8F08F2DE9F04F2DED048BD7B006466C
:101F800000240025A34600205690559000274FF0CE
:101F9000500881465490824653905290A42129A81B
:101FA00006F05BF9A421684606F057F900209C4929
:101FB000086028209B49086000209B49086000BFFA
:101FC00005E000208A4941F82B000BF1010BBBF121
:101FD000290FF6DB282465E000274FF05008012583
:101FE0001FE004EB840005EB0010305C002817DDD7
:101FF00004EB840005EB0010401E305C80B904EB5C
:10200000840005EB0010401C305C002808DD04EB68
:10201000840005EB0010801C305C002800DD2F469A
:102020006D1C4E2DDDDB4E251FE004EB840005EB1F
:102030000010305C002817DD04EB840005EB001075
:10204000401C305C80B904EB840005EB0010401E9E
:10205000305C002808DD04EB840005EB0010801ED6
:10206000305C002800DDA8466D1E012DDDDCA7B127
:10207000B8F1500F11D0A8EB070000280DDDA8EB38
:102080000700102809DA07EB080000EBD0714910AF
:1020900029AA42F8291009F10109B9F1050F00DD5B
:1020A00002E0641E002C97DA00BFB9F1050F03DCD3
:1020B00001205A49086047E1012445E0611E29AA30
:1020C00052F8211052F82420881A06F059FA41ECEF
:1020D000100BB0EE409AF0EE609A06F053FCB0EEB2
:1020E000408AF0EE608A9FED510B53EC102B51ECBF
:1020F000180B06F089FA26D229AA611C52F8211081
:1021000052F82420881A06F03BFA41EC100BB0EE8E
:10211000409AF0EE609A06F035FCB0EE408AF0EEA0
:10212000608A9FED420B53EC102B51EC180B06F01C
:102130006BFA08D229A850F8240020B1601E29A902
:1021400051F820A002E0641C4C45B7DB00BFCDF87D
:102150004CA12824BEE000274FF05008AAF10F0040
:1021600056905698002801DA002056900AF10F0088
:10217000559055984F2801DD4F2055905698451C95
:102180000FE004EB840005EB0010305C002807DD55
:1021900004EB840005EB0010401E305C00B92F46B4
:1021A0006D1C55988542ECDD5598451E0FE004EBFB
:1021B000840005EB0010305C002807DD04EB840090
:1021C00005EB0010401C305C00B9A8466D1E569807
:1021D0008542ECDAA8EB0700002849DDA8EB0700F0
:1021E000142845DA26E00000F8F70120ACF60120BB
:1021F00050F7012098000020C4000020D0000020EB
:10220000DC0000200C0100209C000020A000002029
:10221000E00100205C00002094000020A8000020C5
:10222000B4000020B8000020500100200000000091
:1022300000001C4007EB080000EBD0714910FE4A7B
:1022400042F82410A8EB07004DF82400002052901B
:102250005498401C5490F9480068844201DDF748C6
:102260000460F7480068844222DAF54804601FE001
:10227000B8450ED16FB1B8F1500F0AD007EB080086
:1022800000EBD0714910EC4A42F824100020529023
:102290000EE05298401C5290282C06DAE649601C49
:1022A00051F8200041F8240002E0E34840F824A05F
:1022B000E14850F824A05298032801DB142C04DBD9
:1022C000142C06DB5298142803DB54980A2800DBF0
:1022D00003E0641E002CBFF63EAF00BF54980A28EE
:1022E00003DA0120D749086002E00020D5490860E0
:1022F000D149D24A126851F822205399501A06F057
:102300003FF941EC100BB0EE409AF0EE609A06F007
:1023100039FBB0EE408AF0EE608A9FEDCB0B53ECB8
:10232000102B51EC180B06F083F905D2C249C34AB1
:102330005398126841F82200C0480068C0490968F3
:10234000401A801EC249086057B0BDEC048BBDE83E
:10235000F08F70B52DED0A8B0024002008EE100AD6
:10236000BC4890ED000BBC4880ED000B0020BB4941
:102370000860BB490860BB48006801284DD1AF48E0
:1023800004681EE0AC4850F82410601EAA4A52F8B7
:102390002000081A002804DDB0480068401CAF493E
:1023A0000860A54850F82410A4F10100A24A52F890
:1023B0002000081A04D5AA480068401CA8490860F3
:1023C000641E9F480068801C8442DBDCA3480068D0
:1023D000A3490968401A08EE100A9848006898490D
:1023E0000968401A052817DD94480068944909686F
:1023F000401A801E00EE100AB8EEC00AF8EEC80AB5
:1024000080EE801A11EE105A284606F0E9F841ECE9
:10241000100B904880ED000B92E093480068012873
:1024200042D128241EE0844850F82410601E824ABD
:1024300052F82000081A002804DD88480068401C73
:10244000864908607C4850F82410A4F101007A4ABB
:1024500052F82000081A04D581480068401C8049C1
:102460000860641E814800688442DCDC7B480068A8
:102470007B490968401A08EE100A7C480068C0F1E0
:10248000280000EE100AB8EEC00AF8EEC80A80EE86
:10249000801A11EE105A284606F0A2F841EC100BF3
:1024A0006C4880ED000B4BE071480068012847D173
:1024B00028241EE0604850F82410601E5E4A52F83E
:1024C0002000081A002804DD64480068401C6349A5
:1024D0000860594850F82410A4F10100564A52F8F7
:1024E0002000081A04D55E480068401C5C4908605A
:1024F000641E5E4800688442DCDC58480068584925
:102500000968401A08EE100A58480068C0F128000F
:10251000002815DD55480068C0F1280000EE100ABB
:10252000B8EEC00AF8EEC80A80EE801A11EE105A12
:10253000284606F055F841EC100B464880ED000B9C
:1025400048480068012833D14A48006805282FD13F
:10255000404890ED000B06F015FAB0EE409AF0EE10
:10256000609A9FED450B53EC102B51EC190B06F0C4
:102570004BF81DD2374890ED000B06F003FAB0EE91
:10258000409AF0EE609A9FED3E0B53EC102B51EC0D
:10259000190B06F04DF80BD22D4800681E2807DDF8
:1025A00001203349086000202E4908603649086040
:1025B0003648B0F90000002811DD3548B0F90000B8
:1025C0003249B1F90010401A32490968884206DDE3
:1025D00028480068022802DB0520264908602B48AD
:1025E000B0F90000002818DD2948B0F9000027499B
:1025F000B1F90010401A2849096888420DDD1D48CC
:102600000068052809D117480068012805D1002075
:10261000144908600120164908600F4890ED000B2E
:1026200053EC102B0B4890ED000B51EC100B05F008
:10263000C0FE41EC100B31E050F70120B400002047
:10264000B8000020A8000020000000000000284082
:10265000C4000020200100202801002000010020EB
:1026600004010020D4000020D000002094000020AD
:10267000D8000020EC000020333333333333C33F22
:102680007B14AE47E17A943FFC00002062010020F9
:10269000E0010020680000206C000020B0EE40AA9D
:1026A000F0EE60AA06F06EF9B0EE409AF0EE609A95
:1026B0009FEDFC0B53EC102B51EC190B05F0A4FF14
:1026C00005D2FA4890ED000BF94880ED000BF9486F
:1026D000006801287DD1F8480068032863DBF748CB
:1026E000006802285FDA9FEDF60B53EC102BF048E0
:1026F00090ED000B51EC100B05F061FE41EC100B5E
:10270000B0EE409AF0EE609A51EC190B05F049FFDB
:10271000ED4908600846006805F032FF41EC100BF7
:10272000B0EE40AAF0EE60AA06F02CF9B0EE409AA6
:10273000F0EE609A1FED3C0B53EC102B51EC190B93
:1027400005F076FF2ED2E048006805F019FF41EC55
:10275000100BB0EE40CAF0EE60CA06F013F9B0EE0E
:1027600040AAF0EE60AAD849096801EB410188004F
:1027700005F006FF41EC100BB0EE40BAF0EE60BA87
:1027800053EC1A2B51EC1B0B05F08BFE41EC100B9C
:10279000B0EE409AF0EE609A51EC190B05F001FF93
:1027A000C949086068E0C5480068022864D19FED07
:1027B000C70B53EC102BBE4890ED000B51EC100BE7
:1027C00005F0FDFD41EC100BB0EE409AF0EE609A82
:1027D00000E04EE051EC190B05F0E3FEBA49086049
:1027E0000846006805F0CCFE41EC100BB0EE40AAA4
:1027F000F0EE60AA06F0C6F8B0EE409AF0EE609AED
:102800001FED6F0B53EC102B51EC190B05F010FF63
:1028100032D2AD48006805F0B3FE41EC100BB0EECB
:1028200040CAF0EE60CA06F0ADF8B0EE40AAF0EE95
:1028300060AAA549096801EB4101880005F0A0FEE6
:1028400041EC100BB0EE40BAF0EE60BA53EC1A2B2C
:1028500051EC1B0B05F025FE41EC100BB0EE409A3D
:10286000F0EE609A51EC190B05F09BFE964908605A
:1028700002E0002094490860BDEC0A8B70BD10B5E1
:102880002DED028B934800689349096801EB4000E5
:102890008849096801EB4101084490490860904863
:1028A0000068012801DB0420086001238B483C21DB
:1028B0000268084602F0B0F902238A4850210268F3
:1028C000282002F0A9F97A4890ED000B51EC100B8A
:1028D00005F0C2FE08EE100AB0EE480A6421282076
:1028E00002F0B3F9804890ED000B51EC100B05F0AD
:1028F000B3FE08EE100AB0EE480A64218C2002F004
:10290000A4F97448006801280FD101237748782181
:102910000268282002F080F903237548B0F90020EE
:1029200078213C2002F078F911E062480068012823
:102930000DD1012360488C2102683C2002F06CF923
:1029400001235E488C2102685A2002F065F90423B5
:102950006848B0F90020A0213C2002F05DF9032373
:10296000654890ED000ABDEEC00A10EE102AB421B1
:10297000462002F051F9BDEC028B10BD2DE9F04765
:102980002DED048B00250027A84600260024FFF724
:1029900076FF54480068262810DA5848006868B95D
:1029A0004D480068012809D15248B0F90000544947
:1029B0000968884202DD01205049086046480068E5
:1029C000012809D14B48B0F900004E4909688842F6
:1029D00002DA0020494908603F48006801285FD1B9
:1029E0004648006801285BD147480068012857DB4A
:1029F00046480068002853D13A4800680F2850DB49
:102A00001FEDE10B53EC102B374890ED000B51EC10
:102A1000100B05F00DFE44D29FED3D0B53EC102B37
:102A2000314890ED000B51EC100B05F0EDFD38D264
:102A3000282581E000273848D0F8A000861F0EE046
:102A4000002E0BDB502E09DA05EB850006EB00109B
:102A500032490968085CFF2800D17F1C761C2E488B
:102A600050F82500801DB042EADC032F63DD0A2FF9
:102A700061DA294951F82520691E274B53F82110A6
:102A8000501A05F07DFD41EC100BB0EE409AF0EECF
:102A9000609A05F077FFB0EE408AF0EE608A3FE082
:102AA00053E053E0B81E85EB51B89E3F280100204B
:102AB00020010020D8000020E0000020E4000020D9
:102AC0000000000000003E40CC010020000000009B
:102AD00000003940D4000020D00000205401002024
:102AE000E8000020C400002030010020EC0000209D
:102AF00062010020E0010020100100209800002069
:102B00005C00002058000020F8000020A8000020F1
:102B1000000000000000D03F50F7012038000020E6
:102B20009FEDFA0B53EC102B51EC180B05F06CFDDC
:102B300001D208F101086D1E1F2D3FF77BAFB8F1E0
:102B4000060F06DA0120F349086002E00120F1498E
:102B50000860F048006800287ED1FFF7FAFBEE48D5
:102B60000068242814DD262408E0EC4850F82400EE
:102B7000EB4909680844EA490860641E1F2CF4DA2E
:102B8000E7490868C11700EB5171C910E44A1160A8
:102B9000E4480068E4490860E1480068E1490860E9
:102BA000E14800680968401A00280EDDDE48006828
:102BB000DC490968401A042807DAD74800681E284B
:102BC00003DD0120D949087014E0D6480068D649D1
:102BD0000968401A00280DDDD2480068D24909680A
:102BE000401A042806DACC4800681E2802DD0220BC
:102BF000CE490870CE480068032825DB0020CD4967
:102C000008605020CC490860282418E0C34850F8D8
:102C10002400C8490968884204DDC04850F82400EF
:102C2000C4490860BD4850F82400C3490968884277
:102C300004DABA4850F82400BF490860641EBF484F
:102C40000068401C8442E1DCB948006803281ED1BA
:102C5000BB4890ED000B00E0E4E005F093FEB0EE21
:102C6000408AF0EE608A9FEDB70B53EC102B51ECCD
:102C7000180B05F0DDFC0AD2A74800681E2806DD07
:102C8000B248006818B90120B049086032E0A8488D
:102C9000006803282ED1AA4890ED000B05F072FEC3
:102CA000B0EE408AF0EE608A9FEDA90B53EC102B3A
:102CB00051EC180B05F0A8FC1CD2A14890ED000BBC
:102CC00005F060FEB0EE408AF0EE608A9FEDA20B48
:102CD00053EC102B51EC180B05F0AAFC0AD28E48CD
:102CE00000681E2806DD99480068012802D10220EC
:102CF000964908608E48006803281FDB9848B0F9A1
:102D000000009849B1F90010401A974909688842B3
:102D100014DD8B4890ED000B05F034FEB0EE408AD8
:102D2000F0EE608A9FED910B53EC102B51EC180BD9
:102D300005F06AFC02D202208449086083480068DA
:102D400002286FD17A48006803282CD172480068A5
:102D5000232824DB7A4890ED000B05F013FEB0EE3B
:102D6000408AF0EE608A9FED810B53EC102B51EC02
:102D7000180B05F05DFC12D96E4800686E490968B1
:102D8000401A14280BDC9FED7B0B53EC102B6C4886
:102D900090ED000B51EC100B05F036FC03D2012036
:102DA0005C49086023E06248006804281FD15A4843
:102DB0000068252818DB624890ED000B05F0E2FD65
:102DC000B0EE408AF0EE608A1FEDAF0B53EC102B93
:102DD00051EC180B05F02CFC06D9564800685649F2
:102DE0000968401A0F2802DD01204A4908609FED5A
:102DF000630B53EC102B634890ED000B51EC100B60
:102E000005F016FC0BD31FEDD90B53EC102B5D48CE
:102E100090ED000B51EC100B05F0F6FB02D20120F7
:102E20003C4908605848008860B958480068012843
:102E300008D157480068012804D14948B0F900007A
:102E4000514908805348006801280CD15248008835
:102E500048B94348B0F90000002804DD4048B0F903
:102E600000004D4908804B48006805280CD14B48AC
:102E7000008848B93A48B0F90000002804DD384815
:102E8000B0F90000454908804548006801280CD188
:102E90004448008848B93248B0F90000002804DDF1
:102EA0002F48B0F900003F490880214800680228F7
:102EB00007D12C48008820B92948B0F900002949D9
:102EC00008801B480068032807D13748008820B9CC
:102ED0002348B0F9000034490880154800680428E8
:102EE00007D13248008820B91D48B0F900002F49A9
:102EF00008802F48006801285CD1074800680A282C
:102F000058DA0120034908605FE00000000000007B
:102F100000000840A8000020C400002050F7012055
:102F2000AC010020D0010020B0010020B40100203D
:102F3000E0000020BC010020B80100209400002027
:102F400020010020333333333333E33FE4000020E8
:102F50009A9999999999D93F333333333333C33F8E
:102F6000E00100206A01002088000020000000002D
:102F70000000E03F333333333333C3BF5839B4C871
:102F800076BEAF3F3001002060010020D00000205D
:102F900098000020EC000020620100206401002065
:102FA000D8000020660100206C0100206E01002086
:102FB000D4000020F8480068012806D1F7480068CE
:102FC0000A2802DA0120F6490860F548006801285D
:102FD0004BD10020F14908609FEDF20BF34880EDE2
:102FE000000BF34890ED000AF24880ED000AF24829
:102FF000006801281AD1F1480068012816D11FED98
:103000002A0B53EC102BEE4890ED000B51EC100BFB
:1030100005F00EFB02D20220EA4908609FEDEA0AA1
:10302000E44880ED000A0120E8490860E8480068AB
:10303000012803D1E7480068052807D0D648006872
:10304000012808D1E4480068012804DAB3EE0E0A2A
:10305000D84880ED000A0020D1490860D54890ED9D
:10306000000ABDEC048BBDE8F0879FEDDC0AB0EEF2
:10307000408A4FF00009D0480068012842D1D14869
:10308000006802283ED1CD48006801283AD11FEDE2
:103090004E0B53EC102BCA4890ED000B51EC100B6B
:1030A00005F0B2FA2ED29FEDCE0B53EC102BC44894
:1030B00090ED000B51EC100B05F0BAFA22D2B74894
:1030C00000681E281EDDC848006803281ADDC748AE
:1030D000B0F90000C649B1F90010401A142811DDFA
:1030E000C348B0F9000000280CDD0020B249086098
:1030F0000120B74908600020BE490860B149086056
:10310000AE490860B248006801281DD1BA4800687D
:1031100005F066FA41EC100BB0EE409AF0EE609AC2
:10312000A24890ED000B53EC102B51EC190B05F05D
:103130007FFA0AD2A748006838B99848006823285F
:1031400003DD0120A349086083E094480068232838
:103150001BDDAA48006805F043FA41EC100BB0EE05
:10316000409AF0EE609A914890ED000B53EC102BD2
:1031700051EC190B05F048FA07D29648006801286F
:1031800003D102209349086063E09D48006805F080
:1031900027FA41EC100BB0EE409AF0EE609A8348AB
:1031A00090ED000B53EC102B51EC190B05F040FA8D
:1031B00007D288480068022803D1032085490860A7
:1031C00047E09048006805F00BFA41EC100BB0EEB8
:1031D000409AF0EE609A754890ED000B53EC102B7E
:1031E00051EC190B05F010FA07D27A480068032851
:1031F00003D10420774908602BE08348006805F07C
:10320000EFF941EC100BB0EE409AF0EE609A67488F
:1032100090ED000B53EC102B51EC190B05F008FA54
:1032200017D26C480068042813D17848B0F9000020
:1032300000280EDD6D48B0F900007449B1F90010A6
:10324000411A73480068801F814202DD05206149F0
:1032500008605148006801287DD19FED6E0B53EC4A
:10326000102B524890ED000B51EC100B05F0CCF9EF
:1032700018D259480068A8B96448B0F9000000287D
:1032800008DD5A48B0F900006049B1F90010401A51
:103290006E2803DC61480078012803D101204E49E3
:1032A000086038E09FED5E0B53EC102B3F4890ED2B
:1032B000000B51EC100B05F0BBF919D24648006821
:1032C000012815D15148B0F90000002808DD474811
:1032D000B0F900004D49B1F90010401A822803DC12
:1032E0004E480078012803D102203B49086012E0D3
:1032F0009FED480B53EC102B2C4890ED000B51EC3C
:10330000100B05F081F906D233480068022802D17B
:10331000032031490860214800681E2830DD2E480E
:10332000006803282CD1214890ED000B05F02AFB02
:10333000B0EE409AF0EE609A9FED3B0B53EC102BF1
:1033400051EC190B05F060F91AD8184890ED000BF4
:1033500005F018FB00E013E0B0EE409AF0EE609A42
:103360009FED330B53EC102B51EC190B05F060F96A
:1033700006D231480068022802D1042016490860AC
:103380000D480068012863D12C480068062859DAE6
:1033900006202B490860B7E0D8000020C4000020B8
:1033A000A800002000000000000000002001002014
:1033B0001401002010010020D000002098000020FF
:1033C00030010020F800002000005CC2480100200D
:1033D000D4000020EC000020E000002000000000ED
:1033E0007B14AE47E17A843F64000020E0010020B6
:1033F0006001002080010020700000207400002087
:10340000780000207C000020800000206201002065
:1034100068000020333333333333D3BF95010020AA
:10342000333333333333D33F000000000000D03F49
:103430007B14AE47E17AA43FE40000209400002012
:10344000C8000020F7480068401CF74908605BE0AE
:10345000F648006801280ED1F5480068801C032852
:1034600003DA0320F04908604EE0F1480068401C90
:10347000ED49086048E0EF480068012844D1EE4873
:10348000006801280DDCE74800680C2803DA0C20EE
:10349000E549086038E0E3480068401CE2490860FC
:1034A00032E0E548006802280DD1DE4800681428A3
:1034B00003DA1420DC49086026E0DA480068401C82
:1034C000D949086020E0DD480068022811DADA48AE
:1034D000006803280DD1D34800680F2803DA0F20B5
:1034E000D149086010E0CF480068401CCE49086010
:1034F0000AE0D2480068022806DBCA4800680F28A4
:1035000002DA0F20C8490860CD480068C0F12700E2
:10351000CC490860C4480068C0F1230000EE100ADE
:10352000B8EEC00A10EE101A084605F059F841EC42
:10353000100BC54880ED000BC448BB49096850F822
:103540002100C0490968401A00EE100AB8EEC00A0E
:10355000B0EE408ABE4880ED008AB8480068022874
:1035600030D1B04800680F2826DAB849AE4A126850
:1035700051F822200B46AC490968491C53F8211028
:103580000A44A9490968891C53F821100A44A6492C
:103590000968C91C53F821105018C11700EB91712C
:1035A000A84A1268C2EBA10100EE101AB8EEC00AD8
:1035B000A74981ED000A05E0A64890ED000AA4485D
:1035C00080ED000AA448006801284ED1A348006895
:1035D00001284AD1A248006826280CDAA1480068D0
:1035E000032808DC9E480068142804DD9E48B0F9D2
:1035F00000009E4908609A4801689D4800681230A2
:10360000814208DA9848B0F90000062803DB01205F
:103610009849086002E000209649086094480068D4
:10362000954908608E480068096888420EDBB9EE4B
:10363000080A874880ED000A90480068012814D1E4
:103640009FED8F0A824880ED000A0EE09FED8C0A04
:103650007F4880ED000A01208849086080480068A2
:103660000F2802DA012087490860704800680128A5
:103670007ED18548006801281AD17948006826283B
:1036800016D19FED820B53EC102B824890ED000B6E
:1036900051EC100B04F0B8FF0AD27F48007838B91B
:1036A00001207D4908707048B0F900007B4908800E
:1036B00075480068012826D177480078012822DB68
:1036C0002020774908807548B0F90000032806DDFE
:1036D0007248B0F90000062801DA212008806F48FE
:1036E000B0F90000062802DB22206D4908805C4802
:1036F00000686B49B1F90010884204DA9FED690A4D
:10370000534880ED000A6048006801280DD16248E6
:103710000078012809DB52480068202805DA624851
:10372000007810B90120604908705F4800780128CE
:103730001CD14B480068262818D1564890ED000B44
:1037400005F020F9B0EE409AF0EE609A1FEDCA0B3A
:1037500053EC102B51EC190B04F056FF06D24A48DB
:103760000068012802D1022047490860464800E06D
:103770001DE0006802280DDB43480068042809DCCE
:1037800037480068202805DA324890ED000A3048B2
:1037900080ED000A3C480068032808DB3A480068CE
:1037A000042804DC3048B0F9000040490880404853
:1037B000B0F90000B92813DD2748006801280FD1AF
:1037C000234890ED000AB5EEC00AF1EE10FA07DDCD
:1037D0002248006820B9B8EE080A1D4880ED000AAA
:1037E0001B4890ED000A1B4880ED000A184890ED38
:1037F000000A36E402460020002100BF07E032F94B
:103800001130834201DD32F911004B1CD9B203297A
:10381000F5DB704710B5034600210022002400BFED
:103820005FE0000094000020C8000020D4000020C9
:10383000B8000020D8000020E0000020E4000020B4
:10384000CC010020B00000203801002050F70120FA
:103850001001002014010020D0000020980000205A
:10386000C400002090010020760100207C0100208F
:103870006000002080010020A401002048010020F9
:10388000000034C2F8000020EC0000206666666686
:103890006666E6BF20010020B50100209E010020E1
:1038A000A0010020000048C29401002078010020FF
:1038B000E0010020002210E001EB810002EB00108B
:1038C000185C642807DD01EB810002EB0010185C36
:1038D000962800DA641C501CC2B2502AECDB481C4B
:1038E000C1B22929E6DB40F6A840844201DD01206F
:1038F00010BD0020FCE7000000B597B0012108468C
:1039000002F0A4FD0121480402F0D3FD0121480585
:1039100002F09CFD07220221FA4802F0DCFB07229C
:103920000321F84802F0D7FB0C20159003208DF8F6
:10393000590000208DF85A0001208DF85B0002200C
:103940008DF8580015A9EF4802F03AFB4FF4E1302A
:1039500011900020ADF84800ADF84A00ADF84C00D9
:10396000ADF850000C20ADF84E0011A9E64802F069
:10397000F9FE012240F22551E34803F031F840F20C
:103980002551E14803F05EF840F22551DE4803F08E
:1039900099F826208DF8400003208DF8410004207E
:1039A0008DF8420001208DF8430010A802F02DFA96
:1039B000D64803F0A5FB4FF0006001900020059071
:1039C00040200490D2480390CF48001D029000157B
:1039D000079000200690099008900A904FF440301C
:1039E0000B9000200C9001200D9000200F900E9065
:1039F00001A9C64803F026FCC649C44803F0D4FC1C
:103A0000C449C24803F02AFD01221021BF4803F037
:103A1000DFFC11208DF8400002208DF841000420C9
:103A20008DF8420001208DF8430010A802F0EDF956
:103A300001228021B44802F0CAFF0121B24802F0FD
:103A400019FF17B000BD38B500250024AF4803F0BA
:103A500056FCF0B9B04802F0BCF9044604B938BDD0
:103A6000322C00DD3224002509E06946AA4802F024
:103A70009BF99DF80000A6494855681CC5B2A542AF
:103A8000F3DB2146A14803F038FC01219F4803F0F5
:103A900013FC00BFE3E7F8B506460F4600240025F7
:103AA00000BF05E0315D9C4802F064F9601CC4B2BF
:103AB000BC42F7DB954803F022FCE0B9964802F0DF
:103AC00088F90546322D00DD3225002409E06946DB
:103AD000914802F069F99DF800008D490855601C75
:103AE000C4B2AC42F3DB2946884803F006FC01214E
:103AF000864803F0E1FBF8BD10B58649834803F022
:103B000084FC012809D18349804803F04DFC814998
:103B10007E4803F0A3FCFFF796FF10BD70B5054685
:103B20000E46002400BF0BE000BF4021764802F0A3
:103B30007CFF0028F9D0295D734802F0C6FE641CA2
:103B4000B442F1DB70BD10B5002107E042F63C0243
:103B500000BF1300A2F10102FBD1491C8142F5DB39
:103B600010BD10B540F22551674802F074FF0028DF
:103B70007ED040F22551644802F064FF40F22551A6
:103B8000614802F09FFF604802F0A3FEC4B26348A0
:103B9000007810F0400F21D06048007810F0800FBE
:103BA00024D12A2C06D15D48007840F080005B4982
:103BB00008701BE05948007800F03F0058490C5449
:103BC00056480078401C554908700846007800F0B7
:103BD0003F001F280ADD0020087007E0232C05D1D4
:103BE0004E48007840F040004C4908704B4800783F
:103BF00010F0800F48D04A4800784D2803D148483B
:103C00004078484908704648807848280FD1444891
:103C1000C0784349097940EA01104149497940EAAD
:103C200001203F49897940EA01303F4908803C48FA
:103C3000C0794C280FD13A48007A3949497A40EA8C
:103C400001103749897A40EA01203549C97A40EAAA
:103C50000130364908803248007B522811D1304863
:103C6000407B2F49897B40EA01102D49C97B00E048
:103C70000AE040EA01202A49097C40EA01302C4947
:103C8000088000202549087010BD7CB50446002539
:103C90000020009001900A2C1ADA20208DF80100F3
:103CA00004F13000C0B28DF8000000BF0DE000BF8D
:103CB0004021154802F0B9FE0028F9D01DF8051082
:103CC000114802F002FE681CC5B2012DEFDBB6E020
:103CD000642C40DA0A2C3EDB20208DF802000A20FA
:103CE00094FBF0F100FB11403030C0B28DF80100C0
:103CF0000A2094FBF0F03030C0B28DF800000025AF
:103D000026E000000000024000440040A0600240A5
:103D10009CF8012000802020D0F80120DD01002047
:103D2000A4F90120DC010020D6010020D8010020E8
:103D3000DA01002000BF4021414802F076FE002851
:103D4000F9D01DF805103E4802F0BFFD681CC5B251
:103D5000022DEFDB73E0B4F57A7F33DA642C31DBCC
:103D600020208DF803000A2094FBF0F100FB1140A5
:103D70003030C0B28DF802000A2094FBF0F00A2126
:103D800090FBF1F201FB12003030C0B28DF801005F
:103D9000642094FBF0F03030C0B28DF800000025B4
:103DA0000DE000BF4021264802F03FFE0028F9D078
:103DB0001DF80510224802F088FD681CC5B2042DCC
:103DC000EFDB3CE020208DF804000A2094FBF0F1AA
:103DD00000FB11403030C0B28DF803000A2094FB84
:103DE000F0F00A2190FBF1F201FB12003030C0B27A
:103DF0008DF80200642094FBF0F090FBF1F201FBDF
:103E000012003030C0B28DF801004FF47A7094FB8C
:103E1000F0F03030C0B28DF8000000250DE000BF9A
:103E20004021074802F001FE0028F9D01DF80510D6
:103E3000034802F04AFD681CC5B2052DEFDB7CBDCE
:103E40000044004000B58BB00121480602F031FB70
:103E50000121084602F0FAFA09220B21814802F0FA
:103E60003AF909220C217F4802F035F902208DF839
:103E70001C004FF4C050069006A97A4802F0A0F842
:103E800014208DF8040003208DF8050004208DF81F
:103E9000060001208DF8070001A801F0B6FF724866
:103EA00003F0C6FB08A803F0E7FC00208DF826000D
:103EB0008DF827008DF828008DF829008DF82A004C
:103EC00001208DF82B0000208DF822008DF82300B2
:103ED00008208DF8240003208DF82500ADF820007F
:103EE00008A9614803F0BDFB00208DF812008DF891
:103EF000130001208DF8140042F22000ADF80800F4
:103F00000020ADF80A004FF6FF70ADF80C00ADF8D8
:103F10000E000020ADF8100001208DF8150002A859
:103F200003F029FC012202214F4803F023FF0BB0CC
:103F300000BD03B585B040F24510009008208DF813
:103F40000A0000208DF809008DF808000DF10B0122
:103F500005A800F093F80DF10F0106A800F08EF807
:103F60006946414803F0F6FC07B000BD03B585B0D3
:103F700040F24710009008208DF80A0000208DF8CC
:103F800009008DF808000DF10B0105A800F0C6F836
:103F90000DF10D0106A800F071F86946324803F0F2
:103FA000D9FC07B000BDF0B585B004460D461746F4
:103FB0001E46009403208DF80A0000208DF80900A9
:103FC0008DF808008DF80B508DF80C708DF80D6091
:103FD0006946254803F0BEFC05B0F0BD10B586B0BB
:103FE000044622480088019001208DF80E00002030
:103FF0008DF80D008DF80C008DF80F4001A91A48BE
:1040000003F0A8FC06B010BD10B586B00024022154
:10401000154803F016FF18B301AA0021124803F057
:104020008EFD0198A0F5807001380FD10DF10F01C0
:104030000F4800F079F80DF111010E4800F074F806
:104040000DF113010C4800F055F800BF00BF00BF90
:104050000221054803F08FFF0221034803F0CFFE41
:1040600006B010BD0000024000640040F4010020D2
:10407000E0010020E4010020E801002008B5002252
:10408000009202680092BDF800200A70BDF800207E
:10409000120A4A70BDF802208A70BDF80220120A86
:1040A000CA7008BD08B5002200920B784A7843EA2E
:1040B0000222ADF800208B78CA7843EA0222ADF8DC
:1040C0000220009A026008BD08B50022009290ED1F
:1040D000000A8DED000ABDF800200A70BDF800202E
:1040E000120A4A70BDF802208A70BDF80220120A36
:1040F000CA7008BD08B5002200920B784A7843EADE
:104100000222ADF800208B78CA7843EA0222ADF88B
:1041100002209DED000A80ED000A08BD02780A70B9
:104120000288120A4A7070470A784B7842EA0322E2
:1041300012B20280704702780A70028812124A7026
:1041400070470A784B7842EA03220280704702786F
:1041500002F03F0230320A700288C2F38512303218
:104160004A7070470A78303A4B78303B42EA831203
:104170000280704730B50246138804200CE00A2400
:1041800093FBF4F504FB153430340C540A2493FBF0
:10419000F4F4A3B2441E60B20028F0DA30BD00008F
:1041A00010B52DED088BF94890ED000AF84880ED28
:1041B000000AF848006801280ED19FEDF70AF74879
:1041C00080ED000AF6480068012804D1B6EE000A26
:1041D000F24880ED000A83E0F248006801283BD1F4
:1041E0009FEDF10AED4880ED000AF04800680528CF
:1041F00028D19FEDEF0AE94880ED000AED48B0F9BB
:10420000000007286CDBE548006804F0E9F941ECA0
:10421000100BB0EE409AF0EE609A9FEDE70B53EC76
:10422000102B51EC190B04F023F841EC100BB0EEFD
:10423000408AF0EE608A51EC180B04F00DFAD74971
:1042400008604DE0D9480068022849DC9FEDDC0A8F
:10425000D24880ED000A43E0DA48006801283FD1E7
:10426000D9480068012805DC9FEDD10ACB4880EDD4
:10427000000A12E0D4480068022805D1B6EE000A10
:10428000C64880ED000A08E0CF480068032804DB38
:10429000B6EE000AC14880ED000AC648B0F9000039
:1042A00004281DDDBD48006804F09AF941EC100BAC
:1042B000B0EE409AF0EE609A9FEDC40B53EC102BD9
:1042C00051EC190B03F0D4FF41EC100BB0EE408A17
:1042D000F0EE608A51EC180B04F0BEF9AF490860AB
:1042E000B0480068012805D19FEDBA0ABA4880EDB0
:1042F000000A08E0B3480068012804D19FEDB70A1E
:10430000B54880ED000AA3480068012804D19FED5C
:10431000B30AB14880ED000AB1480068012803D013
:104320009F480068012804D19FEDAA0AAA4880EDA1
:10433000000A9A4890ED000A9548D0ED000A20EE58
:10434000200AA848D0ED000AA74890ED001A00EE18
:10435000810A8F48D0ED000AA34890ED001A70EE54
:10436000C10A9D4890ED001A01EE200A9F48D0ED49
:10437000000A30EE200A9E4880ED000A8548006859
:1043800001280FD19B48B0F900009B490968884279
:1043900008DD974890ED000AF7EE000A30EE200A9B
:1043A00080ED000A7F480068012821D17F4800681D
:1043B00003281DDB8E48006804F012F941EC100B55
:1043C000B0EE409AF0EE609A9FED8C0B53EC102B00
:1043D00051EC190B03F0EDFF41EC100BB0EE408AED
:1043E000F0EE608A51EC180B04F036F98049086051
:1043F0008448006801280ED10620734908607B4874
:1044000090ED000A804880ED000A00207F49086096
:1044100002207C4908607648006804F0E1F841EC2D
:10442000100BB0EE408AF0EE608A04F0ABFAB0EE0A
:10443000409AF0EE609A9FED760B53EC102B51EC06
:10444000190B04F0F5F833D26948006804F0C8F895
:1044500041EC100BB0EE40BAF0EE60BA04F092FA04
:10446000B0EE409AF0EE609A614890ED000AF3EEEB
:104470000E0A20EE200A10EE101A084604F0B0F8DA
:1044800041EC100BB0EE40AAF0EE60AA53EC192BF1
:1044900051EC1A0B04F005F841EC100BB0EE408A19
:1044A000F0EE608A51EC180B04F0D6F85049086021
:1044B000594890ED000A4C4880ED000A344890EDD0
:1044C000000A554880ED000A4948006804F088F861
:1044D00041EC100BB0EE40BAF0EE60BA9FED4F0B1E
:1044E00053EC102B51EC1B0B03F0DBFF41EC100BDA
:1044F000B0EE40AAF0EE60AA9FED4A0B53EC102BF1
:1045000051EC1A0B03F0B4FE41EC100BB0EE409AE4
:10451000F0EE609A9FED450B53EC102B51EC190B0C
:1045200003F04DFF41EC100BB0EE408AF0EE608AD4
:1045300051EC180B04F035F83E4908604FF4C860A0
:104540003D4908604FF47A703C4908603C48006877
:1045500001287FD13B480068B0B91648B0F9000087
:10456000052803DC02203749086070E01148B0F9E3
:104570000000052868DD0F48B0F90000072863DC5B
:1045800003203049086062E064E05DE0180000202C
:1045900004020020D0000020CDCCCC3E1002002030
:1045A0009C000020D4000020AE47613EEC000020BB
:1045B0006666E63E760100209A9999999999A93FF5
:1045C000713D8A3ED8000020E0000020B81E85EB37
:1045D00051B8AE3F0000000018020020CDCCCC3D09
:1045E00098000020140200200C0200206C02002021
:1045F00034020020E001002058000020CDCCCCCCBB
:10460000CCCCFC3FE800002030020020FC00002061
:104610000000000000003E400802002000000000F2
:1046200000805640000000000000F83F000000003D
:1046300000408F401C0200202002002024020020A5
:1046400080010020A801002003204C4908600020C0
:104650004B49086049480068002803DD40F698008F
:10466000484908604848B0F90000092803DD474878
:104670000068032818D04648006840B945480068DB
:10468000012804D14048B0F9000007280CDA42485C
:10469000006801280CD13D480068052808DB3A482D
:1046A000B0F90000092803DB40F69800354908609E
:1046B0003848006801280DD135480068012809D123
:1046C0003148B0F90000082804DB40F698002D4975
:1046D000086022E02F48006801280DD12C480068AE
:1046E000022809D12848B0F90000092804DB40F667
:1046F00098002449086010E02648006801280CD181
:1047000023480068032808DB1F48B0F9000005288B
:1047100003DB40F698001B49086020480068022827
:1047200008D11948B0F90000032803DB40F69800CF
:104730001449086017480068012807D11448006828
:10474000032803DB4FF4DC70154908601548006846
:10475000022803D14FF4DC70114908601248016847
:1047600008480068FFF7E5FB0D4801680F4800881E
:1047700000B2FFF7FBFBBDEC088B10BDA8010020C9
:10478000800100202002002076010020EC000020A3
:10479000E0000020D8000020D4000020E400002029
:1047A00024020020E80000201C0200205801002004
:1047B00010B50146C1F3C404C1F38523C1F3C4425B
:1047C000D00200EB4310204480B210BD2DE9F84F19
:1047D0000646884614461F46DDE90A9A00250DE084
:1047E000CDF800A014F8012B082101FB056188B267
:1047F0004B46414601F04DFA681CC5B2BD42EFDBA5
:10480000BDE8F88F2DE9FE4F82468B4691469846CB
:10481000C34511D1CA4501DC544601E04C46D1469E
:1048200006E0594620460C9A01F0C2F9601C84B299
:104830004C45F6DDBDE8FE8FC34503DDABEB08005C
:1048400087B202E0A8EB0B0087B2CA4510D1C3457E
:1048500001DC5D4601E04546D84606E02946504663
:104860000C9A01F0A5F9681C85B24545F6DDE1E733
:10487000CA4507DDAAEB090086B24C46D14645463B
:10488000D84604E0A9EB0A0086B254465D46BE4213
:1048900011D10DE0601C84B2454502DD681E85B271
:1048A00001E0681C85B2294620460C9A01F080F987
:1048B0004C45EFDDA2E0294620460C9A01F078F93C
:1048C00045454DDABE4225DDC6EB470000B20290F9
:1048D000780000B20190B81B400000B2009016E0D2
:1048E000601C84B20298002805DADDE90110084452
:1048F00000B2029006E0681C85B200990298084454
:1049000000B20290294620460C9A01F051F94C451C
:10491000E6DB73E0C7EB460000B20290700000B225
:104920000190F01B400000B2009016E0681C85B2B8
:104930000298002805DADDE90110084400B202906F
:1049400006E0601C84B200990298084400B202900C
:10495000294620460C9A01F02BF94545E6DB4DE04F
:10496000BE4225DDC6EB470000B20290780000B2DF
:104970000190B81B400000B2009016E0601C84B2A9
:104980000298002805DADDE90110084400B202901F
:1049900006E0681E85B200990298084400B20290B1
:1049A000294620460C9A01F003F94C45E6DB25E048
:1049B000C7EB460000B20290700000B20190F01BFD
:1049C000400000B2009016E0681E85B202980028F0
:1049D00005DADDE90110084400B2029006E0601C2F
:1049E00084B200990298084400B2029029462046F9
:1049F0000C9A01F0DDF8A845E6DB00BF00BF19E71F
:104A00002DE9F84F06460F469146984600244D463C
:104A10000320A0EB49000FFA80FAA6E00A98E0B361
:104A200007EB050C1FFA8CF3A6EB040C1FFA8CF2B3
:104A300007EB050C1FFA8CF106EB040C1FFA8CF047
:104A4000CDF80080FFF7DEFEA7EB050C1FFA8CF314
:104A5000A6EB040C1FFA8CF2A7EB050C1FFA8CF1E5
:104A600006EB040C1FFA8CF0CDF80080FFF7CAFEAD
:104A700007EB040C1FFA8CF3A6EB050C1FFA8CF263
:104A800007EB040C1FFA8CF106EB050C1FFA8CF0F7
:104A9000CDF80080FFF7B6FE00E014E0A7EB040CB1
:104AA0001FFA8CF3A6EB050C1FFA8CF2A7EB040C93
:104AB0001FFA8CF106EB050C1FFA8CF0CDF8008084
:104AC000FFF7A0FE37E07A1991B2321990B2424650
:104AD00001F06EF87A1991B2321B90B2424601F0A1
:104AE00067F87A1B91B2321990B2424601F060F831
:104AF0007A1B91B2321B90B2424601F059F83A1932
:104B000091B2721990B2424601F052F83A1991B23C
:104B1000721B90B2424601F04BF83A1B91B27219E7
:104B200090B2424601F044F83A1B91B2721B90B227
:104B3000424601F03DF8601C84B2BAF1000F0EDB72
:104B4000681E85B2A0000FFA80FBABEB85000FFA60
:104B500080FB0BF10A0050440FFA80FA05E00620B2
:104B600000EB840050440FFA80FAA5423FF756AF9D
:104B7000BDE8F88F2DE9F84F054688461646994658
:104B8000DDE90A7ABAF1000F13D0B54202DD3446EE
:104B90002E4600E02C4608E04B4622464146204681
:104BA0000097FFF72FFE601C84B2B442F4DDBDE82D
:104BB000F88F4B462A46414628460097FFF722FECB
:104BC0004B463246494628460097FFF71BFE4346B0
:104BD0003246494630460097FFF714FE43462A46C0
:104BE000414630460097FFF70DFE00BFDFE72DE995
:104BF000FC4105460E4614461F46DDF8208030195C
:104C000083B2281982B231462846CDE90078FFF7F1
:104C1000B1FFBDE8FC810000FEB504460D46174615
:104C20001E462048006802903A461FA102A803F0E1
:104C300095FE4FF6FF700021B3B2CDE90010A9B286
:104C4000A0B202AAFFF7C2FDFEBD30B52DED048B68
:104C500085B004460D46B0EE408A1249091D03C9CD
:104C6000CDE9030118EE100A03F0BAFC41EC100B79
:104C7000B0EE409AF0EE609A53EC192B0BA103A80A
:104C800003F06CFE4FF6FF700021CDE90010A9B2D1
:104C9000A0B2052303AAFFF799FD05B0BDEC048B74
:104CA00030BD00008C9300082564000025352E32AD
:104CB000660000001CB50121084601F0E9FB012156
:104CC000FA2001F0C3FB0C220021F94801F003FA9D
:104CD0000C220121F64801F0FEF90C220421F448CF
:104CE00001F0F9F90C220521F14801F0F4F90C2248
:104CF0000821EF4801F0EFF90C220921EC4801F0FE
:104D0000EAF90C220A21EA4801F0E5F90C220E2109
:104D1000E74801F0E0F90C220F21E54801F0DBF94A
:104D20004CF23370009003208DF8050002208DF8BE
:104D3000040000208DF806008DF807006946DC4865
:104D400001F03EF90C220721DA4801F0C4F90C22E7
:104D50000821D84801F0BFF90C220921D54801F0FB
:104D6000BAF90C220A21D34801F0B5F90C220B2123
:104D7000D04801F0B0F90C221146CE4801F0ABF951
:104D80000C220D21CB4801F0A6F90C220E21C948B6
:104D900001F0A1F90C220F21C64801F09CF94FF651
:104DA000807000906946C34801F00AF90C22042182
:104DB000C04801F090F9102000906946BD4801F00C
:104DC000FFF80C221146BC4801F085F94FF48050E1
:104DD00000906946B84801F0F3F8402000900220A6
:104DE0008DF8050001208DF8040000208DF80600E4
:104DF0008DF807006946B14801F0E2F84021AF485C
:104E000001F05CF91CBD00B597B0052001900020B1
:104E100002900920039000200490059006900790CE
:104E200006200890002009900A9010200B90002086
:104E30000C900E900F9010904FF480501190002025
:104E400012901390149001A81590169008A801F0E4
:104E500065FE0121062001F00AFF17B000BD10B564
:104E6000FFF728FFFFF7CFFF10BD954A1080921C77
:104E7000118070470146924A921C108870479049F1
:104E8000088870478E490880704722208C49088026
:104E900070478B49891C088070472222884B1A80F2
:104EA0009A1C11884A1C91B29A1C1088704710B540
:104EB00003460C4621120620FFF7D7FF21460720A4
:104EC000FFF7D3FF19120220FFF7CFFF1946032087
:104ED000FFF7CBFF10BD014606E040F6FF7200E091
:104EE000521E002AFCD1491E0029F6D1704710B588
:104EF00003460C4673480088A0F5094189390BD157
:104F000021464E20FFF7B1FF40F23F10C01A81B298
:104F10004F20FFF7AAFF19E06A480088A0F5194161
:104F2000193908D119464E20FFF79FFF21464F201F
:104F3000FFF79BFF0AE021462020FFF796FF40F293
:104F40003F10C01A81B22120FFF78FFF10BDF0B5CE
:104F500004460F4615461E4639462046FFF7C7FF52
:104F600021465020FFF781FF39465220FFF77DFF91
:104F700029465120FFF779FF31465320FFF775FF8F
:104F8000F0BD30B50446002500210846FFF7AFFF0D
:104F9000FFF77BFF00BF03E04948801C04806D1CC5
:104FA000B5F5963FF8D330BD01B50098FBF782FA0E
:104FB00008BD10B5FFF753FF1920FBF77BFA00205F
:104FC000FFF758FF3F4908800520FBF773FA0020E0
:104FD000FFF750FF3B49088008460088A0F51341C1
:104FE000253905D037480088A0F5134128396BD101
:104FF0004021324801F060F84021304801F05CF86F
:1050000043F20801E320FFF730FF1221E720FFF70A
:105010002CFF41F23121EF20FFF727FF0121002073
:10502000FFF723FF4FF480710120FFF71EFF4FF4BD
:10503000E0610220FFF719FF41F238010320FFF77A
:1050400014FF00210420FFF710FF40F20721082081
:10505000FFF70BFF00210920FFF707FF00210A20BF
:10506000FFF703FF01210C20FFF7FFFE00210D20B9
:10507000FFF7FBFE00210F20FFF7F7FE00211020B5
:10508000FFF7F3FE07211120FFF7EFFE00211220AA
:10509000FFF7EBFE00211320FFF7E7FE4CF2503440
:1050A00001E0601E84B2002CFBDC4CF250340EE0B8
:1050B000000C02400010024000180240001C024098
:1050C000FEFF1F6C70020020FDE0601E84B2002C09
:1050D000FBDC41F290511020FFF7C7FE40F2272180
:1050E0001120FFF7C2FE4CF2503401E0601E84B282
:1050F000002CFBDC4CF2503401E0601E84B2002C2A
:10510000FBDC9C211220FFF7B0FE4CF2503401E092
:10511000601E84B2002CFBDC4CF2503401E0601EB7
:1051200084B2002CFBDC4FF4C8511320FFF79DFE26
:1051300023212920FFF799FE0E212B20FFF795FE52
:105140004CF2503401E0601E84B2002CFBDC4CF2C7
:10515000503401E0601E84B2002CFBDC00212020D2
:10516000FFF783FE00212120FFF77FFE4CF2503431
:1051700001E0601E84B2002CFBDC4CF2503401E0F4
:10518000601E84B2002CFBDC07213020FFF76DFE8F
:1051900040F207713120FFF768FE06213220FFF749
:1051A00064FE40F204713520FFF75FFE41F60471A2
:1051B0003620FFF75AFE04213720FFF756FE002164
:1051C0003820FFF752FE40F206713920FFF74DFEFE
:1051D00040F201713C20FFF748FE0F213D20FFF710
:1051E00044FE4CF2503401E0601E84B2002CFBDC23
:1051F0004CF2503401E0601E84B2002CFBDC002134
:105200005020FFF732FEEF215120FFF72EFE002144
:105210005220FFF72AFE40F23F115320FFF725FEF0
:105220004FF427416020FFF720FE01216120FFF7A6
:105230001CFE00216A20FFF718FE00218020FFF7E6
:1052400014FE00218120FFF710FE00218220FFF7CD
:105250000CFE00218320FFF708FE00218420FFF7C9
:1052600004FE00218520FFF700FE10219020FFF7AB
:10527000FCFD4FF4C0619220FFF7F7FDFE48008867
:10528000A0F51341283910D103219320FFF7EDFD3C
:105290004FF488719520FFF7E8FD00219720FFF774
:1052A000E4FD00219820FFF7E0FD40F233110720D4
:1052B000FFF7DBFD00212020FFF7D7FD0021212093
:1052C000FFF7D3FD5DE2EC480088A0F513412039DB
:1052D00004D0E9480088B0F5134F7CD1002108467E
:1052E000FFF7C3FD4FF480710120FFF7BEFD4FF4BF
:1052F000E0610220FFF7B9FD41F218010320FFF73A
:10530000B4FD00210420FFF7B0FD40F20221082087
:10531000FFF7ABFD00210920FFF7A7FD00210A20C0
:10532000FFF7A3FD01210C20FFF79FFD00210D20B9
:10533000FFF79BFD00210F20FFF797FD4CF2503443
:1053400001E0601E84B2002CFBDC4CF2503401E022
:10535000601E84B2002CFBDC40F201110720FFF735
:1053600084FD4CF2503401E0601E84B2002CFBDC62
:105370004CF2503401E0601E84B2002CFBDC4FF490
:1053800086511020FFF771FD07211120FFF76DFDF9
:105390004FF488711220FFF768FD4FF4306113203D
:1053A000FFF763FD00212920FFF75FFD44F21001A4
:1053B0002B20FFF75AFD00215020FFF756FDEF216B
:1053C0005120FFF752FD00215220FFF74EFD40F221
:1053D0003F11532000E045E0FFF747FD4FF41C511B
:1053E0006020FFF742FD01216120FFF73EFD002113
:1053F0006A20FFF73AFD00218020FFF736FD0021EB
:105400008120FFF732FD00218220FFF72EFD0021D1
:105410008320FFF72AFD00218420FFF726FD0021CD
:105420008520FFF722FD10219020FFF71EFD0021AF
:105430009220FFF71AFD01219320FFF716FD4FF48C
:1054400088719520FFF711FD00219720FFF70DFDD2
:1054500000219820FFF709FD40F273110720FFF7A4
:1054600004FD70E384480088A0F5134131397CD1F4
:1054700041F21401E720FFF7F8FC4FF4807101209E
:10548000FFF7F3FC4FF400710220FFF7EEFC41F24E
:1054900030010320FFF7E9FC40F202210820FFF76A
:1054A000E4FC00210920FFF7E0FC00210A20FFF7BF
:1054B000DCFC00210C20FFF7D8FC00210D20FFF7B9
:1054C000D4FC00210F20FFF7D0FC00211020FFF7B3
:1054D000CCFC07211120FFF7C8FC00211220FFF7A8
:1054E000C4FC00211320FFF7C0FCC820FFF75CFDBF
:1054F00041F290611020FFF7B8FC40F22721112003
:10550000FFF7B3FC3220FFF74FFD0C211220FFF70D
:10551000ACFC3220FFF748FD4FF400611320FFF789
:10552000A4FC11212920FFF7A0FC0B212B20FFF761
:105530009CFC3220FFF738FD00212020FFF795FC6E
:1055400000212120FFF791FC00213020FFF78DFC86
:105550004FF483713120FFF788FC00213220FFF7E0
:1055600084FC4FF40171352000E075E0FFF77DFC0D
:1055700041F20A613620FFF778FC40F207713720CC
:10558000FFF773FC4FF483713820FFF76EFC40F295
:1055900007713920FFF769FC40F202413C20FFF718
:1055A00064FC40F60F413D20FFF75FFC00215020D6
:1055B000FFF75BFCEF215120FFF757FC0021522041
:1055C000FFF753FC40F23F115320FFF74EFC4FF41E
:1055D0001C516020FFF749FC01216120FFF745FCC9
:1055E00000216A20FFF741FC00218020FFF73DFCED
:1055F00000218120FFF739FC00218220FFF735FCD4
:1056000000218320FFF731FC00218420FFF72DFCCF
:1056100000218520FFF729FC10219020FFF725FCB1
:105620004FF4C0619220FFF720FC21210720FFF7F3
:105630001CFC3220FFF7B8FC61210720FFF715FCA6
:105640003220FFF7B1FC40F233110720FFF70DFCC9
:105650003220FFF7A9FC76E207480088A0F519413F
:1056600019397DD106212820FFF7FFFB01210020F9
:10567000FFF7FBFB002101E0700200201020FFF784
:10568000F4FB47F2EF210120FFF7EFFB4FF4C0617D
:105690000220FFF7EAFB46F638210320FFF7E5FB7F
:1056A00046F674011120FFF7E0FB00210F20FFF701
:1056B000DCFB45F208310B20FFF7D7FB03210C2060
:1056C000FFF7D3FB0A210D20FFF7CFFB4FF4385132
:1056D0000E20FFF7CAFBBE211E20FFF7C6FB4FF4CA
:1056E00000412520FFF7C1FB4FF4F0412620FFF7D2
:1056F000BCFB78212720FFF7B8FB00214E20FFF7E5
:10570000B4FB00214F20FFF7B0FB40F6D901122077
:10571000FFF7ABFB00213020FFF7A7FB4FF48271AE
:105720003120FFF7A2FB4FF480713220FFF79DFB81
:1057300040F205313320FFF798FB40F20551342049
:10574000FFF793FB40F205313520FFF78EFB40F267
:1057500007713620FFF789FB4FF44071372000E0D6
:1057600010E0FFF782FB4FF490513A20FFF77DFBEA
:105770004FF400613B20FFF778FB33210720FFF750
:1057800074FBE0E1FB480088A0F5A85105397DD104
:105790000720FFF76AFB0520FFF706FC4FF48E7128
:1057A0001220FFF762FB0121A420FFF75EFB0F210F
:1057B0000820FFF75AFB08210A20FFF756FB0821B3
:1057C0000D20FFF752FB40F207713020FFF74DFB31
:1057D00007213120FFF749FB40F203613220FFF738
:1057E00044FB4FF4E0613320FFF73FFB40F202211E
:1057F0003420FFF73AFB02213520FFF736FB41F654
:105800000F713620FFF731FB40F207713720FFF7A9
:105810002CFB00213820FFF728FB00213920FFF75F
:1058200024FB40F207713A20FFF71FFB00213B20C9
:10583000FFF71BFB07213C20FFF717FB00213D2052
:10584000FFF713FB0520FFF7AFFB01210720FFF750
:105850000CFB01211720FFF708FB0520FFF7A4FB35
:105860004FF4BD511020FFF700FB40F2172111202B
:10587000FFF7FBFA4FF48F711220FFF7F6FA4FF49F
:1058800070611320FFF7F1FA002100E094E02A2074
:10589000FFF7EBFA0A212920FFF7E7FA4FF49F718F
:1058A0001220FFF7E2FA00215020FFF7DEFAEF2185
:1058B0005120FFF7DAFA00215220FFF7D6FA40F222
:1058C0003F115320FFF7D1FA4FF41C516020FFF72E
:1058D000CCFA01216120FFF7C8FA00216A20FFF706
:1058E000C4FA00218020FFF7C0FA00218120FFF7D1
:1058F000BCFA00218220FFF7B8FA00218320FFF7CD
:10590000B4FA00218420FFF7B0FA00218520FFF7C8
:10591000ACFA13219020FFF7A8FA4FF440719220BF
:10592000FFF7A3FA05219320FFF79FFA00219520A6
:10593000FFF79BFA00219720FFF797FA00219820A4
:10594000FFF793FA4FF480710120FFF78EFA4FF4BE
:10595000E0610220FFF789FA41F230010320FFF7EE
:1059600084FA00210420FFF780FA00210C20FFF7C1
:105970007CFA00210F20FFF778FA00212020FFF7A2
:1059800074FA00212120FFF770FA21210720FFF788
:105990006CFA1420FFF708FB61210720FFF765FA76
:1059A0001420FFF701FB40F273110720FFF75DFAA7
:1059B0001420FFF7F9FAC6E06E480088A0F5094107
:1059C0008939F8D101210020FFF74FFA4AF6A401E6
:1059D0000320FFF74AFA00210C20FFF746FA40F6B1
:1059E0000C010D20FFF741FA4FF42C510E20FFF768
:1059F0003CFAB0211E20FFF738FA42F63F31012071
:105A0000FFF733FA4FF4C0610220FFF72EFA0021AE
:105A10001020FFF72AFA46F278011120FFF725FA45
:105A200000210520FFF721FA00210620FFF71DFACB
:105A30004EF61C711620FFF718FA03211720FFF706
:105A400014FA40F233210720FFF70FFA00210B2050
:105A5000FFF70BFA00210F20FFF707FA0021412082
:105A6000FFF703FA00214220FFF7FFF90021482049
:105A7000FFF7FBF940F23F114920FFF7F6F900214B
:105A80004A20FFF7F2F900214B20FFF7EEF94FF41F
:105A90006F414420FFF7E9F900214520FFF7E5F9C0
:105AA00040F23F114620FFF7E0F940F20771302045
:105AB000FFF7DBF94FF401713120FFF7D6F94FF40E
:105AC00001713220FFF7D1F940F202513320FFF784
:105AD000CCF940F207513420FFF7C7F94FF40171B8
