:020000040800F2
:10000000100800204D400008390400083B04000897
:100010003F040008430400084704000800000000F3
:100020000000000000000000000000004B04000879
:100030004D040008000000004F04000851040008AF
:1000400067400008674000086740000867400008F4
:1000500067400008674000086740000867400008E4
:1000600067400008674000086740000867400008D4
:1000700067400008674000086740000867400008C4
:1000800067400008674000086740000867400008B4
:1000900067400008674000086740000867400008A4
:1000A0006740000867400008674000086740000894
:1000B000D93C0008933D00086740000867400008ED
:1000C0006740000867400008674000086740000874
:1000D00067400008C33F0008674000086740000809
:1000E000A1060008674000086740000800F002F819
:1000F00000F03AF80AA090E8000C82448344AAF188
:100100000107DA4501D100F02FF8AFF2090EBAE885
:100110000F0013F0010F18BFFB1A43F0010318473B
:100120007C6700009C670000103A24BF78C878C143
:10013000FAD8520724BF30C830C144BF04680C60ED
:10014000704700000023002400250026103A28BF35
:1001500078C1FBD8520728BF30C148BF0B60704739
:100160001FB51FBD10B510BD05F020FD1146FFF7EE
:10017000F7FF00F0B6F805F03EFD03B4FFF7F2FF1D
:1001800003BC03F0C1FE00002DE9F0470024A146A6
:100190000027A046A2469148007802287ED104207C
:1001A00000F0E6FE0021084605F030FD00F0E5FD18
:1001B00000208B4908608B49C1F884014FF0010091
:1001C000894908604FF0000008604FF00100844941
:1001D00008608449C1F884014FF0000658E04FF0F0
:1001E00088308249086000207F49086080480068A4
:1001F000C5B24FF001007B49C1F884014FF6FF7092
:1002000000EA05254FF00000C1F884017848006835
:10021000C0B240EA05054FF00100734908604FF095
:100220003330724908604FF48070724908614FF4AE
:1002300000704861704805604FF0800048610861B7
:100240004FF4007008616D4830F81400B0421ED1C0
:100250003C2C1CDC142C05DA15F4004F15D1781C4D
:10026000C7B212E0282C07DA15F4004F0DD009F1BF
:10027000010000F0FF0908E03C2C06DA15F4004FFD
:1002800003D108F1010000F0FF08601CC4B2761C25
:10029000B6F5963FA3D30020504900E01EE0087059
:1002A0000024B9F10D0F01DC824617E0B9F10D0F02
:1002B00006DD0D2F04DDB8F10D0F01DD4FF0010A51
:1002C0000D2F04DCB8F10D0F01DD4FF0020A0D2FE8
:1002D00004DDB8F10D0F01DC4FF0030A5046BDE814
:1002E000F0871CB503F08AFD4FF4165003F01AFE98
:1002F00000F09EF901F029F803F04AFB4FF4784032
:100300003F4908803FA010210B46C822CDE90010CC
:100310006E213C2003F0FEFA18E03EA010210B46AF
:10032000C822CDE90010E6213C2003F0F3FAC820F2
:1003300003F0A0FD4FF6FF70F623EF22E6210090B8
:100340003C2003F078F8C82003F094FD00F004FA94
:100350000028E2D133A010210B46C822CDE90010BD
:100360006E213C2003F0D6FA40F2DC5003F082FD0F
:1003700000F0C4F9012000F0E3FA022000F043FA93
:100380000020164908702B49086025E0FFF7FCFEA5
:10039000044634B1012C07D0022C0CD0032C18D108
:1003A00010E003F055FC15E003F02EFC4FF4FA705A
:1003B00003F060FD0EE003F040FC4FF4FA7003F030
:1003C00059FD07E003F02FFC4FF4FA7003F052FDE3
:1003D00000E000BF00BF00BFD8E7000078000020A9
:1003E000900121420000214284012142000C014081
:1003F000080C0140001001400C0C014000000020DE
:10040000900000204F563736373020496E69742EE1
:100410002E2E00004F5637363730204572726F72DD
:10042000212100004F563736373020496E6974203D
:100430004F4B0000AC012142704700BFFEE700BFF8
:10044000FEE700BFFEE700BFFEE77047704770475A
:10045000704700000CB50020019000906B480068C8
:1004600040F480306949086000BF6848006800F4C3
:10047000003000900198401C0190009818B9019834
:10048000B0F5A06FF1D16148006810F4003F02D0D0
:100490000120009001E0002000900098012842D146
:1004A0005B48006840F01000594908600846006841
:1004B00020F0030008600846006840F00200086071
:1004C00052484068514948600846406848600846BC
:1004D000406840F4806048600846406820F47C1022
:1004E00048600846406840F4E810486008460068E4
:1004F00040F08070086000BF4448006810F0007F42
:10050000FAD04248406820F003004049486008465D
:10051000406840F00200486000BF3C48406800F07E
:100520000C000828F9D10CBD10B5FFF793FF10BDE2
:1005300010B53648006840F00100344908600846AC
:1005400040683449084031494860084600683249EB
:1005500008402E4908600846006820F480200860A2
:100560000846406820F4FE0048604FF41F00886091
:10057000FFF7DAFF4FF000602849086010BD10B5A2
:10058000002100200022214B5B6803F00C0121B107
:10059000042906D0082928D107E0214B214C2360EB
:1005A00027E01F4B1F4C236023E0184B5B6803F4CC
:1005B0007010164B5B6803F48032022303EB90400B
:1005C00022B9194B4343174C23600DE00F4B5B6876
:1005D00013F4003F04D0144B4343124C236003E058
:1005E0000F4B43430F4C236003E00D4B0D4C236036
:1005F00000BF00BF054B5B68C3F303130B4CE15C0A
:10060000084B1B68CB40074C236010BD0010024014
:10061000002002400000FFF8FFFFF6FE08ED00E0BA
:1006200000127A007C00002000093D0080000020BC
:100630001848806940F004001649886108468069BE
:1006400040F0200088611448006820F00F00124933
:1006500008600846006840F0030008600E48083053
:10066000006840F480700C49083108600B4800684D
:1006700020F47060094908600846006840F4407042
:10068000086006480C30006840F0040003490C3153
:100690000860704700100240040801400014014047
:1006A00010B54FF4004004F055FB012821D1264835
:1006B000007802281DDA2448007850B90020234928
:1006C00008604FF001002249C1F88001214908600B
:1006D00009E000201F4908601D49C1F880014FF062
:1006E00001001A4908601848007800F10100164915
:1006F00008704FF4004004F03EFB10BD0EB50F2112
:10070000002003F0A5FE012003F0E6FB4FF40040BB
:10071000019000208DF808000C208DF809000120C0
:100720008DF80A0001A804F0AFFA28208DF8000027
:1007300000208DF8010001208DF802008DF80300E3
:10074000684603F0A8FC0EBD78000020800121421D
:1007500000002142B001214238B5002501210C20C2
:1007600004F018F84FF40040ADF8000048208DF870
:10077000030003208DF802006946AE4803F054FDE3
:1007800041F61300ADF8000010208DF80300694613
:10079000A84803F049FD41F61301A64803F0EFFD18
:1007A000012003F099FB00F049F98021122000F0AC
:1007B0003AFA08B1012038BD322003F05BFB0B2070
:1007C00000F050FA0446732C01D00220F3E70A200F
:1007D00000F048FA0446762C01D00220EBE7002511
:1007E0000DE0954A02EB45025178934A12F8150044
:1007F00000F019FA022003F03DFB681C85B2552D6C
:10080000EFD30020D7E72DE9F0410446E725002685
:100810000027012C06D0022C08D0032C0AD0042C6F
:1008200010D10BE0E5255A265C270BE0E52558267C
:10083000602707E0E52584264C2703E0E52596267A
:10084000402700BF00BF2946132000F0ECF93146D5
:10085000012000F0E8F93946022000F0E4F9BDE893
:10086000F0812DE9F0410446802522265E2734B12F
:10087000012C08D0032C0AD0042C10D10BE0402509
:1008800011262F270BE066251B264B2707E099250D
:100890002826712703E0C02533268D2700BF00BF1F
:1008A00029464F2000F0BFF92946502000F0BBF93F
:1008B0000021512000F0B7F93146522000F0B3F981
:1008C0003946532000F0AFF92946542000F0ABF927
:1008D0009E21582000F0A7F9BDE8F08170B50446CC
:1008E000002534B1012C06D0032C06D0042C08D1ED
:1008F00005E0B02505E0982503E0182501E0302546
:1009000000BF00BF2946552000F08DF970BD70B5BD
:100910000446402534B1012C06D0032C06D0042C0B
:1009200008D105E0302505E0382503E0502501E039
:10093000602500BF00BF2946562000F074F970BD45
:100940002DE9F04104460425C0268027072C1DD23E
:10095000DFE804F01C04080C10141800242580267D
:10096000802713E01425802680270FE01425C02659
:1009700080270BE014254026402707E01425802619
:10098000C02703E01425A026402700BF00BF29464A
:100990003A2000F048F93146682000F044F9394621
:1009A000672000F040F9BDE8F0812DE9F0470546E9
:1009B0000E469046994605EB48001FFA80FA06EB72
:1009C000490087B2B7F5447F02DDA7F5447087B2CE
:1009D000032000F047F9044604F0F0040AF0030194
:1009E000284661F39F0004432146032000F01BF9D1
:1009F000C5F38701192000F016F9CAF387011A2000
:100A000000F011F9322000F02DF9044604F0C00482
:100A100007F00701304661F3DF000443C6F3C70166
:100A2000172000F000F9C7F3C701182000F0FBF809
:100A3000BDE8F08700080140E05C000808B501212E
:100A4000102003F0A7FE3020ADF8000010208DF834
:100A5000030003208DF802006946964803F0E4FB8A
:100A60003021944803F08BFC9248006820F4700019
:100A7000904908600846006840F44010086008BDCE
:100A800010B501208C4908608C49C1F890014FF0E5
:100A9000320003F0CCF90020874908604FF03200A3
:100AA00003F0C5F900208549C1F8900110BD10B5CB
:100AB0000020814908604FF0320003F0B8F90120AE
:100AC0007E49C1F89001322003F0B1F901207A4942
:100AD00008604FF0320003F0AAF910BD10B53220C3
:100AE00003F0A5F90120744908607449C1F8900128
:100AF0004FF0320003F09BF90020714908604FF07D
:100B0000320003F094F900206C49C1F894013220BE
:100B100003F08DF910BD70B5044600261EE014F0F8
:100B2000800F03D001206449086002E00020624980
:100B300008604FEA44604FEA10644FF0320003F05F
:100B400076F901205E4908604FF0320003F06FF93A
:100B500000205A49C1F89001701CC6B2082EDEDB95
:100B60005448006820F47000524908600846006844
:100B700040F400000860322003F059F90120504988
:100B800008604FF0320003F052F94C48D0F81401DD
:100B900008B1012500E000250020494908604548CA
:100BA000006820F47000434908600846006840F47B
:100BB00040100860284670BD70B500243D480068AC
:100BC00020F470003B4908600846006840F40000CB
:100BD0000860082518E0322003F029F9012038497F
:100BE00008604FEA44604FEA10643448D0F81401BA
:100BF00008B1601CC4B2322003F019F9002030495A
:100C00000860A5F10100C5B2002DE4DC29480068A8
:100C100020F47000274908600846006840F440103E
:100C20000860204670BD70B505460C460026FFF7EB
:100C300027FF4220FFF76FFF00B10126642003F079
:100C4000F6F82846FFF767FF00B10126642003F09D
:100C5000EEF82046FFF75FFF00B10126FFF727FF00
:100C6000304670BD70B504460025FFF709FF4220ED
:100C7000FFF751FF642003F0DAF82046FFF74BFF3F
:100C8000642003F0D4F8FFF712FF642003F0CFF8DC
:100C9000FFF7F6FE4320FFF73EFF642003F0C7F89E
:100CA000FFF78AFF0546FFF719FFFFF700FF284609
:100CB00070BD000000100140940122420000224259
:100CC000900122424FF48071FE4A51614900516106
:100CD000FD490860802151611161890011617047EF
:100CE00010B54FF08830F8490C390860091D0860CC
:100CF0000020F54908608815F24908614000486104
:100D000040204861F1488088A0F50941893902D125
:100D1000022003F08CF84020EA490861EA48001FED
:100D2000006884B2481508614FF03330E6490C3949
:100D30000860091D08604FF6FF70E349086020460F
:100D400010BD10B504460B462046FFF7BBFF4FF41D
:100D50008070DC49086140004861DB480360802006
:100D6000486108618000086110BD10B50446204646
:100D7000FFF7A8FFFFF7B4FF10BD00B5D349C8794E
:100D8000FFF7A0FF00BD4FF48071CE4A116149000A
:100D90005161CD4908608021516111618900116163
:100DA000704730B5014601F01F04C1F34513CA0A6C
:100DB000E50205EB43151544A8B230BD2DE9F0411D
:100DC00005460E46C1480088A84203DDBF4840885A
:100DD000B04202DC0020BDE8F0813146284604F034
:100DE00015FFBA488088A0F51341413905D0B748AE
:100DF0008088A0F5D041043903D12E20FFF762FF8F
:100E000002E02220FFF75EFF4FF08830AE490C3938
:100E10000860091D08604FF6FF70AB49086088152F
:100E2000A84908614000486140204861012002F063
:100E3000FEFF4020A34908614861012002F0F7FF4E
:100E40004020A0490861A048001F006884B29F4864
:100E50008088A0F5134141390ED14020994948615D
:100E600008619948001F00681FFA80F8E7B24FF642
:100E7000FF7000EA07270DE094488088A0F5D04174
:100E8000043907D140208F49486108618E48001F0E
:100E9000006884B24FF400708A4908614FF0333023
:100EA00089490C390860091D08604FF6FF708649B2
:100EB000086086488088A0F51341253917D08348FB
:100EC0008088A0F58A41353911D080488088A0F506
:100ED0008A4131390BD07D488088A0F50941893994
:100EE00005D07A488088A0F53541053901D12046E2
:100EF00071E776488088A0F51341413907D1E012A7
:100F0000C002B91240EA411040EAE82063E72046F7
:100F1000FFF747FF5FE700B56C488088A0F51341F5
:100F2000413905D069488088A0F5D041043903D102
:100F30002920FFF7C7FE04E040F273110720FFF7F6
:100F400000FF00BD00B561488088A0F5134141391C
:100F500005D05E488088A0F5D041043903D128200F
:100F6000FFF7B0FE03E000210720FFF7EAFE00BD17
:100F7000F0B50546002400275448807901281ED189
:100F800052488088A0F5D041043918D0082D15D2D8
:100F9000DFE805F00406080A0C0E101206250DE025
:100FA00007250BE0042509E0052507E0012505E0FC
:100FB000002503E0032501E0022500BF00BF4348F0
:100FC0008088A0F51341413905D040488088A0F5BC
:100FD000D04104397CD1082D1CD2DFE805F004068D
:100FE000090C0F12151800BF14E044F0800411E042
:100FF00044F040040EE044F0C0040BE044F0200450
:1010000008E044F0600405E044F0A00402E044F08D
:10101000E00400BF00BF362744F008042B48808856
:10102000A0F5D041043901D144F0020421463846EC
:10103000FFF787FE14F0200F0DD0244800882349C5
:101040004988884214DA2148068840881F49088068
:10105000084646800CE01D4800881C4949888842A3
:1010600006DD1A48068840881849088008464680E8
:101070001649087AFFF726FE4FF48070114908617F
:101080004000486100201049086080200D494861F7
:10109000086180000861401008614000486100203C
:1010A000094908608020074948610861800008619B
:1010B000401008614000486104480088401E00124A
:1010C000014906E0001001400C0C0140DC0000204A
:1010D00057E008608020FE4948610861800008618F
:1010E0004010086140004861FA480078401EC0B2D4
:1010F000F94908608020F64948610861800008616C
:10110000F449487AFFF7DEFD4FF48070F04908613A
:10111000400048610020F04908608020EC494861A7
:1011200008618000086140100861400048610020AB
:10113000E94908608020E64948610861800008614B
:101140004010086140004861E2484088401E00129B
:10115000E14908608020DE4948610861800008613B
:101160004010086140004861DA488078401EC0B2F3
:10117000D94908608020D64948610861800008612B
:1011800031E0082D1CD2DFE805F004070A0D0F122C
:10119000151844F0300413E044F0100410E044F05B
:1011A00020040DE000BF0BE044F0380408E044F0F8
:1011B000280405E044F0180402E044F0080400BFED
:1011C00000BFC4488088A0F50941893904D111279E
:1011D00046F24000044302E0032744F480542146D1
:1011E0003846FFF7AEFDF0BD70B504460D46294602
:1011F000204604F00BFDFFF7C0FD4FF48070B449AA
:10120000086140004861B5480088B3490860802003
:10121000AF49486108618000086170BD10B504469F
:10122000002C3DD1AB498871F02008804FF4A070AC
:10123000488008468088A0F51341413905D0A5486B
:101240008088A0F5D041043914D12C20A149C8715F
:101250002A2008722B20487208468088A0F5D041C9
:1012600004394ED14FF4A0709A4908804FF4F070C1
:10127000488046E097488088A0F50941893907D120
:1012800022209449C8714E2008724F20487238E0DD
:1012900022209049C871202008722120487230E035
:1012A0008C488088A0F5D04104392AD00120894992
:1012B00088714FF4A0700880F0204880084680882C
:1012C000A0F51341413907D12C208249C8712A2049
:1012D00008722B20487214E07E488088A0F50941EE
:1012E000893907D122207B49C8714F2008724E20CE
:1012F000487206E022207749C87121200872202018
:1013000048720020FFF734FE10BD70B50446002679
:1013100070480588408845430021084604F076FC63
:10132000FFF72BFD00BF0DE04FF4807068490861A6
:10133000400048616848046080204861086180007E
:101340000861761CAE42EFD370BD10B56448806969
:1013500040F00800624988610846806940F010004A
:1013600088610846806940F001008861012002F030
:10137000B3FD574840686FF30B0055494860084675
:10138000406840F2333108435149486008460068DC
:1013900020F07F4008600846006840F04C5008602C
:1013A0000846C06840F4F860C8604FF033304A49DE
:1013B00008390860091F08604FF6FF704649086049
:1013C000322002F057FD01210020FFF7BAFC322045
:1013D00002F050FD0020FFF7C8FC3E498880084617
:1013E0008088FF280ADB08468088A0F57F41FF3906
:1013F00004D038488088B0F5134F4BD1D320FFF785
:1014000061FCFFF76DFCFFF76BFCFFF769FC3149EE
:101410008880084680884FF6FF7101EA00202D4938
:101420008880FFF75DFC2B4989880843294988801B
:1014300008468088A0F5134141391BD0BF20FFF733
:1014400041FCFFF74DFCFFF74BFCFFF749FCFFF7B2
:1014500047FC20498880084680884FF6FF7101EAE2
:1014600000201C498880FFF73BFC1A498988084303
:101470001849888017488088A0F51341413909D060
:1014800014488088A0F5D041043903D049F2413096
:10149000104988800F488088A0F5134141397DD1DB
:1014A000CF20FFF70FFC4FF480700949086140001E
:1014B00048610020084908608020054948610861AA
:1014C000800008614010086140004861C12009E0C7
:1014D00000100140DC0000200C0C014090000020B6
:1014E00000100240FE4908608020FE494861086102
:1014F0008000086140100861400048613020F849D0
:1015000008608020F7494861086180000861ED208B
:10151000FFF7D8FB4FF48070F24908614000486142
:101520006420EF4908608020EE494861086180002E
:10153000086140100861400048610320E8490860E4
:101540008020E84948610861800008614010086116
:10155000400048611220E24908608020E14948616A
:1015600008618000086140100861400048618120E6
:10157000DB4908608020DB49486108618000086120
:10158000E820FFF79FFB4FF48070D64908614000C8
:1015900048618520D2490860802000E082E3D1497B
:1015A000486108618000086140100861400048619E
:1015B0001020CB4908608020CA494861086180003A
:1015C000086140100861400048617A20C449086001
:1015D0008020C4494861086180000861CB20FFF782
:1015E00071FB4FF48070BF490861400048613920A9
:1015F000BB4908608020BB494861086180000861E0
:1016000040100861400048612C20B54908608020E6
:10161000B4494861086180000861401008614000D9
:1016200048610020AE4908608020AE4948610861E9
:101630008000086140100861400048613420A849DA
:1016400008608020A7494861086180000861401057
:101650000861400048610220A14908608020A1493A
:101660004861086180000861F720FFF72BFB4FF409
:1016700080709C49086140004861202098490860BA
:10168000802098494861086180000861EA20FFF7DE
:1016900019FB4FF4807093490861400048610020B5
:1016A0008F49086080208F49486108618000086187
:1016B000401008614000486100208949086080208E
:1016C00088494861086180000861C020FFF7FAFA84
:1016D0004FF4807083490861400048611B208049B5
:1016E000086080207F494861086180000861C1204E
:1016F000FFF7E8FA4FF480707A49086140004861CA
:10170000012077490860802076494861086180009F
:101710000861C520FFF7D6FA4FF48070714908615F
:101720004000486130206E49086080206D49486162
:101730000861800008614010086140004861302065
:101740006749086080206749486108618000086136
:10175000C720FFF7B7FA4FF4807062490861400074
:101760004861B7205E49086080205E494861086191
:10177000800008613620FFF7A5FA4FF480705949C0
:10178000086140004861482055490860802055495B
:1017900048610861800008613A20FFF793FA4FF42E
:1017A0008070504908614000486155204C490860EC
:1017B00080204C494861086180000861B120FFF732
:1017C00081FA4FF480704749086140004861002069
:1017D00043490860802043494861086180000861EE
:1017E00040100861400048611A203D49086080208F
:1017F0003C494861086180000861B620FFF762FA41
:101800004FF4807037490861400048610A2034492C
:1018100008608020334948610861800008614010F9
:10182000086140004861A2202D49086080202D49B0
:101830004861086180000861F220FFF743FA4FF425
:1018400080702849086140004861002024490860F0
:101850008020244948610861800008612620FFF744
:1018600031FA4FF480701F4908614000486101203F
:101870001B49086080201B4948610861800008619D
:10188000E020FFF71FFA4FF480701649086140000E
:1018900048610F20124908608020124948610861A0
:1018A0008000086140100861400048612A200C490E
:1018B000086080200B494861086180000861401081
:1018C00008614000486128200549086080200549DA
:1018D000486108618000086140100861400003E031
:1018E0000C0C01400010014048610820FE490860CE
:1018F0008020FE494861086180000861401008614D
:10190000400048610E20F84908608020F74948618E
:1019100008618000086140100861400048610820AB
:10192000F14908608020F149486108618000086140
:1019300040100861400048615420EB490860802055
:10194000EA49486108618000086140100861400070
:101950004861A920E44908608020E44948610861A1
:101960008000086140100861400048614320DE4962
:1019700008608020DD4948610861800008614010EE
:101980000861400048610A20D74908608020D74993
:1019900048610861800008614010086140004861AA
:1019A0000F20D14908608020D0494861086180003B
:1019B000086140100861400048610020CA49086081
:1019C0008020CA49486108618000086140100861B0
:1019D000400048610020C44908608020C349486134
:1019E00008618000086140100861400048610020E3
:1019F000BD4908608020BD494861086180000861D8
:101A000040100861400048610020B749086080200C
:101A1000B6494861086180000861E120FFF752F98A
:101A20004FF48070B1490861400048610020AE4920
:101A300008608020AD49486108618000086140105D
:101A40000861400048611520A74908608020A74927
:101A500048610861800008614010086140004861E9
:101A60001720A14908608020A049486108618000D2
:101A70000861401008614000486107209A490860E9
:101A800080209A494861086180000861401008611F
:101A900040004861112094490860802093494861C2
:101AA000086180000861401008614000486106201C
:101AB0008D49086080208D49486108618000086177
:101AC00040100861400048612B2087490860802051
:101AD0008649486108618000086140100861400043
:101AE000486156208049086080208049486108612B
:101AF0008000086140100861400048613C207A493C
:101B000008608020794948610861800008614010C0
:101B100008614000486105207349086080207349CE
:101B20004861086180000861401008614000486118
:101B300010206D49086080206C4948610861800070
:101B4000086140100861400048610F206649086044
:101B50008020664948610861800008614010086182
:101B6000400048613F206049086080205F4948612B
:101B700008618000086140100861400048613F2012
:101B8000594908608020594948610861800008610E
:101B900040100861400048610F20534908608020D0
:101BA000524948610861800008612B20FFF78AF8DC
:101BB0004FF480704D4908614000486100204A4957
:101BC0000860802049494861086180000861401030
:101BD0000861400048610020434908608020434973
:101BE0004861086180000861401008614000486158
:101BF00001203D49086080203C494861086180001F
:101C0000086140100861400048613F203649086083
:101C10008020364948610861800008612A20FFF76A
:101C200051F84FF48070314908614000486100204C
:101C30002D49086080202D494861086180000861B5
:101C4000401008614000486100202749086080205A
:101C50002649486108618000086140100861400021
:101C600048610020204908608020204948610861BF
:101C7000800008614010086140004861EF201A4967
:101C800008608020194948610861800008611120BE
:101C9000FFF718F8782002F0EDF82920FFF712F886
:101CA00001F0BEBB12488088A0F5D04104397DD137
:101CB0001120FFF707F8142002F0DCF8D020FFF71E
:101CC00001F84FF48070094908614000486107201D
:101CD0000549086080200549486108618000086165
:101CE00040100861400005E00C0C0140001001406C
:101CF000DC00002048614220FE4908608020FE4947
:101D00004861086180000861401008614000486136
:101D10001D20F84908608020F7494861086180006B
:101D20000861D120FEF7CEFF4FF48070F2490861C0
:101D3000400048610020EF4908608020EE4948617A
:101D400008618000086140100861400048611A2065
:101D5000E84908608020E84948610861800008611E
:101D600040100861400048610920E2490860802075
:101D7000E1494861086180000861D220FEF7A2FFB6
:101D80004FF48070DC490861400048610120D94966
:101D900008608020D84948610861800008614010CF
:101DA0000861400048612220D24900E0D5E1086086
:101DB0008020D1494861086180000861C020FEF799
:101DC00081FF4FF48070CC490861400048611020C9
:101DD000C84908608020C8494861086180000861DE
:101DE00040100861400048613B20C24908608020E3
:101DF000C1494861086180000861401008614000E5
:101E000048610020BB4908608020BB4948610861E7
:101E10008000086140100861400048610220B54917
:101E200008608020B4494861086180000861401062
:101E30000861400048611120AE4908608020AE4929
:101E40004861086180000861C520FEF73BFF4FF440
:101E50008070A9490861400048610320A5490860D5
:101E60008020A5494861086180000861C820FEF70C
:101E700029FF4FF48070A0490861400048610020AC
:101E80009C49086080209C49486108618000086185
:101E90004010086140004861252096490860802074
:101EA0009549486108618000086140100861400060
:101EB000486121208F49086080208F49486108616E
:101EC0008000086140100861400048610520894990
:101ED00008608020884948610861800008614010DE
:101EE00008614000486100208249086080208249E2
:101EF0004861086180000861401008614000486145
:101F00000A207C49086080207B4948610861800084
:101F1000086140100861400048616520754908600B
:101F2000802075494861086180000861401008619F
:101F30004000486125206F49086080206E49486153
:101F40000861800008614010086140004861772006
:101F5000684908608020684948610861800008611C
:101F600040100861400048615020624908608020AC
:101F700061494861086180000861401008614000C3
:101F800048610F205B49086080205B494861086117
:101F900080000861401008614000486100205549F8
:101FA0000860802054494861086180000861F82079
:101FB000FEF788FE4FF480704F4908614000486189
:101FC00001204C49086080204B494861086180002D
:101FD0000861FE20FEF776FE4FF4807046490861E6
:101FE0004000486100204349086080204249486120
:101FF00008618000086140100861400048610220CB
:102000003C49086080203C494861086180000861C3
:102010002020FEF757FE3620FEF754FE4FF4807066
:102020003549086140004861082032490860802035
:10203000314948610861800008613A20FEF742FE9C
:102040004FF480702C4908614000486155202949AF
:1020500008608020284948610861800008612B20C1
:10206000FEF730FE4FF4807023490861400048615C
:1020700000202049086080201F49486108618000D5
:10208000086140100861400048610020194908605B
:10209000802019494861086180000861401008618A
:1020A00040004861012013490860802012494861BE
:1020B00008618000086140100861400048613F20CD
:1020C0000C49086080200C49486108618000086163
:1020D0002A20FEF7F7FD4FF48070074908614000A1
:1020E0004861002003490860802003494861086175
:1020F000800003E00C0C014000100140086140101A
:102100000861400048610020FE4908608020FE49C7
:102110004861086180000861401008614000486122
:102120000120F84908608020F74948610861800073
:1021300008614010086140004861DF20F1490860F3
:102140008020F1494861086180000861782001F031
:1021500091FE2920FEF7B6FDA2E5EC488088A0F5A7
:10216000134125397ED147F6F001E520FEF7E9FD60
:102170004FF480710120FEF7E4FD4FF4E06102208E
:10218000FEF7DFFD41F230010320FEF7DAFD00210A
:102190000420FEF7D6FD40F202210820FEF7D1FD13
:1021A00000210920FEF7CDFD00210A20FEF7C9FD20
:1021B00000210C20FEF7C5FD00210D20FEF7C1FD1A
:1021C00000210F20FEF7BDFD00211020FEF7B9FD14
:1021D00007211120FEF7B5FD00211220FEF7B1FD09
:1021E00000211320FEF7ADFD00210720FEF7A9FD19
:1021F00041F290611020FEF7A4FD40F2272111204A
:10220000FEF79FFD9D211220FEF79BFD4FF4C85164
:102210001320FEF796FD25212920FEF792FD0D21C2
:102220002B20FEF78EFD07213020FEF78AFD40F2BD
:1022300003313120FEF785FD03213220FEF781FDB9
:1022400040F206213520FEF77CFD08213620FEF7FE
:1022500078FD40F206413720FEF773FD4FF44171DF
:10226000382000E057E0FEF76CFD07213920FEF72B
:1022700068FD40F202613C20FEF763FD08213D202D
:10228000FEF75FFD00215020FEF75BFDEF2151209E
:10229000FEF757FD00215220FEF753FD40F23F119B
:1022A0005320FEF74EFD4FF427416020FEF749FD15
:1022B00001216120FEF745FD00216A20FEF741FD66
:1022C00000218020FEF73DFD00218120FEF739FD31
:1022D00000218220FEF735FD00218320FEF731FD2D
:1022E00000218420FEF72DFD00218520FEF729FD29
:1022F00010219020FEF725FD4FF4C0619220FEF7DB
:1023000020FD40F233110720FEF71BFD22210020A3
:10231000FEF717FDC4E47D488088A0F513412839F5
:102320007ED141F28F01EC20FEF70BFD41F234210A
:10233000EF20FEF706FD4FF480710120FEF701FD4E
:102340004FF4E0610220FEF7FCFC41F23001032073
:10235000FEF7F7FC00210420FEF7F3FC40F2022117
:102360000820FEF7EEFC00210920FEF7EAFC002120
:102370000A20FEF7E6FC01210C20FEF7E2FC00211A
:102380000D20FEF7DEFC00210F20FEF7DAFC002115
:102390001020FEF7D6FC07211120FEF7D2FC002109
:1023A0001220FEF7CEFC00211320FEF7CAFC01210B
:1023B0000720FEF7C6FC322001F05CFD41F290419F
:1023C0001020FEF7BEFC40F227211120FEF7B9FCD9
:1023D000322001F04FFD8A211220FEF7B2FC32209C
:1023E00001F048FD4FF4D0511320FEF7AAFC06215E
:1023F0002920FEF7A6FC0D212B20FEF7A2FC32209F
:1024000001F038FD00212020FEF79BFC0021212057
:10241000FEF797FC322001F02DFD0021302000E076
:102420007CE0FEF78EFC40F204613120FEF789FC6F
:1024300040F205313220FEF784FC00213520FEF702
:1024400080FC40F609413620FEF77BFC4FF4017119
:102450003720FEF776FC40F201313820FEF771FCA0
:1024600040F207713920FEF76CFC00213C20FEF79A
:1024700068FC40F60A213D20FEF763FC322001F0A3
:10248000F9FC00215020FEF75CFCEF215120FEF703
:1024900058FC00215220FEF754FC40F23F1153201B
:1024A000FEF74FFC4FF427416020FEF74AFC012164
:1024B0006120FEF746FC00216A20FEF742FC002165
:1024C0008020FEF73EFC00218120FEF73AFC00212F
:1024D0008220FEF736FC00218320FEF732FC00212B
:1024E0008420FEF72EFC00218520FEF72AFC102117
:1024F0009020FEF726FC4FF4C0619220FEF721FCED
:1025000006E000000C0C014000100140DC0000203F
:1025100040F233110720FEF714FC1DE6FE488088C8
:10252000A0F5134120397DD10846FEF70AFC4FF48F
:1025300080710120FEF705FC4FF4E0610220FEF7F8
:1025400000FC41F230010320FEF7FBFB00210420D8
:10255000FEF7F7FB40F202210820FEF7F2FB002114
:102560000920FEF7EEFB00210A20FEF7EAFB01211D
:102570000C20FEF7E6FB00210D20FEF7E2FB002118
:102580000F20FEF7DEFB322001F074FC40F2011157
:102590000720FEF7D6FB322001F06CFC4FF4865189
:1025A0001020FEF7CEFB07211120FEF7CAFB4FF4E7
:1025B00088711220FEF7C5FB4FF430611320FEF73F
:1025C000C0FB00212920FEF7BCFB44F210012B20A8
:1025D000FEF7B7FB00215020FEF7B3FBEF2151209F
:1025E000FEF7AFFB00215220FEF7ABFB40F23F119C
:1025F0005320FEF7A6FB4FF41C516020FEF7A1FB11
:1026000001216120FEF79DFB00216A20FEF799FB66
:1026100000218020FEF795FB00218120FEF791FB31
:10262000002100E02DE08220FEF78BFB00218320BB
:10263000FEF787FB00218420FEF783FB0021852025
:10264000FEF77FFB10219020FEF77BFB00219220FC
:10265000FEF777FB01219320FEF773FB4FF488719F
:102660009520FEF76EFB00219720FEF76AFB002104
:102670009820FEF766FB40F273110720FEF761FB1E
:102680006AE5A5488088A0F5134131397DD141F232
:102690001401E720FEF755FB4FF480710120FEF78F
:1026A00050FB4FF400710220FEF74BFB41F2380162
:1026B0000320FEF746FB40F202210820FEF741FB13
:1026C00000210920FEF73DFB00210A20FEF739FB1F
:1026D00000210C20FEF735FB00210D20FEF731FB19
:1026E00000210F20FEF72DFB00211020FEF729FB13
:1026F00007211120FEF725FB00211220FEF721FB08
:1027000000211320FEF71DFBC82001F0B3FB41F2AE
:1027100090611020FEF715FB40F227211120FEF7F3
:1027200010FB322001F0A6FB0C211220FEF709FB62
:10273000322001F09FFB4FF400611320FEF701FBF4
:1027400011212920FEF7FDFA0B212B20FEF7F9FAC3
:10275000322001F08FFB00212020FEF7F2FA40F238
:102760003F112120FEF7EDFA00213020FEF7E9FAB3
:102770004FF483713120FEF7E4FA00213220FEF796
:10278000E0FA4FF40171352000E064E0FEF7D9FA79
:1027900041F20A613620FEF7D4FA40F20771372081
:1027A000FEF7CFFA4FF483713820FEF7CAFA40F2F1
:1027B00007713920FEF7C5FA40F202413C20FEF7CE
:1027C000C0FA40F60F413D20FEF7BBFA0021502031
:1027D000FEF7B7FAEF215120FEF7B3FA002152209D
:1027E000FEF7AFFA40F23F115320FEF7AAFA4FF47A
:1027F0001C516020FEF7A5FA01216120FEF7A1FA25
:1028000000216A20FEF79DFA00218020FEF799FA48
:1028100000218120FEF795FA00218220FEF791FA2F
:1028200000218320FEF78DFA00218420FEF789FA2B
:1028300000218520FEF785FA10219020FEF781FA0D
:102840004FF4C0619220FEF77CFA40F2331107206A
:10285000FEF777FA80E430488088A0F5A84108396F
:102860007DD14FF480710120FEF76BFA4FF4E061E7
:102870000220FEF766FA41F230010320FEF761FA0A
:1028800000210420FEF75DFA40F207210820FEF740
:1028900058FA00210920FEF754FA00210A20FEF719
:1028A00050FA00210C20FEF74CFA00210D20FEF713
:1028B00048FA00210F20FEF744FA142001F0DAFA5A
:1028C00041F2B0611020FEF73CFA01211120FEF721
:1028D00038FA01211720FEF734FA4FF49C711220C8
:1028E000FEF72FFA4FF400611320FEF72AFA0921B0
:1028F0002920FEF726FA09212A20FEF722FA0021D4
:10290000A420FEF71EFA00215020FEF71AFAEF214C
:102910005120FEF716FA01E0DC00002000215220D1
:10292000FEF70FFA40F23F115320FEF70AFA4FF478
:102930001C516020FEF705FA01216120FEF701FA23
:1029400000216A20FEF7FDF900218020FEF7F9F949
:1029500000218120FEF7F5F90021822000E027E028
:10296000FEF7EFF900218320FEF7EBF90021842028
:10297000FEF7E7F900218520FEF7E3F91321902007
:10298000FEF7DFF900219220FEF7DBF90321932007
:10299000FEF7D7F94FF488719520FEF7D2F940F28F
:1029A00073110720FEF7CDF9322001F063FAB1E48C
:1029B000FE488088A0F5A85105397DD10720FEF793
:1029C000C0F9322001F056FA4FF48E711220FEF752
:1029D000B8F90121A420FEF7B4F90F210820FEF771
:1029E000B0F908210A20FEF7ACF908210D20FEF706
:1029F000A8F940F207713020FEF7A3F90721312032
:102A0000FEF79FF940F203613220FEF79AF94FF486
:102A1000E0613320FEF795F940F202213420FEF701
:102A200090F902213520FEF78CF941F60F7136201E
:102A3000FEF787F940F207713720FEF782F900218F
:102A40003820FEF77EF900213920FEF77AF940F2AE
:102A500007713A20FEF775F900213B20FEF771F966
:102A600007213C20FEF76DF900213D20FEF769F9B2
:102A7000322001F0FFF901210720FEF762F9012160
:102A80001720FEF75EF9322001F0F4F94FF4BD5142
:102A90001020FEF756F940F217211120FEF751F9E8
:102AA0004FF48F711220FEF74CF94FF47061132030
:102AB000FEF747F9002100E094E02A20FEF741F9F3
:102AC0000A212920FEF73DF94FF49F711220FEF7ED
:102AD00038F900215020FEF734F9EF215120FEF79C
:102AE00030F900215220FEF72CF940F23F1153201B
:102AF000FEF727F94FF41C516020FEF722F901215F
:102B00006120FEF71EF900216A20FEF71AF9002164
:102B10008020FEF716F900218120FEF712F900212E
:102B20008220FEF70EF900218320FEF70AF900212A
:102B30008420FEF706F900218520FEF702F9132113
:102B40009020FEF7FEF84FF440719220FEF7F9F85E
:102B500005219320FEF7F5F800219520FEF7F1F806
:102B600000219720FEF7EDF800219820FEF7E9F804
:102B70004FF480710120FEF7E4F84FF4E061022089
:102B8000FEF7DFF841F238010320FEF7DAF8002102
:102B90000420FEF7D6F800210C20FEF7D2F8002121
:102BA0000F20FEF7CEF800212020FEF7CAF8002102
:102BB0002120FEF7C6F821210720FEF7C2F81420D5
:102BC00001F058F961210720FEF7BBF8142001F04D
:102BD00051F940F273110720FEF7B3F8142001F009
:102BE00049F99AE471488088A0F5354105397DD1CD
:102BF0000846FEF7A6F800210846FEF7A2F80021D5
:102C00000846FEF79EF800210846FEF79AF80121D3
:102C1000A420FEF796F8142001F02CF94FF41C5173
:102C20006020FEF78EF840F202210820FEF789F8B6
:102C30004FF405713020FEF784F843F2157131200E
:102C4000FEF77FF840F204613220FEF77AF840F692
:102C500016613320FEF775F842F211213420FEF799
:102C600070F84FF4A8513520FEF76BF848F2075181
:102C70003620FEF766F841F207413720FEF761F88B
:102C800041F203413820FEF75CF820213920FEF79D
:102C900058F81A219020FEF754F800211020FEF772
:102CA00050F807211120FEF74CF800211220FEF702
:102CB00048F800211320FEF744F8142001F0DAF858
:102CC0004FF4E6611020FEF73CF840F23711112076
:102CD000FEF737F8142001F0CDF84FF4DC71122024
:102CE000FEF72FF8142001F0C5F800E086E04FF45D
:102CF00070611320FEF725F880212A20FEF721F8C5
:102D000048212920FEF71DF8142001F0B3F84FF4F4
:102D100080710120FEF715F84FF4E0610220FEF704
:102D200010F841F238010320FEF70BF840F20221BF
:102D30000820FEF706F800210A20FEF702F800211D
:102D40000C20FDF7FEFF00210D20FDF7FAFF3021DA
:102D50000E20FDF7F6FF00215020FDF7F2FFEF21D6
:102D60005120FDF7EEFF00215220FDF7EAFF40F26F
:102D70003F115320FDF7E5FF4FF41C516020FDF794
:102D8000E0FF01216120FDF7DCFF00216A20FDF753
:102D9000D8FF11219020FDF7D4FF4FF4C06192209D
:102DA000FDF7CFFF40F20241932001E0DC0000205C
:102DB000FDF7C7FF02219420FDF7C3FF142001F0A7
:102DC00059F801210720FDF7BCFF142001F052F84B
:102DD00061210720FDF7B5FF40F273110720FDF7D1
:102DE000B0FF00212020FDF7ACFF00212120FDF7DE
:102DF000A8FF22210020FDF7A4FF11E3FE488088F0
:102E0000A0F5454105397DD10846FDF79AFF00211F
:102E10000846FDF796FF142001F02CF80021084623
:102E2000FDF78FFF00210846FDF78BFF00210846C4
:102E3000FDF787FF00210846FDF783FF0121A4204D
:102E4000FDF77FFF142001F015F84FF41C516020AE
:102E5000FDF777FF40F606010820FDF772FF40F20C
:102E600003713020FDF76DFF01213120FDF769FF6F
:102E700004213220FDF765FF4FF481713320FDF707
:102E800060FF4FF440713420FDF75BFF40F2031107
:102E90003520FDF756FF1F213620FDF752FF40F287
:102EA00003713720FDF74DFF01213820FDF749FF61
:102EB00004213920FDF745FF15219020FDF741FF42
:102EC0004FF482611020FDF73CFF40F247211120B2
:102ED000FDF737FF4FF4DE711220FDF732FF4FF49C
:102EE00060611320FDF72DFF782000F0C3FF4FF441
:102EF00080710120FDF725FF4FF400710220FDF7DE
:102F000020FF00E050E041F230010320FDF719FFFF
:102F100008210A20FDF715FF00210C20FDF711FF05
:102F200020210E20FDF70DFF00210F20FDF709FFE6
:102F300000212020FDF705FF00212120FDF701FFE2
:102F40003D212A20FDF7FDFE142000F093FF2D21E6
:102F50002920FDF7F6FE00215020FDF7F2FE4DF28C
:102F6000EF015120FDF7EDFE00215220FDF7E9FEB3
:102F700040F23F115320FDF7E4FE00216120FDF7F0
:102F8000E0FE00216A20FDF7DCFE4FF44071922044
:102F9000FDF7D7FE05219320FDF7D3FE4FF4807196
:102FA0000720FDF7CEFE3BE293488088A0F509415B
:102FB00089397DD101210020FDF7C3FE4AF6A40125
:102FC0000320FDF7BEFE00210C20FDF7BAFE40F6FF
:102FD0000C010D20FDF7B5FE4FF42C510E20FDF72E
:102FE000B0FEB0211E20FDF7ACFE42F63F310120BD
:102FF000FDF7A7FE4FF4C0610220FDF7A2FE0021FD
:103000001020FDF79EFE46F278011120FDF799FE93
:1030100000210520FDF795FE00210620FDF791FE19
:103020004EF61C711620FDF78CFE03211720FDF7CC
:1030300088FE40F233210720FDF783FE00210B209C
:10304000FDF77FFE00210F20FDF77BFE00214120D0
:10305000FDF777FE00214220FDF773FE0021482096
:10306000FDF76FFE40F23F114920FDF76AFE002197
:103070004A20FDF766FE00214B20FDF762FE4FF46B
:103080006F414420FDF75DFE00214520FDF759FE0C
:1030900040F23F114620FDF754FE40F20771302008
:1030A000FDF74FFE4FF401713120FDF74AFE00E0BD
:1030B0003DE04FF401713220FDF743FE40F2025132
:1030C0003320FDF73EFE40F207513420FDF739FE74
:1030D0004FF401713520FDF734FE4FF401713620B5
:1030E000FDF72FFE40F202513720FDF72AFE40F295
:1030F00002313A20FDF725FE40F202313B20FDF778
:1031000020FE00212320FDF71CFE00212420FDF7D6
:1031100018FE4FF400412520FDF713FE00214F203B
:10312000FDF70FFE00214E20FDF70BFE78E132483F
:103130008088A0F58A4131395DD101210020FDF759
:1031400000FE0A2000F096FE41F228611020FDF7F3
:10315000F8FD0E211220FDF7F4FD40F63921132071
:10316000FDF7EFFD0A2000F085FE40211120FDF75C
:10317000E8FD50211520FDF7E4FD0A2000F07AFE5D
:103180001E211220FDF7DDFD0A2000F073FE4FF432
:10319000B1511020FDF7D5FD42F639211320FDF77E
:1031A000D0FD0A2000F066FE4FF480710120FDF78B
:1031B000C8FD4FF440710220FDF7C3FD41F2380114
:1031C0000320FDF7BEFD40F202210820FDF7B9FD06
:1031D00008210A20FDF7B5FD00213020FDF7B1FDE3
:1031E00040F202413120FDF7ACFD4FF483713220F3
:1031F000FDF7A7FD02E05EE0DC00002040F2035195
:103200003320FDF79EFD4FF482713420FDF799FDC8
:1032100040F201313520FDF794FD40F20771362070
:10322000FDF78FFD40F205313720FDF78AFD4FF4A1
:1032300002713820FDF785FD40F60B713920FDF74E
:1032400080FD02214120FDF77CFD4FF41C516020E0
:10325000FDF777FD01216120FDF773FD4FF4047147
:103260009020FDF76EFD4FF485719220FDF769FD0A
:1032700004219320FDF765FD4FF48071A020FDF738
:1032800060FD01210720FDF75CFD21210720FDF7EE
:1032900058FD23210720FDF754FD33210720FDF7BA
:1032A00050FD40F233110720FDF74BFD0021A02017
:1032B000FDF747FDB4E0F7488088A0F58A4135392D
:1032C000F8D130211520FDF73CFD10219A20FDF7A3
:1032D00038FD20211120FDF734FD43F22841102054
:1032E000FDF72FFD02211220FDF72BFD41F23801E1
:1032F0001320FDF726FD282000F0BCFD1221084612
:10330000FDF71FFD282000F0B5FD43F220411020FD
:10331000FDF717FD43F238011320FDF712FD46209B
:1033200000F0A8FD00213020FDF70BFD40F2024126
:103330003120FDF706FD40F207313220FDF701FD97
:103340004FF441713320FDF7FCFC04213420FDF7DC
:10335000F8FC40F201413520FDF7F3FC40F2077123
:103360003620FDF7EEFC40F205313720FDF7E9FC91
:103370004FF4C2613820FDF7E4FC4FF4C2613920FC
:10338000FDF7DFFC4FF480710120FDF7DAFC4FF40C
:1033900040710220FDF7D5FC41F230010320FDF71A
:1033A000D0FC40F608010820FDF7CBFC08210A20DC
:1033B000FDF7C7FC4FF41C516020FDF7C2FC012152
:1033C0006120FDF7BEFC4FF49F719020FDF7B9FC22
:1033D0004FF480719220FDF7B4FC4FF4807193207C
:1033E000FDF7AFFC4FF44051A020FDF7AAFC1021DF
:1033F000A320FDF7A6FC01210720FDF7A2FC212157
:103400000720FDF79EFC23210720FDF79AFC3321BE
:103410000720FDF796FC40F233110720FDF791FCE1
:103420000020FDF7FBFE01209B4908604FF6FF706E
:10343000FDF76BFF10BD2DE9F05F05460E46174600
:103440009846DDF828A04FF0000B781B401C1FFAAF
:1034500080FB34461EE02146284602F0D7FBFDF7EC
:103460008CFC4FF0000911E04FF480708B4908612B
:10347000400048618A48C0F800A080204861086187
:103480008000086109F101001FFA80F9D945EBDBE2
:10349000601C84B24445DEDDBDE8F09F2DE9FF4F9E
:1034A00085B081468A460020049003900798A0EBDF
:1034B00009050898A0EB0A06CDF80890CDF804A0FD
:1034C000002D01DD012705E00DB9002702E04FF0D6
:1034D000FF376D42002E02DD4FF0010806E016B9FD
:1034E0004FF0000802E04FF0FF387642B54201DDB0
:1034F0002C4600E034464FF0000B21E0019A91B2D7
:10350000029A90B2FDF770FE049828440490039844
:10351000304403900498A04205DD0498001B0490F9
:103520000298384402900398A04205DD0398001BDE
:1035300003900198404401900BF101001FFA80FBB9
:10354000601C8345DADD09B0BDE8F08F2DE9F0415C
:1035500004460D4616461F462B463246294620464F
:10356000FFF79CFF3B46224629462046FFF796FF81
:103570003B46324639462046FFF790FF3B463246EF
:1035800029463046FFF78AFFBDE8F0812DE9F04774
:1035900006460F469046002445460320A0EB480906
:1035A00048E03A1B91B2721B90B2FDF71DFE3A1B28
:1035B00091B2721990B2FDF717FE7A1991B2321BCF
:1035C00090B2FDF711FE3A1B91B2721B90B2FDF75B
:1035D0000BFE7A1B91B2321B90B2FDF705FE3A1931
:1035E00091B2721990B2FDF7FFFD7A1B91B23219B8
:1035F00090B2FDF7F9FD7A1991B2321990B2FDF748
:10360000F3FD3A1991B2721B90B2FDF7EDFD641C07
:10361000B9F1000F03DAA000801D814404E0601BB3
:1036200080000A3081446D1E7A1991B2321990B22D
:10363000FDF7DAFDAC42B4DDBDE8F0872DE9F84FC7
:1036400005460F4690461E4600971648B0F8009073
:10365000A8F1200000F0FF080A9800285CD100249F
:1036600057E00C2E07D108EB48000F4901EB800012
:1036700010F804A004E00D4800EB081010F804A0B6
:103680004FF0000B3FE01AF0800F11D00548A0F872
:10369000009011E0DC000020A8012242001001404F
:1036A0000C0C014090000020365E0008AA62000861
:1036B000B2480088B249088039462846FDF794FD93
:1036C0004FEA4A604FEA106A781C87B2AD4800881A
:1036D000A84204DCAA48A0F80090BDE8F88F009842
:1036E000381AB0420BD1009F681C85B2A5480088EB
:1036F000A84203DCA248A0F80090EEE706E00BF138
:10370000010000F0FF0BBBF1080FBCDB00BF601C29
:10371000C4B2B442A5DB44E0002440E00C2E07D143
:1037200008EB4800984901EB800010F804A004E081
:10373000964800EB081010F804A04FF0000B28E0AA
:103740001AF0800F03D039462846FDF74DFD4FEAA9
:103750004A604FEA106A781C87B28A484088A842BB
:1037600003DC8748A0F80090B7E70098381AB04209
:103770000BD1009F681C85B282480088A84203DCF8
:103780007F48A0F80090A8E706E00BF1010000F0E8
:10379000FF0BBBF1080FD3DB00BF601CC4B2B44207
:1037A000BCDB7748A0F8009000BF96E710B5024652
:1037B000012000E050430B00A1F10104E1B2F9D176
:1037C00010BD2DE9FF4F81B0074691461E460E9D64
:1037D0004FF0000A002439E0301B401EC1B20A201D
:1037E000FFF7E4FFB9FBF0F00A21B0FBF1F201FBB7
:1037F0001208BAF1000F16D1701EA04213DDB8F105
:10380000000F0ED10020AB4605EBDB71491001FB28
:103810000471009088B22B4620220299FFF70EFF18
:1038200012E04FF0010A0020AB4605EBDB714910B6
:1038300001FB0471009088B208F13001CAB22B4636
:103840000299FFF7FBFE00BF601CC4B2B442C3DBA9
:1038500005B0BDE8F08F2DE9FF4F83B006469246D4
:103860001F46DDE910480020029000254DE0781B3E
:10387000401EC1B20A20FFF799FFBAFBF0F00A21FF
:10388000B0FBF1F201FB1209029850BB781EA8426E
:1038900027DDB9F1000F22D118F0800F0FD008F00A
:1038A0000100A34604EBDB71491001FB05610090A8
:1038B00088B2234630220499FFF7C0FE0EE008F0DC
:1038C0000100A34604EBDB71491001FB0561009088
:1038D00088B2234620220499FFF7B0FE13E00120AE
:1038E000029008F00100A34604EBDB71491001FBD4
:1038F0000561009088B209F13001CAB223460499EB
:10390000FFF79CFE00BF681CC5B2BD42AFDB07B02D
:10391000BDE8F08F2DE9F84F04460D4690469946D4
:10392000DDE90A6704F0FF0A08EB04001FFA80F8DB
:1039300009EB05001FFA80F916E0444502DB544606
:10394000A81985B24D4500DB14E0002000903A78BC
:10395000334629462046FFF771FE304606EBD0710C
:1039600004EB61018CB27F1C38787E2802DC387849
:103970002028E2DA00BFBDE8F88F000092000020A6
:1039800090000020DC000020365E0008AA620008DB
:1039900008B50121042000F0FDFE0121084600F0D9
:1039A000F9FE0121102000F0F5FE4FF4E470ADF8AF
:1039B000000010208DF8030003208DF802006946F6
:1039C000A64800F031FC43F60200ADF800001020DC
:1039D0008DF8030003208DF802006946A04800F02E
:1039E00023FC4FF4E4719D4800F0CBFC43F6020148
:1039F0009B4800F0C6FC40F60F61C82000F09AF921
:103A000040F60F61C82000F035F908BD10B59548A3
:103A1000407810B1012814D109E093480068401C97
:103A200091490860082801DB002008600AE08E4800
:103A30000068401E8C490860082801DB07200860E8
:103A400000E000BF00BF88480068082858D2DFE8BF
:103A500000F0040E18222C36414C4FF4E4717F48DC
:103A600000F08FFC08217D4800F089FC49E04FF40C
:103A7000E4717A4800F085FC8821784800F07FFCEA
:103A80003FE04FF4E471754800F07BFC80217348FF
:103A900000F075FC35E04FF4E471704800F071FC03
:103AA000C0216E4800F06BFC2BE04FF4E4716B48D2
:103AB00000F067FC4021694800F061FC21E04FF410
:103AC000E471664800F05DFC4FF4A071634800F0BB
:103AD00056FC16E04FF4E471604800F052FC4FF4DD
:103AE00080715E4800F04BFC0BE04FF4E4715B48E2
:103AF00000F047FC4FF48471584800F040FC00E0AF
:103B000000BF00BF10BD10B55848407810B1012863
:103B100014D109E056480068401C5549086008283F
:103B200001DB002008600AE051480068401E50494F
:103B30000860082801DB0720086000E000BF00BF24
:103B40004B48006808285CD2DFE800F0040F1A2513
:103B5000303B465043F60201414800F012FC4FF45E
:103B600000513F4800F00BFC4CE043F602013C489A
:103B700000F007FC4FF44051394800F000FC41E0F0
:103B800043F60201364800F0FCFB4FF48051344804
:103B900000F0F5FB36E043F60201314800F0F1FB9E
:103BA0004FF4C0512E4800F0EAFB2BE043F602012F
:103BB0002B4800F0E6FB4FF40061294800F0DFFBE2
:103BC00020E043F60201264800F0DBFB40F602014C
:103BD000234800F0D4FB15E043F60201204800F032
:103BE000D0FB02211E4800F0CAFB0BE043F60201A5
:103BF0001B4800F0C6FB42F20201194800F0BFFB6F
:103C000000E000BF00BF10BD00201849487001202F
:103C10000870142048600020124948700120087084
:103C200014204860704700200E4908700F49487002
:103C3000012008701420486070470020094948702E
:103C4000012008701420486000200849087070475F
:103C500000200449087005490870704700080140B9
:103C600000100140BC00002094000020CC00002087
:103C7000980000207FB505460C460121084600F05B
:103C800096FDADF80850ADF804400020ADF80A00EC
:103C9000ADF8060001A94FF0804001F049F901227A
:103CA0004121880701F0BBFC4FF4C06000F0EEF941
:103CB0001C208DF8000000208DF8010002208DF8F6
:103CC000020001208DF80300684600F0E4F90121AC
:103CD000880701F089FC7FBD10B50121880701F03C
:103CE0004CFF30B30121880701F058FF40480078AD
:103CF00010B1012808D104E000203D4948608860E7
:103D000003E0FFF783FE00E000BF00BF3848007803
:103D100001280ED136488068401C35498860084625
:103D200080684968884204D300203149087088605F
:103D3000486010BD7FB505460C460121022000F009
:103D400036FDADF80850ADF804400020ADF80A008B
:103D5000ADF8060001A9274801F0EAF80122412147
:103D6000244801F05CFC00F0B1F81D208DF8000043
:103D700000208DF8010003208DF8020001208DF84D
:103D80000300684600F087F901211A4801F02CFC75
:103D90007FBD10B50121174801F0EFFE30B30121BE
:103DA000144801F0FBFE1448007810B1012808D136
:103DB00004E0002010494860886003E0FFF7A3FE9C
:103DC00000E000BF00BF0C48007801280ED10A486F
:103DD0008068401C084988600846806849688842B5
:103DE00004D30020044908708860486010BD0000BA
:103DF000BC00002000040040CC00002010B56FF093
:103E0000040000F093F92D4800682D49B0FBF1F053
:103E10002C4908700846007800EB4001C1EBC01047
:103E20004FF6FF7101EAC0002749088010BD014626
:103E3000244A12784A434FF0E0235A6100229A61E3
:103E40001A46126942F001021A6100BF4FF0E022E7
:103E5000106910F0010F02D010F4803FF6D04FF03F
:103E6000E022126922F001024FF0E0231A610022E1
:103E70009A6170470146144A12884A434FF0E02382
:103E80005A6100229A611A46126942F001021A61CF
:103E900000BF4FF0E022106910F0010F02D010F4C3
:103EA000803FF6D04FF0E022126922F001024FF07D
:103EB000E0231A6100229A61704700007C00002014
:103EC00000127A009C0000209E00002010B54FF4E4
:103ED000C06000F0DBF810BD01464906084A92694F
:103EE00042F00102064B9A61064A526822F0E062F3
:103EF000044B5A601A4652680A435A6070470000E1
:103F00000010024000000140014600BF704700BFA2
:103F10004A4A128812F0400FFAD0C2B2474B1B1D1A
:103F20001A80704710B586B00446012144F204009F
:103F300000F030FC414800F095FC4FF40070ADF803
:103F4000140003208DF8160018208DF8170005A91D
:103F50003B4800F069F94FF48060ADF8140004208C
:103F60008DF8170005A9364800F05EF925208DF878
:103F7000000003208DF801008DF8020001208DF86B
:103F80000300684600F087F801940020ADF80800AF
:103F9000ADF80A00ADF80C00ADF810000C20ADF83B
:103FA0000E0001A9254800F0A0FC012240F2255195
:103FB000224800F032FD0121204800F022FD06B029
:103FC00010BD10B540F225511C4800F00BFE10B397
:103FD0001A4800F087FDC4B21A48008810F4004F58
:103FE0002BD11848008810F4804F0CD00A2C03D035
:103FF00000201449088020E01248008840F4004066
:104000001049088019E00D2C06D10E48008840F4B4
:1040100080400C49088010E00A480088C0F30D0079
:1040200009490C5407480088401C06490880084686
:104030000088C72801DD0020088010BD003801403D
:1040400000080140A0000020E60000200948804749
:1040500009480047FEE7FEE7FEE7FEE7FEE7FEE76A
:10406000FEE7FEE7FEE7FEE704480549054A064B82
:104070007047000031050008ED0000081002002024
:1040800010080020100400201004002031490143D2
:10409000314A1160704770B5002100230F22C478A7
:1040A0000CB32D4C246804F4E064C4F5E064210AE8
:1040B000C1F10403CA40447804FA03F1847814403F
:1040C00021430901254C0678A155047804F01F0509
:1040D0000124AC4005786D114FF0E02606EB850514
:1040E000C5F8004109E0047804F01F050124AC4044
:1040F0001B4D0678761145F8264070BD194A0A40D6
:104100000243154B1B1F1A60704739B1124A121D2A
:1041100012680243104B1B1D1A6006E00E4A121D66
:10412000126882430C4B1B1D1A607047042808D18B
:104130004FF0E021096941F004014FF0E0221161E4
:1041400007E04FF0E021096921F004014FF0E0227F
:10415000116170470000FA050CED00E000E400E09A
:1041600080E100E080FFFF1F10B50446CA4884428A
:1041700008D10121042000F027FB0021042000F0D9
:1041800023FB46E0C548844208D10121082000F005
:104190001BFB0021082000F017FB3AE0C0488442D6
:1041A00008D10121102000F00FFB0021102000F0A9
:1041B0000BFB2EE0BB48844208D10121202000F0F7
:1041C00003FB0021202000F0FFFA22E0B6488442E1
:1041D00008D10121402000F0F7FA0021402000F032
:1041E000F3FA16E0B148844208D10121802000F0A2
:1041F000EBFA0021802000F0E7FA0AE0AC488442A4
:1042000007D10121801500F0DFFA0021A01500F090
:10421000DBFA10BD10B50121084600F0D5FA0021E7
:10422000012000F0D1FA10BD2DE9F0410246002531
:104230000026002000230024002791F803C00CF082
:104240000F0591F803C01CF0100F03D091F802C0C5
:104250004CEA050591F800C0BCF1000F31D014689C
:1042600000202BE04FF0010C0CFA00F3B1F800C075
:104270000CEA03069E4220D183004FF00F0C0CFA8B
:1042800003F7BC4305FA03FC4CEA040491F803C0AD
:10429000BCF1280F06D14FF0010C0CFA00FCC2F85B
:1042A00014C00AE091F803C0BCF1480F05D14FF0EB
:1042B000010C0CFA00FCC2F810C0401C0828D1D335
:1042C0001460B1F800C0BCF1FF0F34DD5468002069
:1042D0002EE000F1080C4FF0010808FA0CF3B1F8D9
:1042E00000C00CEA03069E4221D183004FF00F0C60
:1042F0000CFA03F7BC4305FA03FC4CEA040491F8FA
:1043000003C0BCF1280F05D100F1080C08FA0CF825
:10431000C2F8148091F803C0BCF1480F07D100F136
:10432000080C4FF0010808FA0CF8C2F81080401C85
:104330000828CED35460BDE8F0814FF6FF710180AC
:10434000022181700421C1707047024600209368E9
:104350000B4201D0012000E0002070470146886830
:1043600080B2704702460020D3680B4201D0012082
:1043700000E0002070470146C86880B270470161C4
:104380007047416170470AB1016100E041617047C7
:10439000C16070474FF480320A438261816182615B
:1043A00082698269704702460020424B18684FF6C6
:1043B0008073184040EA021008433E4B1860704773
:1043C0003D49C8617047F0B50A460023002400212A
:1043D000002500F00046B6F1004F02D1354EF169DC
:1043E00001E0344E7168C0F3034583B200F4401617
:1043F000B6F5401F08D121F070612E4E766826F088
:1044000070662C4F7E6012E000F48016B6F5801FB7
:1044100006D1032606FA05F4A14341F0706106E0D7
:10442000460D360103FA06F6B14341F0706122B140
:10443000460D360103FA06F6314300F00046B6F1A8
:10444000004F02D11B4EF16101E01A4E7160F0BDC8
:1044500030B500228B071C0F0F2303FA04F2154B13
:1044600008338C1053F824309343124C08348D10C9
:1044700044F8253023468C1053F824308C07240F41
:1044800000FA04F423430B4C08348D1044F8253013
:1044900030BD0A490860704700080140000C014027
:1044A000001001400014014000180140001C0140B0
:1044B000002001400000014000002042DC002042BA
:1044C000DD48006840F00100DB49086008464068AC
:1044D000DA490840D849486008460068D849084089
:1044E000D54908600846006820F480200860084626
:1044F000406820F4FE0048604FF41F008860704759
:10450000CD49096821F48031CB4A11601146096810
:1045100021F480211160B0F5803F03D0B0F5802FE9
:104520000ED106E0C449096841F48031C24A1160E5
:1045300007E0C149096841F4A021BF4A116000E0C9
:1045400000BF00BF704710B50146002200230020C5
:104550004A11012A02D1B84C236806E0022A02D18E
:10456000B54C236A01E0B44C636A01F01F020124D8
:1045700094401C4201D0012000E0002010BD38B55D
:10458000002000900024002500BF3120FFF7DBFF52
:1045900005460098401C00900098B0F5A06F01D02F
:1045A000002DF2D03120FFF7CEFF08B1012400E04A
:1045B0000024204638BD014600209F4A106820F0A4
:1045C000F80040EAC100106070479E4908607047DB
:1045D00002460020984B586820F47C1042EA010300
:1045E0001843954B586070479649086670470146D6
:1045F0000020914A506820F0030008435060704743
:104600008D48406800F00C007047014600208A4A3F
:10461000506820F0F00008435060704701460020C9
:10462000854A506820F4E0600843506070470146B6
:104630000020814A506820F4605040EAC100506078
:10464000704729B17C4A527A02437B4B5A7204E08C
:10465000794A527A8243784B5A7270477A49086095
:10466000704701460020744A506820F440400843D7
:10467000506070470021754A11706F4A82F820100F
:10468000012802D0042808D103E001216F4A1170EB
:1046900004E005216D4A117000E000BF00BF7047C3
:1046A0006B49086070476449096A0143624A1162B4
:1046B0007047674944390860704730B500210022CF
:1046C000002400235C4D6D6805F00C0121B1042924
:1046D00005D0082923D105E05E4D056022E05D4D3F
:1046E00005601FE0544D6D6805F47012524D6D6801
:1046F00005F48034022505EB92421CB9564D554312
:1047000005600BE04C4D6D6815F4003F03D0524D31
:104710005543056002E04F4D5543056002E04D4DA5
:10472000056000BF00BF444D6D6805F0F001090948
:104730004A4D6B5C0568DD4045603F4D6D6805F492
:10474000E061090A454D6B5C4568DD4085603A4D86
:104750006D6805F46051C90A404D6B5C4568DD40E9
:10476000C560354D6D6805F44041890B3C4D6B5C6F
:10477000C568B5FBF3F5056130BD29B12E4A526914
:1047800002432D4B5A6104E02B4A526982432A4B63
:104790005A61704729B1284A92690243264B9A61AF
:1047A00004E0254A92698243234B9A61704729B1FC
:1047B000214AD2690243204BDA6104E01E4AD269E1
:1047C00082431D4BDA61704729B11B4AD26802430C
:1047D000194BDA6004E0184AD2688243164BDA605B
:1047E000704729B1144A12690243134B1A6104E05D
:1047F000114A12698243104B1A61704714494039BB
:10480000086070470F49C86470470B49C87170470A
:104810000948406A40F08070074948627047014685
:104820000020054A92680A4201D0012000E00020E1
:104830007047014988727047001002400000FFF87D
:10484000FFFFF6FE00004242D80042422010024024
:104850008004424200127A0000093D00A8000020B6
:10486000B800002010B50446FB48844209D101215C
:104870008803FFF7A9FF00214FF48040FFF7A4FF52
:1048800032E0F648844209D101214804FFF7A9FF2C
:1048900000214FF40030FFF7A4FF25E0F0488442E8
:1048A00009D101218804FFF79CFF00214FF48020EB
:1048B000FFF797FF18E0EB48844209D10121C804B3
:1048C000FFF78FFF00214FF40020FFF78AFF0BE076
:1048D000E548844208D101210805FFF782FF002145
:1048E0004FF48010FFF77DFF10BD2DE9F04786B033
:1048F00005460E460024A24600BFA1460027B08907
:1049000000B100BF2F462C8A4CF6FF700440F0889F
:1049100004432C82AC894EF6F3100440B0883189F0
:104920000843718908430443AC81AC8A4FF6FF40C9
:104930000440B0890443AC8201A8FFF7BEFEC6481C
:10494000874202D1DDF810A001E0DDF80CA0A889B3
:1049500010F4004F08D00AEBCA0000EB0A103168CF
:104960004900B0FBF1F807E00AEBCA0000EB0A10BF
:1049700031688900B0FBF1F86420B8FBF0F0040165
:104980002009642101FB1089A88910F4004F08D088
:10499000322000EBC900B0FBF1F000F00700044347
:1049A00008E0322000EB09106421B0FBF1F000F0C8
:1049B0000F0004432C8106B0BDE8F0874FF4165178
:1049C000016000218180C18001810C214181002191
:1049D0008181704710B502460020108A4FF2FF0314
:1049E00018400B884C8823438C882343CC8823436E
:1049F0001843108210BD0021018041808180C18058
:104A0000704721B1828942F40052828104E0828998
:104A10004DF6FF731A4082817047F0B503460024BB
:104A2000002600250020A1F510676A3F00D100BFD5
:104A30001846C1F3421401F01F06012707FA06F5D4
:104A4000012C01D10C3004E0022C01D1103000E027
:104A500014301AB107682F43076002E00768AF43BC
:104A60000760F0BD1AB1838A0B43838202E0838A18
:104A70008B4383827047028A4FF6F0731A4002829A
:104A8000028A0A430282704782894FF2FF731A40FA
:104A9000828182890A438281704721B1828942F0F2
:104AA0000202828104E082894FF6FD731A408281FE
:104AB0007047028A4FF6DF731A400282028A0A4365
:104AC0000282704721B1028A42F48042028204E0ED
:104AD000028A4BF6FF731A4002827047C1F3080244
:104AE0008280704701468888C0F30800704781893A
:104AF00041F0010181817047028BD2B20283028BA7
:104B000042EA012202837047028B02F47F42028351
:104B1000028B0A430283704721B1828A42F020024D
:104B2000828204E0828A4FF6DF731A4082827047E5
:104B300021B1828A42F01002828204E0828A4FF61A
:104B4000EF731A408282704721B1828A42F00802D4
:104B5000828204E0828A4FF6F7731A40828270479D
:104B600021B1828942F40042828103E08289C2F34A
:104B70000E028281704721B1828A42F400628282F1
:104B800004E0828A4FF2FF731A4082827047828A61
:104B90004FF6FB731A408282828A0A4382827047F0
:104BA00021B1828A42F00202828204E0828A4FF6B8
:104BB000FD731A408282704702460020B1F5007FE3
:104BC00000D100BF13880B4201D0012000E000207B
:104BD000704701F40072B2F5007F00D100BFCA43F4
:104BE0000280704770B50246002400230025002093
:104BF000A1F510666A3E00D100BFC1F3421501F075
:104C00001F03012606FA03F3012D02D196893340D2
:104C100006E0022D02D1168A334001E0968A334025
:104C20000C12012606FA04F41688344013B10CB1B4
:104C3000012000E0002070BD10B500220023A1F586
:104C400010646A3C00D100BF0A1201249440A3B250
:104C5000DC43048010BD00000038014000440040E7
:104C600000480040004C00400050004000204449F3
:104C70000860091D0860091D0860091D0860414899
:104C80003F4914310860704700213D498279002A6C
:104C90003AD00A46126803689A430B461A600A1D06
:104CA000126803689A430B1D1A60027911440A685E
:104CB00003681A430A60324A0832126803689A434A
:104CC0002F4B08331A601A1D126803689A432C4B45
:104CD0000C331A604279102A0ED11A1F1268036829
:104CE0001A43274B08331A601A1D126803681A43C7
:104CF000234B0C331A600DE02149427911440A68B4
:104D000003681A430A6005E0027911440A680368DF
:104D10009A430A6070470021016001710C214171C2
:104D20000021817170471649103109680143144A06
:104D300010321160704701460020114A1432126887
:104D40000A4201D0012000E0002070470C491431D4
:104D500008607047014600200022094B1B6803EAE7
:104D60000102074B14331B680B4202D00AB1012029
:104D700000E00020704702491431086070470000CD
:104D800000040140FFFF0F0010B50446FE488442B6
:104D900008D10121C014FFF717FD0021E014FFF72F
:104DA00013FDC4E0B4F1804F08D101210846FFF79C
:104DB00018FD00210120FFF714FDB8E0F3488442FC
:104DC00008D101210220FFF70CFD00210220FFF78E
:104DD00008FDACE0EE48844208D101210420FFF731
:104DE00000FD00210420FFF7FCFCA0E0E94884421C
:104DF00008D101210820FFF7F4FC00210820FFF76B
:104E0000F0FC94E0E448844208D101211020FFF72F
:104E1000E8FC00211020FFF7E4FC88E0DF48844232
:104E200008D101212020FFF7DCFC00212020FFF722
:104E3000D8FC7CE0DA48844208D101214014FFF715
:104E4000C3FC00216014FFF7BFFC70E0D54884422A
:104E500009D10121C804FFF7B7FC00214FF400205D
:104E6000FFF7B2FC63E0D048844209D10121080574
:104E7000FFF7AAFC00214FF48010FFF7A5FC56E0D5
:104E8000CA48844209D101214805FFF79DFC002151
:104E90004FF40010FFF798FC49E0C548844208D160
:104EA00001214020FFF79DFC00214020FFF799FCE5
:104EB0003DE0C048844208D101218020FFF791FCE9
:104EC00000218020FFF78DFC31E0BB48844208D1EF
:104ED00001218015FFF785FC0021A015FFF781FC5B
:104EE00025E0B648844209D101210804FFF76CFC93
:104EF00000214FF48030FFF767FC18E0B04884428F
:104F000009D101214804FFF75FFC00214FF4003074
:104F1000FFF75AFC0BE0AB48844208D1012188041A
:104F2000FFF752FC00214FF48020FFF74DFC10BD2D
:104F300000220288944B98420ED0994B98420BD095
:104F4000B0F1804F08D0914B984205D0904B9842D9
:104F500002D0904B984204D14FF68F731A404B8881
:104F60001A438D4B984207D08C4B984204D04FF691
:104F7000FF431A40CB881A4302808B8883850B88B5
:104F80000385814B98420BD0854B984208D08B4BC0
:104F9000984205D08A4B984202D08A4B984201D160
:104FA0000B7A038601238382704770B500240022A8
:104FB0000023058C4FF6FE7635400584028C8388ED
:104FC000048B4FF68F752C40B51E2C400D882C435A
:104FD000751E2A400D892A434D882A436A4DA842EE
:104FE0000BD06F4DA84208D0744DA84205D0744D27
:104FF000A84202D0734DA84213D14FF6F7752A404C
:105000004D892A434FF6FB752A408D882A434FF677
:10501000FF652B404FF6FF552B408D892B43CD89E3
:105020002B4383800483CD888586028470BD70B550
:10503000002400220023058C4FF6EF7635400584CE
:10504000028C8388048B48F6FF752C404FF6FF4591
:105050002C400D884FF6FF7606EA05252C434FF6C7
:10506000DF752A400D8906EA05152A434D8806EAB0
:1050700005152A43444DA84202D0494DA8421DD1EE
:105080004FF67F752A404D894FF6FF7606EA0515E3
:105090002A434FF6BF752A408D8806EA05152A4334
:1050A0004FF6FF352B404FF2FF752B408D8906EAF6
:1050B00085052B43CD8906EA85052B438380048330
:1050C000CD880587028470BD70B5002400220023BE
:1050D000058C4FF6FF6635400584028C8388848BEF
:1050E0004FF68F752C404FF6FC752C400D882C43E5
:1050F0004FF6FF552A400D894FF6FF7606EA052543
:105100002A434D8806EA05252A431F4DA84202D0AE
:10511000234DA8421DD14FF2FF752A404D894FF60D
:10512000FF7606EA05252A434FF6FF352A408D888B
:1051300006EA05252A434EF6FF752B404DF6FF750E
:105140002B408D8906EA05152B43CD8906EA051506
:105150002B4383808483CD888587028470BD70B59E
:10516000002200230024058C4EF6FF76354005848E
:10517000038C8488828B48F6FF752A404FF6FF45E2
:105180002A400D8820E00000002C0140000400406F
:1051900000080040000C00400010004000140040D7
:1051A00000340140004C01400050014000540140D7
:1051B00000180040001C004000200040004001405A
:1051C00000440140004801404FF6FF7606EA0525FD
:1051D0002A434DF6FF752B400D8906EA05352B4312
:1051E0004D8806EA05352B43FA4DA84202D0FA4D08
:1051F000A84208D14BF6FF752C408D894FF6FF76FB
:1052000006EA85152C4384808283CD88A0F840501F
:10521000038470BD828B4FF2FF331A408283828BEE
:105220004FF6FF7303EA01231A4382837047F0B5F8
:105230000C461546002200210026078C4EF6FF7C06
:1052400007EA0C070784828B018C4FF6FF7707EA89
:10525000043640F6FF473A404FF6FF7707EA052746
:105260003A434FF6FF7707EA03373A43D94FB8423C
:105270000ED0D94FB8420BD0B0F1804F08D0D74FE5
:10528000B84205D0D64FB84202D0D64FB84206D168
:105290004DF6FF77394046F48057394305E047F62D
:1052A000FF57394044F48057394382830184F0BD6D
:1052B000828B4FF6F3731A408283828B0A43828378
:1052C0007047F0B50C461546002200210026078CD9
:1052D0004FF6FF6C07EA0C070784828B018C4FF6B0
:1052E000FF7707EA04264FF60C773A404FF6FF7730
:1052F00007EA03172F433A43B64FB8420ED0B64FD2
:10530000B8420BD0B0F1804F08D0B44FB84205D0AE
:10531000B34FB84202D0B34FB84206D14FF6FF5751
:10532000394046F48077394305E04FF2FF57394062
:1053300044F48077394382830184F0BD028B4FF2BD
:10534000FF331A400283028B4FF6FF7303EA0123F7
:105350001A4302837047F0B50C461546002200211F
:105360000026078C4FF6EF7C07EA0C070784028BB8
:10537000018C4FF6FF7707EA041640F6FF473A40E4
:105380004FF6FF7707EA03373A434FF6FF7707EA0E
:1053900005273A438F4FB8420ED08F4FB8420BD0FB
:1053A000B0F1804F08D08D4FB84205D08C4FB84235
:1053B00002D08C4FB84206D14FF6DF77394046F025
:1053C0001007394305E04FF65F77394044F0100786
:1053D000394302830184F0BD028B4FF6F3731A4008
:1053E0000283028B0A4302837047F0B50C461546D0
:1053F00000220021068C4FF6FE773E400684028B89
:10540000018C4FF60C7632407E1C06EA03162E43C2
:105410003243704EB0420ED06F4EB0420BD0B0F15E
:10542000804F08D06D4EB04205D06D4EB04202D0D4
:105430006C4EB04206D14FF6FD76314044F0010685
:10544000314305E04FF6F576314044F00106314333
:1054500002830184F0BD70B505460C465D48854267
:105460000ED05D4885420BD0B5F1804F08D05B4827
:10547000854205D05A48854202D05A48854200D11B
:1054800000E000BF208850B92389A288618828469F
:10549000FFF7ABFFE1882846FFF79EFF25E0208855
:1054A00004280AD12389A28861882846FFF753FF80
:1054B000E1882846FFF742FF17E0208808280AD134
:1054C0002389A28861882846FFF7FBFEE1882846E9
:1054D000FFF7EEFE09E02389A28861882846FFF7DE
:1054E000A6FEE1882846FFF795FE70BD2DE9F04144
:1054F00005460C4600260127608808B9022600E010
:105500000026A088012801D1022700E00127208879
:10551000A0B92389A28861882846FFF766FFE18841
:105520002846FFF759FF23893A4631462846FFF7B8
:1055300012FFE1882846FFF701FF13E02389A288C4
:1055400061882846FFF707FFE1882846FFF7F6FE47
:1055500023893A4631462846FFF747FFE188284627
:10556000FFF73AFFBDE8F0810A884B881A438B8821
:105570001A43CB881A430B891A434B891A438B89E8
:105580001A43A0F8442070474FF6FF718180002134
:105590000180C180418001727047002101804180FB
:1055A0008180C180018141818181C1817047002159
:1055B00001804180012181800021C18001817047EB
:1055C0000021018041808180C180018141818181F0
:1055D00070470000002C01400034014000040040EE
:1055E00000080040000C004021B1028842F0010296
:1055F000028004E002884FF6FE731A400280704772
:1056000031B1B0F8442042F40042A0F8442005E053
:10561000B0F84420C2F30E02A0F8442070471AB13B
:1056200083890B43838102E083898B4383817047A5
:105630008182704741EA0203A0F8483070471AB1EE
:1056400083890B43838102E083898B438381704785
:1056500001894FF6F8721140018170470A46002116
:1056600001894FF68F73194011430181704730B59E
:1056700004460D4629462046FFF7F0FF208940F0FA
:105680000700208130BD2DE9F04104460D46164645
:105690001F46602D06D13B46012231462046FFF7CA
:1056A0005AFE05E03B46012231462046FFF79DFEAB
:1056B00029462046FFF7D2FF208940F007002081CD
:1056C000BDE8F08130B50C4600210189C9B24FF622
:1056D000FF7505EA0325154325432943018130BDA4
:1056E0002DE9F04105460E461746984600244346EC
:1056F0003A4631462846FFF7E5FF2C894FF6F87009
:10570000044044F007044FF68F70044044F07004E6
:105710002C81BDE8F081F0B504460D4616461F46C3
:105720003B46324629462046FFF7CCFF208940F40D
:1057300080402081F0BD0185828270470A460021A9
:1057400001884FF68F731940114301807047F0B5FF
:105750000C4615461E460021002200230189028BBB
:10576000038C4FF6F877394021434FF6FC473A4017
:1057700040F201173A434FF6DD773B404FF6FF7793
:1057800007EA06172F433B43018102830384F0BDE0
:105790000A460021018B4FF68F7319401143018394
:1057A00070470A460021018B48F6FF7319404FF6F7
:1057B000FF7303EA02231943018370470A4600215D
:1057C000818B4FF68F7319401143818370470A46CE
:1057D0000021818B48F6FF7319404FF6FF7303EAEF
:1057E000022319438183704721B1028842F080026D
:1057F000028004E002884FF67F731A4002807047EF
:1058000021B1828842F00402828004E082884FF64F
:10581000FB731A408280704721B1828842F00802EF
:10582000828004E082884FF6F7731A4082807047C6
:1058300021B1828842F00102828004E082884FF622
:10584000FE731A40828070470A460021018B4FF692
:10585000F77319401143018370470A460021018BF9
:105860004FF2FF7319404FF6FF7303EA0223194307
:10587000018370470A460021818B4FF6F773194068
:105880001143818370470A460021818B4FF2FF73D9
:1058900019404FF6FF7303EA0223194381837047CF
:1058A0000A460021018B4FF6FB7319401143018317
:1058B00070470A460021018B4FF6FF3319404FF61F
:1058C000FF7303EA02231943018370470A4600214C
:1058D000818B4FF6FB7319401143818370470A4651
:1058E0000021818B4FF6FF3319404FF6FF7303EA17
:1058F00002231943818370470A460021018B4FF62A
:105900007F7319401143018370470A460021018BC0
:10591000C1F30E014FF6FF7303EA0223194301831B
:1059200070470A460021818B4FF67F73194011435F
:10593000818370470A460021818BC1F30E014FF627
:10594000FF7303EA02231943818370470A4600214B
:10595000018C4FF6FD7319401143018470470A46CC
:105960000021018C4FF6F7731940114301847047F1
:105970000A460021018C4FF6DF7319404FF6FF7382
:1059800003EA02131943018470470A460021018C7F
:105990004FF67F7319404FF6FF7303EA0213194362
:1059A000018470470A460021018C4FF6FF531940CD
:1059B0004FF6FF7303EA02231943018470470A4636
:1059C0000021018C4FF2FF7319404FF6FF7303EA79
:1059D00002231943018470470A460021018C4DF6C9
:1059E000FF7319404FF6FF7303EA02331943018432
:1059F000704730B5002301248C40A3B2048C9C4333
:105A00000484048C02FA01F5ADB22C43048430BD49
:105A100030B5002304248C40A3B2048C9C4304843E
:105A2000048C02FA01F5ADB22C43048430BD70B58C
:105A30000346002000241846183001258D40ACB2E2
:105A40001D8CA5431D8409B1082909D100EB610013
:105A5000056825F0700505600568154305600EE0D2
:105A60000D1FC5F34E052844056825F4E045056083
:105A700005684FF6FF7606EA02263543056070BDDD
:105A800021B1028842F00202028004E002884FF64F
:105A9000FD731A400280704721B1028842F004026F
:105AA000028004E002884FF6FB731A4002807047C0
:105AB00021B1828842F08002828004E082884FF621
:105AC0007F731A408280704702884FF6F7731A403E
:105AD000028002880A430280704782884FF68F73E3
