:020000040800F2
:10000000E0FD01208D8D0008D5070008D707000806
:10001000DB070008DF070008E30700080000000016
:10002000000000000000000000000000E7070008DA
:10003000E907000800000000EB0700083D06000883
:10004000A78D0008A78D0008A78D0008A78D0008C0
:10005000A78D0008A78D0008A78D0008A78D0008B0
:10006000A78D0008A78D0008A78D0008A78D0008A0
:10007000A78D0008A78D0008A78D0008A78D000890
:10008000A78D000881410008A78D0008A78D0008F2
:100090008B460008A78D0008A78D0008A78D0008D3
:1000A000A78D0008A78D0008A78D0008A78D000860
:1000B000A78D0008A78D0008A78D0008A78D000850
:1000C000A78D0008A78D0008A78D0008A78D000840
:1000D000A78D0008A78D0008EB410008A78D000838
:1000E000A78D0008A78D0008A78D0008A78D000820
:1000F000A78D0008A78D0008A78D0008A78D000810
:10010000A78D0008A78D0008A78D0008A78D0008FF
:10011000A78D0008A78D0008A78D0008A78D0008EF
:10012000A78D00086B050008A78D0008A78D0008A3
:10013000A78D0008A78D0008A78D0008A78D0008CF
:10014000A78D0008A78D0008A78D0008A78D0008BF
:10015000A78D0008A78D0008A78D0008A78D0008AF
:10016000A78D0008A78D0008A78D0008A78D00089F
:10017000A78D0008A78D0008A78D0008A78D00088F
:10018000A78D0008A78D0008DFF80CD009F058F9FA
:10019000004800479D010008E0FD01201CB508F063
:1001A0005CFD4FF4A06006F0DDFB05F0B4FC00F050
:1001B0001DFB04F08BF907E04FF40041F64806F010
:1001C00038FD322000F06AFB00F0F2FC0128F3D089
:1001D0004FF40041F04806F021FDC82000F05EFB1E
:1001E00000F0CEFC03F0CCFEEC49481EB0F1807F5D
:1001F00000D31BE0481E4FF0E022506150170F2241
:10020000002807DA13071D0EE54B00F00F04241F2A
:100210001D5503E013071C0EE24B1C5400BF0020C9
:100220004FF0E02290610720106100BF0120DE49FD
:1002300008604103DD4806F0D7FCDD4908704FF443
:100240008041DA4806F0D0FCDA4908704FF40041EA
:10025000D64806F0C9FCD8490870D5480078A0B93E
:10026000D448007888B90846007870B90120D3498D
:1002700008600020D2490860D24908600120D249B4
:1002800008600F20D149086051E0C9480078012872
:1002900015D1C848007890B9C748007878B90020CF
:1002A000C64908600120C64908600020C5490860A9
:1002B0000220C54908600F20C449086037E0BC48E7
:1002C0000078012817D1BB480078012813D1BA481B
:1002D000007880B90020B9490860B9490860012058
:1002E000BB490870B74908600320B74908600F2070
:1002F000B64908601BE0AE480078012817D1AD4828
:100300000078012813D1AC48007801280FD10020D3
:10031000AA490860AA4908600120AA490860AD49B5
:1003200008600420A84908600F20A849086000213F
:10033000084605F08EFB2220A74908804FF6FF7083
:1003400000210623A5A2CDE900103C21002004F0E5
:10035000EFFF4FF6FF7000210323A2A2CDE90010AA
:100360005021002004F0E4FF4FF6FF70002103232A
:100370009DA2CDE900106421002004F0D9FF4FF6C2
:10038000FF700021032399A2CDE9001078210020FD
:1003900004F0CEFF4FF6FF700021052394A2CDE9B3
:1003A00000108C21002004F0C3FF4FF6FF700021E5
:1003B000052391A2CDE90010A021002004F0B8FF90
:1003C0004FF6FF70002106238DA2CDE90010B42165
:1003D000002004F0ADFF00208B490860C4E04FF41A
:1003E0000051724806F000FC38B9874800680228BE
:1003F00003D10020844908600BE08348006840B9BD
:100400004FF40051694806F0EFFB012801D17E4905
:1004100008607E4800780028E0D06A48006801281B
:1004200009D17B480068012805DA7A4801687A48D2
:1004300000F0DCFD04E077480168774800F0ACFD8F
:1004400071480068012810D102206F490860734884
:10045000007818B901207149087006E06F480078EB
:10046000012802D100206D4908706A48006803F035
:1004700041FD6B49086008460068012803D100F07F
:10048000CBFB00F07DFB4D480068012804D161489A
:10049000006800F0D4FD0CE049480068012804D150
:1004A0005C48006801F046F803E05A48006801F033
:1004B00048FA0021084605F0CCFA22204649088077
:1004C00000205849086034E000205749086014E0D3
:1004D00054480068C0F1280000EB80004D490968CD
:1004E00001EB001050490968405C3B49891C0880B9
:1004F0004D480068401C4C4908604B480068502833
:10050000E6DB50204849086009E04FF47840324962
:10051000891C088044480068401C434908604248E0
:100520000068B0F5A07FF0DB3E480068401C3D4904
:1005300008603C4800682928C6DB2148006801287B
:1005400004D13448006801F02BFF03E03148006813
:1005500001F015FD02F094FC344880ED000A04F02F
:1005600079FB00202949087039E710B53049314836
:1005700007F0FDFC78B130492E4807F0C7FC2C4944
:100580002C4807F01DFD002007F0B8FD01201F4991
:10059000087007F0B3FD10BD0000024080A21900F2
:1005A00018ED00E000E400E09C010020000802409B
:1005B000340000203500002036000020EC00002030
:1005C000F0000020F4000020A0010020A401002081
:1005D000AD01002004010020FEFF1F6C73746167F1
:1005E000653A00006E753A0072723A0048643A004B
:1005F00053746F703A000000446973743A0000004D
:10060000556C4469733A00009C02002000000020F1
:100610000001002038000020C8020020E80100206E
:1006200064010020100000201400002018000020A9
:1006300000880010286402400008001010B55048DF
:100640000068401C4E4908604E480068401C4D49F7
:1006500008604D480068002804DD4B480068401ED3
:100660004949086049480068012808D1484800689D
:10067000002804DD46480068401E4549086045489A
:100680000068012806D100204349086043490860FA
:1006900040490860414800684149096888422CDCAB
:1006A000404800683C490968B1EB400F25DC3B48F5
:1006B0000068401C394908600846006838490968E4
:1006C00088421AD10020384908603449086032480D
:1006D0000068401C30490860086800EBD071491080
:1006E000B0EB410102D101202F4908602F48016879
:1006F0002D48008800B203F07AFF214800680A28DC
:100700001FD12B48006801280CD12A480068012815
:1007100008D129480068012804D128480068401CF5
:100720002649086026480068022807D12548008825
:1007300020B925480068401C234908600020104962
:10074000086010480068012805D12048B0F9000071
:100750001F4908800EE00B4800680A280AD10020D3
:10076000084908601948008819490988401A00B2E8
:100770001449088000204FF0E021886110BD00007E
:100780001C000020A8010020C0010020F40000206F
:10079000800200209C010020300000202C0000205E
:1007A000A4010020A00100207001002040020020D0
:1007B000B4000020EC000020600100206400002054
:1007C000000100208E01002018010020FC01002003
:1007D00024000020704700BFFEE700BFFEE700BF17
:1007E000FEE700BFFEE77047704770471CB5012168
:1007F000082006F0DDFB0121042006F0D9FB0121D1
:10080000202006F0D5FB4FF40040009001208DF829
:10081000040000208DF806008DF807008DF8050013
:1008200069461A4806F07EF900208DF80400012080
:100830008DF80700400300904000009040000090B9
:100840006946134806F06EF901208DF80400022075
:100850008DF805004020009069460E4806F062F9C8
:100860004FF40041094806F0D9F91CBD04204FF0AF
:10087000E02148610F210848C1724FF000004FF09D
:10088000E02188614FF001000861704700000240DC
:10089000000802400014024018ED00E010B50021ED
:1008A00007E04AF2104200BF1300A2F10102FBD19F
:1008B000491C8142F5D310BD10B5002106E0282265
:1008C00000BF1300A2F10102FBD1491C8142F6D303
:1008D00010BD00001CB5012140F2831006F068FB3A
:1008E0000D220421D74806F0A8F90D220621D5488B
:1008F00006F0A3F90D220921D24806F09EF90D2237
:100900000A21D04806F099F90D220621CE4806F0BA
:1009100094F90D220721CC4806F08FF90D220B2106
:10092000CA4806F08AF90D220C21C84806F085F95C
:100930000D220E21C54806F080F90D220621C4487B
:1009400006F07BF90D220721C14806F076F94FF435
:10095000CA60009002208DF8040003208DF8050085
:1009600000208DF8060001208DF807006946B54883
:1009700006F0D8F8C02000906946B34806F0D2F8D7
:100980004FF4B04000906946B04806F0CBF8C02064
:1009900000906946AE4806F0C5F80121402006F0F7
:1009A00007FB4FF4C070009001208DF80400032075
:1009B0008DF8050000208DF806008DF807006946C7
:1009C000A44806F0AFF88021A24806F029F94FF4B8
:1009D0008071A04806F022F900F046F900220821B3
:1009E000984806F02AF94FF48070009003208DF8A3
:1009F000050002208DF8040000208DF8060001207B
:100A00008DF8070069468F4806F08CF800210846EB
:100A100006F0EEF91CBD1FB50121084606F0D9FA13
:100A20000020ADF80000ADF802002020ADF8040071
:100A30008020ADF806000020ADF80800ADF80A00EF
:100A4000ADF80C00684607F0EBFA1FBD30B591B069
:100A500005460C460121880506F0AAFA39208DF8D2
:100A6000040003208DF805008DF8060001208DF8A4
:100A7000070001A805F07BFF774807F0F3F84FF077
:100A8000007002907548039004950020059006942C
:100A900007904FF4806008908000099040000A9011
:100AA00040110B9040020C9004200D9003200E90FA
:100AB00000200F90109001221021674807F03AFAA9
:100AC00002A9654807F070F911B030BDF8B50646C7
:100AD0000F4614461D46C5F347012C2000F0F4F9DB
:100AE00069462A2000F01BFA05F001009DF800106D
:100AF00001EA800000909DF800102A2000F0E4F93F
:100B0000C4F38701292000F0DFF969462A2000F0AC
:100B100006FA04F003009DF80010084000909DF8CC
:100B200000102A2000F0D0F9F8BD10B500240FE025
:100B30004B4A02EB44025178494A12F8140000F083
:100B4000C3F9012800D110BD0520FFF7A7FE641CE2
:100B50004A2CEDD30020F6E710B500240CE0404A03
:100B600002EB440251783E4A12F8140000F0ACF94E
:100B7000012800D110BD641C4A2CF0D30020F9E7F5
:100B800010B50121344807F049F9012007F0A7FA10
:100B9000012007F0B3FA10BD10B500212E4807F070
:100BA0003DF9002007F09BFA002007F0A7FA10BDDE
:100BB00008B500200090FFF78DFE0A20FFF76EFEBB
:100BC0008021122000F080F9012800D108BD0A2000
:100BD000FFF764FE69461C2000F0A1F9012800D14E
:100BE000F4E79DF800007F2801D00120EEE7FFF731
:100BF00012FF4FF4FA411B48FFF728FFFFF795FF5C
:100C0000012800D1E2E7C8234FF4A0720021084672
:100C1000FFF75CFF0020D9E710B5FFF7FCFE4FF4AB
:100C2000FA411048FFF712FFFFF796FF012800D1A5
:100C300010BDC8234FF4A07200210846FFF746FFFD
:100C40000020F5E70000024000040240001C0240C2
:100C5000002002400018024028640240280005508D
:100C60005C9E0008C80200201CB50121022006F08D
:100C70009FF94FF44060009003208DF8050001209B
:100C80008DF804008DF8060000208DF807006946F5
:100C9000C04805F047FF1CBD642001E0411EC8B2FA
:100CA0000028FBD1704700B54FF48060B9491A3174
:100CB0000880FFF7F1FF4FF40060B6491A31088051
:100CC000FFF7EAFF4FF48060B24918310880FFF760
:100CD000E3FF4FF40060AF4918310880FFF7DCFFF5
:100CE00000BD00B54FF40060AA49183108804010DB
:100CF0000880FFF7D1FFA7481030006808B901202D
:100D000000E0002010F4006F01D0002000BD4FF47F
:100D10000060A0491A310880FFF7BEFF9D481030DF
:100D2000006810F4006F01D00020EFE74FF400607E
:100D300098491A310880FFF7AFFF0120E6E700B5B8
:100D40004FF4806093491A310880FFF7A5FF4FF4F4
:100D5000006090491A310880FFF79EFF4FF48060D1
:100D60008C4918310880FFF797FF4FF4806089495C
:100D70001A310880FFF790FF00BD00B54FF4806086
:100D800084491A310880FFF787FF4FF400608149DA
:100D900018310880FFF780FF4FF480607D491831DB
:100DA0000880FFF779FF4FF480607A491A31088094
:100DB000FFF772FF00BD00B54FF4806075491A312E
:100DC0000880FFF769FF4FF400607249183108800E
:100DD000FFF762FF4FF480606E4918310880FFF71B
:100DE0005BFF6C481030006810F4006F08D04FF4BF
:100DF000806068491A310880FFF74EFF002000BD6F
:100E00004FF4806063491A310880FFF745FF0120E5
:100E1000F5E700B5024608231FE04FF480605D4906
:100E20001A310880FFF738FF12F0800F05D04FF419
:100E3000006058491831088004E04FF400605549BB
:100E40001A3108805006020EFFF726FF4FF480602B
:100E5000504918310880FFF71FFF1800A3F1010166
:100E6000CBB2DAD14FF480604A491A31088000BD14
:100E700000B508230022180246491831088017E0FF
:100E80005006020E4FF4806042491A310880FFF785
:100E900003FF4FF480603F4918310880FFF7FCFEE4
:100EA0003C481030006810F4006F01D042F001029D
:100EB0001800A3F10101CBB2E2D14FF480603549B3
:100EC0001A310880104600BD30B505460C46FFF7C4
:100ED00008FF4220FFF79DFFFFF76DFF18B9FFF7EE
:100EE000E2FE012030BDFFF7D7FE2846FFF791FF55
:100EF000FFF761FF18B9FFF7D6FE0120F2E7FFF711
:100F0000CBFE2046FFF785FFFFF755FF18B9FFF727
:100F1000CAFE0120E6E7FFF7C6FE0020E2E770B553
:100F200006460D46FFF7DDFE4220FFF772FFFFF792
:100F300042FF18B9FFF7B7FE012070BDFFF7ACFE06
:100F40003046FFF766FFFFF736FF18B9FFF7ABFE35
:100F50000120F2E7FFF7A7FEFFF79EFEFFF7C1FEB5
:100F60004320FFF756FFFFF726FF18B9FFF79BFE58
:100F70000120E2E7FFF790FEFFF77AFF04462C70AE
:100F8000FFF78AFEFFF7F9FEFFF786FEFFF78BFEFD
:100F90000020D2E70004024070B503460C46002052
:100FA0000021002200BF1EE00F25B0FBF5F200215A
:100FB00016E0151D4543561C56437608C6EB06162B
:100FC000AD1BED1C05EB850503EBC5158E0035F853
:100FD00016502D1200EB800604EB06167554491CC2
:100FE0005029E6D3401C2928DED370BD70B50346D6
:100FF0000C4600200021002200BF1DE00F25B0FBA1
:10100000F5F2002115E0151D4543561C56437608A0
:10101000C6EB0616AD1BED1C05EB850503EBC515F0
:101020008E0015F8165000EB800604EB061675547A
:10103000491C5029E7D3401C2928DFD370BD2DE976
:10104000F04F2DED048BBFB004464FF0000B28216C
:1010500035A807F0B4FEA4210CA807F0B0FE0020CC
:101060000B900A90099008900790069005900490C4
:101070000026002580468146002782460390029084
:101080000190FD490860FD490860FD4908609FED39
:10109000FD0BFE4880ED000B0020FD490860FD4976
:1010A000086000BF9CE000200B90F94908600790A1
:1010B0000690002667E0C7F1280000EB800006EBF1
:1010C0000010C01C205CC7F1280101EB810106EB78
:1010D0000111615C401A099006F11400502812DADF
:1010E000C7F1280000EB800006EB0010C01C215C5B
:1010F000C7F1280000EB800006EB00101430205CE4
:10110000081A089003E0E4480068801C08900B99D6
:101110000998884223DDE0490998096888421EDD64
:10112000DD4908980968884219DDC7F1280000EBFD
:10113000800006EB0010205CD549096888420EDD6E
:1011400009980B90C7F1280000EB800006EB001017
:10115000205CCF490860B01C35A941F82700C7F1D1
:10116000280000EB800006EB0010215C079881420C
:1011700008DDC7F1280000EB800006EB0010205CC2
:1011800007900696761C4D2E95DB35A850F8270063
:1011900000B335A951F827200699501A07F0A2FF8D
:1011A00041EC100BB0EE409AF0EE609A08F09CF91A
:1011B000B0EE408AF0EE608A9FEDB80B53EC102B36
:1011C00051EC180B07F0D2FF04D2AC480068401C69
:1011D000AA490860A9480068052800DB03E07F1CD5
:1011E0000A2FFFF660AF00BFA4480068032843DB66
:1011F0004FF0070A3CE035A951F82A20AAF1010175
:1012000035AB53F82110501A07F06CFF41EC100B6E
:10121000B0EE409AF0EE609A08F066F9B0EE408ABF
:10122000F0EE608A9FED9F0B53EC102B51EC180BE6
:1012300007F09CFF0CD2AAF1010035A951F820005B
:1012400030B1AAF1010051F820B08B4908600DE0DF
:10125000AAF1010035A951F8200038B935A850F895
:101260002A10AAF1010035AA42F82010AAF1010AB9
:10127000BAF1000FBFDC02E001208C4908608C4805
:10128000C0F800B02825C8E000200B908049086015
:1012900005900490ABF10F000390012801DA0120C2
:1012A00003900BF10A0002904B2801DD4B200290C5
:1012B000DDF80C9052E005EB850009EB0010C01C36
:1012C000205C05EB850109EB0111615C401A099076
:1012D00009F1140050280EDA05EB850009EB001027
:1012E000C01C215C05EB850009EB00101430205C6C
:1012F000081A089003E068480068801C08900B9961
:101300000998884228DD644909980968884223DDE4
:1013100061490898096888421EDD05EB850009EBE4
:101320000010C01C205C5A490968884214DD0998E5
:101330000B9005EB850009EB0010205C5449086018
:1013400009F1020B05EB85000BEB0010401C205C43
:1013500058490968401A0A9009F101090298814523
:10136000A9DB4FF0000828E005EB850008EB001032
:10137000215C0A98814218DDFF2005EB850108EB0E
:1013800001116054ABF10800404505DC1A3080457E
:1013900002DA0598401C059039480068401C38491D
:1013A00008600498401C049005E0002005EB8501CE
:1013B00008EB0111605408F10108B8F1500FD3DBBC
:1013C0000CA9059841F82500272D25DA3A48B0F9EF
:1013D0000000B42820DA0CA850F8250008281BDDEE
:1013E000A81C51F82000082816DC4FF000080CE07B
:1013F000A81C00EB800008EB0010205C05EB8501C9
:1014000008EB0111605408F10108B8F1500FEFDB4F
:1014100008200CA941F825006D1E002DBFF634AF41
:10142000174890ED000AB8EEC00ADFED240A80EEFE
:10143000201A8DED001A009807F084FE41EC100B85
:10144000124880ED000B9FED1E0B53EC102B90ED1E
:10145000000B51EC100B07F09DFE4AD39FED1A0BC9
:1014600053EC102B094890ED000B51EC100B07F0DA
:101470007DFE3ED316482DE058010020D800002004
:10148000DC000020000000000000000048010020F7
:10149000E80000202401002040000020000000009F
:1014A00000002E400000000000001C40C40000208E
:1014B000C80000204C000020FC01002000004D4529
:1014C000000000000000E03F7B14AE47E17A843F5B
:1014D00014010020006801280EDB9FEDFE0B53EC89
:1014E000102BFE4890ED000B51EC100B07F052FE54
:1014F00002D20120FA4908609FEDFA0B53EC102B41
:10150000F64890ED000B51EC100B07F043FE0CD2A7
:10151000F648B0F90000F6490968884205DDF5484B
:10152000006810B90120F34908603FB0BDEC048B9E
:10153000BDE8F08F2DE9F04F2DED048B9FB00646EE
:1015400000270025002400201E9080461D90824622
:1015500083461C9081461B901A9019901890282160
:101560000EA807F02CFC00200D902C2102A807F0FB
:1015700026FC00200190E04908601FED3E0BD74893
:1015800080ED000B28256FE000201E908246189009
:101590000D900190002454E005EB850004EB001051
:1015A000C01C305C05EB850104EB0111715CA0EB04
:1015B000010804F1190050280EDA05EB850004EB50
:1015C0000010C01C315C05EB850004EB00101930E5
:1015D000305C081A1D9003E0C8480068801C1D900C
:1015E000C648006880451BDD1E98804518DD05EB68
:1015F000850004EB0010C01C315C189881420FDD9F
:10160000BE491D98096888420ADD05EB850004EB98
:101610000010C01C305C1890CDF8788004F1010AED
:1016200005EB850004EB0010315C0D98814207DD6D
:1016300005EB850004EB0010305C0D90E0B20190EA
:10164000641C4D2CA8DBBAF1000F08D00EA840F89E
:1016500029A002A90D9801F8090009F10109B9F1C1
:10166000050F00DD02E06D1E002D8DDA00BFB9F11F
:10167000050F13DC01209A49086028250BE000249F
:1016800006E0FF2005EB850104EB01117054641C9A
:10169000502CF6DB6D1E002DF1DA11E1A9F10207E5
:1016A0004EE00EA951F82720791E0EAB53F82110F9
:1016B000501A07F017FD41EC100BB0EE409AF0EE17
:1016C000609A07F011FFB0EE408AF0EE608A9FED5D
:1016D0008C0B53EC102B51EC180B07F047FD26D266
:1016E0000EA951F827200EAB791C53F82110501A7F
:1016F00007F0F8FC41EC100BB0EE409AF0EE609A67
:1017000007F0F2FEB0EE408AF0EE608A9FED7C0BAF
:1017100053EC102B51EC180B07F028FD07D20EA844
:1017200050F8270018B10EA850F827001B9002A807
:10173000C15D1A98814202DD02A8C05D19907F1E2A
:10174000002FAEDC1B9898B9012065490860282558
:101750000BE0002406E0FF2005EB850104EB0111FE
:101760007054641C502CF6DB6D1E002DF1DAA7E0DE
:1017700028258FE000201E90824618901B98A0F12B
:101780000A0B1B9814301C90BBF1000F00DAD346F3
:101790001C984D2801DD4D201C905C464AE005EB6D
:1017A000850004EB0010C01C305C05EB850104EBE8
:1017B0000111715CA0EB010804F10F0050280EDA52
:1017C00005EB850004EB0010C01C315C05EB8500C7
:1017D00004EB00100F30305C081A1D9003E04748FE
:1017E0000068801C1D9045480068804521DD1E98DA
:1017F00080451EDD05EB850004EB0010C01C315C4C
:101800001898814215DD3D491D980968884210DD10
:10181000CDF8788005EB850004EB0010C01C305C2F
:10182000189005EB850004EB0010C01C305C1A908A
:10183000A246641C1C988442B1DBBAF1000F01D0AF
:10184000CDF86CA0002422E005EB850004EB00102D
:10185000315C2D4A1A981268801A814210DDFF20EF
:1018600005EB850104EB011170545C450EDB1C98FF
:1018700084420BDA20480068401C1F49086005E0DC
:10188000002005EB850104EB01117054641C502C01
:10189000DADB6D1E002DBFF66DAF174890ED000A24
:1018A000B8EEC00A5FEDFB0A80EE201A8DED001A3B
:1018B000009807F047FC41EC100B084880ED000B46
:1018C0009FED120B53EC102B044890ED000B51ECE4
:1018D000100B1FE0666666666666D63F480100200C
:1018E000C40000209A9999999999D93FFC01002048
:1018F0005C000020B4000020DC0000204400002038
:1019000000000000000028405000002000000000FF
:101910000000D03F07F03EFC0BD39FEDFD0B53ECD6
:10192000102BFD4890ED000B51EC100B07F01EFC46
:1019300002D20120F94908601FB0BDEC048BBDE85C
:10194000F08F2DE9F04F2DED048BBDB005464FF023
:10195000000A282133A807F032FA00203290319093
:1019600030902F902E902D902C902B90804600241C
:1019700000268346002781462A90299028902790A8
:1019800026902C211BA807F01AFA2C2110A807F08A
:1019900016FA2C2105A807F012FA002004900390F3
:1019A000029001900090DE490860DE490860DE493F
:1019B0000860DE4908609FEDDE0BD74880ED000B24
:1019C00000BFC5E00020329028902C902B908046DC
:1019D00089E0C7F1280000EB800008EB0010C01C74
:1019E000285CC7F1280101EB810108EB0111695C5A
:1019F000401A3090B8F1020F12DBC7F1280000EB5B
:101A0000800008EB0010C01C295CC7F1280000EB27
:101A1000800008EB0010801E285C081A2E9003E05E
:101A2000C5480068801C2E9008F10F00502812DA7B
:101A3000C7F1280000EB800008EB0010C01C295CF7
:101A4000C7F1280000EB800008EB00100F30285C85
:101A5000081A2F9003E0B8480068801C2F90329934
:101A60003098884229DDB4492F980968884224DDDE
:101A7000B1493098096888421FDDAF492E9809683E
:101A800088421ADDC7F1280000EB800008EB001047
:101A9000C01C295C289881420FDD30983290C7F134
:101AA000280000EB800008EB0010C01C285C289088
:101AB00008F1020033A941F82700C7F1280000EB24
:101AC000800008EB0010295C2C98814209DDC7F1E9
:101AD000280000EB800008EB0010285C2C90CDF86B
:101AE000AC8008F10108B8F14D0FFFF672AF33A8D2
:101AF00050F8270038B333A951F827202B99891AB9
:101B00000A2901DA012100E00021084607F0EAFA7B
:101B100041EC180BB0EE480AF0EE680A07F0E4FC5E
:101B2000B0EE409AF0EE609A9FED810B53EC102BD3
:101B300051EC190B07F01AFB05D07B480068401CDC
:101B40007949086003E0002033A941F827007F1C91
:101B50000A2FFFF637AF7448006802285FDB4FF0AA
:101B6000070940E033A951F82920A9F1010133AB5D
:101B700053F82110501A07F0B5FA41EC100BB0EEF3
:101B8000409AF0EE609A07F0AFFCB0EE408AF0EEBB
:101B9000608A9FED6A0B53EC102B51EC180B07F089
:101BA000E5FA0CD2A9F1010033A951F8200030B1B7
:101BB000A9F1010051F820A05A49086011E033A8AA
:101BC00050F8290068B1A9F1010033A951F82000AB
:101BD00038B933A850F82910A9F1010033AA42F806
:101BE0002010A9F10109B9F1000FBBDCBAF1000F17
:101BF0000ED14FF0050908E033A850F8290010B1C4
:101C000033A850F829A0A9F10109B9F1000FF3DCBC
:101C1000BAF1000F06D101204049086002E001201E
:101C20003E4908604748C0F800A028244FE1002042
:101C300032902890039002902790AAF108002A90F1
:101C4000001C01D500202A900AF1080029904C2898
:101C500001DD4C202990DDF8A8B051E004EB8400B0
:101C60000BEB0010C01C285C04EB84010BEB011192
:101C7000695C401A30900BF1140050280EDA04EB26
:101C800084000BEB0010C01C295C04EB84000BEB00
:101C900000101430285C081A2F9003E026480068D2
:101CA000401D2F9032993098884227DD2249309884
:101CB0000968884222DD20492F98096888421DDD85
:101CC00004EB84000BEB0010C01C295C27988142B8
:101CD00014DD3098329004EB84000BEB0010C01C34
:101CE000285C27900BF1020A04EB84000AEB001039
:101CF000401C285C14490968401A31900BF1010B13
:101D000029988345AADB10A901F804A000263FE02A
:101D1000B81E85EB51B88E3F48010020C40000205A
:101D20007401002058010020D8000020DC000020B1
:101D3000000000000000000048000020000000003B
:101D400000001040C80000205400002004EB840074
:101D500006EB0010295C3198814212DDAAF10500E2
:101D6000B0420EDC113086420BDAFF2004EB840116
:101D700006EB0111685405A90E550398401C039009
:101D800005E0002004EB840106EB01116854761C89
:101D9000502EDBDB03980A2804DA0398032801DDC0
:101DA00031982D901BA903980855FC48006802281B
:101DB00066D1262C2EDA022C2CDD10A90A5D10AB80
:101DC000611C595C501A07F08DF941EC100BB0EE14
:101DD000409AF0EE609A07F087FBB0EE408AF0EE92
:101DE000608A9FEDEF0B53EC102B51EC180B07F0B2
:101DF000D1F90FD800260BE0601C00EB800006EB49
:101E00000010285C04EB840106EB01116854761C79
:101E1000502EF1DB022C30DD262C2EDA1BA8005DC3
:101E2000082824DD1BA9601C085C08281FDCDE488C
:101E3000006808B9DC48046000260BE0601C00EB79
:101E4000800006EB0010285C04EB840106EB011116
:101E50006854761C502EF1DB1BA9601C085C0855E9
:101E60002698401C269010A9601C085C08552698EE
:101E7000072802DD0120CD49086010A810F804A051
:101E800004EB8400502101EB0010801E285CFF2829
:101E900007D004EB8400012101EB0010285CFF282F
:101EA00003D1019808B9E0B20190019884420DDA9B
:101EB000002606E0002004EB840106EB01116854C3
:101EC000761C502EF6DB00201BA90855641E002C42
:101ED000BFF6ADAE002707E01BA8C05DB449096896
:101EE0000844B34908607F1C292FF5DBB04800681F
:101EF00007F0F8F841EC100BB0EE408AF0EE608A83
:101F00009FEDAC0B53EC102B51EC180B07F07BF84A
:101F100041EC100BA94880ED000B9FEDA90B53EC91
:101F2000102B90ED000B51EC100B07F01FF90BD3A9
:101F30009FEDA50B53EC102BA04890ED000B51EC3E
:101F4000100B07F027F902D20120984908609FED95
:101F50009C0B53EC102B994890ED000B51EC100B9F
:101F600007F004F906D29A480068042802D101203B
:101F70008E4908603DB0BDEC048BBDE8F08F2DE9C3
:101F8000F04F2DED048B95B0054688480068002879
:101F90007ED11490C82013904FF000084FF0000934
:101FA0008C48076800240026A24600201290119059
:101FB000834610900F900E900D900C900B902C215A
:101FC000684606F0FCFE02208349086000BF05E079
:101FD0000020824941F82A000AF1010ABAF1290FCA
:101FE000F6DB282485E100200B90282C65D1A7F191
:101FF00008000F90001C01D500200F9007F1080089
:102000000E904F2801DD4F200E900F9E39E004EB1B
:10201000840006EB0010295C04EB840006EB001042
:10202000401E285C081A002808DD04EB840006EB3B
:102030000010401C285C002800DD149604EB84008E
:1020400006EB0010295C04EB840006EB0010A0F105
:102050000100285C081A08D504EB840006EB001088
:10206000401E285C002800DD139604EB840006EB7C
:102070000010285CFF2803D10B98401CC0B20B90C5
:10208000761C0E988642C2DBDDE91321881800E039
:1020900081E100EBD0714910504A42F824101046FB
:1020A00050F8247050F824004B2805DD4948076893
:1020B0000068114641F8240017E1282CFCDA0021C1
:1020C00000220020A7F1080312931B1C01D5002356
:1020D000129307F108031193502B01DD5023119344
:1020E000129BD8B20CE004EB840300EB0313EB5C0F
:1020F000FF2B03D10B9B5B1CDBB20B93431CD8B2B1
:10210000119B9842EFDD04EB840307EB0313EB5CB8
:10211000FF2B1BD0DDF848A00BE004EB84030AEB97
:102120000313EB5CFF2B01D1D14600E000BF0AF1A5
:10213000010A119B9A45F0DB04EB840309EB0313BE
:10214000EB5CFF2B03D0244B1C60D5E0B946A9F112
:10215000080BB9F1080301D54FF0000B09F1080392
:102160001093502B01DD50231093C8460BE004EB75
:10217000840308EB0313EB5CFF2B02D1184B43F8ED
:102180002480A8F10108D845F1DA154B53F8243022
:102190005B4539D1CDF834B033E0000000010020B8
:1021A000000000000000084074010020C40000206E
:1021B000DC0000200000000000A0A9404801002031
:1021C0007B14AE47E17A843F333333333333C33F39
:1021D000FC000020C8000020B00000206CF70120A7
:1021E000C8F6012004EB840C0D9B03EB0C13EB5C95
:1021F000FF2B01D1491C01E000230D930D9B5B1EB9
:102200000D930D9B002BEDDAC8460BE004EB840325
:1022100008EB0313EB5CFF2B02D1FE4B43F8248049
:1022200008F10108109B9845F0DDFA4B53F824C0E3
:10223000109B9C4514D1109B0C930EE004EB840C76
:102240000C9B03EB0C13EB5CFF2B01D1521C01E048
:102250004F230C930C9B5B1C0C930C9B502BEDDBC6
:10226000DFF8B4C35CF824C0DFF8A8E35EF824E02C
:102270000CEB0E0303EBD37C4FEA6C0CDFF89CE312
:102280004EF824C004291CDDE54B1B68CBB9E54B97
:102290001B68262B15DA0123DFF884C3CCF8003045
:1022A000E14B1B68012B07D163461B68012B03D14F
:1022B000DFF878C3CCF800300123DFF874C38CF862
:1022C0000030042A0DDDDB4B1B6853B9D54B1B686E
:1022D000262B06DA0123DFF85CC3CCF80030D64B9E
:1022E0001C60CE4B53F8247000BF0B980DF804000F
:1022F000641E022C3FF777AE00BF1A242CE0C749BA
:1023000051F824200B46A11C53F82110501A06F056
:10231000E9FE41EC100BB0EE409AF0EE609A07F047
:10232000E3F8B0EE408AF0EE608A1FED630B53ECE9
:10233000102B51EC180B06F02DFF0CD8BF48B0F94C
:102340000000BF490968884205DD0120B4490860E2
:102350000320B7490870641E022CD0DCB548006821
:10236000012803D0AE480068012802D10120AC4901
:102370000860B4480068C0F12800AA49086008460F
:1023800000680A2803DA0120AF49086002E0002053
:10239000AD49086000BF15B0BDEC048BBDE8F08FFF
:1023A0002DE9F04F2DED048BD7B006460024002513
:1023B000A34600205690559000274FF050088146C4
:1023C0005490824653905290A42129A806F0F7FC1D
:1023D000A421684606F0F3FC00209C4908602820F0
:1023E0009B49086000209B49086000BF05E0002071
:1023F0008A4941F82B000BF1010BBBF1290FF6DBE9
:10240000282465E000274FF0500801251FE004EB69
:10241000840005EB0010305C002817DD04EB84001D
:1024200005EB0010401E305C80B904EB840005EB26
:102430000010401C305C002808DD04EB840005EB34
:102440000010801C305C002800DD2F466D1C4E2DD6
:10245000DDDB4E251FE004EB840005EB0010305C53
:10246000002817DD04EB840005EB0010401C305CF5
:1024700080B904EB840005EB0010401E305C00289E
:1024800008DD04EB840005EB0010801E305C0028A2
:1024900000DDA8466D1E012DDDDCA7B1B8F1500F9F
:1024A00011D0A8EB070000280DDDA8EB07001028CD
:1024B00009DA07EB080000EBD071491029AA42F8AD
:1024C000291009F10109B9F1050F00DD02E0641ED0
:1024D000002C97DA00BFB9F1050F03DC01205A493F
:1024E000086047E1012445E0611E29AA52F8211045
:1024F00052F82420881A06F0F5FD41EC100BB0EEDE
:10250000409AF0EE609A06F0EFFFB0EE408AF0EEEF
:10251000608A9FED510B53EC102B51EC180B06F019
:1025200025FE26D229AA611C52F8211052F8242037
:10253000881A06F0D7FD41EC100BB0EE409AF0EE91
:10254000609A06F0D1FFB0EE408AF0EE608A9FED0F
:10255000420B53EC102B51EC180B06F007FE08D27F
:1025600029A850F8240020B1601E29A951F820A004
:1025700002E0641C4C45B7DB00BFCDF84CA1282419
:10258000BEE000274FF05008AAF10F005690569871
:10259000002801DA002056900AF10F005590559856
:1025A0004F2801DD4F2055905698451C0FE004EB55
:1025B000840005EB0010305C002807DD04EB84008C
:1025C00005EB0010401E305C00B92F466D1C55987D
:1025D0008542ECDD5598451E0FE004EB840005EBC9
:1025E0000010305C002807DD04EB840005EB0010D0
:1025F000401C305C00B9A8466D1E56988542ECDA46
:10260000A8EB0700002849DDA8EB0700142845DAED
:1026100026E0000014F80120C8F601206CF7012024
:10262000B4000020E0000020EC000020F8000020B2
:1026300028010020B8000020BC000020FC01002080
:102640005C000020B0000020C4000020D00000206A
:10265000D4000020680100200000000000001C40A1
:1026600007EB080000EBD0714910FE4A42F8241035
:10267000A8EB07004DF82400002052905498401C0D
:102680005490F9480068844201DDF7480460F74837
:102690000068844222DAF54804601FE0B8450ED194
:1026A0006FB1B8F1500F0AD007EB080000EBD07102
:1026B0004910EC4A42F82410002052900EE0529843
:1026C000401C5290282C06DAE649601C51F8200084
:1026D00041F8240002E0E34840F824A0E14850F823
:1026E00024A05298032801DB142C04DB142C06DBF5
:1026F0005298142803DB54980A2800DB03E0641E78
:10270000002CBFF63EAF00BF54980A2803DA012020
:10271000D749086002E00020D5490860D149D24A73
:10272000126851F822205399501A06F0DBFC41EC54
:10273000100BB0EE409AF0EE609A06F0D5FEB0EEC7
:10274000408AF0EE608A9FEDCB0B53EC102B51ECDE
:10275000180B06F01FFD05D2C249C34A53981268F0
:1027600041F82200C0480068C0490968401A801E2C
:10277000C249086057B0BDEC048BBDE8F08F70B55E
:102780002DED0A8B0024002008EE100ABC4890EDC5
:10279000000BBC4880ED000B0020BB490860BB4922
:1027A0000860BB48006801284DD1AF4804681EE0AE
:1027B000AC4850F82410601EAA4A52F82000081AAB
:1027C000002804DDB0480068401CAF490860A548F7
:1027D00050F82410A4F10100A24A52F82000081A6F
:1027E00004D5AA480068401CA8490860641E9F4898
:1027F0000068801C8442DBDCA3480068A3490968A8
:10280000401A08EE100A9848006898490968401A6A
:10281000052817DD9448006894490968401A801E0D
:1028200000EE100AB8EEC00AF8EEC80A80EE801A70
:1028300011EE105A284606F085FC41EC100B90482A
:1028400080ED000B92E093480068012842D12824D3
:102850001EE0844850F82410601E824A52F820007E
:10286000081A002804DD88480068401C8649086072
:102870007C4850F82410A4F101007A4A52F8200054
:10288000081A04D581480068401C80490860641E0D
:10289000814800688442DCDC7B4800687B49096829
:1028A000401A08EE100A7C480068C0F1280000EECB
:1028B000100AB8EEC00AF8EEC80A80EE801A11EECF
:1028C000105A284606F03EFC41EC100B6C4880ED97
:1028D000000B4BE071480068012847D128241EE016
:1028E000604850F82410601E5E4A52F82000081A12
:1028F000002804DD64480068401C634908605948AA
:1029000050F82410A4F10100564A52F82000081A89
:1029100004D55E480068401C5C490860641E5E483F
:1029200000688442DCDC5848006858490968401A4D
:1029300008EE100A58480068C0F12800002815DD8C
:1029400055480068C0F1280000EE100AB8EEC00A31
:10295000F8EEC80A80EE801A11EE105A284606F0EA
:10296000F1FB41EC100B464880ED000B4848006835
:10297000012833D14A48006805282FD1404890EDFE
:10298000000B06F0B1FDB0EE409AF0EE609A9FEDBC
:10299000450B53EC102B51EC190B06F0E7FB1DD245
:1029A000374890ED000B06F09FFDB0EE409AF0EE38
:1029B000609A9FED3E0B53EC102B51EC190B06F077
:1029C000E9FB0BD22D4800681E2807DD01203349A2
:1029D000086000202E490860364908603648B0F982
:1029E0000000002811DD3548B0F900003249B1F986
:1029F0000010401A32490968884206DD28480068FC
:102A0000022802DB0520264908602B48B0F90000A7
:102A1000002818DD2948B0F900002749B1F9001055
:102A2000401A2849096888420DDD1D4800680528BC
:102A300009D117480068012805D100201449086011
:102A40000120164908600F4890ED000B53EC102B45
:102A50000B4890ED000B51EC100B06F05CFA41ECCA
:102A6000100B31E06CF70120D0000020D4000020D2
:102A7000C40000200000000000002840E00000200A
:102A800038010020400100201C010020200100200E
:102A9000F0000020EC000020B0000020F400002036
:102AA00008010020333333333333C33F7B14AE4745
:102AB000E17A943F180100207A010020FC010020F7
:102AC0006C00002070000020B0EE40AAF0EE60AA7A
:102AD00006F00AFDB0EE409AF0EE609A9FEDFE0B14
:102AE00053EC102B51EC190B06F040FB05D2FC48BF
:102AF00090ED000BFB4880ED000BFB4800680128BF
:102B00007DD1FA480068032861DBF9480068022893
:102B10005DDA9FEDF80B53EC102BF24890ED000BB3
:102B200051EC100B06F0FDF941EC100BB0EE409AA1
:102B3000F0EE609A51EC190B06F0E5FAEF490860E7
:102B40000846006806F0CEFA41EC100BB0EE40AA41
:102B5000F0EE60AA06F0C8FCB0EE409AF0EE609A83
:102B60009FEDE70B53EC102B51EC190B06F012FB09
:102B70002CD2E248006806F0B5FA41EC100BB0EE3A
:102B800040CAF0EE60CA06F0AFFCB0EE40AAF0EE2C
:102B900060AADA490968C80006F0A4FA41EC100BF3
:102BA000B0EE40BAF0EE60BA53EC1A2B51EC1B0BAE
:102BB00006F029FA41EC100BB0EE409AF0EE609A64
:102BC00051EC190B06F09FFACC49086068E0C84840
:102BD0000068022864D19FEDCC0B53EC102BC14848
:102BE00090ED000B51EC100B06F09BF941EC100B33
:102BF000B0EE409AF0EE609A51EC190B00E04CE018
:102C000006F081FABD4908600846006806F06AFAD5
:102C100041EC100BB0EE40AAF0EE60AA06F064FCA6
:102C2000B0EE409AF0EE609A1FED6E0B53EC102B55
:102C300051EC190B06F0AEFA32D2B048006806F03B
:102C400051FA41EC100BB0EE40CAF0EE60CA06F04B
:102C50004BFCB0EE40AAF0EE60AAA849096801EB6F
:102C60004101880006F03EFA41EC100BB0EE40BA8C
:102C7000F0EE60BA53EC1A2B51EC1B0B06F0C3F9C3
:102C800041EC100BB0EE409AF0EE609A51EC190B4B
:102C900006F039FA9949086002E000209749086077
:102CA000BDEC0A8B70BD10B52DED028B98480078F5
:102CB00000287DD1974800689749096801EB4000DA
:102CC0008949096801EB4101084494490860944826
:102CD0000068012801DB0420086001238F483C21A3
:102CE0000268084602F04AFD02238E483C21026831
:102CF000642002F043FD02238B4850210268282003
:102D000002F03CFD774890ED000B51EC100B06F003
:102D100055FA08EE100AB0EE480A6421282002F0A5
:102D200046FD824890ED000B51EC100B06F046FA80
:102D300008EE100AB0EE480A64218C2002F037FD3C
:102D40007448006801280ED101237948782102686F
:102D5000282002F013FD01237648027878213C20D8
:102D600002F00CFD11E06048006801280DD101233C
:102D70005E488C2102683C2002F000FD01235C4883
:102D80008C2102685A2002F0F9FC04236A48B0F949
:102D90000020A0213C2002F0F1FC6848006868494E
:102DA0000968421A0323B421462002F0E7FC00E040
:102DB00024E00323634890ED000ABDEEC00A10EE44
:102DC000102AB421782002F0D9FC03235E4890ED4C
:102DD000000ABDEEC00A10EE102AB421A02002F0B5
:102DE000CDFC0323594890ED000ABDEEC00A10EE59
:102DF000102AB421C82002F0C1FC3EE0544890EDF6
:102E0000000AC821142002F0D2FC02235148C82134
:102E10000268462002F0B2FC02234F48C821026833
:102E2000642002F0ABFC4D4890ED000AC8218C20D4
:102E300002F0BDFC02234A48C8210268084602F09D
:102E40009DFC484890ED000ADC213C2002F0AFFCDC
:102E5000454890ED000ADC216E2002F0A8FC4348B2
:102E600090ED000ADC21A02002F0A1FC02234048E2
:102E7000DC210268D22002F081FCBDEC028B10BD87
:102E80002DE9F0472DED068B00250027A8460026EA
:102E90000024FFF708FF24480068262810DA354888
:102EA000006868B91C480068012809D12248B0F9B7
:102EB000000031490968884202DD01202D4908607F
:102EC0001548006801285ED11B48B0F900002B4965
:102ED0000968884257DA53E0B81E85EB51B89E3F27
:102EE0004001002038010020F4000020FC000020F8
:102EF000000100200000000000003940E401002033
:102F000000000000000020400000000000003C40E5
:102F1000E8010020F0000020EC0000206C010020FF
:102F20000401002094010020E0000020480100205E
:102F300008010020CD010020FC010020D401002068
:102F4000D00100202C01002030010020340100209D
:102F50008802002060000020680000208800002017
:102F60008C000020A0000020A4000020A800002069
:102F7000AC000020B40000205C00002058000020BD
:102F80000020FE490860FE480068012877D1FB4810
:102F90000068012873D1FB48006801286FDBFA48FC
:102FA000006800286BD1F9480068142864DB9FEDA5
:102FB000F80B53EC102BF84890ED000B51EC100B74
:102FC00006F0E8F858D29FEDF50B53EC102BF248C1
:102FD00090ED000B51EC100B06F0C8F84CD22825F0
:102FE00041E00027EF48D0F8A000A0F108060EE06D
:102FF000002E0BDB502E09DA05EB850006EB0010E6
:10300000E9490968085CFF2800D17F1C761CE54867
:1030100050F825000830B042EADC032F22DD0B2FE8
:1030200020DAE04951F82520691EDE4B53F82110C3
:10303000501A06F057F841EC100BB0EE409AF0EE43
:10304000609A06F051FAB0EE408AF0EE608A9FED89
:10305000D70B53EC102B51EC180B06F087F801D866
:1030600008F101086D1E1F2DBBDCB8F1080F06DA50
:103070000120C549086002E00120C3490860C24838
:10308000006800287ED1FFF77AFBC048006824283A
:1030900014DD262408E0C34850F82400C549096817
:1030A0000844C4490860641E1F2CF4DAC14908684A
:1030B000C11700EB5171C910BE4A1160BE480068CB
:1030C000BE490860BB480068BB490860BB4800684F
:1030D0000968401A00280EDDB8480068B64909683A
:1030E000401A042807DAA94800681E2803DD0120D9
:1030F000B349087014E0B0480068B0490968401A44
:1031000000280DDDAC480068AC490968401A042865
:1031100006DA9E4800681E2802DD0220A8490870D1
:10312000A8480068032825DB0020A7490860502034
:10313000A6490860282418E09A4850F82400A249BB
:103140000968884204DD974850F824009E490860C9
:10315000944850F824009D490968884204DA91484F
:1031600050F8240099490860641E99480068401C82
:103170008442E1DC9348006803281ED1954890ED15
:10318000000B00E0CAE006F0AFF9B0EE408AF0EEC6
:10319000608A9FED910B53EC102B51EC180B05F04E
:1031A000F9FF0AD2794800681E2806DD8C480068BD
:1031B00018B901208A49086032E082480068032873
:1031C0002ED1844890ED000B06F08EF9B0EE408AC7
:1031D000F0EE608A9FED800B53EC102B51EC180B36
:1031E00005F0C4FF1CD27B4890ED000B06F07CF983
:1031F000B0EE408AF0EE608A9FED7A0B53EC102B14
:1032000051EC180B05F0C6FF0AD2604800681E2872
:1032100006DD73480068012802D102207049086069
:103220006848006803281FDB7048B0F90000704947
:10323000B1F90010401A6F490968884214DD6548E9
:1032400090ED000B06F050F9B0EE408AF0EE608A87
:103250009FED610B53EC102B51EC180B05F086FF22
:1032600002D202205E4908605D480068022855D1FC
:1032700054480068032819D144480068192811DB14
:10328000544890ED000B06F02FF9B0EE408AF0EEB6
:10329000608A9FED590B53EC102B51EC180B05F085
:1032A00079FF03D80120384908601CE045480068D0
:1032B000042818D135480068142811DB454890EDE2
:1032C000000B06F011F9B0EE408AF0EE608A9FED37
:1032D000420B53EC102B51EC180B05F05BFF02D89E
:1032E0000120294908609FED3F0B53EC102B2A4821
:1032F00090ED000B51EC100B05F04CFF0BD39FED44
:10330000400B53EC102B244890ED000B51EC100BAC
:1033100005F02CFF02D201201B4908603A480088C2
:1033200080B91748006801280CD1144800680128AA
:1033300008D136480068012804D12C48B0F90000B3
:10334000314908803248006801280CD13148008892
:1033500048B92648B0F90000002804DD2348B0F938
:1033600000002C4908802A48006805285FD12A48B7
:10337000008808B91D4851E059E00000B400002061
:10338000EC00002014010020C4000020E000002018
:103390007B14AE47E17A943F480100207B14AE478E
:1033A000E17AD43F6CF701203800002000000000D3
:1033B00000000840C4010020EC010020C8010020EA
:1033C000CC010020FC000020D4010020D00100200E
:1033D000B000002038010020000000000000E03FA5
:1033E000000100207B14AE47E17AB43FFC010020CD
:1033F0008201002094000020666666666666E63FED
:10340000B81E85EB51B89E3F780100206001002076
:10341000080100207A0100207C010020B0F90000A2
:10342000002804DDFE48B0F90000FE490880FE488F
:10343000006801280CD1FD48008848B9F848B0F967
:103440000000002804DDF648B0F90000F7490880C4
:10345000F7480068022807D1F648008820B9F048EC
:10346000B0F90000F3490880F1480068032807D14B
:10347000F148008820B9EA48B0F90000EE49088018
:10348000EB480068042807D1EC48008820B9E448DC
:10349000B0F90000E9490880E9480068012807D12F
:1034A000E8480068142803DA0120E74908600AE0C8
:1034B000DD480068012806D1E24800680A2802DADF
:1034C0000120E1490860E048006801284BD1002054
:1034D000DC4908609FEDDD0BDE4880ED000BDE4827
:1034E00090ED000ADD4880ED000ADD480068012803
:1034F0001AD1DC480068012816D19FEDDB0B53EC94
:10350000102BDB4890ED000B51EC100B05F042FE48
:1035100002D20220D74908609FEDD70ACF4880ED3C
:10352000000A0120D5490860C5480068012803D178
:10353000D3480068052807D0BB480068012808D197
:10354000BB480068012804DA9FEDCE0AC34880ED2D
:10355000000A0020BC490860C04890ED000ABDEC9C
:10356000068BBDE8F0879FEDC80AB0EE408A4FF0A9
:103570000009BB480068012842D1BE480068022803
:103580003ED1B848006801283AD11FED7C0B53ECBE
:10359000102BB74890ED000B51EC100B05F0E6FD39
:1035A0002ED29FEDBA0B53EC102BB14890ED000BCF
:1035B00051EC100B05F0EEFD22D2A248006819284C
:1035C0001EDDB448006802281ADD9548B0F90000F5
:1035D000B149B1F90010401A0C2811DDAE48B0F91C
:1035E000000000280CDD00209D490860012094495E
:1035F00008600020A94908609E4908609949086050
:103600008F48006801281DD1A548006805F09AFD83
:1036100041EC100BB0EE409AF0EE609A8D4890EDC0
:10362000000B53EC102B51EC190B05F0B3FD0AD233
:103630009348006838B983480068232803DD0120D7
:103640008F49086083E07F48006823281BDD954888
:10365000006805F077FD41EC100BB0EE409AF0EEFB
:10366000609A7C4890ED000B53EC102B51EC190B39
:1036700005F07CFD07D282480068012803D10220B2
:103680007F49086063E08848006805F05BFD41EC15
:10369000100BB0EE409AF0EE609A6E4890ED000B81
:1036A00053EC102B51EC190B05F074FD07D2744844
:1036B0000068022803D103207149086047E07B4875
:1036C000006805F03FFD41EC100BB0EE409AF0EEC3
:1036D000609A604890ED000B53EC102B51EC190BE5
:1036E00005F044FD07D266480068032803D1042092
:1036F000634908602BE06E48006805F023FD41EC4B
:10370000100BB0EE409AF0EE609A524890ED000B2C
:1037100053EC102B51EC190B05F03CFD17D2584817
:103720000068042813D16348B0F9000000280EDDBA
:103730003B48B0F900005F49B1F90010411A5E48FA
:103740000068801F814202DD05204D49086036482F
:103750000068012862D19FED590B53EC102B3D48B6
:1037600090ED000B51EC100B05F000FD18D2304825
:103770000068A8B94F48B0F90000002808DD2848C3
:10378000B0F900004B49B1F90010401A6E2803DC73
:103790004C480078012803D10120254908603BE00E
:1037A0009FED490B53EC102B2A4890ED000B51EC88
:1037B000100B05F0EFFC1CD21D480068012818D141
:1037C0003C48B0F90000002808DD1548B0F90000B9
:1037D0003849B1F90010401A822803DC39480078D2
:1037E000012806D1022012490860002038490860EB
:1037F00012E09FED320B53EC102B164890ED000BAE
:1038000051EC100B05F0B2FC06D209480068022802
:1038100002D10320064908600A485BE08CE0000002
:10382000FC0100207C010020F40000207E0100202B
:10383000FC0000208201002084010020860100207D
:10384000F0000020E0000020C40000200000000084
:103850000000000038010020300100202C01002071
:10386000EC000020B4000020333333333333C33F44
:103870004801002014010020000040C26001002027
:103880000801002000001042000000007B14AE4739
:10389000E17A843F64000020780100209801002034
:1038A00074000020780000207C00002080000020B0
:1038B000840000207A0100206C0000203333333371
:1038C0003333D3BFAD010020333333333333D33FEE
:1038D0001801002000681E282EDDFE48006803281D
:1038E0002AD1FD4890ED000B05F0FEFDB0EE409AA8
:1038F000F0EE609A9FEDF90B53EC102B51EC190B85
:1039000005F034FC18D8F44890ED000B05F0ECFD00
:10391000B0EE409AF0EE609A9FEDF20B53EC102B54
:1039200051EC190B05F036FC06D2F048006802286D
:1039300002D10420E7490860ED48006801280DD154
:10394000EC480068062803DA0620EB49086061E0CD
:10395000E8480068401CE84908605BE0E748006808
:1039600001280ED1E6480068801C032803DA0320F2
:10397000E14908604EE0E2480068401CDE4908600A
:1039800048E0E0480068012844D1D2480068012896
:103990000DDCD84800680C2803DA0C20D6490860F2
:1039A00038E0D4480068401CD349086032E0C94878
:1039B000006802280DD1CF4800680F2803DA0F20D5
:1039C000CD49086026E0CB480068401CCA49086021
:1039D00020E0C6480068022811DABE4800680328C3
:1039E0000DD1C44800680F2803DA0F20C2490860CF
:1039F00010E0C0480068401CBF4908600AE0BB48AE
:103A00000068022806DBBB4800680F2802DA0F2096
:103A1000B9490860BC480068C0F12700BB4908608C
:103A2000B5480068C0F1230000EE100AB8EEC00AE5
:103A300010EE101A084605F085FB41EC100BB44857
:103A400080ED000BB348AC49096850F82100AF493C
:103A50000968401A00EE100AB8EEC00AB0EE408ABB
:103A6000AD4880ED008AA1480068022861D1A148D4
:103A700000680F2857DAA7499F4A126851F8222098
:103A80000B469D490968491C53F821100A449A497C
:103A90000968891C53F821100A4497490968C91C10
:103AA00053F821105018C11700EB9171974A126812
:103AB000C2EBA10100EE101AB8EEC00A964981EDE2
:103AC000000A084690ED000AFAEE000AB4EEE00A99
:103AD000F1EE10FA20D390ED000A9048D0ED000AE4
:103AE00030EE600A10EE101A084605F02BFB41EC90
:103AF000100BB0EE40AAF0EE60AA05F0F5FCB0EEB7
:103B0000409AF0EE609A9FED860B53EC102B51EC2F
:103B1000190B05F03FFB0CD2804890ED000A7E485F
:103B200080ED000A05E07D4890ED000A7A4880EDBE
:103B3000000A6F480068012812D17B48B0F90000E4
:103B40007A49096888420BDD7948B0F900000828F5
:103B500003DD02207749086002E000207549086013
:103B60006348006801286FD17348006801286BD151
:103B70007248006826280CDA71480068032808DCBF
:103B80006E480068142804DD6948B0F900006D49EA
:103B900008606A4801686C4800680F3081420ADAA0
:103BA0006348B0F9000069490968884203DB0120D5
:103BB0006049086002E000205E49086062480068D1
:103BC000634908605F480068052803DA5E480068BA
:103BD000086012E05B480068052809DB5948006866
:103BE000092805DC58480068801C5949086004E031
:103BF00055480068C01C564908605348006854493D
:103C000008604E480068096888420EDBBAEE040A74
:103C1000414880ED000A4F480068012814D19FED0B
:103C20004E0A3D4880ED000A0EE09FED4B0A3A48EF
:103C300080ED000A012047490860404800680F28CD
:103C400002DA0120454908602C48006801283FD16C
:103C50004348006801281AD138480068262816D140
:103C60009FED400B53EC102B1B4890ED000B51ECDB
:103C7000100B05F07BFA0AD23C48007838B90120D5
:103C80003A4908702A48B0F9000039490880344898
:103C9000006801287BD135480078012877DB222095
:103CA000344908803248B0F90000032806DD304866
:103CB000B0F90000062801DA232008802C48B0F96A
:103CC0000000062802DB24202A4908801B4853E014
:103CD000AFE05CE0FC0000203801002000000000A4
:103CE0000000D03F7B14AE47E17AA43F00010020E2
:103CF000EC000020B0000020E4000020F0000020D4
:103D0000D4000020F4000020E4010020CC000020BA
:103D1000500100206CF701202C0100203001002010
:103D20000000000000003440FC0100205C00002086
:103D30008E01002098010020B4000020E000002047
:103D4000A8010020940100206000002068000020ED
:103D5000BC01002060010020000034C214010020DA
:103D600008010020666666666666E6BFCD01002033
:103D7000B6010020B801002000687249B1F90010B6
:103D8000884204DA9FED700A704880ED000A70489E
:103D9000006801280DD16F480078012809DB6E48C2
:103DA0000068202805DA6D48007810B901206B49B9
:103DB00008706A48007801281CD1674800682628E6
:103DC00018D1674890ED000B05F08EFBB0EE409ADD
:103DD000F0EE609A1FED3F0B53EC102B51EC190BDA
:103DE00005F0C4F906D25A480068012802D1022021
:103DF000574908605648006802280DDB544800689F
:103E0000042809DC54480068202805DA554890ED5C
:103E1000000A4E4880ED000A4D480068032808DB80
:103E20004B480068042804DC4F48B0F900004F49B3
:103E300008804F48B0F90000B92813DD4D480068EC
:103E400001280FD1414890ED000AB5EEC00AF1EE0D
:103E500010FA07DD4848006820B9B9EE040A3B486B
:103E600080ED000A45480068022806DA374890EDE0
:103E7000000A3C4880ED000A27E03A4890ED000A2D
:103E80003248D0ED000A30EE600A10EE101A0846F3
:103E900005F058F941EC100BB0EE40AAF0EE60AA24
:103EA00005F022FBB0EE409AF0EE609A1FED640B35
:103EB00053EC102B51EC190B05F058F905D8234899
:103EC00090ED000A274880ED000A204890ED000A96
:103ED000FFF745BB02460020002100BF07E032F992
:103EE0001130834201DD32F911004B1CD9B2032994
:103EF000F5DB704710B5034600210022002400BF07
:103F000016E0002210E001EB810002EB0010185CCB
:103F1000642807DD01EB810002EB0010185C962895
:103F200000DA641C501CC2B2502AECDB481CC1B23F
:103F30002929E6DB40F6A840844201DD012010BDBE
:103F40000020FCE7B8010020000020C22C01002066
:103F500008010020CD010020E0000020AC0100207D
:103F600038010020300100208E0100209001002047
:103F7000FC010020EC000020B40000200001002023
:103F800000B597B00121084603F012F8012148045A
:103F900003F041F80121480503F00AF80722022145
:103FA000FA4802F04AFE07220321F84802F045FED3
:103FB0000C20159003208DF8590000208DF85A0030
:103FC00001208DF85B0002208DF8580015A9EF48FC
:103FD00002F0A8FD4FF4E13011900020ADF8480048
:103FE000ADF84A00ADF84C00ADF850000C20ADF82B
:103FF0004E0011A9E64803F067F9012240F225516D
:10400000E34803F09FFA40F22551E14803F0CCFA6F
:1040100040F22551DE4803F007FB26208DF84000D2
:1040200003208DF8410004208DF8420001208DF816
:10403000430010A802F09BFCD64803F013FE4FF09B
:10404000006001900020059040200490D248039029
:10405000CF48001D0290001507900020069009909F
:1040600008900A904FF440300B9000200C900120F3
:104070000D9000200F900E9001A9C64803F094FE09
:10408000C649C44803F042FFC449C24803F098FF40
:1040900001221021BF4803F04DFF11208DF8400090
:1040A00002208DF8410004208DF8420001208DF897
:1040B000430010A802F05BFC01228021B44803F009
:1040C00038FA0121B24803F087F917B000BD38B5BE
:1040D00000250024AF4803F0C4FEF0B9B04802F058
:1040E0002AFC044604B938BD322C00DD32240025F8
:1040F00009E06946AA4802F009FC9DF80000A649BB
:104100004855681CC5B2A542F3DB2146A14803F01F
:10411000A6FE01219F4803F081FE00BFE3E7F8B54A
:1041200006460F460024002500BF05E0315D9C488F
:1041300002F0D2FB601CC4B2BC42F7DB954803F02E
:1041400090FEE0B9964802F0F6FB0546322D00DD00
:104150003225002409E06946914802F0D7FB9DF81A
:1041600000008D490855601CC4B2AC42F3DB2946FF
:10417000884803F074FE0121864803F04FFEF8BD25
:1041800010B58649834803F0F2FE012809D183491E
:10419000804803F0BBFE81497E4803F011FFFFF722
:1041A00096FF10BD70B505460E46002400BF0BE01B
:1041B00000BF4021764803F0EAF90028F9D0295DD4
:1041C000734803F034F9641CB442F1DB70BD10B5E0
:1041D000002107E042F63C0200BF1300A2F10102F9
:1041E000FBD1491C8142F5DB10BD10B540F22551D1
:1041F000674803F0E2F900287ED040F22551644878
:1042000003F0D2F940F22551614803F00DFA6048FD
:1042100003F011F9C4B26348007810F0400F21D0C8
:104220006048007810F0800F24D12A2C06D15D4818
:10423000007840F080005B4908701BE05948007826
:1042400000F03F0058490C5456480078401C55492E
:1042500008700846007800F03F001F280ADD0020A3
:10426000087007E0232C05D14E48007840F040004C
:104270004C4908704B48007810F0800F48D04A48ED
:1042800000784D2803D1484840784849087046488E
:10429000807848280FD14448C0784349097940EADA
:1042A00001104149497940EA01203F49897940EAB2
:1042B00001303F4908803C48C0794C280FD13A482A
:1042C000007A3949497A40EA01103749897A40EA47
:1042D00001203549C97A40EA013036490880324820
:1042E000007B522811D13048407B2F49897B40EA1E
:1042F00001102D49C97B00E00AE040EA01202A496B
:10430000097C40EA01302C490880002025490870CA
:1043100010BD7CB5044600250020009001900A2CB9
:104320001ADA20208DF8010004F13000C0B28DF8B7
:10433000000000BF0DE000BF4021154803F027F941
:104340000028F9D01DF80510114803F070F8681C1A
:10435000C5B2012DEFDBB6E0642C40DA0A2C3EDB5F
:1043600020208DF802000A2094FBF0F100FB1140A0
:104370003030C0B28DF801000A2094FBF0F03030EC
:10438000C0B28DF80000002526E0000000000240C9
:1043900000440040A0600240B8F8012000802020C6
:1043A000ECF80120F9010020C0F90120F8010020FB
:1043B000F2010020F4010020F601002000BF40219E
:1043C000414803F0E4F80028F9D01DF805103E48F4
:1043D00003F02DF8681CC5B2022DEFDB73E0B4F5D5
:1043E0007A7F33DA642C31DB20208DF803000A2039
:1043F00094FBF0F100FB11403030C0B28DF80200A8
:104400000A2094FBF0F00A2190FBF1F201FB12006C
:104410003030C0B28DF80100642094FBF0F03030F1
:10442000C0B28DF8000000250DE000BF40212648F5
:1044300003F0ADF80028F9D01DF80510224802F06D
:10444000F6FF681CC5B2042DEFDB3CE020208DF8A0
:1044500004000A2094FBF0F100FB11403030C0B2A0
:104460008DF803000A2094FBF0F00A2190FBF1F292
:1044700001FB12003030C0B28DF80200642094FBC2
:10448000F0F090FBF1F201FB12003030C0B28DF879
:1044900001004FF47A7094FBF0F03030C0B28DF828
:1044A000000000250DE000BF4021074803F06FF831
:1044B0000028F9D01DF80510034802F0B8FF681C69
:1044C000C5B2052DEFDB7CBD0044004000B58BB0CC
:1044D0000121480602F09FFD0121084602F068FD17
:1044E00009220B21FE4802F0A8FB09220C21FC48FE
:1044F00002F0A3FB02208DF81C004FF4C050069080
:1045000006A9F74802F00EFB14208DF804000320E2
:104510008DF8050004208DF8060001208DF80700B5
:1045200001A802F024FAEF4803F034FE08A803F0D3
:1045300055FF00208DF826008DF827008DF8280003
:104540008DF829008DF82A0001208DF82B0000201D
:104550008DF822008DF8230008208DF82400032018
:104560008DF82500ADF8200008A9DE4803F02BFEE9
:1045700000208DF812008DF8130001208DF8140032
:1045800042F22000ADF808000020ADF80A00ADF8B6
:104590000C00ADF80E00ADF8100001208DF81500EC
:1045A00002A803F09AFE01220221CE4804F094F9F9
:1045B0000BB000BD03B585B040F245100090082057
:1045C0008DF80A0000208DF809008DF808000DF123
:1045D0000B0105A800F0ACFA0DF10F0106A800F0E0
:1045E000A7FA6946BF4803F067FF07B000BD03B5EF
:1045F00085B040F24710009008208DF80A00002096
:104600008DF809008DF808000DF10B0105A800F0E8
:10461000DFFA0DF10D0106A800F08AFA6946B148EB
:1046200003F04AFF07B000BDF0B585B004460D4663
:1046300017461E46009403208DF80A0000208DF8CE
:1046400009008DF808008DF80B508DF80C708DF86E
:104650000D606946A34803F02FFF05B0F0BD10B50B
:1046600086B00446A0480088019001208DF80E0015
:1046700000208DF80D008DF80C008DF80F4001A979
:10468000984803F019FF06B010BD10B52DED048B4E
:1046900086B000240221934804F085F900287DD0DB
:1046A00001AA00218F4803F0FCFF0198A0F580705B
:1046B000013802D01F2872D10FE00DF10F018B4895
:1046C00000F08CFA0DF11101894800F087FA0DF124
:1046D0001301884800F068FA0AE29DF80F003128BB
:1046E0000DD19DF81000342809D19DF8110037280C
:1046F00005D181480068401C7F490860F6E19DF8BB
:104700000F0031280DD19DF81000342809D19DF8F3
:104710001100382805D178480068401E76490860A5
:10472000E4E19DF80F0031280DD19DF810003528E7
:1047300009D19DF81100372805D170480068401C48
:104740006E490860D2E19DF80F0031280DD19DF827
:104750001000352809D19DF81100382805D1674887
:104760000068401E65490860C0E19DF80F003228CE
:1047700029D19DF81000342825D19DF81100372843
:1047800021D15F48006804F0DDFC41EC100BB0EE75
:10479000409AF0EE609A9FED5B0B01E0B1E1A6E17B
:1047A00053EC102B51EC190B04F014FB41EC100BE3
:1047B000B0EE408AF0EE608A51EC180B04F0FEFC7B
:1047C0004F49086092E19DF80F00322826D19DF8EC
:1047D0001000342822D19DF8110038281ED14848F5
:1047E000006804F0AFFC41EC100BB0EE409AF0EE24
:1047F000609A9FED440B53EC102B51EC190B04F015
:104800008AFB41EC100BB0EE408AF0EE608A51EC6E
:10481000180B04F0D3FC3A49086067E19DF80F00DB
:1048200032280DD19DF81000352809D19DF81100CE
:10483000372805D135480068401C3449086055E1E7
:104840009DF80F0032280DD19DF81000352809D1B0
:104850009DF81100382805D12C480068401E2B49CE
:10486000086043E19DF80F00332826D19DF8100021
:10487000342822D19DF8110037281ED12448006821
:1048800004F060FC41EC100BB0EE409AF0EE609A40
:104890009FED200B53EC102B51EC190B04F09AFAFE
:1048A00041EC100BB0EE408AF0EE608A51EC180B30
:1048B00004F084FC1649086018E19DF80F003328C5
:1048C00045D19DF81000342841D19DF811003828B9
:1048D0003DD10F48006804F035FC41EC100B1DE0A1
:1048E000000002400064004010020020FC01002093
:1048F0000002002004020020600000206800002068
:1049000088000020000000000000E03F8C00002034
:10491000A00000207B14AE47E17A943FB0EE409AAD
:10492000F0EE609A1FED050B53EC102B51EC190BB8
:1049300004F0F1FA41EC100BB0EE408AF0EE608A20
:1049400051EC180B04F03AFC70490860CEE09DF879
:104950000F00332826D19DF81000352822D19DF86C
:10496000110037281ED16A48006804F0EBFB41ECC7
:10497000100BB0EE409AF0EE609A9FED660B53EC90
:10498000102B51EC190B04F025FA41EC100BB0EE92
:10499000408AF0EE608A51EC180B04F00FFC5C4981
:1049A0000860A3E09DF80F00332826D19DF8100081
:1049B000352822D19DF8110038281ED154480068AE
:1049C00004F0C0FB41EC100BB0EE409AF0EE609AA0
:1049D0009FED500B53EC102B51EC190B04F09BFA8C
:1049E00041EC100BB0EE408AF0EE608A51EC180BEF
:1049F00004F0E4FB4649086078E09DF80F00332896
:104A00000DD19DF81000362809D19DF811003728E6
:104A100005D142480068801C4049086066E09DF866
:104A20000F0033280DD19DF81000362809D19DF8CC
:104A30001100382805D139480068801E37490860C0
:104A400054E09DF80F00412826D19DF8100034282D
:104A500022D19DF8110037281ED13148006804F09A
:104A600071FB41EC100BB0EE409AF0EE609A9FEDB6
:104A70002D0B53EC102B51EC190B04F0ABF941EC5E
:104A8000100BB0EE408AF0EE608A51EC180B04F087
:104A900095FB2349086029E09DF80F00412825D1A6
:104AA0009DF81000342821D19DF8110038281DD11F
:104AB0001B48006804F046FB41EC100BB0EE409A36
:104AC000F0EE609A9FED170B53EC102B51EC190B85
:104AD00004F021FA41EC100BB0EE408AF0EE608A4F
:104AE00051EC180B04F06AFB0D49086000E000BFB0
:104AF00000BF02210D4803F0F0FF02210B4803F034
:104B000030FF06B0BDEC048B10BD0000A0000020FB
:104B1000A40000209A9999999999A93FAC00002086
:104B200088020020333333333333D33F00640040F3
:104B300008B50022009202680092BDF800200A70B9
:104B4000BDF80020120A4A70BDF802208A70BDF834
:104B50000220120ACA7008BD08B5002200920B7824
:104B60004A7843EA0222ADF800208B78CA7843EAFB
:104B70000222ADF80220009A026008BD08B50022AA
:104B8000009290ED000A8DED000ABDF800200A7039
:104B9000BDF80020120A4A70BDF802208A70BDF8E4
:104BA0000220120ACA7008BD08B5002200920B78D4
:104BB0004A7843EA0222ADF800208B78CA7843EAAB
:104BC0000222ADF802209DED000A80ED000A08BD2A
:104BD00002780A700288120A4A7070470A784B7885
:104BE00042EA032212B20280704702780A700288F9
:104BF00012124A7070470A784B7842EA0322028008
:104C00007047027802F03F0230320A700288C2F325
:104C1000851230324A7070470A78303A4B78303B10
:104C200042EA83120280704730B50246138804209E
:104C30000CE00A2493FBF4F504FB153430340C54D7
:104C40000A2493FBF4F4A3B2441E60B20028F0DA05
:104C500030BD000010B52DED088BFD4890ED000A29
:104C6000FC4880ED000AFC48006801280ED19FED49
:104C7000FB0AFB4880ED000AFA480068012804D1CD
:104C8000B6EE000AF64880ED000A86E0F6480068B5
:104C900001283BD19FEDF50AF14880ED000AF44868
:104CA0000068052828D19FEDF30AED4880ED000A41
:104CB000F148B0F9000007286FDBE948006804F00C
:104CC00041FA41EC100BB0EE409AF0EE609A9FED85
:104CD000EB0B53EC102B51EC190B04F07BF841EC6F
:104CE000100BB0EE408AF0EE608A51EC180B04F025
:104CF00065FADB49086050E0DD48006802284CDCBA
:104D00009FEDE00AD64880ED000A46E0DE480068E4
:104D1000012842D1DD480068012806DCDC4890ED1E
:104D2000000ACF4880ED000A14E0D8480068022845
:104D300006D1D84890ED000AC94880ED000A09E084
:104D4000D2480068032805DBD34890ED000AC44828
:104D500080ED000AC848B0F9000004281DDDC048F5
:104D6000006804F0EFF941EC100BB0EE409AF0EE61
:104D7000609A9FEDCA0B53EC102B51EC190B04F009
:104D800029F841EC100BB0EE408AF0EE608A51EC4D
:104D9000180B04F013FAB2490860B3480068012800
:104DA00005D19FEDC00AC04880ED000A08E0B64872
:104DB0000068012804D19FEDBD0ABB4880ED000AC0
:104DC000A5480068012804D19FEDB80AB64880EDD7
:104DD000000AB7480068012803D0A24800680128EB
:104DE00004D19FEDB00AB04880ED000A9C4890EDD8
:104DF000000A9848D0ED000A20EE200AAD48D0ED18
:104E0000000AAD4890ED001A00EE810A9148D0EDFD
:104E1000000AA94890ED001A70EEC10AA24890ED70
:104E2000001A01EE200AA548D0ED000A30EE200A53
:104E3000A34880ED000A88480068012824D1A148D1
:104E4000B0F90000A049096888421DDD9C4800684F
:104E500004F078F941EC100BB0EE409AF0EE609A55
:104E60009FED9A0B53EC102B51EC190B03F0B2FF92
:104E700041EC100BB0EE408AF0EE608A51EC180B5A
:104E800004F09CF98E4908607748006801280ED12B
:104E90007748006803280ADB894890ED000A8D48AE
:104EA000D0ED000A30EE600A854880ED000A8A489D
:104EB000006801280ED10620744908607F4890EDF3
:104EC000000A864880ED000A00208549086002201B
:104ED000814908606D48006806280CDB7F4890ED2A
:104EE000000AB5EEC00AF1EE10FA04D090ED000A07
:104EF000734880ED000A7248006804F023F941EC21
:104F0000100BB0EE408AF0EE608A04F0EDFAB0EEDD
:104F1000409AF0EE609A9FED730B53EC102B51EC1E
:104F2000190B04F037F933D26548006804F00AF928
:104F300041EC100BB0EE40BAF0EE60BA04F0D4FAD7
:104F4000B0EE409AF0EE609A5D4890ED000AF3EE04
:104F50000E0A20EE200A10EE101A084604F0F2F8AD
:104F600041EC100BB0EE40AAF0EE60AA53EC192B06
:104F700051EC1A0B04F047F841EC100BB0EE408AEC
:104F8000F0EE608A51EC180B04F018F94C490860F7
:104F9000564890ED000A484880ED000A2D4890EDF3
:104FA000000A524880ED000A4548006804F0CAF83B
:104FB00041EC100BB0EE40BAF0EE60BA9FED4C0B36
:104FC00053EC102B51EC1B0B04F01DF841EC100BB3
:104FD000B0EE40AAF0EE60AA9FED3C0B53EC102B14
:104FE00051EC1A0B03F0F6FE41EC100BB0EE409AB8
:104FF000F0EE609A9FED400B53EC102B51EC190B27
:1050000003F08FFF41EC100BB0EE408AF0EE608AA7
:1050100051EC180B04F077F8394908604FF4C86078
:10502000384908604FF47A7037490860374800689B
:1050300001280BD13648006840B90F48B0F900008C
:10504000052867DC02203249086074E076E061E000
:105050001800002020020020EC0000205C8FC23EDF
:105060002C020020B8000020F0000020AE47613E76
:1050700008010020D7A3F03E8E0100209A9999994B
:105080009999A93F713D8A3EF4000020FC00002060
:10509000A0000020A4000020A8000020B81E85EB7E
:1050A00051B8AE3F0000000034020020CDCCCC3D12
:1050B000B4000020300200202802002088020020D6
:1050C00050020020FC0100205800002000000000D9
:1050D0000000F83F88000020040100204C0200205E
:1050E000180100200000000000003E4024020020C3
:1050F00000000000008056400000000000408F408B
:10510000380200203C0200204002002098010020CC
:10511000C00100206E48B0F90000052808DD6C4889
:10512000B0F90000072803DC03206A49086002E0A8
:1051300003206849086000206749086066480068E5
:10514000022808D16348006828B904206149086032
:105150000020614908605F480068002803DD40F6D0
:1051600098005E4908605A48B0F90000092803DD3C
:105170005B48006803281AD05A48006840B95A486A
:105180000068012804D15248B0F9000007280EDA5F
:105190005648006801280ED15148006805280ADBEE
:1051A0004B48B0F9000052490968884203DB40F6D9
:1051B00098004A4908604C48006801280ED14948C7
:1051C000006801280AD14248B0F90000494909683D
:1051D000884203DB40F69800404908604248006876
:1051E00001280ED13F48006802280AD13848B0F99A
:1051F000000040490968884203DB40F698003749BF
:10520000086039480068012810D136480068032832
:105210000CDB39480068022808DA2D48B0F9000094
:10522000022803DD40F698002C4908602E480068EB
:1052300001280AD130480068022806D12F4800789A
:1052400018B940F69800254908602B4800680228E4
:105250000CD11F48008848B929480068032805DD9B
:105260002648007810B901202449087023480078A6
:10527000012808D11648B0F90000022803DB40F6E7
:1052800098001649086018480068012807D1154899
:105290000068032803DB40F212201A4908601A480C
:1052A0000068022803D140F212201649086017480E
:1052B00001680A480068FFF77DF912480168144840
:1052C000008800B2FFF793F9BDEC088B10BD000019
:1052D0008E010020C0010020980100203C02002027
:1052E00008010020FC000020F4000020F000002055
:1052F0008C000020AC000020000100208C02002067
:105300001801002040020020040100203802002083
:105310007001002010B50146C1F3C404C1F3852318
:10532000C1F3C442D00200EB4310204480B210BD50
:105330002DE9F84F0646884614461F46DDE90A9ACD
:1053400000250DE0CDF800A014F8012B082101FB89
:10535000056188B24B46414601F04DFA681CC5B262
:10536000BD42EFDBBDE8F88F2DE9FE4F82468B464C
:1053700091469846C34511D1CA4501DC544601E027
:105380004C46D14606E0594620460C9A01F0C2F937
:10539000601C84B24C45F6DDBDE8FE8FC34503DDDD
:1053A000ABEB080087B202E0A8EB0B0087B2CA455E
:1053B00010D1C34501DC5D4601E04546D84606E014
:1053C000294650460C9A01F0A5F9681C85B245455E
:1053D000F6DDE1E7CA4507DDAAEB090086B24C46D7
:1053E000D1464546D84604E0A9EB0A0086B25446A9
:1053F0005D46BE4211D10DE0601C84B2454502DD20
:10540000681E85B201E0681C85B2294620460C9AC8
:1054100001F080F94C45EFDDA2E0294620460C9AC8
:1054200001F078F945454DDABE4225DDC6EB47006F
:1054300000B20290780000B20190B81B400000B2A8
:10544000009016E0601C84B20298002805DADDE9BD
:105450000110084400B2029006E0681C85B2009971
:105460000298084400B20290294620460C9A01F0A6
:1054700051F94C45E6DB73E0C7EB460000B2029001
:10548000700000B20190F01B400000B2009016E0E6
:10549000681C85B20298002805DADDE9011008448D
:1054A00000B2029006E0601C84B2009902980844A1
:1054B00000B20290294620460C9A01F02BF945458E
:1054C000E6DB4DE0BE4225DDC6EB470000B20290B0
:1054D000780000B20190B81B400000B2009016E0C6
:1054E000601C84B20298002805DADDE90110084446
:1054F00000B2029006E0681E85B200990298084446
:1055000000B20290294620460C9A01F003F94C455E
:10551000E6DB25E0C7EB460000B20290700000B267
:105520000190F01B400000B2009016E0681E85B2AA
:105530000298002805DADDE90110084400B2029063
:1055400006E0601C84B200990298084400B2029000
:10555000294620460C9A01F0DDF8A845E6DB00BF9D
:1055600000BF19E72DE9F84F06460F4691469846C9
:1055700000244D460320A0EB49000FFA80FAA6E074
:105580000A98E0B307EB050C1FFA8CF3A6EB040CAA
:105590001FFA8CF207EB050C1FFA8CF106EB040CDA
:1055A0001FFA8CF0CDF80080FFF7DEFEA7EB050CAC
:1055B0001FFA8CF3A6EB040C1FFA8CF2A7EB050C78
:1055C0001FFA8CF106EB040C1FFA8CF0CDF800806A
:1055D000FFF7CAFE07EB040C1FFA8CF3A6EB050CD1
:1055E0001FFA8CF207EB040C1FFA8CF106EB050C8A
:1055F0001FFA8CF0CDF80080FFF7B6FE00E014E053
:10560000A7EB040C1FFA8CF3A6EB050C1FFA8CF227
:10561000A7EB040C1FFA8CF106EB050C1FFA8CF0BB
:10562000CDF80080FFF7A0FE37E07A1991B2321969
:1056300090B2424601F06EF87A1991B2321B90B2E4
:10564000424601F067F87A1B91B2321990B2424695
:1056500001F060F87A1B91B2321B90B2424601F021
:1056600059F83A1991B2721990B2424601F052F8C3
:105670003A1991B2721B90B2424601F04BF83A1BB4
:1056800091B2721990B2424601F044F83A1B91B2BD
:10569000721B90B2424601F03DF8601C84B2BAF130
:1056A000000F0EDB681E85B2A0000FFA80FBABEB8B
:1056B00085000FFA80FB0BF10A0050440FFA80FAC4
:1056C00005E0062000EB840050440FFA80FAA54262
:1056D0003FF756AFBDE8F88F2DE9F84F05468846ED
:1056E00016469946DDE90A7ABAF1000F13D0B542A1
:1056F00002DD34462E4600E02C4608E04B462246AA
:10570000414620460097FFF72FFE601C84B2B4424A
:10571000F4DDBDE8F88F4B462A46414628460097FF
:10572000FFF722FE4B463246494628460097FFF7D0
:105730001BFE43463246494630460097FFF714FEAB
:1057400043462A46414630460097FFF70DFE00BF0C
:10575000DFE72DE9FC4105460E4614461F46DDF8FD
:105760002080301983B2281982B231462846CDE90B
:105770000078FFF7B1FFBDE8FC810000FEB50446EC
:105780000D4617461E462048006802903A461FA163
:1057900002A803F095FE4FF6FF700021B3B2CDE9E9
:1057A0000010A9B2A0B202AAFFF7C2FDFEBD30B53B
:1057B0002DED048B85B004460D46B0EE408A1249AB
:1057C000091D03C9CDE9030118EE100A03F0BAFC64
:1057D00041EC100BB0EE409AF0EE609A53EC192BAE
:1057E0000BA103A803F06CFE4FF6FF700021CDE97A
:1057F0000010A9B2A0B2052303AAFFF799FD05B0D6
:10580000BDEC048B30BD0000F09E00082564000054
:1058100025352E32660000001CB50121084601F036
:10582000E9FB0121FA2001F0C3FB0C220021F94819
:1058300001F003FA0C220121F64801F0FEF90C22D6
:105840000421F44801F0F9F90C220521F14801F096
:10585000F4F90C220821EF4801F0EFF90C2209219C
:10586000EC4801F0EAF90C220A21EA4801F0E5F9D6
:105870000C220E21E74801F0E0F90C220F21E54847
:1058800001F0DBF94CF23370009003208DF8050035
:1058900002208DF8040000208DF806008DF8070026
:1058A0006946DC4801F03EF90C220721DA4801F094
:1058B000C4F90C220821D84801F0BFF90C220921B3
:1058C000D54801F0BAF90C220A21D34801F0B5F904
:1058D0000C220B21D04801F0B0F90C221146CE4821
:1058E00001F0ABF90C220D21CB4801F0A6F90C22F6
:1058F0000E21C94801F0A1F90C220F21C64801F080
:105900009CF94FF6807000906946C34801F00AF98F
:105910000C220421C04801F090F910200090694643
:10592000BD4801F0FFF80C221146BC4801F085F992
:105930004FF4805000906946B84801F0F3F84020D9
:10594000009002208DF8050001208DF80400002051
:105950008DF806008DF807006946B14801F0E2F8BD
:105960004021AF4801F05CF91CBD00B597B005209F
:1059700001900020029009200390002004900590DF
:105980000690079006200890002009900A901020A9
:105990000B9000200C900E900F9010904FF48050C0
:1059A0001190002012901390149001A81590169059
:1059B00008A801F065FE0121062001F00AFF17B0DA
:1059C00000BD10B5FFF728FFFFF7CFFF10BD954AC8
:1059D0001080921C118070470146924A921C1088D8
:1059E00070479049088870478E4908807047222088
:1059F0008C49088070478B49891C08807047222297
:105A0000884B1A809A1C11884A1C91B29A1C1088E3
:105A1000704710B503460C4621120620FFF7D7FF4A
:105A200021460720FFF7D3FF19120220FFF7CFFF0F
:105A300019460320FFF7CBFF10BD014606E040F6F4
:105A4000FF7200E0521E002AFCD1491E0029F6D147
:105A5000704710B503460C4673480088A0F509410D
:105A600089390BD121464E20FFF7B1FF40F23F109C
:105A7000C01A81B24F20FFF7AAFF19E06A480088D8
:105A8000A0F51941193908D119464E20FFF79FFF9B
:105A900021464F20FFF79BFF0AE021462020FFF719
:105AA00096FF40F23F10C01A81B22120FFF78FFF0E
:105AB00010BDF0B504460F4615461E463946204631
:105AC000FFF7C7FF21465020FFF781FF39465220DC
:105AD000FFF77DFF29465120FFF779FF314653201C
