:020000040800F2
:1000000040F80120353D0008BD020008BF0200088D
:10001000C3020008C7020008CB020008000000006D
:10002000000000000000000000000000CF020008F7
:10003000D102000800000000D30200084D3D000876
:100040004F3D00084F3D00084F3D00084F3D000860
:100050004F3D00084F3D00084F3D00084F3D000850
:100060004F3D00084F3D00084F3D00084F3D000840
:100070004F3D00084F3D00084F3D00084F3D000830
:100080004F3D00084F3D00084F3D00084F3D000820
:100090004F3D00084F3D00084F3D00084F3D000810
:1000A0004F3D00084F3D00084F3D00084F3D000800
:1000B0004F3D00084F3D00084F3D00084F3D0008F0
:1000C0004F3D00084F3D00084F3D00084F3D0008E0
:1000D0004F3D00084F3D00084F3D00084F3D0008D0
:1000E0004F3D00084F3D00084F3D00084F3D0008C0
:1000F0004F3D00084F3D00084F3D00084F3D0008B0
:100100004F3D00084F3D00084F3D00084F3D00089F
:100110004F3D00084F3D00084F3D00084F3D00088F
:100120004F3D0008650200084F3D00084F3D0008A4
:100130004F3D00084F3D00084F3D00084F3D00086F
:100140004F3D00084F3D00084F3D00084F3D00085F
:100150004F3D00084F3D00084F3D00084F3D00084F
:100160004F3D00084F3D00084F3D00084F3D00083F
:100170004F3D00084F3D00084F3D00084F3D00082F
:100180004F3D00084F3D0008DFF80CD003F0E4FDC0
:1001900000480047F101000840F8012070B5002137
:1001A000084600F0F0F922203B49088000241CE0BA
:1001B00000250CE004EB84003849096801EB0010CD
:1001C000C5F15001405C3449891C08806D1C502DDC
:1001D000F0DB502605E04FF478402F49891C088059
:1001E000761CB6F5A07FF6DB641C322CE0DB70BD1C
:1001F00003F007FD4FF4A06001F096FD00F086F8D3
:1002000000F023FA01F09AFC08E02548406980F4E8
:10021000004023494861322000F05CF801F048FAC0
:100220000128F2D04FF400411D4801F0D9FEC8204A
:1002300000F050F801F024FA13E01A48007880B179
:1002400016480168184801F01AFCFFF7A7FF174885
:1002500090ED000A01F0B7FC12480078401E1149E9
:100260000870EAE710B51249124803F002F990B19C
:100270001149104803F0CCF80D490E4803F022F95B
:10028000002002F025FF07480078401C054908704F
:10029000012002F01DFF10BDFEFF1F6C04000020B6
:1002A0000000024000000020400000201800002054
:1002B000008800102864024000080010704700BF4A
:1002C000FEE700BFFEE700BFFEE700BFFEE77047A6
:1002D0007047704710B5002107E04AF2104200BF96
:1002E0001300A2F10102FBD1491C8142F5D310BDDC
:1002F00010B5002106E0282200BF1300A2F1010280
:10030000FBD1491C8142F6D310BD00001CB5012170
:10031000084602F02FF84FF40040009001208DF8BD
:10032000040000208DF8060001208DF80500002053
:100330008DF807006946044801F0D6FD4FF40040EF
:10034000014908831CBD0000000002401CB50121CA
:10035000084602F031F80121FA2002F00BF80C22D5
:100360000021F74801F04BFE0C220121F44801F076
:1003700046FE0C220421F24801F041FE0C22052128
:10038000EF4801F03CFE0C220821ED4801F037FE59
:100390000C220921EA4801F032FE0C220A21E84829
:1003A00001F02DFE0C220E21E54801F028FE0C2262
:1003B0000F21E34801F023FE4CF23370009003203C
:1003C0008DF8050002208DF8040000208DF806004D
:1003D0008DF807006946DA4801F086FD0C220721F6
:1003E000D84801F00CFE0C220821D64801F007FE87
:1003F0000C220921D34801F002FE0C220A21D14827
:1004000001F0FDFD0C220B21CE4801F0F8FD0C227D
:100410001146CC4801F0F3FD0C220D21C94801F032
:10042000EEFD0C220E21C74801F0E9FD0C220F2140
:10043000C44801F0E4FD4FF6807000906946C14861
:1004400001F052FD0C220421BE4801F0D8FD10201D
:1004500000906946BB4801F047FD0C221146BA489E
:1004600001F0CDFD4FF4805000906946B64801F090
:100470003BFD4020009002208DF8050001208DF802
:10048000040000208DF806008DF807006946AF488B
:1004900001F02AFD4021AD4801F0A4FD1CBD00B5CE
:1004A00097B00520019000200290092003900020C1
:1004B000049005900690079006200890002009906F
:1004C0000A9010200B9000200C900E900F9010902E
:1004D0004FF480501190002012901390149001A8B6
:1004E0001590169008A803F02DF80121062003F0BE
:1004F000D2F817B000BD10B5FFF728FFFFF7CFFF08
:1005000010BD934A1080921C118070470146904A9A
:10051000921C108870478E49088870478C49088063
:10052000704722208A49088070478949891C0880C1
:1005300070472222864B1A809A1C11884A1C91B25D
:100540009A1C1088704710B503460C4621120620ED
:10055000FFF7D7FF21460720FFF7D3FF191202202C
:10056000FFF7CFFF19460320FFF7CBFF10BD014671
:1005700006E040F6FF7200E0521E002AFCD1491E40
:100580000029F6D1704710B503460C467148008823
:10059000A0F5094189390BD121464E20FFF7B1FF63
:1005A00040F23F10C01A81B24F20FFF7AAFF19E0B6
:1005B00068480088A0F51941193908D119464E201C
:1005C000FFF79FFF21464F20FFF79BFF0AE02146E0
:1005D0002020FFF796FF40F23F10C01A81B2212081
:1005E000FFF78FFF10BDF0B504460F4615461E46B7
:1005F00039462046FFF7C7FF21465020FFF781FF0D
:1006000039465220FFF77DFF29465120FFF779FF39
:1006100031465320FFF775FFF0BD30B50446002585
:1006200000210846FFF7AFFFFFF77BFF00BF03E0A5
:100630004748801C04806D1CB5F5963FF8D330BD4B
:1006400001B50098FFF746FE08BD10B5FFF753FF50
:100650001920FFF73FFE0020FFF758FF3D490880B3
:100660000520FFF737FE0020FFF750FF39490880CB
:1006700008460088A0F51341253905D03548008883
:10068000A0F51341283967D14021304801F0A8FC7A
:1006900043F20801E320FFF734FF1221E720FFF7C0
:1006A00030FF41F23121EF20FFF72BFF0121002025
:1006B000FFF727FF4FF480710120FFF722FF4FF46F
:1006C000E0610220FFF71DFF41F208010320FFF760
:1006D00018FF00210420FFF714FF40F20721082033
:1006E000FFF70FFF00210920FFF70BFF00210A2071
:1006F000FFF707FF01210C20FFF703FF00210D206A
:10070000FFF7FFFE00210F20FFF7FBFE0021102066
:10071000FFF7F7FE07211120FFF7F3FE002112205B
:10072000FFF7EFFE00211320FFF7EBFE4CF25034F1
:1007300001E0601E84B2002CFBDC4CF250340EE071
:10074000000C02400010024000180240001C024051
:10075000FEFF1F6C02000020FDE0601E84B2002C32
:10076000FBDC41F290511020FFF7CBFE40F2272135
:100770001120FFF7C6FE4CF2503401E0601E84B237
:10078000002CFBDC4CF2503401E0601E84B2002CE3
:10079000FBDC9C211220FFF7B4FE4CF2503401E048
:1007A000601E84B2002CFBDC4CF2503401E0601E71
:1007B00084B2002CFBDC4FF4C8511320FFF7A1FEDC
:1007C00023212920FFF79DFE0E212B20FFF799FE04
:1007D0004CF2503401E0601E84B2002CFBDC4CF281
:1007E000503401E0601E84B2002CFBDC002120208C
:1007F000FFF787FE00212120FFF783FE4CF25034E3
:1008000001E0601E84B2002CFBDC4CF2503401E0AD
:10081000601E84B2002CFBDC07213020FFF771FE44
:1008200040F207713120FFF76CFE06213220FFF7FE
:1008300068FE40F204713520FFF763FE41F6047153
:100840003620FFF75EFE04213720FFF75AFE002115
:100850003820FFF756FE40F206713920FFF751FEAF
:1008600040F201713C20FFF74CFE0F213D20FFF7C5
:1008700048FE4CF2503401E0601E84B2002CFBDCD8
:100880004CF2503401E0601E84B2002CFBDC0021ED
:100890005020FFF736FEEF215120FFF732FE0021F6
:1008A0005220FFF72EFE40F23F115320FFF729FEA2
:1008B0004FF427416020FFF724FE01216120FFF75C
:1008C00020FE00216A20FFF71CFE00218020FFF798
:1008D00018FE00218120FFF714FE00218220FFF77F
:1008E00010FE00218320FFF70CFE00218420FFF77B
:1008F00008FE00218520FFF704FE10219020FFF75D
:1009000000FE4FF4C0619220FFF7FBFDFE48008817
:10091000A0F51341283910D103219320FFF7F1FDF1
:100920004FF488719520FFF7ECFD00219720FFF729
:10093000E8FD00219820FFF7E4FD40F23311072085
:10094000FFF7DFFD00212020FFF7DBFD0021212044
:10095000FFF7D7FD5DE2EC480088A0F51341203990
:1009600004D0E9480088B0F5134F7CD10021084637
:10097000FFF7C7FD4FF480710120FFF7C2FD4FF470
:10098000E0610220FFF7BDFD41F218010320FFF7EF
:10099000B8FD00210420FFF7B4FD40F20221082039
:1009A000FFF7AFFD00210920FFF7ABFD00210A2072
:1009B000FFF7A7FD01210C20FFF7A3FD00210D206B
:1009C000FFF79FFD00210F20FFF79BFD4CF25034F5
:1009D00001E0601E84B2002CFBDC4CF2503401E0DC
:1009E000601E84B2002CFBDC40F201110720FFF7EF
:1009F00088FD4CF2503401E0601E84B2002CFBDC18
:100A00004CF2503401E0601E84B2002CFBDC4FF449
:100A100086511020FFF775FD07211120FFF771FDAA
:100A20004FF488711220FFF76CFD4FF430611320F2
:100A3000FFF767FD00212920FFF763FD44F2100155
:100A40002B20FFF75EFD00215020FFF75AFDEF211C
:100A50005120FFF756FD00215220FFF752FD40F2D2
:100A60003F11532000E045E0FFF74BFD4FF41C51D0
:100A70006020FFF746FD01216120FFF742FD0021C4
:100A80006A20FFF73EFD00218020FFF73AFD00219C
:100A90008120FFF736FD00218220FFF732FD002183
:100AA0008320FFF72EFD00218420FFF72AFD00217F
:100AB0008520FFF726FD10219020FFF722FD002161
:100AC0009220FFF71EFD01219320FFF71AFD4FF43E
:100AD00088719520FFF715FD00219720FFF711FD84
:100AE00000219820FFF70DFD40F273110720FFF75A
:100AF00008FD70E384480088A0F5134131397CD1AA
:100B000041F21401E720FFF7FCFC4FF48071012053
:100B1000FFF7F7FC4FF400710220FFF7F2FC41F2FF
:100B200030010320FFF7EDFC40F202210820FFF71F
:100B3000E8FC00210920FFF7E4FC00210A20FFF770
:100B4000E0FC00210C20FFF7DCFC00210D20FFF76A
:100B5000D8FC00210F20FFF7D4FC00211020FFF764
:100B6000D0FC07211120FFF7CCFC00211220FFF759
:100B7000C8FC00211320FFF7C4FCC820FFF760FD6C
:100B800041F290611020FFF7BCFC40F227211120B8
:100B9000FFF7B7FC3220FFF753FD0C211220FFF7BF
:100BA000B0FC3220FFF74CFD4FF400611320FFF73B
:100BB000A8FC11212920FFF7A4FC0B212B20FFF713
:100BC000A0FC3220FFF73CFD00212020FFF799FC1C
:100BD00000212120FFF795FC00213020FFF791FC38
:100BE0004FF483713120FFF78CFC00213220FFF796
:100BF00088FC4FF40171352000E075E0FFF781FCBF
:100C000041F20A613620FFF77CFC40F20771372081
:100C1000FFF777FC4FF483713820FFF772FC40F246
:100C200007713920FFF76DFC40F202413C20FFF7CD
:100C300068FC40F60F413D20FFF763FC0021502087
:100C4000FFF75FFCEF215120FFF75BFC00215220F2
:100C5000FFF757FC40F23F115320FFF752FC4FF4CF
:100C60001C516020FFF74DFC01216120FFF749FC7A
:100C700000216A20FFF745FC00218020FFF741FC9E
:100C800000218120FFF73DFC00218220FFF739FC85
:100C900000218320FFF735FC00218420FFF731FC81
:100CA00000218520FFF72DFC10219020FFF729FC63
:100CB0004FF4C0619220FFF724FC21210720FFF7A9
:100CC00020FC3220FFF7BCFC61210720FFF719FC54
:100CD0003220FFF7B5FC40F233110720FFF711FC7B
:100CE0003220FFF7ADFC76E207480088A0F51941F5
:100CF00019397DD106212820FFF703FC01210020AE
:100D0000FFF7FFFB002101E0020000201020FFF7A9
:100D1000F8FB47F2EF210120FFF7F3FB4FF4C0612E
:100D20000220FFF7EEFB46F638210320FFF7E9FB30
:100D300046F674011120FFF7E4FB00210F20FFF7B6
:100D4000E0FB45F208310B20FFF7DBFB03210C2011
:100D5000FFF7D7FB0A210D20FFF7D3FB4FF43851E3
:100D60000E20FFF7CEFBBE211E20FFF7CAFB4FF47B
:100D700000412520FFF7C5FB4FF4F0412620FFF787
:100D8000C0FB78212720FFF7BCFB00214E20FFF796
:100D9000B8FB00214F20FFF7B4FB40F6D901122029
:100DA000FFF7AFFB00213020FFF7ABFB4FF4827160
:100DB0003120FFF7A6FB4FF480713220FFF7A1FB33
:100DC00040F205313320FFF79CFB40F205513420FF
:100DD000FFF797FB40F205313520FFF792FB40F219
:100DE00007713620FFF78DFB4FF44071372000E08C
:100DF00010E0FFF786FB4FF490513A20FFF781FB9C
:100E00004FF400613B20FFF77CFB33210720FFF705
:100E100078FBE0E1FB480088A0F5A85105397DD1B9
:100E20000720FFF76EFB0520FFF70AFC4FF48E71D9
:100E30001220FFF766FB0121A420FFF762FB0F21C0
:100E40000820FFF75EFB08210A20FFF75AFB082164
:100E50000D20FFF756FB40F207713020FFF751FBE2
:100E600007213120FFF74DFB40F203613220FFF7ED
:100E700048FB4FF4E0613320FFF743FB40F20221CF
:100E80003420FFF73EFB02213520FFF73AFB41F605
:100E90000F713620FFF735FB40F207713720FFF75F
:100EA00030FB00213820FFF72CFB00213920FFF711
:100EB00028FB40F207713A20FFF723FB00213B207B
:100EC000FFF71FFB07213C20FFF71BFB00213D2004
:100ED000FFF717FB0520FFF7B3FB01210720FFF702
:100EE00010FB01211720FFF70CFB0520FFF7A8FBE3
:100EF0004FF4BD511020FFF704FB40F217211120E1
:100F0000FFF7FFFA4FF48F711220FFF7FAFA4FF450
:100F100070611320FFF7F5FA002100E094E02A2029
:100F2000FFF7EFFA0A212920FFF7EBFA4FF49F7140
:100F30001220FFF7E6FA00215020FFF7E2FAEF2136
:100F40005120FFF7DEFA00215220FFF7DAFA40F2D3
:100F50003F115320FFF7D5FA4FF41C516020FFF7E3
:100F6000D0FA01216120FFF7CCFA00216A20FFF7B7
:100F7000C8FA00218020FFF7C4FA00218120FFF782
:100F8000C0FA00218220FFF7BCFA00218320FFF77E
:100F9000B8FA00218420FFF7B4FA00218520FFF77A
:100FA000B0FA13219020FFF7ACFA4FF44071922071
:100FB000FFF7A7FA05219320FFF7A3FA0021952058
:100FC000FFF79FFA00219720FFF79BFA0021982056
:100FD000FFF797FA4FF480710120FFF792FA4FF470
:100FE000E0610220FFF78DFA41F230010320FFF7A4
:100FF00088FA00210420FFF784FA00210C20FFF773
:1010000080FA00210F20FFF77CFA00212020FFF753
:1010100078FA00212120FFF774FA21210720FFF739
:1010200070FA1420FFF70CFB61210720FFF769FA23
:101030001420FFF705FB40F273110720FFF761FA58
:101040001420FFF7FDFAC6E06E480088A0F50941BC
:101050008939F8D101210020FFF753FA4AF6A4019B
:101060000320FFF74EFA00210C20FFF74AFA40F662
:101070000C010D20FFF745FA4FF42C510E20FFF71D
:1010800040FAB0211E20FFF73CFA42F63F31012022
:10109000FFF737FA4FF4C0610220FFF732FA002160
:1010A0001020FFF72EFA46F278011120FFF729FAF7
:1010B00000210520FFF725FA00210620FFF721FA7D
:1010C0004EF61C711620FFF71CFA03211720FFF7BC
:1010D00018FA40F233210720FFF713FA00210B2002
:1010E000FFF70FFA00210F20FFF70BFA0021412034
:1010F000FFF707FA00214220FFF703FA00214820FA
:10110000FFF7FFF940F23F114920FFF7FAF90021FC
:101110004A20FFF7F6F900214B20FFF7F2F94FF4D0
:101120006F414420FFF7EDF900214520FFF7E9F971
:1011300040F23F114620FFF7E4F940F207713020FA
:10114000FFF7DFF94FF401713120FFF7DAF94FF4BF
:1011500001713220FFF7D5F940F202513320FFF739
:10116000D0F940F207513420FFF7CBF94FF4017169
:101170003520FFF7C6F94FF401713620FFF7C1F9AA
:1011800040F202513720FFF7BCF940F202313A2019
:10119000FFF7B7F940F202313B20FFF7B2F9002127
:1011A0002320FFF7AEF900212420FFF7AAF94FF41E
:1011B00000412520FFF7A5F900214E20FFF7A1F9F6
:1011C00000214F20FFF79DF90020FFF726FA40216C
:1011D0000D4800F005FF4CF2503401E0601E84B26F
:1011E000002CFBDC4FF4FA70FFF774F81F20FFF7B8
:1011F00014FA4FF4FA70FFF76DF84FF47840FFF7E8
:101200000CFA10BD02000020001C024030B501465F
:1012100001F01F04C1F34513CA0AE50205EB4315AB
:101220001544A8B230BD70B504460D462946204687
:10123000FFF7A9F9FFF77DF90646FFF7E7FF70BD55
:1012400070B506460C461546B6F5A07F01DCF02CBD
:1012500000DD70BD21463046FFF795F9FFF761F9D3
:101260002846FFF762F900BFF3E72DE9FF4F83B08F
:1012700082460E461F46109CD14635460599A1EB85
:101280000A01491CBA1B521C01FB02F000EBD07191
:1012900049100191002002903CE034F802BB34F880
:1012A000028B4FF4FC6000EA6B10CBF3C4010843DF
:1012B0004FF4784101EA0821084300902946484646
:1012C000009AFFF7BDFF681C85B2BD4204DD09F13D
:1012D00001001FFA80F93546C34634F8028B4FF4FB
:1012E000FC6000EAC80040EADB2008F478410843CB
:1012F000009029464846009AFFF7A2FF681C85B275
:10130000BD4204DD09F101001FFA80F9354602985B
:10131000401C0290DDE901108842BED307B0BDE851
:10132000F08F2DE9F04F06460F4690469946DDF8BE
:1013300024A000240025A346BAF1010F21D100BF4B
:101340001CE0A8F1200004EB00102A4911F800B0BD
:1013500000250FE0C5F107004BFA00F010F0010F77
:1013600006D03A1991B2721990B24A46FFF768FF57
:10137000681C85B2082DEDDB601C84B2102CE0DB0C
:1013800028E0002424E0A8F1200004EB0010194913
:1013900011F800B0002517E0C5F107004BFA00F086
:1013A00010F0010F07D03A1991B2721990B24A4663
:1013B000FFF746FF06E03A1991B2721990B2524611
:1013C000FFF73EFF681C85B2082DE5DB601C84B288
:1013D000102CD8DBBDE8F08F10B50446012C04DBDF
:1013E0004021054800F0FCFD03E04021024800F0E8
:1013F000F9FD10BD9A3D0008001C02401CB50121FA
:1014000040F2831000F0B6FF0D220421C24800F024
:10141000F6FD0D220621C04800F0F1FD0D22092144
:10142000BD4800F0ECFD0D220A21BB4800F0E7FDAD
:101430000D220621B94800F0E2FD0D220721B74830
:1014400000F0DDFD0D220B21B54800F0D8FD0D2286
:101450000C21B34800F0D3FD0D220E21B04800F05E
:10146000CEFD0D220621AF4800F0C9FD0D22072157
:10147000AC4800F0C4FD4FF4CA60009002208DF823
:10148000040003208DF8050000208DF806000120DF
:101490008DF807006946A04800F026FDC0200090A6
:1014A00069469E4800F020FD4FF4B0400090694628
:1014B0009B4800F019FDC02000906946994800F053
:1014C00013FD0121402000F055FF4FF4C070009043
:1014D00001208DF8040003208DF8050000208DF810
:1014E00006008DF8070069468F4800F0FDFC80215A
:1014F0008D4800F077FD4FF480718B4800F070FD4F
:1015000000F01CF900220821834800F078FD4FF418
:101510008070009003208DF8050002208DF80400F3
:1015200000208DF8060001208DF8070069467A48F2
:1015300000F0DAFC0021084600F03CFE1CBD1FB59F
:101540000121084600F027FF0020ADF80000ADF8AB
:1015500002002020ADF804008020ADF80600002035
:10156000ADF80800ADF80A00ADF80C00684601F0CF
:1015700041FD1FBD30B591B005460C4601218805DF
:1015800000F0F8FE39208DF8040003208DF80500E6
:101590008DF8060001208DF8070001A800F0C9FBB6
:1015A000624801F0E1FD4FF0007002906048039046
:1015B000049500200590069407904FF480600890F1
:1015C0008000099040000A9040110B9040020C905E
:1015D00004200D9003200E9000200F901090012207
:1015E0001021524801F028FF02A9504801F05EFE88
:1015F00011B030BDF8B506460F4614461D46C5F37A
:1016000047012C2000F0CAF969462A2000F0F1F9C0
:1016100005F001009DF8001001EA800000909DF89F
:1016200000102A2000F0BAF9C4F38701292000F045
:10163000B5F969462A2000F0DCF904F003009DF8B2
:101640000010084000909DF800102A2000F0A6F934
:10165000F8BD10B500240FE0364A02EB4402517881
:10166000344A12F8140000F099F9012800D110BD95
:101670000520FEF72FFE641C4A2CEDD30020F6E770
:1016800010B50121294801F04BFE012001F011FDA8
:10169000012001F01DFD10BD10B50021234801F00F
:1016A0003FFE002001F005FD002001F011FD10BDFE
:1016B00008B500200090FFF7A1FE0A20FEF70AFE01
:1016C0008021122000F06AF9012800D108BD0A200B
:1016D000FEF700FE69461C2000F08BF9012800D1BE
:1016E000F4E79DF800007F2801D00120EEE7FFF726
:1016F00026FF4FF4FA411048FFF73CFFFFF7A9FF20
:10170000012800D1E2E7C8234FF4A0720021084667
:10171000FFF770FF0020D9E70000024000040240FC
:10172000001C0240002002400018024028640240D1
:1017300028000550FE550008400000201CB501217E
:10174000022000F017FE4FF44060009003208DF857
:10175000050001208DF804008DF8060000208DF8AA
:1017600007006946C04800F0BFFB1CBD642001E0D3
:10177000411EC8B20028FBD1704700B54FF480600D
:10178000B9491A310880FFF7F1FF4FF40060B649FC
:101790001A310880FFF7EAFF4FF48060B249183130
:1017A0000880FFF7E3FF4FF40060AF49183108806D
:1017B000FFF7DCFF00BD00B54FF40060AA49183107
:1017C000088040100880FFF7D1FFA748103000685C
:1017D00008B9012000E0002010F4006F01D00020C3
:1017E00000BD4FF40060A0491A310880FFF7BEFF2A
:1017F0009D481030006810F4006F01D00020EFE722
:101800004FF4006098491A310880FFF7AFFF0120BC
:10181000E6E700B54FF4806093491A310880FFF77E
:10182000A5FF4FF4006090491A310880FFF79EFF32
:101830004FF480608C4918310880FFF797FF4FF410
:10184000806089491A310880FFF790FF00BD00B51C
:101850004FF4806084491A310880FFF787FF4FF406
:101860000060814918310880FFF780FF4FF48060E5
:101870007D4918310880FFF779FF4FF480607A497D
:101880001A310880FFF772FF00BD00B54FF4806089
:1018900075491A310880FFF769FF4FF400607249FB
:1018A00018310880FFF762FF4FF480606E491831ED
:1018B0000880FFF75BFF6C481030006810F4006F81
:1018C00008D04FF4806068491A310880FFF74EFF56
:1018D000002000BD4FF4806063491A310880FFF793
:1018E00045FF0120F5E700B5024608231FE04FF44D
:1018F00080605D491A310880FFF738FF12F0800FD1
:1019000005D04FF4006058491831088004E04FF4C6
:10191000006055491A3108805006020EFFF726FF75
:101920004FF48060504918310880FFF71FFF1800FE
:10193000A3F10101CBB2DAD14FF480604A491A31E8
:10194000088000BD00B5082300221802464918315E
:10195000088017E05006020E4FF4806042491A31A9
:101960000880FFF703FF4FF480603F49183108807B
:10197000FFF7FCFE3C481030006810F4006F01D007
:1019800042F001021800A3F10101CBB2E2D14FF401
:10199000806035491A310880104600BD30B50546D3
:1019A0000C46FFF708FF4220FFF79DFFFFF76DFF92
:1019B00018B9FFF7E2FE012030BDFFF7D7FE284639
:1019C000FFF791FFFFF761FF18B9FFF7D6FE01207F
:1019D000F2E7FFF7CBFE2046FFF785FFFFF755FF45
:1019E00018B9FFF7CAFE0120E6E7FFF7C6FE0020A0
:1019F000E2E770B506460D46FFF7DDFE4220FFF731
:101A000072FFFFF742FF18B9FFF7B7FE012070BD64
:101A1000FFF7ACFE3046FFF766FFFFF736FF18B959
:101A2000FFF7ABFE0120F2E7FFF7A7FEFFF79EFEF0
:101A3000FFF7C1FE4320FFF756FFFFF726FF18B957
:101A4000FFF79BFE0120E2E7FFF790FEFFF77AFF2A
:101A500004462C70FFF78AFEFFF7F9FEFFF786FEBB
:101A6000FFF78BFE0020D2E7000402400146002968
:101A700003DA4842C0B2014600E000BF704730B50B
:101A800002460B460020002100BF13E000210EE0BB
:101A9000840004EB840402EBC4148D0034F8154078
:101AA000241200EB800503EB05156C54491C5029EA
:101AB000EED3401C3228E9D330BDF0B502460020F9
:101AC0000021002300240025002600BF32E0012170
:101AD0002DE000EB800701EB071712F807C000EBC1
:101AE000800701EB0717BF1ED75DACEB0703142B74
:101AF00006DB00EB800701EB0717BF1ED75D7D1DDE
:101B000000EB800701EB071712F807C000EB800716
:101B100001EB0717BF1ED75DACEB070414F1140FE0
:101B200004DC00EB800701EB0717D65D491C502948
:101B3000CFD3401C3228CAD3F0BD000000B585B019
:101B40000121480600F049FC0121084600F012FC82
:101B500009220B21294800F052FA09220C212748BA
:101B600000F04DFA02208DF804004FF4C0500090B0
:101B70006946224800F0B8F9214800F039FD02A872
:101B800000F05AFE00208DF80E008DF80F008DF841
:101B900010008DF811008DF8120001208DF813004F
:101BA00000208DF80A008DF80B0008208DF80C003D
:101BB00003208DF80D00ADF8080002A9104800F0D0
:101BC00030FD05B000BD00B52DED020B85B040F233
:101BD0004510009008208DF80A0000208DF80900BB
:101BE0008DF808000DF10B0105A800F031F86946E9
:101BF000034800F08FFE07B000BD00000000024067
:101C00000064004008B50022009202680092BDF80E
:101C100000200A70BDF80020120A4A70BDF80220A8
:101C20008A70BDF80220120ACA7008BD08B50022E9
:101C300000920B784A7843EA0222ADF800208B78B4
:101C4000CA7843EA0222ADF80220009A026008BD79
:101C500008B50022009290ED000A8DED000ABDF853
:101C600000200A70BDF80020120A4A70BDF8022058
:101C70008A70BDF80220120ACA7008BD08B5002299
:101C800000920B784A7843EA0222ADF800208B7864
:101C9000CA7843EA0222ADF802209DED000A80EDE9
:101CA000000A08BD02780A700288120A4A7070475A
:101CB0000A784B7842EA032212B202807047027817
:101CC0000A70028812124A7070470A784B7842EA0A
:101CD000032202807047027802F03F0230320A701D
:101CE0000288C2F3851230324A7070470A78303A5F
:101CF0004B78303B42EA83120280704730B502468F
:101D0000138804200CE00A2493FBF4F504FB15343B
:101D100030340C540A2493FBF4F4A3B2441E60B292
:101D20000028F0DA30BD000033490143334A116026
:101D3000704770B5002100230F22C47824B32F4CC4
:101D4000246804F4E064C4F5E064C4F30721C1F13D
:101D50000404E3B20A4144789C40E1B28478144020
:101D600021430C07210E264C05786155047804F0B8
:101D70001F050124AC4005786D114FF0E02606EBFD
:101D80008505C5F8004109E0047804F01F04012529
:101D9000A5401C4C0678761144F8265070BD1A4AAE
:101DA0000A400243154B1B1F1A60704739B1134A92
:101DB000121D12680243114B1B1D1A6006E00F4AE8
:101DC000121D126882430D4B1B1D1A6070470428B8
:101DD00008D14FF0E021096941F004014FF0E02201
:101DE000116107E04FF0E021096921F004014FF093
:101DF000E0221161704700000000FA050CED00E0E0
:101E000000E400E080E100E080FFFF1F10B5044621
:101E10008C48844208D10121084600F000FB0021D3
:101E2000012000F0FCFA5EE08748844208D10121DD
:101E3000022000F0F4FA0021022000F0F0FA52E053
:101E40008248844208D10121042000F0E8FA0021F0
:101E5000042000F0E4FA46E07D48844208D10121E4
:101E6000082000F0DCFA0021082000F0D8FA3AE05F
:101E70007848844208D10121102000F0D0FA0021D6
:101E8000102000F0CCFA2EE07348844208D10121E2
:101E9000202000F0C4FA0021202000F0C0FA22E047
:101EA0006E48844208D10121402000F0B8FA002198
:101EB000402000F0B4FA16E06948844208D10121BC
:101EC000802000F0ACFA0021802000F0A8FA0AE09F
:101ED0006448844207D10121801500F0A0FA002156
:101EE000A01500F09CFA10BDF0B50A4600210023B1
:101EF000002400BF3DE0012505FA01F3156805EA5D
:101F000003049C4234D105684F000326BE40B5430C
:101F1000056015794E00B5400668354305601579B2
:101F2000012D02D01579022D16D185684F000326A8
:101F3000BE40B543856055794E00B540866835434F
:101F40008560456801268E40B543456045689679B1
:101F50008E40B6B235434560C5684F000326BE408B
:101F6000B543C560D5794E00B540C6683543C560F8
:101F7000491C1029BFD3F0BD4FF6FF71016000214D
:101F8000017141718171C171704708B54FF48032A0
:101F90000092009A0A430092009AC261C161009ABD
:101FA000C261C2690092C269009208BD0246002067
:101FB00013690B4201D0012000E000207047014668
:101FC000086980B270470246002053690B4201D075
:101FD000012000E0002070470146486980B2704748
:101FE00001837047418370470AB1018300E0418358
:101FF00070474161704742694A4042617047F0B59D
:10200000002300244D07ED0E02FA05F3CE1000F177
:10201000200555F826504E07F70E0F26BE40B54353
:10202000CF1000F1200646F82750CE1000F1200511
:1020300055F8265045EA0304CE1000F1200545F876
:102040002640F0BD000002400004024000080240AB
:10205000000C024000100240001402400018024030
:10206000001C024000200240FA48006840F00100D5
:10207000F84908600020F74908310860F548006811
:10208000F5490840F3490860F448091D0860081F35
:10209000006820F48020091F08600020ED490C3101
:1020A000086070470021EB4A921C117011460870BD
:1020B000704710B501460022002300204A11012A72
:1020C00002D1E44C236808E0022A03D1E14C7034C9
:1020D000236802E0DF4C7434236801F01F020124FE
:1020E00094401C4201D0012000E0002010BD38B512
:1020F000002000900024002500BF3120FFF7D9FF09
:1021000005460098401C00900098B0F5A06F01D0E3
:10211000002DF2D03120FFF7CCFF08B1012400E000
:102120000024204638BD01460020CA4A106820F02D
:10213000F80040EAC10010607047C9490860704764
:102140000021C44A703211701170012802D0042895
:102150000AD104E00121BF4A7032117005E0052167
:10216000BC4A7032117000E000BF00BF7047BD492B
:102170000860704770B5049C41EA82150126C6EBE1
:10218000530645EA0645054345EA0465B14E361D4A
:10219000356070BDB24908667047820142EA01723B
:1021A000AC4B84331A607047AD4988667047AC49C0
:1021B000C864704702460020A64B0833186820F018
:1021C000EC6042EA01031843A24B083318607047E1
:1021D000024600209F4B0833186820F0784042EAFE
:1021E000010318439B4B08331860704701460020D9
:1021F000984A0832106820F00300084310607047C6
:1022000094480830006800F00C0070470146002038
:10221000904A0832106820F0F000084310607047C0
:10222000014600208B4A0832106820F4E050084331
:102230001060704701460020864A0832106820F47A
:10224000604040EAC10010607047F0B500210022F4
:1022500000240225002602237E4F08373F6807F03E
:102260000C0121B1042905D0082937D105E07E4FA2
:10227000076036E07D4F076033E0764F3F1D3F68D3
:10228000C7F38056734F3F1D3F6807F03F036EB1A1
:10229000764FB7FBF3F7DFF8BCC10CF1040CDCF8A8
:1022A00000C0CCF3881C07FB0CF40CE06E4FB7FBAE
:1022B000F3F7DFF8A0C10CF1040CDCF800C0CCF39C
:1022C000881C07FB0CF4634F3F1D3F68C7F30147B1
:1022D0007F1C7D00B4FBF5F7076002E0624F0760EA
:1022E00000BF00BF5B4F08373F6807F0F0010909E6
:1022F0005F4F7A5C0768D7404760564F08373F68A2
:1023000007F4E051890A5A4F7A5C4768D7408760E2
:10231000504F08373F6807F46041490B544F7A5CCF
:102320004768D740C760F0BD002100F44072B2F5A5
:10233000407F0AD1474A0832116821F4F8114D4A0A
:1023400002401143434A08321160424A7032126817
:10235000C0F30B031A433F4B70331A607047414977
:102360004439086070473F49403908607047424926
:102370000860704739B1374A303212680243354B32
:1023800030331A6006E0334A303212688243314BF0
:1023900030331A60704739B12E4A34321268024322
:1023A0002C4B34331A6006E02A4A343212688243D6
:1023B000284B34331A60704739B1264A38321268D4
:1023C0000243244B38331A6006E0224A383212683E
:1023D0008243204B38331A60704739B11D4A40326E
:1023E000126802431B4B40331A6006E0194A403220
:1023F00012688243174B40331A60704739B1154A4F
:10240000443212680243134B44331A6006E0114A07
:102410004432126882430F4B44331A60704739B11B
:102420000C4A1032126802430A4B10331A6006E05D
:10243000084A103212688243064B10331A60704704
:10244000E1B1044A143212680243024B14331A6099
:1024500019E0000000380240FFFFF6FE10300024B3
:1024600000004742800E47420024F40040787D017E
:102470001C000020FFFCFF0F5C0147425B4A126812
:1024800082435A4B1A60704739B1584A121D12687C
:102490000243564B1B1D1A6006E0544A121D126877
:1024A0008243524B1B1D1A60704739B14F4A0C32A0
:1024B000126802434D4B0C331A6006E04B4A0C3253
:1024C00012688243494B0C331A60704739B1474A4E
:1024D000103212680243454B10331A6006E0434A3B
:1024E000103212688243414B10331A60704739B181
:1024F0003E4A3C32126802433C4B3C331A6006E0D1
:102500003A4A3C3212688243384B3C331A60704777
:1025100039B1364A403212680243344B40331A60B4
:1025200006E0324A403212688243304B40331A6030
:10253000704739B12D4A4432126802432B4B443361
:102540001A6006E0294A443212688243274B44331A
:102550001A60704739B1254A4C3212680243234B46
:102560004C331A6006E0214A4C32126882431F4BFA
:102570004C331A60704739B11C4A5032126802431A
:102580001A4B50331A6006E0184A503212688243E0
:10259000164B50331A60704739B1144AD21F127863
:1025A0000243124BDB1F1A7006E0104AD21F12784A
:1025B00082430E4BDB1F1A7070470C486030006876
:1025C00040F0807009496031086070470146002082
:1025D000064A083A12680A4201D0012000E00020B1
:1025E00070470249891F0870704700001438024084
:1025F00010B50446FE48844209D101214806FFF780
:1026000054FF00214FF00070FFF74FFF08E0012159
:102610008806FFF74AFF00214FF08060FFF745FF73
:1026200010BD30B5024600200023146824F00204D7
:102630001460146844F00104146000E05B1C5468EA
:1026400014F0010F03D1A3F57F44FF3CF6D1546889
:1026500014F0010F01D100206CE08C79012C04D121
:10266000146844F08004146003E0146824F08004CB
:102670001460CC79012C04D1146844F04004146037
:1026800003E0146824F0400414600C7A012C04D197
:10269000146844F02004146003E0146824F020045B
:1026A00014604C7A012C04D1146844F010041460B6
:1026B00003E0146824F0100414608C7A012C04D117
:1026C000146844F00804146003E0146824F008045B
:1026D0001460CC7A012C04D1146844F00404146012
:1026E00003E0146824F0040414608C78A407CD7807
:1026F00044EA05640D7944EA05444D7944EA0554F9
:102700000D886D1E2C43D461146824F001041460FC
:10271000002300E05B1C546814F0010F03D0A3F504
:102720007F44FF3CF6D1546814F0010F01D0002023
:1027300000E0012030BD10B50021837A012202FAA9
:1027400003F1AC4A126842F00102AA4B1A60A94A8E
:102750001C3212688A43A74B1C331A60027BCAB929
:10276000A44A0C3212688A43A24B0C331A60428886
:10277000C38842EA03439F4A4032847A42F83430A5
:102780000288838842EA03439A4A4032847A02EB01
:10279000C4025360027B012A19D1964A0C32126896
:1027A0000A43944B0C331A604288038842EA03437D
:1027B000904A4032847A42F83430C288838842EAB0
:1027C00003438C4A4032847A02EBC4025360C27ADB
:1027D0003AB9884A121D12688A43864B1B1D1A603B
:1027E00006E0844A121D12680A43824B1B1D1A60C0
:1027F000028932B97F4A143212688A437D4B1433FE
:102800001A600289012A06D17A4A143212680A43F0
:10281000784B14331A60427B012A06D1754A1C3268
:1028200012680A43734B1C331A60724A126822F012
:102830000102704B1A6010BD00218171C1710172DB
:1028400041728172C1728170C170032101710221D4
:1028500041710121018070476649096841F0010119
:10286000644A11601146096843F60E729143614A49
:1028700011601146096841EA00211160114609689A
:1028800021F001011160704721B1026842F48032E9
:10289000026003E0026822F4803202607047E1B116
:1028A000026842F0800202604FF4C272125842F491
:1028B00080734FF4C27213504FF4CA72125842F42C
:1028C00080734FF4CA7213504FF4D272125842F40C
:1028D00080734FF4D27213501BE0026822F0800222
:1028E00002604FF4C272125822F480734FF4C27225
:1028F00013504FF4CA72125822F480734FF4CA7204
:1029000013504FF4D272125822F480734FF4D272E3
:102910001350704710B502460020936803F080639F
:10292000B3F1806F00D110E0936803F00063B3F15E
:10293000006F01D1012008E0936803F08053B3F1E8
:10294000805F01D1022000E00420042879D002F544
:10295000C07303EB00131B6803F0010402F5C0739E
:1029600003EB00131C600B7A7BB94B7A0C8843EAAB
:10297000445302F5C07404EB00142468234302F5A9
:10298000C07404EB0014236010E00B7A4C6843EA37
:10299000C4034C7A234302F5C07404EB001424688A
:1029A000234302F5C07404EB001423608B7A03F018
:1029B0000F038B7202F5C07303EB00135B6823F007
:1029C0000F0402F5C07303EB00135C6002F5C073E3
:1029D00003EB00135B688C7A234302F5C07404EBAD
:1029E000001463608B7B1C064B7B44EA034403E0CA
:1029F00000640040006600400B7B44EA0323CC7A6D
:102A0000234302F5C07404EB0014A3608B7C1C0606
:102A10004B7C44EA03440B7C44EA0323CC7B2343F2
:102A200002F5C07404EB0014E36002F5C07303EB1D
:102A300000131B6843F0010402F5C07303EB00139D
:102A40001C6010BD10B50246002321B1012907D03A
:102A500002290FD109E09068F84C00EA04030BE06A
:102A60009068F74C00EA040306E09068F54C00EA31
:102A7000040301E0002300BF00BFF34C181BA34276
:102A800016D007DC83B16FF0806018180ED00228D2
:102A900018D111E0B0F5007F10D0EC4C001909D02E
:102AA000B0F5003F0ED10BE002230DE000230BE058
:102AB000002309E0002307E0012305E0012303E0F0
:102AC000012301E0002300BF00BFD8B210BD21B137
:102AD000012907D002290FD109E0826842F0800263
:102AE00082600AE0826842F40042826005E0826807
:102AF00042F40002826000E000BF00BF704710B5E2
:102B000000F5D87303EB01131B6803F00403137281
:102B1000137A53B900F5D87303EB01131B6840F225
:102B2000FF7404EA5353136009E000F5D87303EB14
:102B300001131B686FF0604404EAD303536000F58F
:102B4000D87303EB01131B6803F00203537200F503
:102B5000D87303EB01135B6803F00F03937200F566
:102B6000D87303EB01135B681B0AD37400F5D873A9
:102B700003EB01139B68D37200F5D87303EB0113C9
:102B80009B681C0A147300F5D87303EB01139B6850
:102B90001C0C547300F5D87303EB01139B681B0ED8
:102BA000937300F5D87303EB0113DB68D37300F55F
:102BB000D87303EB0113DB681C0A147400F5D87397
:102BC00003EB0113DB681C0C547400F5D87303EBA2
:102BD0000113DB681B0E937421B9C36843F0200313
:102BE000C36003E0036943F02003036110BD21B912
:102BF000C26842F02002C26003E0026942F0200293
:102C0000026170470246002019B9D36803F003003F
:102C100006E0012903D1136903F0030000E000205E
:102C2000704710B502460B4600204FF6FF71BBB946
:102C3000146824F0020444F00104146000E0491E0A
:102C4000546804F00304012C01D00029F7D1546822
:102C500004F00304012C01D0002032E0012030E018
:102C6000012B13D1146824F00304146000E0491E02
:102C7000546814F0030F01D00029F8D1546814F0FF
:102C8000030F01D000201CE001201AE0022B17D115
:102C9000146824F0010444F00204146000E0491EAA
:102CA000546804F00304022C01D00029F7D15468C1
:102CB00004F00304022C01D0002002E0012000E017
:102CC000002010BD014600200A6822F0010242F0F7
:102CD00002020A604A6802F00302022A00D10120BF
:102CE000704701464FF6FF7200200B6823F0020385
:102CF0000B6000E0521E4B6803F00203022B01D16F
:102D0000002AF7D14B6803F00203022B00D0012008
:102D10007047014600208A6902F070007047014642
:102D200000208A69100E7047014600208A69C2F3AC
:102D3000074070471AB143690B43436102E043699E
:102D40008B434361704710B50246002011F4700FA9
:102D500008D09369C1F31304234201D001202DE070
:102D600000202BE011F0807F08D05368C1F31304DA
:102D7000234201D0012021E000201FE011F0006F6C
:102D800008D09368C1F31304234201D0012015E059
:102D9000002013E011F0007F08D0D368C1F31304C2
:102DA000234201D0012009E0002007E01369C1F3AC
:102DB0001304234201D0012000E0002010BD0022B6
:102DC000234B994202D10023836111E0C1F3130226
:102DD00011F0007F01D0C2600AE011F0806F01D0D5
:102DE000026105E011F0006F01D0826000E04260F6
:102DF0007047024600200A4201D0012000E0002076
:102E0000704770B504460D4600266069284272D0AE
:102E1000B5F5807F69D01DDC082D42D006DC012D80
:102E20002DD0022D31D0042D7FD134E0102D3ED095
:102E3000202D42D0402D78D145E000000300000451
:102E40000003000800000310000100080001FFF764
:102E50007000F030B5F5004F61D009DCB5F5007FAA
:102E60004AD0B5F5806F4DD0B5F5006F5DD150E01B
:102E7000B5F5803F2DD0B5F5003F56D12FE0A068C5
:102E80005549FFF7B6FF064651E0E0680321FFF71A
:102E9000B0FF06464BE0E0680821FFF7AAFF0646B0
:102EA00045E0E0681021FFF7A4FF06463FE02069F7
:102EB0000321FFF79EFF064639E020690821FFF74E
:102EC00098FF064633E020691021FFF792FF06467F
:102ED0002DE060680821FFF78CFF064627E0606858
:102EE0001021FFF786FF064621E0A0690121FFF7C8
:102EF00080FF06461BE01BE0A0690221FFF779FF77
:102F0000064614E0A0690421FFF773FF06460EE0B1
:102F10000BE0A0697021FFF76CFF064607E06068D0
:102F20000421FFF766FF064601E0002600BF00E02F
:102F30000026304670BDB1F5007F3AD00FDC202965
:102F400028D006DC01291CD004291DD0082940D135
:102F50001DE0402921D0B1F5807F3AD126E0B1F5BE
:102F6000004F31D006DCB1F5806F25D0B1F5006F90
:102F70002FD124E0B1F5803F12D0B1F5003F28D128
:102F800011E0154A826025E00822C26022E010228A
:102F9000C2601FE0082202611CE01022026119E0F9
:102FA0000822426016E01022426013E004224260D0
:102FB00010E0042242600DE0042242600AE0002298
:102FC00082610422426005E00022826104224260A4
:102FD00000E000BF00BF704701010100002061490F
:102FE0000860C8601F20486100208861C8610862CD
:102FF0004862704700215B4A126844F201039A4319
:10300000584B1A601A46116840F6F27291430288D2
:1030100043881A4383881A43C3881A4303891A438F
:1030200043891A4383891A4311434E4A11607047FA
:103030000021018041808180C180018141818181A5
:1030400070474188028841EA0241464A1162C188BC
:10305000828841EA0241434A5162704730B1414996
:10306000096841F004013F4A116005E03D490968E3
:1030700021F004013B4A116070470178427841EA2F
:103080000221827841EA0241C27841EA0261354A6E
:103090009161704730B13349096841F00801314A04
:1030A000116005E02F49096821F008012D4A1160DF
:1030B000704730B12B49096841F48041294A1160B9
:1030C00005E02849096821F48041264A11607047CB
:1030D00030B12449096841F00101224A116005E03C
:1030E0002049096821F001011E4A116070471D48FE
:1030F000806A704729B11B4AD2680243194BDA60D3
:1031000006E0184AD268C3439BB21A40154BDA60F6
:10311000704710B50146002000230A1312B9114C64
:10312000A36806E0022A02D10E4C636801E00D4C50
:1031300023690B4201D0012000E0002010BD0949A5
:1031400048617047014600200022064B1B6903EAD4
:1031500001020AB1012000E00020704701494861E6
:103160007047000000000550016821F00101016076
:103170000021016041608160C160016121214161E4
:10318000DA49884204D13D21D84A103A91608CE056
:10319000D6491831884205D14FF47461D34A103AA8
:1031A000916082E0D1493031884205D14FF47411E9
:1031B000CE4A103A916078E0CC494831884205D136
:1031C0004FF07461C94A103A91606EE0C7496031AE
:1031D000884204D1C649C54A103AD16065E0C34966
:1031E0007831884204D1C349C04A103AD1605CE0CA
:1031F000BE499031884204D1BF49BC4A103AD160DF
:1032000053E0BA49A831884205D14FF03D51B74A41
:10321000103AD16049E0B949884204D13D21B74A0A
:10322000083A116041E0B5491831884205D14FF4A0
:103230007461B24A083A116037E0B04930318842CF
:1032400005D14FF47411AD4A083A11602DE0AB4935
:103250004831884205D14FF07461A84A083A11609C
:1032600023E0A6496031884204D1A149A34A121F34
:1032700011601AE0A1497831884204D19D499F4AE2
:10328000121F116011E09D499031884204D19A4982
:103290009A4A121F116008E09849A831884204D167
:1032A0004FF03D51954A121F1160704710B5002232
:1032B0000268934B1A40CC680B6823434C69234344
:1032C0008C692343CC6923430C6A23434C6A234310
:1032D0008C6A23434C6B23438C6B23431A43026059
:1032E000426922F00702D1E90B3423431A434261B9
:1032F0000B6943604B6883608B68C36010BD00211D
:10330000016041608160C160016141618161C161B1
:10331000016241628162C1620163416381637047FE
:1033200021B1026842F00102026003E0026822F06B
:1033300001020260704721B1026842F4004202605B
:1033400003E0026822F400420260704721B1026883
:1033500042F02002026003E0026822F020020260D4
:103360007047416070470146486880B2704722B19B
:10337000036843F40023036003E0036823F400239D
:1033800003600161704721B1026842F4802202604B
:1033900003E0026822F48022026070470AB10161F2
:1033A00000E0C1607047014600200A6812F4002F57
:1033B00001D0012000E000207047014600200A688B
:1033C00012F0010F01D0012000E0002070470146FB
:1033D00000204A6902F03800704730B503460A46BB
:1033E00000200024454DAB4202D24049103901E093
:1033F0004249103912F0005F01D04C6800E00C68BF
:10340000404D2C40144201D0012000E0002030BD8E
:1034100002463A4B9A4202D23448103801E037480B
:10342000103811F0005F03D0364B0B40C36002E050
:10343000344B0B408360704710B511F0800F09D0FA
:1034400022B1436943F08003436103E0436923F001
:103450008003436180290BD02AB1036801F01E0468
:103460002343036004E0036801F01E04A3430360E8
:1034700010BD70B502460020002400251F4EB24248
:1034800002D21A4B103B01E01C4B103B1E4E314246
:1034900006D01E2606EAD124166806EA040502E0D4
:1034A000566906F0800511F0005F01D05C6800E00D
:1034B0001C68144E34400C4202D00DB1012000E0D3
:1034C000002070BD02460D4B9A4202D207481038C8
:1034D00001E00A48103811F0005F03D0094B0B409F
:1034E000C36002E0074B0B408360704710600240EE
:1034F0003D000020400F002000003D2010640240ED
:103500003F801CF07D0F7D0F3C0F3C0F30B943F224
:10351000DB014FF0204242F8201005E043F2D201D7
:103520004FF0204242F820106FF07042411C4FF0E3
:10353000204343F8212011461A4602EB8002C2F8CC
:1035400004117047D0E901121143C26811430269A6
:1035500011434269114382691143C2691143026AEE
:103560001143426A1143826A1143C26A1143026BDA
:1035700011434FF02043026843F822108168082964
:1035800008D11A46016852F8211041F04001026842
:1035900043F82210416B0968426B526841EA0211FC
:1035A000426B926841EA0221426B928941EA0241F0
:1035B000426B128A41EA0251426B127D41EA02617A
:1035C000426B926911430268521C4FF0204343F84A
:1035D0002210C16AB1F5804F1AD1816B0968826BE4
:1035E000526841EA0211826B926841EA0221826BC1
:1035F000128A41EA0251826B127D41EA0261826BBA
:1036000092691143026803EB8202C2F8041108E0D8
:103610006FF070414FF02043026803EB8202C2F862
:103620000411704700210160022141600021816086
:10363000C160016141618161C16101624FF48051EA
:103640004162490081620021C16201630F21426B26
:103650001160426B5160FF21426B91600F21426B00
:10366000D160426B1161426B51610021426B9161EB
:103670000F21826B1160826B5160FF21826B916020
:103680000F21826BD160826B1161826B51610021CD
:10369000826B9161704751B14FF0204252F8202067
:1036A00042F001024FF0204343F8202009E04FF0A0
:1036B000204252F82020F84B1A404FF0204343F8A4
:1036C0002020704710280AD118214FF0204211669F
:1036D000402151664FF0FC319166D16610E018210F
:1036E000EE4A11604FF040014FF02042C2F88410C2
:1036F0004FF0FC31EA4A11604FF02042C2F88C10C2
:10370000704730B5002100220023446844F00804CB
:1037100085682C43C5682C4305692C43456944EAF8
:103720004524856944EA4531C4692468C5696D68E2
:1037300044EA0524C5692D8944EA0544C5692D7B01
:1037400044EA0562046A2468056A6D6844EA05244F
:10375000056A2D8944EA0544056A2D7B44EA056320
:103760000468102C05D14FF020442166A266E36660
:1037700007E0CA4C21604FF02044C4F88820C94CAF
:10378000236030BD10210160002141608160C16073
:10379000016141618161FC21C2691160C2695160AE
:1037A000C2699160C269D160026A1160026A5160A7
:1037B000026A9160026AD160704799B1102808D1FD
:1037C0004FF02042126E42F004024FF020431A667E
:1037D0001DE0B24A126842F004024FF02043C3F8E1
:1037E000802014E0102809D14FF02042126EAA4B1D
:1037F000DB1E1A404FF020431A6608E0A74A126801
:10380000A94B02EA03024FF02043C3F8802070471F
:1038100099B1102808D14FF02042126E42F04002B8
:103820004FF020431A661DE09C4A126842F04002A5
:103830004FF02043C3F8802014E0102809D14FF046
:103840002042126E984B3C3B1A404FF020431A66C0
:1038500008E0924A1268954B02EA03024FF02043B7
:10386000C3F88020704701460020102903D14FF093
:103870002042506F01E08E4A1068704718208D4931
:1038800008604FF000004FF02041C1F8A4004FF055
:10389000FC308949086001F10401086001F104016C
:1038A00008607047016841F01001426841EA422116
:1038B000826841EA42317F4A1160C1680968C26882
:1038C000526841EA0221C268128941EA0241C26893
:1038D000127B41EA0261784A116001690968026954
:1038E000526841EA02210269128941EA02410269F1
:1038F000127B41EA0261714A1160416909684269BB
:10390000526841EA02214269128941EA0241426950
:10391000127B41EA02614FF02042C2F8B0107047BA
:103920000021016041608160FC21C2681160C268B1
:103930005160C2689160C268D16002691160026919
:103940005160026991600269D16042691160426907
:103950005160426991604269D160704740B15549F8
:10396000096841F004014FF02042C2F8A01008E0BD
:10397000504909684C4A01EA02014FF02042C2F85E
:10398000A010704710B5F2B1102807D14FF02043B6
:103990005B6E0B434FF02044636632E0B0F5807FEE
:1039A00008D1474B1B6843EA01034FF02044C4F899
:1039B000843026E0434B1B6843EA01034FF0204468
:1039C000C4F8A4301DE0102807D14FF020435B6EEF
:1039D0008B434FF02044636613E0B0F5807F08D13D
:1039E000374B1B6823EA01034FF02044C4F88430AE
:1039F00007E0344B1B6823EA01034FF02044C4F86E
:103A0000A43010BD10B5024600200023102A03D1B7
:103A10004FF02044636E07E0B2F5807F02D1284C5E
:103A2000236801E0274C23680B4201D0012000E00D
:103A3000002010BD102807D14FF02042526E8A435B
:103A40004FF020435A6613E0B0F5807F08D11C4A3E
:103A5000126822EA01024FF02043C3F8842007E0F5
:103A6000184A126822EA01024FF02043C3F8A4204A
:103A7000704770B502460020002300240025102A5C
:103A800003D14FF02046736E20E0B2F5807F1BD14A
:103A90000B4E33681AE00000FEFF0F00800000A00C
:103AA000880000A08C0000A0FBFF0F00BFFF0F00EC
:103AB000940000A0A00000A0A80000A0AC0000A0FE
:103AC000840000A0A40000A0154E336803EA01049E
:103AD00003EAD10514B10DB1012000E0002070BD52
:103AE000102808D14FF02042526E22EAD1024FF046
:103AF00020435A6613E0B0F5807F08D1094A126866
:103B000022EAD1024FF02043C3F8842007E0044AA0
:103B1000126822EAD1024FF02043C3F8A420704774
:103B2000A40000A0840000A00CB50020019000902B
:103B30007548006840F480307349086000BF7248DF
:103B4000006800F4003000900198401C019000983B
:103B500018B90198B0F5A06FF1D16B48006810F466
:103B6000003F02D00120009001E00020009000986A
:103B7000012845D164484030006840F080506249D7
:103B8000403108606148006840F480405F49086047
:103B90005D48083000685C490831086008460068E4
:103BA00040F4004008600846006840F4A0500860F7
:103BB0005748091F0860081F006840F08070091FFF
:103BC000086000BF5048006810F0007FFAD040F253
:103BD0000560504908604C480830006820F0030038
:103BE0004949083108600846006840F00200086052
:103BF00000BF45480830006800F00C000828F8D1E4
:103C00000CBD10B54448006840F47000424908609B
:103C10003D48006840F001003B49086000203A49F7
:103C200008310860384800683C4908403649086057
:103C30003B48091D0860081F006820F48020091F08
:103C40000860002030490C310860FFF76DFF4FF02D
:103C5000006031498039086010BD70B50020002235
:103C6000022300240221284D08352D6805F00C00A0
:103C700020B1042806D0082834D107E0294D2A4E67
:103C8000356033E0294D284E35602FE01E4D2D1D47
:103C90002D68C5F380541C4D2D1D2D6805F03F0186
:103CA00054B1224DB5FBF1F5174E361D3668C6F3FB
:103CB000881605FB06F209E01A4DB5FBF1F5124E28
:103CC000361D3668C6F3881605FB06F20E4D2D1D0F
:103CD0002D68C5F301456D1C6B00B2FBF3F5124E68
:103CE000356003E00F4D104E356000BF00BF064D3C
:103CF00008352D68C5F303150D4E705D0A4D2D680E
:103D0000C540094E356070BD00380240007000406B
:103D100019544007003C024088ED00E0FFFFF6FE2A
:103D2000103000240024F4002C00002040787D0195
:103D3000300000200648804706480047FEE7FEE7BF
:103D4000FEE7FEE7FEE7FEE7FEE7FEE7FEE7FEE74B
:103D5000033C000889010008064C074D06E0E068B6
:103D600040F0010394E8070098471034AC42F6D3C2
:103D7000FCF70EFA94560008B456000802E008C892
:103D8000121F08C1002AFAD170477047002001E0D5
:103D900001C1121F002AFBD1704700000000000083
:103DA000000000000000000000000000183C3C3C47
:103DB0001818180018180000000000666666240035
:103DC000000000000000000000000000006C6CFE1D
:103DD0006C6C6CFE6C6C0000000018187CC6C2C0D5
:103DE0007C0686C67C181800000000000000C2C6D1
:103DF0000C183060C686000000000000386C6C387B
:103E000076DCCCCCCC760000000000303030600096
:103E10000000000000000000000000000C1830301E
:103E200030303030180C00000000000030180C0C4E
:103E30000C0C0C0C183000000000000000000066A4
:103E40003CFF3C660000000000000000000000187D
:103E5000187E18180000000000000000000000009C
:103E600000000018181830000000000000000000DA
:103E700000FE000000000000000000000000000044
:103E800000000000181800000000000000000206FA
:103E90000C183060C0800000000000007CC6C6CE58
:103EA000D6D6E6C6C67C0000000000001838781898
:103EB00018181818187E0000000000007CC6060CB8
:103EC000183060C0C6FE0000000000007CC6060678
:103ED0003C060606C67C0000000000000C1C3C6C82
:103EE000CCFE0C0C0C1E000000000000FEC0C0C088
:103EF000FC0E0606C67C0000000000003860C0C052
:103F0000FCC6C6C6C67C000000000000FEC6060651
:103F10000C18303030300000000000007CC6C6C6EF
:103F20007CC6C6C6C67C0000000000007CC6C6C6B3
:103F30007E0606060C78000000000000000018183D
:103F40000000001818000000000000000000181811
:103F500000000018183000000000000000060C18D7
:103F6000306030180C060000000000000000000067
:103F7000FE0000FE0000000000000000006030189D
:103F80000C060C1830600000000000007CC6C60C57
:103F9000181818001818000000000000007CC6C6A1
:103FA000DEDEDEDCC07C00000000000010386CC6E5
:103FB000C6FEC6C6C6C6000000000000FC666666F7
:103FC0007C66666666FC0000000000003C66C2C0BD
:103FD000C0C0C0C2663C000000000000F86C66660D
:103FE000666666666CF8000000000000FE666268A7
:103FF0007868606266FE000000000000FE6662688D
:104000007868606060F00000000000003C66C2C09C
:10401000C0DEC6C6663A000000000000C6C6C6C6BE
:10402000FEC6C6C6C6C60000000000003C18181830
:1040300018181818183C0000000000001E0C0C0C8A
:104040000C0CCCCCCC78000000000000E6666C6C58
:1040500078786C6666E6000000000000F060606042
:104060006060606266FE000000000000C6EEFEFEBA
:10407000D6C6C6C6C6C6000000000000C6E6F6FEEC
:10408000DECEC6C6C6C6000000000000386CC6C63C
:10409000C6C6C6C66C38000000000000FC66666636
:1040A0007C60606060F00000000000007CC6C6C656
:1040B000C6C6C6D6DE7C0C0E00000000FC66666636
:1040C0007C6C666666E60000000000007CC6C66088
:1040D000380C06C6C67C0000000000007E7E5A1820
:1040E00018181818183C000000000000C6C6C6C604
:1040F000C6C6C6C6C67C000000000000C6C6C6C64E
:10410000C6C6C66C3810000000000000C6C6C6C691
:10411000C6D6D6FE6C6C000000000000C6C66C6CF3
:1041200038386C6CC6C60000000000006666666623
:104130003C181818183C000000000000FEC6860C51
:10414000183060C2C6FE0000000000003C30303075
:1041500030303030303C0000000000000080C0E013
:1041600070381C0E06020000000000003C0C0C0C15
:104170000C0C0C0C0C3C0000000010386CC600004D
:10418000000000000000000000000000000000002F
:1041900000000000000000FF0000303018000000A8
:1041A0000000000000000000000000000000007897
:1041B0000C7CCCCCCC76000000000000E060607885
:1041C0006C66666666DC0000000000000000007C93
:1041D000C6C0C0C0C67C0000000000001C0C0C3C27
:1041E0006CCCCCCCCC760000000000000000007C41
:1041F000C6FEC0C0C67C000000000000386C6460D1
:10420000F060606060F000000000000000000076D8
:10421000CCCCCCCCCC7C0CCC78000000E060606CCA
:104220007666666666E60000000000001818003832
:1042300018181818183C0000000000000606000EB0
:1042400006060606060666663C000000E06060663C
:104250006C78786C66E600000000000038181818CA
:1042600018181818183C000000000000000000ECAE
:10427000FED6D6D6D6D6000000000000000000DC36
:104280006666666666660000000000000000007C4E
:10429000C6C6C6C6C67C000000000000000000DCE8
:1042A00066666666667C6060F0000000000000766E
:1042B000CCCCCCCCCC7C0C0C1E000000000000DC74
:1042C0007662606060F00000000000000000007C8A
:1042D000C660380CC67C000000000000103030FCC6
:1042E00030303030361C000000000000000000CCF0
:1042F000CCCCCCCCCC7600000000000000000066E6
:10430000666666663C18000000000000000000C6FB
:10431000C6C6D6D6FE6C000000000000000000C635
:104320006C3838386CC6000000000000000000C681
:10433000C6C6C6C6C67E060CF8000000000000FE19
:10434000CC183060C6FE0000000000000E181818DF
:1043500070181818180E000000000000181818181F
:10436000001818181818000000000000701818181D
:104370000E181818187000000000000076DC00000D
:1043800000000000000000000000000000001038E5
:104390006CC6C6C6FE000000000000000000000061
:1043A000000000000000000000000000000000000D
:1043B00000000000000000000000000000000000FD
:1043C00000000000000000000000000080018001EB
:1043D00080018001800180018001800180018001D5
:1043E0008001800180010000000080018001000048
:1043F0000000000000000000000000000000CC00F1
:10440000CC00CC00CC00CC00CC00000000000000B0
:10441000000000000000000000000000000000009C
:10442000000000000000000000000000000000008C
:10443000000000000000600C600C600C30063006CC
:10444000FE1FFE1F300638071803FE1FFE1F18034D
:1044500018038C018C018C01000000008000E00337
:10446000F80F9C0E8C1C8C188C009800F801E0074B
:10447000800E801C8C188C189C18B80CF00FE00370
:10448000800080000000000000000000000000002C
:104490000E181B0C110C11061106110311039B01C0
:1044A0008E01C038C06C60446044304430441844CD
:1044B000186C0C380000000000000000E001F00360
:1044C0003807180618063003F001F000F8009C3198
:1044D0000E33061E061C061C063FFC73F02100006E
:1044E00000000000000000000000000000000C00C0
:1044F0000C000C000C000C000C0000000000000080
:1045000000000000000000000000000000000000AB
:104510000000000000000000000000000002000396
:104520008001C000C000600060003000300030003A
:104530003000300030003000300060006000C0000B
:10454000C0008001000300020000000020006000A5
:10455000C000800180010003000300060006000681
:1045600000060006000600060006000300038001A6
:104570008001C0006000200000000000000000007A
:10458000000000000000C000C000D806F807E001ED
:1045900030033807000000000000000000000000A9
:1045A000000000000000000000000000000000000B
:1045B0000000000000008001800180018001800176
:1045C000FC3FFC3F800180018001800180010000F0
:1045D00000000000000000000000000000000000DB
:1045E00000000000000000000000000000000000CB
:1045F00000000000000000000000000080018001B9
:104600000001000180000000000000000000000028
:10461000000000000000000000000000000000009A
:104620000000E007E00700000000000000000000BC
:10463000000000000000000000000000000000007A
:10464000000000000000000000000000000000006A
:10465000000000000000000000000000C000C000DA
:10466000000000000000000000000000000C000C32
:10467000000600060006000300030003800380011B
:1046800080018001C000C000C00060006000000028
:10469000000000000000000000000000E003F00740
:1046A000380E180C0C180C180C180C180C180C18C8
:1046B0000C180C180C18180C380EF007E00300004A
:1046C0000000000000000000000000000001800168
:1046D000C001F00198018801800180018001800102
:1046E0008001800180018001800180018001000043
:1046F000000000000000000000000000E003F80FD0
:10470000180C0C180C1800180018000C00060003F8
:104710008001C000600030001800FC1FFC1F00007A
:10472000000000000000000000000000E001F807A9
:10473000180E0C0C0C0C000C0006C003C007000C7B
:10474000001800180C180C18180CF807E0030000EB
:10475000000000000000000000000000000C000E3F
:10476000000F000F800DC00C600C600C300C180C9A
:104770000C0CFC3FFC3F000C000C000C000C00007B
:10478000000000000000000000000000F80FF80F1B
:10479000180018000C00EC03FC071C0E001C00188D
:1047A000001800180C181C0C180EF807E003000085
:1047B000000000000000000000000000C007F00F33
:1047C000381C181818000C00CC03EC0F3C0E1C1CF5
:1047D0000C180C180C18181C380EF007E003000019
:1047E000000000000000000000000000FC1FFC1F93
:1047F000000C00060006000380038001C001C00019
:10480000E000600060007000300030003000000008
:10481000000000000000000000000000E003F007BE
:10482000380E180C180C180C3806F007F007180C86
:104830000C180C180C180C18380CF80FE0030000BA
:10484000000000000000000000000000E003F0078E
:10485000380E1C0C0C180C180C181C1C381EF81BDD
:10486000E0190018000C000C1C0EF807F001000005
:104870000000000000000000000000000000000038
:104880000000000000008001800100000000000026
:104890000000000000000000000080018001000016
:1048A0000000000000000000000000000000000008
:1048B00000000000000080018001000000000000F6
:1048C00000000000000000000000800180010001E5
:1048D0000001800000000000000000000000000057
:1048E000000000000000000000000010001C800F0D
:1048F000E003F8001800F800E003800F001C00102F
:1049000000000000000000000000000000000000A7
:1049100000000000000000000000F81F0000000080
:104920000000F81F00000000000000000000000070
:104930000000000000000000000000000000000077
:104940000000000000000000000008003800F00136
:10495000C007001F0018001FC007F0013800080042
:10496000000000000000000000000000E003F80F5D
:10497000180C0C180C180018000C0006000380011D
:10498000C000C000C00000000000C000C000000067
:104990000000000000000000000000000000E00730
:1049A00018180420C229224A114409440944094420
:1049B00009221113E20C024004201818E00700003D
:1049C00000000000000000000000000080038003E1
:1049D000C006C006C006600C600C301830183018D5
:1049E000F83FF83F1C700C600C6006C006C0000069
:1049F000000000000000000000000000FC03FC0FAD
:104A00000C0C0C180C180C180C0CFC07FC0F0C18D8
:104A10000C300C300C300C300C18FC1FFC07000064
:104A2000000000000000000000000000C007F01FB0
:104A300038381C300C7006600600060006000600C0
:104A40000600060006600C701C30F01FE007000036
:104A5000000000000000000000000000FE03FE0F48
:104A6000060E0618061806300630063006300630E8
:104A70000630063006180618060EFE0FFE0300006C
:104A8000000000000000000000000000FC3FFC3FB0
:104A90000C000C000C000C000C00FC1FFC1F0C0098
:104AA0000C000C000C000C000C00FC3FFC3F000054
:104AB000000000000000000000000000F83FF83F88
:104AC00018001800180018001800F81FF81F180028
:104AD000180018001800180018001800180000002E
:104AE000000000000000000000000000E00FF83FA0
:104AF0003C780E6006E007C00300030003FE03FEDF
:104B000003C007C006C00EC03CF0F83FE00F000035
:104B10000000000000000000000000000C300C301D
:104B20000C300C300C300C300C30FC3FFC3F0C30A7
:104B30000C300C300C300C300C300C300C300000D1
:104B40000000000000000000000000008001800163
:104B5000800180018001800180018001800180014D
:104B600080018001800180018001800180010000BE
:104B70000000000000000000000000000006000629
:104B800000060006000600060006000600060006F5
:104B900000060006180618063807F003E0010000BA
:104BA00000000000000000000000000006300618B1
:104BB000060C060606038601C60066007600DE00C7
:104BC0008E0106030606060C061806300660000075
:104BD00000000000000000000000000018001800A5
:104BE0001800180018001800180018001800180005
:104BF00018001800180018001800F81FF81F00000F
:104C00000000000000000000000000000EE01EF0A8
:104C10001EF01EF036D836D836D836D866CC66CCDC
:104C200066CCC6C6C6C6C6C6C6C686C386C3000090
:104C30000000000000000000000000000C301C30EC
:104C40003C303C306C306C30CC30CC308C310C3360
:104C50000C330C360C360C3C0C3C0C380C30000081
:104C6000000000000000000000000000E007F81F46
:104C70001C380E70066003C003C003C003C003C02D
:104C800003C003C006600E701C38F81FE007000068
:104C9000000000000000000000000000FC0FFC1FEE
:104CA0000C380C300C300C300C300C18FC1FFC078E
:104CB0000C000C000C000C000C000C000C000000A0
:104CC000000000000000000000000000E007F81FE6
:104CD0001C380E70066003E003C003C003C003C0AD
:104CE00003C007E006630E3F1C3CF83FE0F700C03E
:104CF000000000000000000000000000FE0FFE1F8A
:104D000006380630063006300638FE1FFE0706035A
:104D10000606060C06180618063006300660000067
:104D2000000000000000000000000000E003F80F99
:104D30001C0C0C180C180C001C00F803E00F001ED3
:104D40000038063006300E301C1CF80FE00700005B
:104D5000000000000000000000000000FE7FFE7F59
:104D6000800180018001800180018001800180013B
:104D700080018001800180018001800180010000AC
:104D80000000000000000000000000000C300C30AB
:104D90000C300C300C300C300C300C300C300C3033
:104DA0000C300C300C300C301818F81FE0070000E5
:104DB000000000000000000000000000036006305A
:104DC000063006300C180C180C18180C180C380E7D
:104DD00030063006700760036003C001C0010000A8
:104DE0000000000000000000000000000360C3613C
:104DF000C361C361663366336633663366336633D5
:104E00006C1B6C1B6C1B2C1A3C1E380E380E0000E1
:104E10000000000000000000000000000FE00C7027
:104E200018303018700C600EC00780038003C00378
:104E3000E006700C301C18180C300E6007E0000003
:104E400000000000000000000000000003C0066039
:104E50000C301C383818300C6006E007C0038001A5
:104E600080018001800180018001800180010000BB
:104E7000000000000000000000000000FC7FFC7F3C
:104E8000006000300018000C000600038001C00024
:104E90006000300018000C000600FE7FFE7F00005E
:104EA000000000000000000000000000E003E0033C
:104EB00060006000600060006000600060006000F2
:104EC00060006000600060006000600060006000E2
:104ED00060006000E003E0030000000030003000EC
:104EE000600060006000C000C000C000C001800120
:104EF000800180010003000300030006000600009B
:104F0000000000000000000000000000E003E003DB
:104F10000003000300030003000300030003000379
:104F20000003000300030003000300030003000369
:104F300000030003E003E003000000000000C001E4
:104F4000C00160036003600330063006180C180CC3
:104F50000000000000000000000000000000000051
:104F60000000000000000000000000000000000041
:104F70000000000000000000000000000000000031
:104F8000000000000000000000000000FFFFFFFF25
:104F90000000000000000000000000000C000C00F9
:104FA0000C000C000C000C000000000000000000D1
:104FB00000000000000000000000000000000000F1
:104FC00000000000000000000000000000000000E1
:104FD000000000000000F003F8071C0C0C0C000F90
:104FE000F00FF80C0C0C0C0C1C0FF80FF018000054
:104FF0000000000000000000000000001800180081
:10500000180018001800D803F80F380C18181818D2
:105010001818181818181818380CF80FD8030000AA
:105020000000000000000000000000000000000080
:10503000000000000000C003F007300E180C18003C
:10504000180018001800180C300EF007C0030000FC
:105050000000000000000000000000000018001820
:10506000001800180018C01BF01F301C1818181862
:105070001818181818181818301CF01FC01B00003A
:105080000000000000000000000000000000000020
:10509000000000000000C003F00F300C1818F81FCB
:1050A000F81F180018003818301CF00FC007000057
:1050B000000000000000000000000000800FC00F92
:1050C000C000C000C000F007F007C000C000C00072
:1050D000C000C000C000C000C000C000C000000090
:1050E00000000000000000000000000000000000C0
:1050F000000000000000E00DF80F180E0C0C0C0C66
:105100000C0C0C0C0C0C0C0C180EF80FE00D000C19
:105110000C0C1C06F807F001000000001800180035
:10512000180018001800D807F80F381C181818189D
:10513000181818181818181818181818181800001F
:10514000000000000000000000000000C000C000DF
:10515000000000000000C000C000C000C000C0008F
:10516000C000C000C000C000C000C000C0000000FF
:10517000000000000000000000000000C000C000AF
:10518000000000000000C000C000C000C000C0005F
:10519000C000C000C000C000C000C000C000C0000F
:1051A000C000C000F8007800000000000C000C00F7
:1051B0000C000C000C000C0C0C060C038C01CC0039
:1051C0006C00FC009C018C030C030C060C0C000012
:1051D000000000000000000000000000C000C0004F
:1051E000C000C000C000C000C000C000C000C000BF
:1051F000C000C000C000C000C000C000C00000006F
:10520000000000000000000000000000000000009E
:105210000000000000007C3CFF7EC7E383C183C127
:1052200083C183C183C183C183C183C183C10000A2
:10523000000000000000000000000000000000006E
:105240000000000000009807F80F381C1818181804
:1052500018181818181818181818181818180000FE
:10526000000000000000000000000000000000003E
:10527000000000000000C003F00F300C18181818D0
:105280001818181818181818300CF00FC003000060
:10529000000000000000000000000000000000000E
:1052A000000000000000D803F80F380C1818181878
:1052B0001818181818181818380CF80FD8031800F0
:1052C000180018001800180000000000000000007E
:1052D000000000000000C01BF01F301C1818181838
:1052E0001818181818181818301CF01FC01B0018B0
:1052F000001800180018001800000000000000004E
:10530000000000000000B007F00370003000300023
:10531000300030003000300030003000300000003D
:10532000000000000000000000000000000000007D
:10533000000000000000E003F003380E180C3800F5
:10534000F003C007000C180C380EF007E003000053
:1053500000000000000000000000000000008000CD
:10536000C000C000C000F007F007C000C000C000CF
:10537000C000C000C000C000C000C007800700001F
:10538000000000000000000000000000000000001D
:10539000000000000000181818181818181818181D
:1053A0001818181818181818381CF01FE0190000E1
:1053B00000000000000000000000000000000000ED
:1053C0000000000000000C18180C180C180C300617
:1053D00030063006600360036003C001C0010000B6
:1053E00000000000000000000000000000000000BD
:1053F000000000000000C141C141C36163636363F9
:1054000063633636363636361C1C1C1C1C1C0000EA
:10541000000000000000000000000000000000008C
:105420000000000000001C38381C300C60066003CF
:105430006003600360036006300C381C1C380000F9
:10544000000000000000000000000000000000005C
:105450000000000000001830301830187018600C80
:10546000600CE00CC006C00680038003800380014E
:105470008001C001F000700000000000000000008A
:10548000000000000000FC1FFC1F000C00060003D1
:105490008001C000600030001800FC1FFC1F0000ED
:1054A0000000000000000000000000000003800178
:1054B000C000C000C000C000C000C00060006000AC
:1054C000300060004000C000C000C000C000C0004C
:1054D000C000800100030000000000008001800186
:1054E00080018001800180018001800180018001B4
:1054F00080018001800180018001800180018001A4
:105500008001800180018001000000006000C00077
:10551000C00180018001800180018001000300033F
:1055200000060003000180018001800180018001EC
:105530008001C000600000000000000000000000CA
:1055400000000000000000000000F010F81F080F2D
:10555000000000000000000000000000000000004B
:105560000000000000000000000032002A001101CD
:105570001246427F4D0063F0641F6520660067009D
:10558000695013FF0D410F0114062475256326D1C0
:105590002BFF6BAA8E108F00900091009200930059
:1055A000942C952496089714982499389A9E15005F
:1055B0009B009C20A740A840A980AA809E81A606A7
:1055C0007E0C7F16802A814E8261836F847B858664
:1055D000868E879788A489AF8AC58BD78CE88D2063
:1055E0003340340022AF230149104A104B144C17AA
:1055F000460547080E010CE0090329502C783200BB
:105600002A0011011240427F4D0063F0641F6520A3
:1056100066006700695013FF0DC10F011406247561
:10562000256326D12BFF6BAA8E108F00900091006E
:1056300092009300942C95249608971498249938F6
:105640009A9E15009B009C20A740A840A980AA8094
:105650009E81A6067E0C7F16802A814E8261836F12
:10566000847B8586868E879788A489AF8AC58BD7E9
:105670008CE88D203340340022AF230149104A10BA
:105680004B144C17460547080E010CE0090329503E
:105690002C780000B45600080000002040000000F4
:1056A0007C3D0008F45600084000002000F801008E
:1056B0008C3D000800000000000000109A99193F7E
:1056C000CDCCCC3ECDCC4C3ECDCC4C3E0000E143CD
:1056D0000000000001020304010203040607080998
:1056E000007A030A00000000000000000102030429
:0456F0000607080998
:040000050800018965
:00000001FF
