:020000042000DA
:1000000000480020E11100202502002027020020E6
:100010002B0200202F0200203302002000000000ED
:100020000000000000000000000000003702002077
:1000300039020020000000003B0200203D020020A9
:10004000FB110020FB110020FB110020FB11002000
:10005000FB110020FB110020FB110020FB110020F0
:10006000FB110020FB110020FB110020FB110020E0
:10007000FB110020FB110020FB110020FB110020D0
:10008000FB110020FB110020FB110020FB110020C0
:10009000FB110020FB110020FB110020FB110020B0
:1000A000FB110020FB110020FB110020FB110020A0
:1000B000750E0020310F0020FB110020FB110020E5
:1000C000FB110020FB110020FB110020FB11002080
:1000D000FB11002053110020FB110020FB11002018
:1000E00009040020FB110020FB11002000F002F8A1
:1000F00000F03CF80AA090E8000C82448344AAF186
:100100000107DA4501D100F031F8AFF2090EBAE883
:100110000F0013F0010F18BFFB1A43F0010318473B
:10012000882D0000A82D0000103A24BF78C878C19F
:10013000FAD8520724BF30C830C144BF04680C60ED
:10014000704700000023002400250026103A28BF35
:1001500078C1FBD8520728BF30C148BF0B60704739
:100160001FB5AFF300801FBD10B510BD02F0C0FD7C
:100170001146FFF7F5FF00F007F802F0DEFDFFF78C
:10018000F3FF00F089FF000010B500F007FF4FF407
:10019000165000F08FFF00F0C5FC02E01DA002F039
:1001A00069FD00F08BF90028F8D100F05AF9012020
:1001B00000F07CFA022000F0DCF9002017490870FA
:1001C0001749086025E000F0EFFA044634B1012C2D
:1001D00007D0022C0CD0032C18D110E000F007FE41
:1001E00015E000F0E0FD4FF4FA7000F00EFF0EE0B5
:1001F00000F0F2FD4FF4FA7000F007FF07E000F0A6
:10020000E1FD4FF4FA7000F000FF00E000BF00BF16
:1002100000BFD8E76572726F72210A0000400020AB
:10022000AC012142704700BFFEE700BFFEE700BF00
:10023000FEE700BFFEE77047704770477047000059
:1002400000200021674A126842F48032654B1A6030
:1002500000BF644A126802F40031401C11B9B0F5C5
:10026000A06FF6D15F4A126812F4003F01D001215D
:1002700000E00021012942D15B4A126842F01002DD
:10028000594B1A601A46126822F003021A601A4685
:10029000126842F002021A60524A5268514B5A6088
:1002A0001A4652685A601A46526842F480625A608E
:1002B0001A46526822F47C125A601A46526842F476
:1002C000E8125A601A46126842F080721A6000BF43
:1002D000444A126812F0007FFAD0424A526822F073
:1002E0000302404B5A601A46526842F002025A60BA
:1002F00000BF3C4A526802F00C02082AF9D170474C
:1003000010B5FFF79DFF10BD10B53648006840F0EE
:1003100001003449086008464068344908403149C2
:10032000486008460068324908402E49086008467F
:10033000006820F4802008600846406820F4FE0031
:1003400048604FF41F008860FFF7DAFF4FF000505D
:100350002849086010BD10B5002000210022214B63
:100360005B6803F00C0020B1042806D0082828D1CF
:1003700007E0214B214C236027E01F4B1F4C2360DB
:1003800023E0184B5B6803F47011164B5B6803F4B1
:100390008032022303EB914122B9194B4B43174C96
:1003A00023600DE00F4B5B6813F4003F04D0144B47
:1003B0004B43124C236003E00F4B4B430F4C236025
:1003C00003E00D4B0D4C236000BF00BF054B5B6885
:1003D000C3F303130B4CE05C084B1B68C340074C92
:1003E000236010BD00100240002002400000FFF812
:1003F000FFFFF6FE08ED00E000127A000440002046
:1004000000093D000840002010B54FF4004001F005
:1004100063FD012820D12648007802281CDA2448F0
:10042000007850B900202349086001202249C1F812
:10043000800120493031086009E000201D49303139
:1004400008601D49C1F8800101201A490860184858
:100450000078401C164908704FF4004001F04DFD33
:1004600010BD0EB50F21002001F0B9F8012000F0F9
:10047000FBFD4FF40040019000208DF808000C2097
:100480008DF8090001208DF80A0001A801F0B8FCE0
:1004900028208DF8000000208DF8010001208DF843
:1004A00002008DF80300684600F0BFFE0EBD00009C
:1004B00000400020800121420000214238B5002583
:1004C00001210D2001F026FA4FF40040ADF80000A4
:1004D00048208DF8030003208DF802006946ED489E
:1004E00000F06EFF41F61300ADF8000010208DF80B
:1004F00003006946E74800F063FF41F61301E54851
:1005000001F006F84FF08830E3490860012000F060
:10051000ABFD00F0CDF98021122000F0B6FA08B151
:10052000012038BD322000F070FD0B2000F0CCFA25
:100530000446732C01D00220F3E70A2000F0C4FA2D
:100540000446762C01D00220EBE700250DE0D34ACB
:1005500002EB45025178D14A12F8150000F095FAE5
:10056000022000F052FD681C85B2552DEFD300200B
:10057000D7E72DE9F0410446E72500260027012CA6
:1005800006D0022C08D0032C0AD0042C10D10BE08A
:10059000E5255A265C270BE0E5255826602707E06D
:1005A000E52584264C2703E0E5259626402700BF55
:1005B00000BF2946132000F068FA3146012000F000
:1005C00064FA3946022000F060FABDE8F0812DE9B6
:1005D000F0410446802522265E2734B1012C08D044
:1005E000032C0AD0042C10D10BE0402511262F2714
:1005F0000BE066251B264B2707E099252826712747
:1006000003E0C02533268D2700BF00BF29464F20B9
:1006100000F03BFA2946502000F037FA0021512023
:1006200000F033FA3146522000F02FFA39465320B9
:1006300000F02BFA2946542000F027FA9E2158207A
:1006400000F023FABDE8F08170B50446002534B10E
:10065000012C06D0032C06D0042C08D105E0B025CF
:1006600005E0982503E0182501E0302500BF00BF14
:100670002946552000F009FA70BD70B504464025A2
:1006800034B1012C06D0032C06D0042C08D105E08F
:10069000302505E0382503E0502501E0602500BF46
:1006A00000BF2946562000F0F0F970BD2DE9F04159
:1006B00004460425C0268027072C1DD2DFE804F05D
:1006C0001C04080C1014180024258026802713E031
:1006D0001425802680270FE01425C02680270BE0F4
:1006E00014254026402707E014258026C02703E074
:1006F0001425A026402700BF00BF29463A2000F05D
:10070000C4F93146682000F0C0F93946672000F08E
:10071000BCF9BDE8F0812DE9F04704460D461646C8
:100720001F4604EB46001FFA80F805EB47001FFA4E
:1007300080F9B9F5447F03DDA9F544701FFA80F90B
:10074000032000F0C1F982460AF0F00A08F0030124
:10075000204661F39F0040EA0A0A5146032000F058
:1007600094F9C4F38701192000F08FF9C8F38701C9
:100770001A2000F08AF9322000F0A6F982460AF029
:10078000C00A09F00701284661F3DF0040EA0A0ABF
:10079000C5F3C701172000F078F9C9F3C701182085
:1007A00000F073F9BDE8F087F0B5002200240025C1
:1007B000002600203A4F3F78022F6AD10027DFF849
:1007C000E4C0CCF89071CCF884710127CCF8847126
:1007D0000027CCF884710127CCF89071CCF8847193
:1007E000002138E00027DFF8BCC0CCF884712A4F24
:1007F00008373F68FBB20127CCF884711B02002741
:10080000CCF88471284FD7F8087CFFB23B4301270E
:10081000CCF88471254F37F812708F421AD13C2AD8
:1008200018DC142A05DA13F4004F11D16F1CFDB245
:100830000EE0282A05DA13F4004F09D0671CFCB239
:1008400006E03C2A04DA13F4004F01D1771CFEB213
:10085000571CFAB2491CB1F5963FC3D30027DFF805
:1008600040C08CF8007000220D2C01DC002010E04C
:100870000D2C04DD0D2D02DD0D2E00DD01200D2DD2
:1008800002DC0D2E00DD02200D2D02DD0D2E00DC20
:100890000320F0BD00080140000C0140502D002055
:1008A00000400020000021420000014018400020CC
:1008B00008B50121102001F02DF83020ADF800001E
:1008C00010208DF8030003208DF80200694692483D
:1008D00000F076FD3021904800F01AFE8E48006846
:1008E00020F470008C4908600846006840F440100D
:1008F000086008BD10B50120884908608849C1F822
:100900009001322000F05FFB002084490860322013
:1009100000F059FB00208249C1F8900110BD10B5CC
:1009200000207E490860322000F04DFB01207C4908
:10093000C1F89001322000F046FB012077490860A1
:10094000322000F040FB10BD10B5322000F03BFB20
:100950000120724908607249C1F89001322000F00C
:1009600032FB00206D49091F0860322000F02BFB8C
:1009700000206B49C1F89401322000F024FB10BD27
:1009800070B5044600251BE014F0800F03D0012051
:100990006249086002E00020604908606006040EB9
:1009A000322000F010FB01205C49091F0860322052
:1009B00000F009FB00205A49C1F89001681CC5B23B
:1009C000082DE1DB5448006820F4700052490860AB
:1009D0000846006840F400000860322000F0F3FA96
:1009E00001204E49091F0860322000F0ECFA4C4803
:1009F000D0F8140108B1012600E000260020474984
:100A0000091F08604448006820F4700042490860EB
:100A10000846006840F440100860304670BD70B56C
:100A200000243D48006820F470003B4908600846F7
:100A3000006840F400000860082517E0322000F04C
:100A4000C2FA01203549091F08606006040E3448C7
:100A5000D0F8140108B1601CC4B2322000F0B3FA1F
:100A600000202E49091F0860681EC5B2002DE5DC74
:100A70002948006820F4700027490860084600688B
:100A800040F440100860204670BD70B504460D4625
:100A90000026FFF72FFF4220FFF772FF00B101266B
:100AA000642000F090FA2046FFF76AFF00B10126AB
:100AB000642000F088FA2846FFF762FF00B10126A3
:100AC000FFF72DFF304670BD70B504460025FFF7D7
:100AD00011FF4220FFF754FF642000F074FA204613
:100AE000FFF74EFF642000F06EFAFFF718FF642056
:100AF00000F069FAFFF7FEFE4320FFF741FF642094
:100B000000F061FAFFF78BFF0546FFF71DFFFFF7C7
:100B100006FF284670BD00000010014094012242EB
:100B20000000224208B50121042000F0F3FE01215B
:100B3000084600F0EFFE0121102000F0EBFE4FF41C
:100B4000E470ADF8000010208DF8030003208DF84C
:100B500002006946A94800F033FC43F60200ADF8F4
:100B6000000010208DF8030003208DF80200694674
:100B7000A34800F025FC4FF4E471A04800F0CAFC43
:100B800043F602019E4800F0C5FC40F60F61C82004
:100B900000F09FF940F60F61C82000F039F908BD58
:100BA00010B59848407810B1012814D109E0964852
:100BB0000068401C94490860082801DB0020086098
:100BC0000AE091480068401E8F490860082801DB50
:100BD0000720086000E000BF00BF8B4800680828BD
:100BE00058D2DFE800F0040E18222C36414C4FF4A6
:100BF000E471824800F08EFC0821804800F088FCF7
:100C000049E04FF4E4717D4800F084FC88217B4882
:100C100000F07EFC3FE04FF4E471784800F07AFC8D
:100C20008021764800F074FC35E04FF4E47173489D
:100C300000F070FCC021714800F06AFC2BE04FF41A
:100C4000E4716E4800F066FC40216C4800F060FCE6
:100C500021E04FF4E471694800F05CFC4FF4A071AE
:100C6000664800F055FC16E04FF4E471634800F06C
:100C700051FC4FF48071614800F04AFC0BE04FF4E6
:100C8000E4715E4800F046FC4FF484715B4800F06C
:100C90003FFC00E000BF00BF10BD10B55B484078CE
:100CA00010B1012818D10BE05748001D0068401C06
:100CB0005549091D0860082801DB002008600CE088
:100CC0005148001D0068401E4F49091D0860082852
:100CD00001DB0720086000E000BF00BF4A48001D9C
:100CE000006808285CD2DFE800F0040F1A25303BCA
:100CF000465043F60201424800F00CFC4FF400510C
:100D00003F4800F005FC4CE043F602013C4800F08F
:100D100001FC4FF440513A4800F0FAFB41E043F641
:100D20000201374800F0F6FB4FF48051344800F0E0
:100D3000EFFB36E043F60201314800F0EBFB4FF4E5
:100D4000C0512F4800F0E4FB2BE043F602012C4891
:100D500000F0E0FB4FF40061294800F0D9FB20E0EF
:100D600043F60201264800F0D5FB40F60201244874
:100D700000F0CEFB15E043F60201214800F0CAFB6B
:100D800002211F4800F0C4FB0BE043F602011C489F
:100D900000F0C0FB42F20201194800F0B9FB00E08C
:100DA00000BF00BF10BD0020184948700120087026
:100DB0001420486000201349487001200870142056
:100DC0004860704700200F490870104948700120A2
:100DD000087014204860704700200A4948700120BC
:100DE00008701420486000200849087070470020EF
:100DF0000449087005490870704700000008014068
:100E000000100140B840002090400020C840002061
:100E10007FB504460D460121084600F088FDADF877
:100E20000840ADF804500020ADF80A00ADF8060007
:100E300001A94FF0804001F03FF9012241218807CC
:100E400001F086FC4FF4C06000F0EAF91C208DF838
:100E5000000000208DF8010002208DF80200012022
:100E60008DF80300684600F0E0F90121880701F0E1
:100E70004AFC7FBD10B50121880701F0E6FE00287D
:100E800026D00121880701F0F1FE4148007810B119
:100E9000012808D104E000203D494860886003E053
:100EA000FFF77EFE00E000BF00BF39480078012850
:100EB0000ED137488068401C3549886008468068F4
:100EC0004968884204D3002031490870886048602E
:100ED00010BD7FB504460D460121022000F027FD1C
:100EE000ADF80840ADF804500020ADF80A00ADF8A8
:100EF000060001A9274801F0DFF801224121254819
:100F000001F026FC00F0AAF81D208DF8000000205A
:100F10008DF8010003208DF8020001208DF80300F8
:100F2000684600F082F901211A4801F0ECFB7FBD10
:100F300010B50121174801F088FE002826D00121B4
:100F4000144801F093FE1448007810B1012808D12C
:100F500004E0002010494860886003E0FFF79DFE30
:100F600000E000BF00BF0C48007801280ED10A48FD
:100F70008068401C08498860084680684968884243
:100F800004D30020044908708860486010BD000048
:100F9000B840002000040040C840002010B56FF0A9
:100FA000040000F08FF92A4800682A49B0FBF1F0EC
:100FB00029490870084600784FF47A714843264959
:100FC000891C088010BD244A127842434FF0E02368
:100FD0005A6100229A611A46126942F001021A61AE
:100FE00000BF4FF0E022116911F0010F02D011F49F
:100FF000803FF6D04FF0E022126922F001024FF05C
:10100000E0231A6100229A617047134A921C1288E9
:1010100042434FF0E0235A6100229A611A46126956
:1010200042F001021A6100BF4FF0E022116911F095
:10103000010F02D011F4803FF6D04FF0E022126988
:1010400022F001024FF0E0231A6100229A617047FA
:101050000440002000127A009840002010B54FF4A0
:10106000C06000F0DDF810BD014608464906084A98
:10107000926942F00102064B9A61064A526822F0D8
:10108000E062044B5A601A4652680A435A6070473D
:101090000010024000000140014600BF704700BF41
:1010A0004B4A128812F0400FFAD0C2B2484B1B1DB7
:1010B0001A80704710B586B00446012144F204003E
:1010C00000F028FC424800F087FC4FF40070ADF8B7
:1010D000140003208DF8160018208DF8170005A9BC
:1010E0003C4800F06DF94FF48060ADF81400042026
:1010F0008DF8170005A9374800F062F925208DF812
:10110000000003208DF801008DF8020001208DF809
:101110000300684600F089F801940020ADF808004B
:10112000ADF80A00ADF80C00ADF810000C20ADF8D9
:101130000E0001A9264800F092FC012240F2255140
:10114000234800F023FD0121214800F013FD06B0E3
:1011500010BD10B540F225511D4800F0FEFD0028DD
:1011600034D01B4800F079FDC4B21B48008810F44D
:10117000004F2BD11848008810F4804F0CD00A2C57
:1011800003D000201449088020E01348008840F470
:1011900000401149088019E00D2C06D10E48008846
:1011A00040F480400C49088010E00B480088C0F3F0
:1011B0000D000A490C5408480088401C0649088064
:1011C00008460088C72801DD0020088010BD000007
:1011D00000380140000801409C400020D840002019
:1011E0000948804709480047FEE7FEE7FEE7FEE7BB
:1011F000FEE7FEE7FEE7FEE7FEE7FEE704480549F7
:10120000054A064B7047000009030020ED0000204E
:10121000004200200048002000440020004400203C
:1012200032490143324A1160704770B500210023F2
:101230000F22C4780CB32E4C246804F4E064C4F587
:10124000E064210AC1F10403CA40447804FA03F1BE
:101250008478144021430901264C0678A15504786E
:1012600004F01F050124AC4005786D114FF0E02615
:1012700006EB8505C5F8004109E0047804F01F0479
:101280000125A5401C4C0678761144F8265070BD07
:101290001A4A0A400243164B1B1F1A60704741B19D
:1012A000134A121D126802434FF0E023C3F8102DB9
:1012B00007E00F4A121D126882434FF0E023C3F883
:1012C000102D7047042808D14FF0E021096941F042
:1012D00004014FF0E022116107E04FF0E0210969BD
:1012E00021F004014FF0E022116170470000FA057F
:1012F0000CED00E000E400E080E100E080FFFF1F73
:1013000010B50446C748844208D10121042000F0EA
:101310001BFB0021042000F017FB46E0C24884427A
:1013200008D10121082000F00FFB0021082000F067
:101330000BFB3AE0BD48844208D10121102000F0A7
:1013400003FB0021102000F0FFFA2EE0B848844291
:1013500008D10121202000F0F7FA0021202000F020
:10136000F3FA22E0B348844208D10121402000F082
:10137000EBFA0021402000F0E7FA16E0AE48844284
:1013800008D10121802000F0DFFA0021802000F048
:10139000DBFA0AE0A948844207D10121801500F058
:1013A000D3FA0021A01500F0CFFA10BD10B501212D
:1013B000084600F0C9FA0021012000F0C5FA10BD6E
:1013C000F0B500220023002400250026002791F814
:1013D00003C00CF00F0291F803C01CF0100F03D0F3
:1013E00091F802C04CEA0202B1F800C01CF0FF0FF5
:1013F00031D0066800242BE04FF0010C0CFA04F504
:10140000B1F800C00CEA0503AB4220D1A5004FF0B3
:101410000F0C0CFA05F7BE4302FA05FC4CEA06066F
:1014200091F803C0BCF1280F06D14FF0010C0CFA63
:1014300004FCC0F814C00AE091F803C0BCF1480FE6
:1014400005D14FF0010C0CFA04FCC0F810C0641C6C
:10145000082CD1D30660B1F800C0BCF1FF0F34DD19
:10146000466800242EE004F1080C4FF0010E0EFA3D
:101470000CF5B1F800C00CEA0503AB4221D1A50080
:101480004FF00F0C0CFA05F7BE4302FA05FC4CEACC
:10149000060691F803C0BCF1280F05D104F1080C31
:1014A0000EFA0CFEC0F814E091F803C0BCF1480F2E
:1014B00007D104F1080C4FF0010E0EFA0CFEC0F833
:1014C00010E0641C082CCED34660F0BD4FF6FF71CF
:1014D0000180022181700421C17070470246002002
:1014E00093680B4201D0012000E0002070470146C4
:1014F000886880B2704702460020D3680B4201D052
:10150000012000E0002070470146C86880B27047A3
:1015100001617047416170470AB1016100E04161BA
:101520007047C16070474FF480320A438261816125
:1015300082618269826970470022414B1A684FF6C6
:1015400080731A4042EA00120A433D4B1A6070470A
:101550003C49C8617047F0B50022002300240025F3
:1015600000F00046B6F1004F02D1354EF46901E0BB
:10157000334E7468C0F3034582B200F44016B6F5EA
:10158000401F08D124F070642D4E766826F07066F6
:101590002B4F7E6012E000F48016B6F5801F06D156
:1015A000032606FA05F39C4344F0706406E0460DFA
:1015B000360102FA06F6B44344F0706421B1460DD8
:1015C000360102FA06F6344300F00046B6F1004F49
:1015D00002D11B4EF46101E0194E7460F0BD30B5CC
:1015E00000228B071C0F0F2303FA04F2144B08335D
:1015F0008C1053F8244094438D1043F825408C10F0
:1016000053F824308C07240F00FA04F423430C4CC5
:1016100008348D1044F8253030BD0A49DC310860AB
:101620007047000000080140000C0140001001401C
:101630000014014000180140001C0140002001403E
:101640000000014000002042DB48006840F001003B
:10165000D949086008464068D8490840D6494860DA
:1016600008460068D6490840D34908600846006823
:1016700020F4802008600846406820F4FE0048609E
:101680004FF41F0088607047CB49096821F480310E
:10169000C94A11601146096821F480211160B0F532
:1016A000803F03D0B0F5802F0ED106E0C249096813
:1016B00041F48031C04A116007E0BF49096841F434
:1016C000A021BD4A116000E000BF00BF704710B507
:1016D00001460022002300204A11012A02D1B64C03
:1016E000236806E0022A02D1B34C236A01E0B24C1F
:1016F000636A01F01F02012494401C4201D00120C2
:1017000000E0002010BD70B500240025002600BFB9
:101710003120FFF7DCFF0646641CB4F5A06F01D052
:10172000002EF5D03120FFF7D2FF08B1012500E0EF
:101730000025284670BD00219F4A116821F0F8015C
:1017400041EAC001116070479E490860704700225D
:10175000994B5A6822F47C1240EA01031A43964BD3
:101760005A6070479749086670470021924A51684D
:1017700021F003010143516070478F48406800F039
:101780000C00704700218C4A516821F0F0010143A0
:10179000516070470021884A516821F4E06101439B
:1017A000516070470021844A516821F4605141EA38
:1017B000C0015160704729B17F4A527A02437E4B83
:1017C0005A7206E07C4A527AC343DBB21A407A4B23
:1017D0005A7270477B49D831086070470021764AB9
:1017E000516821F440410143516070470021724A21
:1017F00020321170704A82F82010012802D004288B
:101800000AD104E001216C4A2032117005E0052163
:10181000694A2032117000E000BF00BF70476A497A
:10182000086070476449096A0143634A116270475E
:10183000654944390860704730B500210022002313
:1018400000245D4D6D6805F00C0121B1042905D01F
:10185000082923D105E05D4D056022E05B4D056060
:101860001FE0554D6D6805F47012534D6D6805F419
:101870008033022505EB92421BB9554D5543056057
:101880000BE04D4D6D6815F4003F03D0504D5543AE
:10189000056002E04D4D5543056002E04B4D05608B
:1018A00000BF00BF444D6D6805F0F0010909494DC6
:1018B0006C5C0568E54045603F4D6D6805F4E0618E
:1018C000090A444D6C5C4568E54085603A4D6D6899
:1018D00005F46051C90A3F4D6C5C4568E540C56040
:1018E000354D6D6805F44041890B3A4D10356C5CFF
:1018F000C568B5FBF4F5056130BD29B12E4A5269C2
:1019000002432D4B5A6104E02B4A526982432A4B11
:101910005A61704729B1284A92690243264B9A615D
:1019200004E0254A92698243234B9A61704729B1AA
:10193000214AD2690243204BDA6104E01E4AD2698F
:1019400082431D4BDA61704729B11B4AD2680243BA
:10195000194BDA6004E0184AD2688243164BDA6009
:10196000704729B1144A12690243134B1A6104E00B
:10197000114A12698243104B1A617047124940396B
:10198000086070470F49C86470470B49C8717047B9
:101990000948406A40F08070074948627047014634
:1019A0000020054A92680A4201D0012000E0002090
:1019B0007047014988727047001002400000FFF82C
:1019C000FFFFF6FE000042428004424200127A000D
:1019D00000093D00A440002010B50446FB488442A5
:1019E00009D101218803FFF7AFFF00214FF48040A8
:1019F000FFF7AAFF32E0F648844209D101214804EA
:101A0000FFF7AFFF00214FF40030FFF7AAFF25E0FA
:101A1000F048844209D101218804FFF7A2FF002188
:101A20004FF48020FFF79DFF18E0EB48844209D176
:101A30000121C804FFF795FF00214FF40020FFF7B4
:101A400090FF0BE0E548844208D101210805FFF72B
:101A500088FF00214FF48010FFF783FF10BD2DE9B0
:101A6000F04786B004460D460026002700BFB14669
:101A7000B246A88900B100BFA246268A4CF6FF7084
:101A80000640E88806432682A6894EF6F3100640F3
:101A9000A88829890843698908430643A681A68A3C
:101AA0004FF6FF400640A8890643A68201A8FFF72B
:101AB000C3FE5446C548824501D1049F00E0039F00
:101AC000A08910F4004F08D007EBC70000EB071007
:101AD00029684900B0FBF1F807E007EBC70000EB0D
:101AE000071029688900B0FBF1F86420B8FBF0F01A
:101AF00006013009642101FB1089A08910F4004F10
:101B000009D0322101EBC9006421B0FBF1F000F0F3
:101B10000700064308E0322101EB09106421B0FB05
:101B2000F1F000F00F000643268106B0BDE8F08713
:101B30004FF41651016000218180C18001810C2188
:101B4000418100218181704710B50022028A4FF245
:101B5000FF031A400B884C8823438C882343CC888E
:101B600023431A43028210BD0021018041808180FD
:101B7000C180704721B1828942F40052828104E021
:101B800082894DF6FF731A4082817047F0B50024B8
:101B9000002500260023A1F510676A3F00D100BF91
:101BA0000346C1F3421401F01F05012707FA05F6A9
:101BB000012C01D10C3304E0022C01D1103300E0E0
:101BC00014331AB11F6837431F6002E01F68B74320
:101BD0001F60F0BD10B51AB1838A0B43838204E005
:101BE000838ACC43A4B22340838210BD028A4FF67D
:101BF000F0731A400282028A0A4302827047828985
:101C00004FF2FF731A40828182890A4382817047B2
:101C100021B1828942F00202828104E082894FF67A
:101C2000FD731A4082817047028A4FF6DF731A40B3
:101C30000282028A0A430282704721B1028A42F478
:101C40008042028204E0028A4BF6FF731A4002824D
:101C50007047C1F308028280704701468888C0F34C
:101C600008007047818941F0010181817047028B32
:101C7000D2B20283028B42EA012202837047028BB6
:101C800002F47F420283028B0A430283704721B130
:101C9000828A42F02002828204E0828A4FF6DF7359
:101CA0001A408282704721B1828A42F010028282F9
:101CB00004E0828A4FF6EF731A408282704721B1A6
:101CC000828A42F00802828204E0828A4FF6F77329
:101CD0001A408282704721B1828942F40042828197
:101CE00003E08289C2F30E028281704721B1828AA9
:101CF00042F40062828204E0828A4FF2FF731A404B
:101D000082827047828A4FF6FB731A408282828AEF
:101D10000A438282704721B1828A42F002028282A3
:101D200004E0828A4FF6FD731A40828270470246B1
:101D30000020B1F5007F00D100BF13880B4201D015
:101D4000012000E00020704701F40072B2F5007F2E
:101D500000D100BFCA430280704770B5024600231D
:101D6000002400250020A1F510666A3E00D100BFC6
:101D7000C1F3421501F01F04012606FA04F4012DF7
:101D800002D19689344006E0022D02D1168A3440F1
:101D900001E0968A34400B12012606FA03F31688F6
:101DA000334014B10BB1012000E0002070BD10B52C
:101DB00000220023A1F510646A3C00D100BF0A1282
:101DC00001249440A3B2DC43048010BD00380140DC
:101DD0000044004000480040004C004000500040DB
:101DE0000020484908604849C1F8040445490831C1
:101DF0000860091D08604548424914310860704771
:101E0000002140498279002A40D03F4AD2F800247C
:101E100003689A433C4BC3F800241A46D2F80424C2
:101E200003689A430B1D1A60027911440A6803681B
:101E30001A430A60344AD2F8082403689A43324BA2
:101E4000C3F808241A46D2F80C2403689A432D4B91
:101E50000C331A604279102A10D12B4AD2F8082488
:101E600003681A43284BC3F808241A46D2F80C24F6
:101E700003681A43244BC3F80C240DE0214942792E
:101E800011440A6803681A430A6005E002791144A4
:101E90000A6803689A430A60704700210160017173
:101EA0000C21417100218171704716491031096878
:101EB0000143154AC2F81014704701460020114A28
:101EC000143212680A4201D0012000E0002070475D
:101ED0000C49143108607047014600200022094B6C
:101EE0001B6803EA0102084BD3F814340B4202D0FA
:101EF0000AB1012000E00020704702491431086057
:101F0000704700000004014000000140FFFF0F0087
:101F100010B50446FF48844208D10121C014FFF7E0
:101F200013FD0021E014FFF70FFDC4E0B4F1804F72
:101F300008D101210846FFF714FD00210120FFF719
:101F400010FDB8E0F448844208D101210220FFF7D7
:101F500008FD00210220FFF704FDACE0EF488442B9
:101F600008D101210420FFF7FCFC00210420FFF729
:101F7000F8FCA0E0EA48844208D101210820FFF7DC
:101F8000F0FC00210820FFF7ECFC94E0E5488442D7
:101F900008D101211020FFF7E4FC00211020FFF7F9
:101FA000E0FC88E0E048844208D101212020FFF7CE
:101FB000D8FC00212020FFF7D4FC7CE0DB488442E1
:101FC00008D101214014FFF7BFFC00216014FFF786
:101FD000BBFC70E0D648844209D10121C804FFF758
:101FE000B3FC00214FF40020FFF7AEFC63E0D148C2
:101FF000844209D101210805FFF7A6FC00214FF416
:102000008010FFF7A1FC56E0CB48844209D10121A2
:102010004805FFF799FC00214FF40010FFF794FCEE
:1020200049E0C648844208D101214020FFF799FCCD
:1020300000214020FFF795FC3DE0C148844208D1D3
:1020400001218020FFF78DFC00218020FFF789FC13
:1020500031E0BC48844208D101218015FFF781FCA2
:102060000021A015FFF77DFC25E0B748844209D187
:1020700001210804FFF768FC00214FF48030FFF7CE
:1020800063FC18E0B148844209D101214804FFF7FC
:102090005BFC00214FF40030FFF756FC0BE0AC482E
:1020A000844208D101218804FFF74EFC00214FF43F
:1020B0008020FFF749FC10BD00220288954B984212
:1020C0000ED09A4B98420BD0B0F1804F08D0924B73
:1020D000984205D0914B984202D0914B984204D13E
:1020E0004FF68F731A404B881A438E4B984207D095
:1020F0008D4B984204D04FF6FF431A40CB881A43C9
:1021000002808B8883850B880385824B98420BD095
:10211000864B984208D08C4B984205D08B4B984206
:1021200002D08B4B984201D10B7A03860123838224
:10213000704770B5002200230024058C4FF6FE7610
:1021400035400584038C8488028B4FF68F752A40B6
:10215000B51E2A400D882A43751E2B400D892B433E
:102160004D882B436B4DA8420BD0704DA84208D030
:10217000754DA84205D0754DA84202D0744DA842B5
:1021800013D14FF6F7752B404D892B434FF6FB7556
:102190002B408D882B434FF6FF652C404FF6FF55A3
:1021A0002C408D892C43CD892C4384800283CD889B
:1021B0008586038470BD70B5002200230024058C41
:1021C0004FF6EF7635400584038C8488028B48F601
:1021D000FF752A404FF6FF452A400D882D0642EA3A
:1021E00015424FF6DF752B400D892D0543EA154347
:1021F0004D882D0543EA1543464DA84202D04B4D6C
:10220000A8421BD14FF67F752B404D892D0543EA1F
:1022100015434FF6BF752B408D882D0543EA1543B6
:102220004FF6FF352C404FF2FF752C408D89AD04E1
:1022300044EA1544CD89AD0444EA15448480028300
:10224000CD880587038470BD70B50022002300246B
:10225000058C4FF6FF6635400584038C8488828B9D
:102260004FF68F752A404FF6FC752A400D882A4399
:102270004FF6FF552B400D892D0643EA15434D8837
:102280002D0643EA1543234DA84202D0274DA8420C
:102290001BD14FF2FF752B404D892D0643EA1543A4
:1022A0004FF6FF352B408D882D0643EA15434EF639
:1022B000FF752C404DF6FF752C408D892D0544EAA5
:1022C0001544CD892D0544EA154484808283CD8848
:1022D0008587038470BD70B5002200230024058C1F
:1022E0004EF6FF7635400584038C8488828B48F651
:1022F000FF752A404FF6FF452A400D882D0642EA19
:1023000015424DF6FF752B400D892D0743EA154305
:102310004D881FE0002C01400004004000080040F0
:10232000000C004000100040001400400034014048
:10233000004C014000500140005401400018004092
:10234000001C0040002000400040014000440140CB
:10235000004801402D0743EA1543F84DA84202D03A
:10236000F74DA84206D14BF6FF752C408D89AD057F
:1023700044EA154484808283CD88A0F840500384C9
:1023800070BD828B4FF2FF331A408283828B0B0623
:1023900042EA134282837047F0B5002400250026EC
:1023A000078C4EF6FF7C07EA0C070784848B058CAC
:1023B0000F073E0C40F6FF473C40170644EA17441F
:1023C0001F0744EA1744DD4FB8420ED0DC4FB84235
:1023D0000BD0B0F1804F08D0DA4FB84205D0DA4FB9
:1023E000B84202D0D94FB84206D14DF6FF773D40F2
:1023F00046F480573D4305E047F6FF573D4041F422
:1024000080573D4384830584F0BD828B4FF6F37380
:102410001A408283828B0A4382837047F0B500247E
:1024200000250026078C4FF6FF6C07EA0C0707848F
:10243000848B058C0F063E0C4FF60C773C401F0535
:1024400042EA17473C43BD4FB8420ED0BC4FB8429A
:102450000BD0B0F1804F08D0BA4FB84205D0BA4F78
:10246000B84202D0B94FB84206D14FF6FF573D40AF
:1024700046F480773D4305E04FF2FF573D4041F47D
:1024800080773D4384830584F0BD028B4FF2FF3398
:102490001A400283028B0B0642EA13420283704702
:1024A000F0B5002400250026078C4FF6EF7C07EAE4
:1024B0000C070784048B058C0F053E0C40F6FF4784
:1024C0003C401F0744EA1744170644EA17449B4F51
:1024D000B8420ED09A4FB8420BD0B0F1804F08D01E
:1024E000984FB84205D0984FB84202D0974FB842A3
:1024F00006D14FF6DF773D4046F010073D4305E03B
:102500004FF65F773D4041F010073D43048305845B
:10251000F0BD028B4FF6F3731A400283028B0A431D
:1025200002837047F0B500240025068C4FF6FE7735
:102530003E400684048B058C4FF60C7634401E0515
:1025400042EA164634437D4EB0420ED07C4EB04235
:102550000BD0B0F1804F08D07A4EB04205D07A4E01
:10256000B04202D0794EB04206D14FF6FD763540EA
:1025700041F00106354305E04FF6F576354041F070
:102580000106354304830584F0BD70B504460D464D
:102590006A4884420ED06A4884420BD0B4F1804F1E
:1025A00008D06848844205D06748844202D0674812
:1025B000844200D100E000BF288850B92B89AA8846
:1025C00069882046FFF7AEFFE9882046FFF7A1FFA4
:1025D00025E0288804280AD12B89AA886988204602
:1025E000FFF75EFFE9882046FFF74FFF17E02888D6
:1025F00008280AD12B89AA8869882046FFF70EFF90
:10260000E9882046FFF701FF09E02B89AA8869883D
:102610002046FFF7C1FEE9882046FFF7B2FE70BDF5
:102620002DE9F04104460D4600260127688808B9C7
:10263000022600E00026A888012801D1022700E038
:1026400001272888A0B92B89AA8869882046FFF726
:1026500069FFE9882046FFF75CFF2B893A4631463F
:102660002046FFF71DFFE9882046FFF70EFF13E025
:102670002B89AA8869882046FFF712FFE98820463F
:10268000FFF703FF2B893A4631462046FFF74AFF02
:10269000E9882046FFF73DFFBDE8F0810A884B88B6
:1026A0001A438B881A43CB881A430B891A434B89E8
:1026B0001A438B891A43A0F8442070474FF6FF71E4
:1026C000818000210180C18041800172704700211A
:1026D000018041808180C180018141818181C181EE
:1026E0007047002101804180012181800021C1804B
:1026F000018170470021018041808180C18001817A
:1027000041818181704721B1028842F0010202803B
:1027100004E002884FF6FE731A400280704731B120
:10272000B0F8442042F40042A0F8442005E0B0F89C
:102730004420C2F30E02A0F844207047002C014050
:10274000003401400004004000080040000C00403C
:1027500010B51AB183890B43838104E08389CC438C
:10276000A4B22340838110BD8182704741EA0203F5
:10277000A0F84830704710B51AB183890B438381A4
:1027800004E08389CC43A4B22340838110BD018936
:102790004FF6F872114001817047002202894FF60E
:1027A0008F731A400A430281704730B504460D46C4
:1027B00029462046FFF7F1FF208940F007002081DD
:1027C00030BD2DE9F04104460D4616461F46602DEA
:1027D00006D13B46012231462046FFF761FE05E067
:1027E0003B46012231462046FFF79CFE2946204603
:1027F000FFF7D3FF208940F007002081BDE8F0817A
:1028000030B500240489E4B21D0642EA15450D43A3
:102810002C43048130BD2DE9F04104460D46164697
:10282000984600274346324629462046FFF7E8FFF0
:1028300027894FF6F870074047F007074FF68F706B
:10284000074047F070072781BDE8F081F0B50446E6
:102850000D4616461F463B46324629462046FFF7A0
:10286000CFFF208940F480402081F0BD0185828225
:102870007047002202884FF68F731A400A43028085
:102880007047F0B50024002500260489058B068CCE
:102890004FF6F8773C400C434FF6FC473D4040F282
:1028A00001173D434FF6DD773E401F0542EA1747CB
:1028B0003E43048105830684F0BD0022028B4FF65F
:1028C0008F731A400A43028370470022028B48F636
:1028D000FF731A400B0642EA13420283704700223C
:1028E000828B4FF68F731A400A438283704700220F
:1028F000828B48F6FF731A400B0642EA134282832A
:10290000704721B1028842F08002028004E0028810
:102910004FF67F731A400280704721B1828842F0DF
:102920000402828004E082884FF6FB731A408280A2
:10293000704721B1828842F00802828004E08288D8
:102940004FF6F7731A408280704721B1828842F0B7
:102950000102828004E082884FF6FE731A40828072
:1029600070470022028B4FF6F7731A400A43028326
:1029700070470022028B4FF2FF731A400B0642EAA7
:102980001342028370470022828B4FF6F7731A407E
:102990000A43828370470022828B4FF2FF731A40F2
:1029A0000B0642EA1342828370470022028B4FF6E5
:1029B000FB731A400A43028370470022028B4FF6D2
:1029C000FF331A400B0642EA13420283704700228B
:1029D000828B4FF6FB731A400A43828370470022B2
:1029E000828B4FF6FF331A400B0642EA1342828372
:1029F00070470022028B4FF67F731A400A4302830E
:102A000070470022028BC2F30E020B0642EA134209
:102A1000028370470022828B4FF67F731A400A436D
:102A2000828370470022828BC2F30E020B0642EAB9
:102A30001342828370470022028C4FF6FD731A40C6
:102A40000A43028470470022028C4FF6F7731A4043
:102A50000A43028470470022028C4FF6DF731A404B
:102A60000B0542EA1342028470470022028C4FF6A3
:102A70007F731A400B0542EA13420284704700221A
:102A8000028C4FF6FF531A400B0642EA13420284AF
:102A900070470022028C4FF2FF731A400B0642EA85
:102AA0001342028470470022028C4DF6FF731A40D5
:102AB0000B0742EA13420284704730B50023012419
:102AC0008C40A3B2048CDD43ADB22C400484048C52
:102AD00002FA01F5ADB22C43048430BD30B50023B9
:102AE00004248C40A3B2048CDD43ADB22C4004849A
:102AF000048C02FA01F5ADB22C43048430BD70B5EC
:102B00000023002403461846183301258D40ACB23B
:102B1000058CE643B6B23540058409B1082909D1D0
:102B200003EB61031D6825F070051D601D681543EA
:102B30001D600CE00D1FADB203EB65031D6825F4AD
:102B4000E0451D601D68160645EA16451D6070BD0E
:102B500021B1028842F00202028004E002884FF6AE
:102B6000FD731A400280704721B1028842F00402CE
:102B7000028004E002884FF6FB731A40028070471F
:102B800021B1828842F08002828004E082884FF680
:102B90007F731A408280704702884FF6F7731A409D
:102BA000028002880A430280704782884FF68F7342
:102BB0001A40828082880A438280704702894FF6D9
:102BC000F8731A40028102890A4302817047028920
:102BD0004FF67F731A40028102890A4302817047CF
:102BE000818470478185704781867047018770476F
:102BF00081877047A0F84010704702884FF6FF4366
:102C00001A40028002880A43028070470146888E7B
:102C100070470146088F70470146888F704701460C
:102C2000B1F8400070470146888C70470146088D16
:102C3000704702460020138A0B4201D0012000E0B9
:102C400000207047CA430282704730B50246002018
:102C500000230024158A05EA0103958905EA010489
:102C600013B10CB1012000E0002030BDCA43028244
:102C7000704770470FB4054A054910B503AB794456
:102C8000029800F010F810BC5DF814FBA040002082
:102C90001DE4FFFF704770477047704701694A1C89
:102CA00002610878704710B50C46194690B0CDE91E
:102CB000024200220692044A7A44CDE9042001A887
:102CC00000F004F810B010BDE1FFFFFF2DE9F04166
:102CD00006460024D0E90178C56802E04146B847BD
:102CE000641C3046A8470028F8D12046BDE8F08192
:102CF000754600F029F8AE4605006946534620F0B7
:102D00000700854618B020B5FEF778FABDE82040E8
:102D10004FF000064FF000074FF000084FF0000B97
:102D200021F00701AC46ACE8C009ACE8C009ACE84A
:102D3000C009ACE8C0098D4670470446AFF3008077
:102D40002046FDF71CFA000000487047A041002013
:102D50003A044010121432801716180419021A7A15
:102D6000030A0C0C15003E0070007101721173090A
:102D7000A20211007A207B1C7C287D3C7E557F6856
:102D8000807681808288838F849685A386AF87C46E
:102D900088D789E813E0000010000D001420A50575
:102DA000AB072475256326A59F78A068A103A6DF3D
:102DB000A7DFA8F0A990AA9413E50E610F4B1602A5
:102DC0001E27210222912907330B350B371D38713D
:102DD000392A3C784D404E20695D6B4074198D4F07
:102DE0008E008F0090009100920096009A80B0842F
:102DF000B10CB20EB382B80A431444F045344658BD
:102E00004728483A59885A885B445C675D495E0E9A
:102E1000640465206605940495086C0A6D554F801E
:102E2000508051005222535E548009036E116F9FEF
:102E300055005640578000000000000000000000D0
:102E40000000000000000000000000000000000082
:102E50000000000000000000000000000000000072
:102E60000000000000000000000000000000000062
:102E70000000000000000000000000000000000052
:102E80000000000000000000000000000000000042
:102E90000000000000000000000000000000000032
:102EA0000000000000000000C82E002000400020AC
:102EB000B800000028010020802F0020B84000202A
:102EC00048070000440100200000000000A24A045E
:102ED00000000000000000000102030406070809CA
:102EE000163A173A183A193A1A3A563B573B583B92
:102EF000593B5A3B963C973C983C993C9A3CD63D72
:102F0000D73DD83DD93DDA3D0A7D0B7D0C7D0D7D49
:102F10004A7E4B7E4C7E4D7E8A7F8B7F8C7F8D7F61
:102F2000CA80CB80CC80CD800A820B820C820D823D
:102F3000D6CED7CED8CED9CEDACE16D017D018D09E
:102F400019D01AD056D157D158D159D15AD196D279
:102F500097D298D299D29AD2FFFFFFFFFFFFFFFFCF
:102F60000000000000000000000000000000000061
:102F7000010203040102030406070809020406080B
:04000005200000EDEA
:00000001FF
